{
  "_format": "hh-sol-artifact-1",
  "contractName": "Forwarder",
  "sourceName": "contracts/public/Forwarder.sol",
  "abi": [
    {
      "inputs": [],
      "stateMutability": "nonpayable",
      "type": "constructor"
    },
    {
      "inputs": [
        {
          "internalType": "address[]",
          "name": "_newAdmins",
          "type": "address[]"
        }
      ],
      "name": "addAdmins",
      "outputs": [],
      "stateMutability": "nonpayable",
      "type": "function"
    },
    {
      "inputs": [
        {
          "internalType": "address",
          "name": "_deleteAdmin",
          "type": "address"
        }
      ],
      "name": "deleteAdmin",
      "outputs": [],
      "stateMutability": "nonpayable",
      "type": "function"
    },
    {
      "inputs": [
        {
          "components": [
            {
              "internalType": "address",
              "name": "from",
              "type": "address"
            },
            {
              "internalType": "address",
              "name": "to",
              "type": "address"
            },
            {
              "internalType": "uint256",
              "name": "value",
              "type": "uint256"
            },
            {
              "internalType": "uint256",
              "name": "gas",
              "type": "uint256"
            },
            {
              "internalType": "uint256",
              "name": "nonce",
              "type": "uint256"
            },
            {
              "internalType": "bytes",
              "name": "data",
              "type": "bytes"
            }
          ],
          "internalType": "struct Forwarder.ForwardRequest",
          "name": "req",
          "type": "tuple"
        },
        {
          "internalType": "bytes",
          "name": "signature",
          "type": "bytes"
        }
      ],
      "name": "execute",
      "outputs": [
        {
          "internalType": "bool",
          "name": "",
          "type": "bool"
        },
        {
          "internalType": "bytes",
          "name": "",
          "type": "bytes"
        }
      ],
      "stateMutability": "payable",
      "type": "function"
    },
    {
      "inputs": [
        {
          "internalType": "address",
          "name": "from",
          "type": "address"
        }
      ],
      "name": "getNonce",
      "outputs": [
        {
          "internalType": "uint256",
          "name": "",
          "type": "uint256"
        }
      ],
      "stateMutability": "view",
      "type": "function"
    },
    {
      "inputs": [
        {
          "internalType": "address",
          "name": "_address",
          "type": "address"
        }
      ],
      "name": "isAdmin",
      "outputs": [
        {
          "internalType": "bool",
          "name": "",
          "type": "bool"
        }
      ],
      "stateMutability": "view",
      "type": "function"
    },
    {
      "inputs": [
        {
          "internalType": "address",
          "name": "",
          "type": "address"
        }
      ],
      "name": "targetContracts",
      "outputs": [
        {
          "internalType": "bool",
          "name": "",
          "type": "bool"
        }
      ],
      "stateMutability": "view",
      "type": "function"
    },
    {
      "inputs": [
        {
          "internalType": "address",
          "name": "",
          "type": "address"
        },
        {
          "internalType": "bytes4",
          "name": "",
          "type": "bytes4"
        }
      ],
      "name": "targetMethods",
      "outputs": [
        {
          "internalType": "bool",
          "name": "",
          "type": "bool"
        }
      ],
      "stateMutability": "view",
      "type": "function"
    },
    {
      "inputs": [
        {
          "components": [
            {
              "internalType": "address",
              "name": "from",
              "type": "address"
            },
            {
              "internalType": "address",
              "name": "to",
              "type": "address"
            },
            {
              "internalType": "uint256",
              "name": "value",
              "type": "uint256"
            },
            {
              "internalType": "uint256",
              "name": "gas",
              "type": "uint256"
            },
            {
              "internalType": "uint256",
              "name": "nonce",
              "type": "uint256"
            },
            {
              "internalType": "bytes",
              "name": "data",
              "type": "bytes"
            }
          ],
          "internalType": "struct Forwarder.ForwardRequest",
          "name": "req",
          "type": "tuple"
        },
        {
          "internalType": "bytes",
          "name": "signature",
          "type": "bytes"
        }
      ],
      "name": "verify",
      "outputs": [
        {
          "internalType": "bool",
          "name": "",
          "type": "bool"
        }
      ],
      "stateMutability": "view",
      "type": "function"
    },
    {
      "inputs": [
        {
          "internalType": "address",
          "name": "target",
          "type": "address"
        },
        {
          "internalType": "bytes4",
          "name": "method",
          "type": "bytes4"
        },
        {
          "internalType": "bool",
          "name": "isAllowed",
          "type": "bool"
        }
      ],
      "name": "whitelistMethod",
      "outputs": [],
      "stateMutability": "nonpayable",
      "type": "function"
    },
    {
      "inputs": [
        {
          "internalType": "address",
          "name": "target",
          "type": "address"
        },
        {
          "internalType": "bool",
          "name": "isAllowed",
          "type": "bool"
        }
      ],
      "name": "whitelistTarget",
      "outputs": [],
      "stateMutability": "nonpayable",
      "type": "function"
    }
  ],
  "bytecode": "0x6101406040523480156200001257600080fd5b506040518060400160405280600981526020017f466f7277617264657200000000000000000000000000000000000000000000008152506040518060400160405280600581526020017f302e302e3100000000000000000000000000000000000000000000000000000081525060008280519060200120905060008280519060200120905060007f8b73c3c69bb8fe3d512ecc4cf759cc79239f7b179b0ffacaa9a75d522b39400f90508260e081815250508161010081815250504660a08181525050620000e88184846200018e60201b60201c565b608081815250503073ffffffffffffffffffffffffffffffffffffffff1660c08173ffffffffffffffffffffffffffffffffffffffff1681525050806101208181525050505050505060016000803373ffffffffffffffffffffffffffffffffffffffff1673ffffffffffffffffffffffffffffffffffffffff16815260200190815260200160002060006101000a81548160ff021916908315150217905550620002a2565b60008383834630604051602001620001ab95949392919062000245565b6040516020818303038152906040528051906020012090509392505050565b6000819050919050565b620001df81620001ca565b82525050565b6000819050919050565b620001fa81620001e5565b82525050565b600073ffffffffffffffffffffffffffffffffffffffff82169050919050565b60006200022d8262000200565b9050919050565b6200023f8162000220565b82525050565b600060a0820190506200025c6000830188620001d4565b6200026b6020830187620001d4565b6200027a6040830186620001d4565b620002896060830185620001ef565b62000298608083018462000234565b9695505050505050565b60805160a05160c05160e0516101005161012051611fcf620002f26000396000610e8b01526000610ecd01526000610eac01526000610de101526000610e3701526000610e600152611fcf6000f3fe6080604052600436106100915760003560e01c8063997d039111610059578063997d0391146101935780639c54df64146101d0578063bc6d1b4c146101f9578063bf5d3bdb14610236578063e1838f8d1461027357610091565b8063122560541461009657806324d7806c146100bf57806327e1f7df146100fc5780632d0335ab1461012557806347153f8214610162575b600080fd5b3480156100a257600080fd5b506100bd60048036038101906100b891906112a7565b61029c565b005b3480156100cb57600080fd5b506100e660048036038101906100e191906112e7565b610382565b6040516100f39190611323565b60405180910390f35b34801561010857600080fd5b50610123600480360381019061011e91906112e7565b6103d7565b005b34801561013157600080fd5b5061014c600480360381019061014791906112e7565b6104bc565b6040516101599190611357565b60405180910390f35b61017c600480360381019061017791906113fb565b610505565b60405161018a929190611507565b60405180910390f35b34801561019f57600080fd5b506101ba60048036038101906101b591906112e7565b6106b1565b6040516101c79190611323565b60405180910390f35b3480156101dc57600080fd5b506101f760048036038101906101f29190611675565b6106d1565b005b34801561020557600080fd5b50610220600480360381019061021b9190611716565b610888565b60405161022d9190611323565b60405180910390f35b34801561024257600080fd5b5061025d600480360381019061025891906113fb565b6108b7565b60405161026a9190611323565b60405180910390f35b34801561027f57600080fd5b5061029a60048036038101906102959190611756565b610be0565b005b6000803373ffffffffffffffffffffffffffffffffffffffff1673ffffffffffffffffffffffffffffffffffffffff16815260200190815260200160002060009054906101000a900460ff16610327576040517f08c379a000000000000000000000000000000000000000000000000000000000815260040161031e90611806565b60405180910390fd5b80600160008473ffffffffffffffffffffffffffffffffffffffff1673ffffffffffffffffffffffffffffffffffffffff16815260200190815260200160002060006101000a81548160ff0219169083151502179055505050565b60008060008373ffffffffffffffffffffffffffffffffffffffff1673ffffffffffffffffffffffffffffffffffffffff16815260200190815260200160002060009054906101000a900460ff169050919050565b6000803373ffffffffffffffffffffffffffffffffffffffff1673ffffffffffffffffffffffffffffffffffffffff16815260200190815260200160002060009054906101000a900460ff16610462576040517f08c379a000000000000000000000000000000000000000000000000000000000815260040161045990611806565b60405180910390fd5b60008060008373ffffffffffffffffffffffffffffffffffffffff1673ffffffffffffffffffffffffffffffffffffffff16815260200190815260200160002060006101000a81548160ff02191690831515021790555050565b6000600360008373ffffffffffffffffffffffffffffffffffffffff1673ffffffffffffffffffffffffffffffffffffffff168152602001908152602001600020549050919050565b600060606105148585856108b7565b610553576040517f08c379a000000000000000000000000000000000000000000000000000000000815260040161054a90611898565b60405180910390fd5b6001856080013561056491906118e7565b6003600087600001602081019061057b91906112e7565b73ffffffffffffffffffffffffffffffffffffffff1673ffffffffffffffffffffffffffffffffffffffff168152602001908152602001600020819055506000808660200160208101906105cf91906112e7565b73ffffffffffffffffffffffffffffffffffffffff1687606001358860400135898060a001906105ff919061192a565b8b600001602081019061061291906112e7565b60405160200161062493929190611a14565b6040516020818303038152906040526040516106409190611a6f565b600060405180830381858888f193505050503d806000811461067e576040519150601f19603f3d011682016040523d82523d6000602084013e610683565b606091505b5091509150603f87606001356106999190611ab5565b5a116106a157fe5b8181935093505050935093915050565b60016020528060005260406000206000915054906101000a900460ff1681565b6000803373ffffffffffffffffffffffffffffffffffffffff1673ffffffffffffffffffffffffffffffffffffffff16815260200190815260200160002060009054906101000a900460ff1661075c576040517f08c379a000000000000000000000000000000000000000000000000000000000815260040161075390611806565b60405180910390fd5b600081519050600081116107a5576040517f08c379a000000000000000000000000000000000000000000000000000000000815260040161079c90611b32565b60405180910390fd5b60005b818110156108835760008382815181106107c5576107c4611b52565b5b602002602001015190506000808273ffffffffffffffffffffffffffffffffffffffff1673ffffffffffffffffffffffffffffffffffffffff16815260200190815260200160002060009054906101000a900460ff166108775760016000808373ffffffffffffffffffffffffffffffffffffffff1673ffffffffffffffffffffffffffffffffffffffff16815260200190815260200160002060006101000a81548160ff0219169083151502179055505b816001019150506107a8565b505050565b60026020528160005260406000206020528060005260406000206000915091509054906101000a900460ff1681565b6000806109c084848080601f016020809104026020016040519081016040528093929190818152602001838380828437600081840152601f19601f820116905080830192505050505050506109b27fdd8f4b70b0f4393e889bd39128a30628a78b61816a9eb8199759e7a349657e4888600001602081019061093991906112e7565b89602001602081019061094c91906112e7565b8a604001358b606001358c608001358d8060a0019061096b919061192a565b604051610979929190611b81565b60405180910390206040516020016109979796959493929190611bc2565b60405160208183030381529060405280519060200120610d16565b610d3090919063ffffffff16565b905060008560200160208101906109d791906112e7565b90506000610a38878060a001906109ee919061192a565b8080601f016020809104026020016040519081016040528093929190818152602001838380828437600081840152601f19601f820116905080830192505050505050506000610d57565b9050866080013560036000896000016020810190610a5691906112e7565b73ffffffffffffffffffffffffffffffffffffffff1673ffffffffffffffffffffffffffffffffffffffff16815260200190815260200160002054148015610adb5750866000016020810190610aac91906112e7565b73ffffffffffffffffffffffffffffffffffffffff168373ffffffffffffffffffffffffffffffffffffffff16145b8015610b305750600160008373ffffffffffffffffffffffffffffffffffffffff1673ffffffffffffffffffffffffffffffffffffffff16815260200190815260200160002060009054906101000a900460ff165b8015610bd45750600260008373ffffffffffffffffffffffffffffffffffffffff1673ffffffffffffffffffffffffffffffffffffffff1681526020019081526020016000206000827bffffffffffffffffffffffffffffffffffffffffffffffffffffffff19167bffffffffffffffffffffffffffffffffffffffffffffffffffffffff1916815260200190815260200160002060009054906101000a900460ff165b93505050509392505050565b6000803373ffffffffffffffffffffffffffffffffffffffff1673ffffffffffffffffffffffffffffffffffffffff16815260200190815260200160002060009054906101000a900460ff16610c6b576040517f08c379a0000000000000000000000000000000000000000000000000000000008152600401610c6290611806565b60405180910390fd5b80600260008573ffffffffffffffffffffffffffffffffffffffff1673ffffffffffffffffffffffffffffffffffffffff1681526020019081526020016000206000847bffffffffffffffffffffffffffffffffffffffffffffffffffffffff19167bffffffffffffffffffffffffffffffffffffffffffffffffffffffff1916815260200190815260200160002060006101000a81548160ff021916908315150217905550505050565b6000610d29610d23610ddd565b83610ef7565b9050919050565b6000806000610d3f8585610f2a565b91509150610d4c81610f7b565b819250505092915050565b6000600482610d6691906118e7565b83511015610da9576040517f08c379a0000000000000000000000000000000000000000000000000000000008152600401610da090611c7d565b60405180910390fd5b6020820183015190507fffffffff000000000000000000000000000000000000000000000000000000008116905092915050565b60007f000000000000000000000000000000000000000000000000000000000000000073ffffffffffffffffffffffffffffffffffffffff163073ffffffffffffffffffffffffffffffffffffffff16148015610e5957507f000000000000000000000000000000000000000000000000000000000000000046145b15610e86577f00000000000000000000000000000000000000000000000000000000000000009050610ef4565b610ef17f00000000000000000000000000000000000000000000000000000000000000007f00000000000000000000000000000000000000000000000000000000000000007f00000000000000000000000000000000000000000000000000000000000000006110e1565b90505b90565b60008282604051602001610f0c929190611d15565b60405160208183030381529060405280519060200120905092915050565b6000806041835103610f6b5760008060006020860151925060408601519150606086015160001a9050610f5f8782858561111b565b94509450505050610f74565b60006002915091505b9250929050565b60006004811115610f8f57610f8e611d4c565b5b816004811115610fa257610fa1611d4c565b5b03156110de5760016004811115610fbc57610fbb611d4c565b5b816004811115610fcf57610fce611d4c565b5b0361100f576040517f08c379a000000000000000000000000000000000000000000000000000000000815260040161100690611dc7565b60405180910390fd5b6002600481111561102357611022611d4c565b5b81600481111561103657611035611d4c565b5b03611076576040517f08c379a000000000000000000000000000000000000000000000000000000000815260040161106d90611e33565b60405180910390fd5b6003600481111561108a57611089611d4c565b5b81600481111561109d5761109c611d4c565b5b036110dd576040517f08c379a00000000000000000000000000000000000000000000000000000000081526004016110d490611ec5565b60405180910390fd5b5b50565b600083838346306040516020016110fc959493929190611ee5565b6040516020818303038152906040528051906020012090509392505050565b6000807f7fffffffffffffffffffffffffffffff5d576e7357a4501ddfe92f46681b20a08360001c11156111565760006003915091506111f4565b60006001878787876040516000815260200160405260405161117b9493929190611f54565b6020604051602081039080840390855afa15801561119d573d6000803e3d6000fd5b505050602060405103519050600073ffffffffffffffffffffffffffffffffffffffff168173ffffffffffffffffffffffffffffffffffffffff16036111eb576000600192509250506111f4565b80600092509250505b94509492505050565b6000604051905090565b600080fd5b600080fd5b600073ffffffffffffffffffffffffffffffffffffffff82169050919050565b600061123c82611211565b9050919050565b61124c81611231565b811461125757600080fd5b50565b60008135905061126981611243565b92915050565b60008115159050919050565b6112848161126f565b811461128f57600080fd5b50565b6000813590506112a18161127b565b92915050565b600080604083850312156112be576112bd611207565b5b60006112cc8582860161125a565b92505060206112dd85828601611292565b9150509250929050565b6000602082840312156112fd576112fc611207565b5b600061130b8482850161125a565b91505092915050565b61131d8161126f565b82525050565b60006020820190506113386000830184611314565b92915050565b6000819050919050565b6113518161133e565b82525050565b600060208201905061136c6000830184611348565b92915050565b600080fd5b600060c0828403121561138d5761138c611372565b5b81905092915050565b600080fd5b600080fd5b600080fd5b60008083601f8401126113bb576113ba611396565b5b8235905067ffffffffffffffff8111156113d8576113d761139b565b5b6020830191508360018202830111156113f4576113f36113a0565b5b9250929050565b60008060006040848603121561141457611413611207565b5b600084013567ffffffffffffffff8111156114325761143161120c565b5b61143e86828701611377565b935050602084013567ffffffffffffffff81111561145f5761145e61120c565b5b61146b868287016113a5565b92509250509250925092565b600081519050919050565b600082825260208201905092915050565b60005b838110156114b1578082015181840152602081019050611496565b60008484015250505050565b6000601f19601f8301169050919050565b60006114d982611477565b6114e38185611482565b93506114f3818560208601611493565b6114fc816114bd565b840191505092915050565b600060408201905061151c6000830185611314565b818103602083015261152e81846114ce565b90509392505050565b7f4e487b7100000000000000000000000000000000000000000000000000000000600052604160045260246000fd5b61156f826114bd565b810181811067ffffffffffffffff8211171561158e5761158d611537565b5b80604052505050565b60006115a16111fd565b90506115ad8282611566565b919050565b600067ffffffffffffffff8211156115cd576115cc611537565b5b602082029050602081019050919050565b60006115f16115ec846115b2565b611597565b90508083825260208201905060208402830185811115611614576116136113a0565b5b835b8181101561163d5780611629888261125a565b845260208401935050602081019050611616565b5050509392505050565b600082601f83011261165c5761165b611396565b5b813561166c8482602086016115de565b91505092915050565b60006020828403121561168b5761168a611207565b5b600082013567ffffffffffffffff8111156116a9576116a861120c565b5b6116b584828501611647565b91505092915050565b60007fffffffff0000000000000000000000000000000000000000000000000000000082169050919050565b6116f3816116be565b81146116fe57600080fd5b50565b600081359050611710816116ea565b92915050565b6000806040838503121561172d5761172c611207565b5b600061173b8582860161125a565b925050602061174c85828601611701565b9150509250929050565b60008060006060848603121561176f5761176e611207565b5b600061177d8682870161125a565b935050602061178e86828701611701565b925050604061179f86828701611292565b9150509250925092565b600082825260208201905092915050565b7f41646d696e73206f6e6c79000000000000000000000000000000000000000000600082015250565b60006117f0600b836117a9565b91506117fb826117ba565b602082019050919050565b6000602082019050818103600083015261181f816117e3565b9050919050565b7f466f727761726465723a207369676e617475726520646f6573206e6f74206d6160008201527f7463682072657175657374000000000000000000000000000000000000000000602082015250565b6000611882602b836117a9565b915061188d82611826565b604082019050919050565b600060208201905081810360008301526118b181611875565b9050919050565b7f4e487b7100000000000000000000000000000000000000000000000000000000600052601160045260246000fd5b60006118f28261133e565b91506118fd8361133e565b9250828201905080821115611915576119146118b8565b5b92915050565b600080fd5b600080fd5b600080fd5b600080833560016020038436030381126119475761194661191b565b5b80840192508235915067ffffffffffffffff82111561196957611968611920565b5b60208301925060018202360383131561198557611984611925565b5b509250929050565b600081905092915050565b82818337600083830152505050565b60006119b3838561198d565b93506119c0838584611998565b82840190509392505050565b60008160601b9050919050565b60006119e4826119cc565b9050919050565b60006119f6826119d9565b9050919050565b611a0e611a0982611231565b6119eb565b82525050565b6000611a218285876119a7565b9150611a2d82846119fd565b601482019150819050949350505050565b6000611a4982611477565b611a53818561198d565b9350611a63818560208601611493565b80840191505092915050565b6000611a7b8284611a3e565b915081905092915050565b7f4e487b7100000000000000000000000000000000000000000000000000000000600052601260045260246000fd5b6000611ac08261133e565b9150611acb8361133e565b925082611adb57611ada611a86565b5b828204905092915050565b7f4e656564206f6e65206f72206d6f7265206e65772061646d696e730000000000600082015250565b6000611b1c601b836117a9565b9150611b2782611ae6565b602082019050919050565b60006020820190508181036000830152611b4b81611b0f565b9050919050565b7f4e487b7100000000000000000000000000000000000000000000000000000000600052603260045260246000fd5b6000611b8e8284866119a7565b91508190509392505050565b6000819050919050565b611bad81611b9a565b82525050565b611bbc81611231565b82525050565b600060e082019050611bd7600083018a611ba4565b611be46020830189611bb3565b611bf16040830188611bb3565b611bfe6060830187611348565b611c0b6080830186611348565b611c1860a0830185611348565b611c2560c0830184611ba4565b98975050505050505050565b7f466f727761726465723a206461746120746f6f2073686f727400000000000000600082015250565b6000611c676019836117a9565b9150611c7282611c31565b602082019050919050565b60006020820190508181036000830152611c9681611c5a565b9050919050565b600081905092915050565b7f1901000000000000000000000000000000000000000000000000000000000000600082015250565b6000611cde600283611c9d565b9150611ce982611ca8565b600282019050919050565b6000819050919050565b611d0f611d0a82611b9a565b611cf4565b82525050565b6000611d2082611cd1565b9150611d2c8285611cfe565b602082019150611d3c8284611cfe565b6020820191508190509392505050565b7f4e487b7100000000000000000000000000000000000000000000000000000000600052602160045260246000fd5b7f45434453413a20696e76616c6964207369676e61747572650000000000000000600082015250565b6000611db16018836117a9565b9150611dbc82611d7b565b602082019050919050565b60006020820190508181036000830152611de081611da4565b9050919050565b7f45434453413a20696e76616c6964207369676e6174757265206c656e67746800600082015250565b6000611e1d601f836117a9565b9150611e2882611de7565b602082019050919050565b60006020820190508181036000830152611e4c81611e10565b9050919050565b7f45434453413a20696e76616c6964207369676e6174757265202773272076616c60008201527f7565000000000000000000000000000000000000000000000000000000000000602082015250565b6000611eaf6022836117a9565b9150611eba82611e53565b604082019050919050565b60006020820190508181036000830152611ede81611ea2565b9050919050565b600060a082019050611efa6000830188611ba4565b611f076020830187611ba4565b611f146040830186611ba4565b611f216060830185611348565b611f2e6080830184611bb3565b9695505050505050565b600060ff82169050919050565b611f4e81611f38565b82525050565b6000608082019050611f696000830187611ba4565b611f766020830186611f45565b611f836040830185611ba4565b611f906060830184611ba4565b9594505050505056fea26469706673582212209b4ae2785f2aabd5d132a1a7fdbe2c081286d6dcf286b6a49248619a0234494464736f6c63430008110033",
  "linkReferences": {},
  "deployedLinkReferences": {}
}