{
  "_format": "hh-sol-artifact-1",
  "contractName": "Forwarder",
  "sourceName": "contracts/Forwarder.sol",
  "abi": [
    {
      "inputs": [],
      "stateMutability": "nonpayable",
      "type": "constructor"
    },
    {
      "inputs": [],
      "name": "ECDSAInvalidSignature",
      "type": "error"
    },
    {
      "inputs": [
        {
          "internalType": "uint256",
          "name": "length",
          "type": "uint256"
        }
      ],
      "name": "ECDSAInvalidSignatureLength",
      "type": "error"
    },
    {
      "inputs": [
        {
          "internalType": "bytes32",
          "name": "s",
          "type": "bytes32"
        }
      ],
      "name": "ECDSAInvalidSignatureS",
      "type": "error"
    },
    {
      "inputs": [],
      "name": "InvalidShortString",
      "type": "error"
    },
    {
      "inputs": [
        {
          "internalType": "string",
          "name": "str",
          "type": "string"
        }
      ],
      "name": "StringTooLong",
      "type": "error"
    },
    {
      "anonymous": false,
      "inputs": [],
      "name": "EIP712DomainChanged",
      "type": "event"
    },
    {
      "inputs": [
        {
          "internalType": "address[]",
          "name": "_newAdmins",
          "type": "address[]"
        }
      ],
      "name": "addAdmins",
      "outputs": [],
      "stateMutability": "nonpayable",
      "type": "function"
    },
    {
      "inputs": [
        {
          "internalType": "address",
          "name": "_deleteAdmin",
          "type": "address"
        }
      ],
      "name": "deleteAdmin",
      "outputs": [],
      "stateMutability": "nonpayable",
      "type": "function"
    },
    {
      "inputs": [],
      "name": "eip712Domain",
      "outputs": [
        {
          "internalType": "bytes1",
          "name": "fields",
          "type": "bytes1"
        },
        {
          "internalType": "string",
          "name": "name",
          "type": "string"
        },
        {
          "internalType": "string",
          "name": "version",
          "type": "string"
        },
        {
          "internalType": "uint256",
          "name": "chainId",
          "type": "uint256"
        },
        {
          "internalType": "address",
          "name": "verifyingContract",
          "type": "address"
        },
        {
          "internalType": "bytes32",
          "name": "salt",
          "type": "bytes32"
        },
        {
          "internalType": "uint256[]",
          "name": "extensions",
          "type": "uint256[]"
        }
      ],
      "stateMutability": "view",
      "type": "function"
    },
    {
      "inputs": [
        {
          "components": [
            {
              "internalType": "address",
              "name": "from",
              "type": "address"
            },
            {
              "internalType": "address",
              "name": "to",
              "type": "address"
            },
            {
              "internalType": "uint256",
              "name": "value",
              "type": "uint256"
            },
            {
              "internalType": "uint256",
              "name": "gas",
              "type": "uint256"
            },
            {
              "internalType": "uint256",
              "name": "nonce",
              "type": "uint256"
            },
            {
              "internalType": "bytes",
              "name": "data",
              "type": "bytes"
            }
          ],
          "internalType": "struct Forwarder.ForwardRequest",
          "name": "req",
          "type": "tuple"
        },
        {
          "internalType": "bytes",
          "name": "signature",
          "type": "bytes"
        }
      ],
      "name": "execute",
      "outputs": [
        {
          "internalType": "bool",
          "name": "",
          "type": "bool"
        },
        {
          "internalType": "bytes",
          "name": "",
          "type": "bytes"
        }
      ],
      "stateMutability": "payable",
      "type": "function"
    },
    {
      "inputs": [
        {
          "internalType": "address",
          "name": "from",
          "type": "address"
        }
      ],
      "name": "getNonce",
      "outputs": [
        {
          "internalType": "uint256",
          "name": "",
          "type": "uint256"
        }
      ],
      "stateMutability": "view",
      "type": "function"
    },
    {
      "inputs": [
        {
          "internalType": "address",
          "name": "_address",
          "type": "address"
        }
      ],
      "name": "isAdmin",
      "outputs": [
        {
          "internalType": "bool",
          "name": "",
          "type": "bool"
        }
      ],
      "stateMutability": "view",
      "type": "function"
    },
    {
      "inputs": [
        {
          "internalType": "address",
          "name": "",
          "type": "address"
        }
      ],
      "name": "targetContracts",
      "outputs": [
        {
          "internalType": "bool",
          "name": "",
          "type": "bool"
        }
      ],
      "stateMutability": "view",
      "type": "function"
    },
    {
      "inputs": [
        {
          "internalType": "address",
          "name": "",
          "type": "address"
        },
        {
          "internalType": "bytes4",
          "name": "",
          "type": "bytes4"
        }
      ],
      "name": "targetMethods",
      "outputs": [
        {
          "internalType": "bool",
          "name": "",
          "type": "bool"
        }
      ],
      "stateMutability": "view",
      "type": "function"
    },
    {
      "inputs": [
        {
          "components": [
            {
              "internalType": "address",
              "name": "from",
              "type": "address"
            },
            {
              "internalType": "address",
              "name": "to",
              "type": "address"
            },
            {
              "internalType": "uint256",
              "name": "value",
              "type": "uint256"
            },
            {
              "internalType": "uint256",
              "name": "gas",
              "type": "uint256"
            },
            {
              "internalType": "uint256",
              "name": "nonce",
              "type": "uint256"
            },
            {
              "internalType": "bytes",
              "name": "data",
              "type": "bytes"
            }
          ],
          "internalType": "struct Forwarder.ForwardRequest",
          "name": "req",
          "type": "tuple"
        },
        {
          "internalType": "bytes",
          "name": "signature",
          "type": "bytes"
        }
      ],
      "name": "verify",
      "outputs": [
        {
          "internalType": "bool",
          "name": "",
          "type": "bool"
        }
      ],
      "stateMutability": "view",
      "type": "function"
    },
    {
      "inputs": [
        {
          "internalType": "address",
          "name": "target",
          "type": "address"
        },
        {
          "internalType": "bytes4",
          "name": "method",
          "type": "bytes4"
        },
        {
          "internalType": "bool",
          "name": "isAllowed",
          "type": "bool"
        }
      ],
      "name": "whitelistMethod",
      "outputs": [],
      "stateMutability": "nonpayable",
      "type": "function"
    },
    {
      "inputs": [
        {
          "internalType": "address",
          "name": "target",
          "type": "address"
        },
        {
          "internalType": "bool",
          "name": "isAllowed",
          "type": "bool"
        }
      ],
      "name": "whitelistTarget",
      "outputs": [],
      "stateMutability": "nonpayable",
      "type": "function"
    }
  ],
  "bytecode": "0x6101606040523480156200001257600080fd5b506040518060400160405280600981526020017f466f7277617264657200000000000000000000000000000000000000000000008152506040518060400160405280600581526020017f302e302e31000000000000000000000000000000000000000000000000000000815250620000956000836200018d60201b90919060201c565b6101208181525050620000b36001826200018d60201b90919060201c565b6101408181525050818051906020012060e08181525050808051906020012061010081815250504660a08181525050620000f2620001e560201b60201c565b608081815250503073ffffffffffffffffffffffffffffffffffffffff1660c08173ffffffffffffffffffffffffffffffffffffffff168152505050506001600260003373ffffffffffffffffffffffffffffffffffffffff1673ffffffffffffffffffffffffffffffffffffffff16815260200190815260200160002060006101000a81548160ff0219169083151502179055506200083d565b6000602083511015620001b357620001ab836200024260201b60201c565b9050620001df565b82620001c583620002af60201b60201c565b6000019081620001d6919062000533565b5060ff60001b90505b92915050565b60007f8b73c3c69bb8fe3d512ecc4cf759cc79239f7b179b0ffacaa9a75d522b39400f60e051610100514630604051602001620002279594939291906200068b565b60405160208183030381529060405280519060200120905090565b600080829050601f815111156200029257826040517f305a27a900000000000000000000000000000000000000000000000000000000815260040162000289919062000777565b60405180910390fd5b805181620002a090620007cd565b60001c1760001b915050919050565b6000819050919050565b600081519050919050565b7f4e487b7100000000000000000000000000000000000000000000000000000000600052604160045260246000fd5b7f4e487b7100000000000000000000000000000000000000000000000000000000600052602260045260246000fd5b600060028204905060018216806200033b57607f821691505b602082108103620003515762000350620002f3565b5b50919050565b60008190508160005260206000209050919050565b60006020601f8301049050919050565b600082821b905092915050565b600060088302620003bb7fffffffffffffffffffffffffffffffffffffffffffffffffffffffffffffffff826200037c565b620003c786836200037c565b95508019841693508086168417925050509392505050565b6000819050919050565b6000819050919050565b6000620004146200040e6200040884620003df565b620003e9565b620003df565b9050919050565b6000819050919050565b6200043083620003f3565b620004486200043f826200041b565b84845462000389565b825550505050565b600090565b6200045f62000450565b6200046c81848462000425565b505050565b5b8181101562000494576200048860008262000455565b60018101905062000472565b5050565b601f821115620004e357620004ad8162000357565b620004b8846200036c565b81016020851015620004c8578190505b620004e0620004d7856200036c565b83018262000471565b50505b505050565b600082821c905092915050565b60006200050860001984600802620004e8565b1980831691505092915050565b6000620005238383620004f5565b9150826002028217905092915050565b6200053e82620002b9565b67ffffffffffffffff8111156200055a5762000559620002c4565b5b62000566825462000322565b6200057382828562000498565b600060209050601f831160018114620005ab576000841562000596578287015190505b620005a2858262000515565b86555062000612565b601f198416620005bb8662000357565b60005b82811015620005e557848901518255600182019150602085019450602081019050620005be565b8683101562000605578489015162000601601f891682620004f5565b8355505b6001600288020188555050505b505050505050565b6000819050919050565b6200062f816200061a565b82525050565b6200064081620003df565b82525050565b600073ffffffffffffffffffffffffffffffffffffffff82169050919050565b6000620006738262000646565b9050919050565b620006858162000666565b82525050565b600060a082019050620006a2600083018862000624565b620006b1602083018762000624565b620006c0604083018662000624565b620006cf606083018562000635565b620006de60808301846200067a565b9695505050505050565b600082825260208201905092915050565b60005b8381101562000719578082015181840152602081019050620006fc565b60008484015250505050565b6000601f19601f8301169050919050565b60006200074382620002b9565b6200074f8185620006e8565b935062000761818560208601620006f9565b6200076c8162000725565b840191505092915050565b6000602082019050818103600083015262000793818462000736565b905092915050565b600081519050919050565b6000819050602082019050919050565b6000620007c482516200061a565b80915050919050565b6000620007da826200079b565b82620007e684620007a6565b9050620007f381620007b6565b925060208210156200083657620008317fffffffffffffffffffffffffffffffffffffffffffffffffffffffffffffffff836020036008026200037c565b831692505b5050919050565b60805160a05160c05160e0516101005161012051610140516123c3620008986000396000610e8801526000610e4d015260006113a8015260006113870152600061103a01526000611090015260006110b901526123c36000f3fe60806040526004361061009c5760003560e01c806384b0196e1161006457806384b0196e1461019e578063997d0391146101cf5780639c54df641461020c578063bc6d1b4c14610235578063bf5d3bdb14610272578063e1838f8d146102af5761009c565b806312256054146100a157806324d7806c146100ca57806327e1f7df146101075780632d0335ab1461013057806347153f821461016d575b600080fd5b3480156100ad57600080fd5b506100c860048036038101906100c391906115e6565b6102d8565b005b3480156100d657600080fd5b506100f160048036038101906100ec9190611626565b6103bf565b6040516100fe9190611662565b60405180910390f35b34801561011357600080fd5b5061012e60048036038101906101299190611626565b610415565b005b34801561013c57600080fd5b5061015760048036038101906101529190611626565b6104fc565b6040516101649190611696565b60405180910390f35b6101876004803603810190610182919061173a565b610545565b604051610195929190611846565b60405180910390f35b3480156101aa57600080fd5b506101b3610731565b6040516101c697969594939291906119ec565b60405180910390f35b3480156101db57600080fd5b506101f660048036038101906101f19190611626565b6107db565b6040516102039190611662565b60405180910390f35b34801561021857600080fd5b50610233600480360381019061022e9190611bae565b6107fb565b005b34801561024157600080fd5b5061025c60048036038101906102579190611c4f565b6109b5565b6040516102699190611662565b60405180910390f35b34801561027e57600080fd5b506102996004803603810190610294919061173a565b6109e4565b6040516102a69190611662565b60405180910390f35b3480156102bb57600080fd5b506102d660048036038101906102d19190611c8f565b610d0d565b005b600260003373ffffffffffffffffffffffffffffffffffffffff1673ffffffffffffffffffffffffffffffffffffffff16815260200190815260200160002060009054906101000a900460ff16610364576040517f08c379a000000000000000000000000000000000000000000000000000000000815260040161035b90611d2e565b60405180910390fd5b80600360008473ffffffffffffffffffffffffffffffffffffffff1673ffffffffffffffffffffffffffffffffffffffff16815260200190815260200160002060006101000a81548160ff0219169083151502179055505050565b6000600260008373ffffffffffffffffffffffffffffffffffffffff1673ffffffffffffffffffffffffffffffffffffffff16815260200190815260200160002060009054906101000a900460ff169050919050565b600260003373ffffffffffffffffffffffffffffffffffffffff1673ffffffffffffffffffffffffffffffffffffffff16815260200190815260200160002060009054906101000a900460ff166104a1576040517f08c379a000000000000000000000000000000000000000000000000000000000815260040161049890611d2e565b60405180910390fd5b6000600260008373ffffffffffffffffffffffffffffffffffffffff1673ffffffffffffffffffffffffffffffffffffffff16815260200190815260200160002060006101000a81548160ff02191690831515021790555050565b6000600560008373ffffffffffffffffffffffffffffffffffffffff1673ffffffffffffffffffffffffffffffffffffffff168152602001908152602001600020549050919050565b600060606105548585856109e4565b610593576040517f08c379a000000000000000000000000000000000000000000000000000000000815260040161058a90611dc0565b60405180910390fd5b600185608001356105a49190611e0f565b600560008760000160208101906105bb9190611626565b73ffffffffffffffffffffffffffffffffffffffff1673ffffffffffffffffffffffffffffffffffffffff1681526020019081526020016000208190555060008086602001602081019061060f9190611626565b73ffffffffffffffffffffffffffffffffffffffff1687606001358860400135898060a0019061063f9190611e52565b8b60000160208101906106529190611626565b60405160200161066493929190611f3c565b6040516020818303038152906040526040516106809190611f97565b600060405180830381858888f193505050503d80600081146106be576040519150601f19603f3d011682016040523d82523d6000602084013e6106c3565b606091505b509150915081610708576040517f08c379a00000000000000000000000000000000000000000000000000000000081526004016106ff90612020565b60405180910390fd5b603f8760600135610719919061206f565b5a1161072157fe5b8181935093505050935093915050565b600060608060008060006060610745610e44565b61074d610e7f565b46306000801b600067ffffffffffffffff81111561076e5761076d611a70565b5b60405190808252806020026020018201604052801561079c5781602001602082028036833780820191505090505b507f0f00000000000000000000000000000000000000000000000000000000000000959493929190965096509650965096509650965090919293949596565b60036020528060005260406000206000915054906101000a900460ff1681565b600260003373ffffffffffffffffffffffffffffffffffffffff1673ffffffffffffffffffffffffffffffffffffffff16815260200190815260200160002060009054906101000a900460ff16610887576040517f08c379a000000000000000000000000000000000000000000000000000000000815260040161087e90611d2e565b60405180910390fd5b600081519050600081116108d0576040517f08c379a00000000000000000000000000000000000000000000000000000000081526004016108c7906120ec565b60405180910390fd5b60005b818110156109b05760008382815181106108f0576108ef61210c565b5b60200260200101519050600260008273ffffffffffffffffffffffffffffffffffffffff1673ffffffffffffffffffffffffffffffffffffffff16815260200190815260200160002060009054906101000a900460ff166109a4576001600260008373ffffffffffffffffffffffffffffffffffffffff1673ffffffffffffffffffffffffffffffffffffffff16815260200190815260200160002060006101000a81548160ff0219169083151502179055505b816001019150506108d3565b505050565b60046020528160005260406000206020528060005260406000206000915091509054906101000a900460ff1681565b600080610aed84848080601f016020809104026020016040519081016040528093929190818152602001838380828437600081840152601f19601f82011690508083019250505050505050610adf7fdd8f4b70b0f4393e889bd39128a30628a78b61816a9eb8199759e7a349657e48886000016020810190610a669190611626565b896020016020810190610a799190611626565b8a604001358b606001358c608001358d8060a00190610a989190611e52565b604051610aa692919061213b565b6040518091039020604051602001610ac49796959493929190612154565b60405160208183030381529060405280519060200120610eba565b610ed490919063ffffffff16565b90506000856020016020810190610b049190611626565b90506000610b65878060a00190610b1b9190611e52565b8080601f016020809104026020016040519081016040528093929190818152602001838380828437600081840152601f19601f820116905080830192505050505050506000610f00565b9050866080013560056000896000016020810190610b839190611626565b73ffffffffffffffffffffffffffffffffffffffff1673ffffffffffffffffffffffffffffffffffffffff16815260200190815260200160002054148015610c085750866000016020810190610bd99190611626565b73ffffffffffffffffffffffffffffffffffffffff168373ffffffffffffffffffffffffffffffffffffffff16145b8015610c5d5750600360008373ffffffffffffffffffffffffffffffffffffffff1673ffffffffffffffffffffffffffffffffffffffff16815260200190815260200160002060009054906101000a900460ff165b8015610d015750600460008373ffffffffffffffffffffffffffffffffffffffff1673ffffffffffffffffffffffffffffffffffffffff1681526020019081526020016000206000827bffffffffffffffffffffffffffffffffffffffffffffffffffffffff19167bffffffffffffffffffffffffffffffffffffffffffffffffffffffff1916815260200190815260200160002060009054906101000a900460ff165b93505050509392505050565b600260003373ffffffffffffffffffffffffffffffffffffffff1673ffffffffffffffffffffffffffffffffffffffff16815260200190815260200160002060009054906101000a900460ff16610d99576040517f08c379a0000000000000000000000000000000000000000000000000000000008152600401610d9090611d2e565b60405180910390fd5b80600460008573ffffffffffffffffffffffffffffffffffffffff1673ffffffffffffffffffffffffffffffffffffffff1681526020019081526020016000206000847bffffffffffffffffffffffffffffffffffffffffffffffffffffffff19167bffffffffffffffffffffffffffffffffffffffffffffffffffffffff1916815260200190815260200160002060006101000a81548160ff021916908315150217905550505050565b6060610e7a60007f0000000000000000000000000000000000000000000000000000000000000000610f8690919063ffffffff16565b905090565b6060610eb560017f0000000000000000000000000000000000000000000000000000000000000000610f8690919063ffffffff16565b905090565b6000610ecd610ec7611036565b836110ed565b9050919050565b600080600080610ee4868661112e565b925092509250610ef4828261118a565b82935050505092915050565b6000600482610f0f9190611e0f565b83511015610f52576040517f08c379a0000000000000000000000000000000000000000000000000000000008152600401610f499061220f565b60405180910390fd5b6020820183015190507fffffffff000000000000000000000000000000000000000000000000000000008116905092915050565b606060ff60001b8314610fa357610f9c836112ee565b9050611030565b818054610faf9061225e565b80601f0160208091040260200160405190810160405280929190818152602001828054610fdb9061225e565b80156110285780601f10610ffd57610100808354040283529160200191611028565b820191906000526020600020905b81548152906001019060200180831161100b57829003601f168201915b505050505090505b92915050565b60007f000000000000000000000000000000000000000000000000000000000000000073ffffffffffffffffffffffffffffffffffffffff163073ffffffffffffffffffffffffffffffffffffffff161480156110b257507f000000000000000000000000000000000000000000000000000000000000000046145b156110df577f000000000000000000000000000000000000000000000000000000000000000090506110ea565b6110e7611362565b90505b90565b60006040517f190100000000000000000000000000000000000000000000000000000000000081528360028201528260228201526042812091505092915050565b600080600060418451036111735760008060006020870151925060408701519150606087015160001a9050611165888285856113f8565b955095509550505050611183565b60006002855160001b9250925092505b9250925092565b6000600381111561119e5761119d61228f565b5b8260038111156111b1576111b061228f565b5b03156112ea57600160038111156111cb576111ca61228f565b5b8260038111156111de576111dd61228f565b5b03611215576040517ff645eedf00000000000000000000000000000000000000000000000000000000815260040160405180910390fd5b600260038111156112295761122861228f565b5b82600381111561123c5761123b61228f565b5b03611281578060001c6040517ffce698f70000000000000000000000000000000000000000000000000000000081526004016112789190611696565b60405180910390fd5b6003808111156112945761129361228f565b5b8260038111156112a7576112a661228f565b5b036112e957806040517fd78bce0c0000000000000000000000000000000000000000000000000000000081526004016112e091906122be565b60405180910390fd5b5b5050565b606060006112fb836114ec565b90506000602067ffffffffffffffff81111561131a57611319611a70565b5b6040519080825280601f01601f19166020018201604052801561134c5781602001600182028036833780820191505090505b5090508181528360208201528092505050919050565b60007f8b73c3c69bb8fe3d512ecc4cf759cc79239f7b179b0ffacaa9a75d522b39400f7f00000000000000000000000000000000000000000000000000000000000000007f000000000000000000000000000000000000000000000000000000000000000046306040516020016113dd9594939291906122d9565b60405160208183030381529060405280519060200120905090565b60008060007f7fffffffffffffffffffffffffffffff5d576e7357a4501ddfe92f46681b20a08460001c11156114385760006003859250925092506114e2565b60006001888888886040516000815260200160405260405161145d9493929190612348565b6020604051602081039080840390855afa15801561147f573d6000803e3d6000fd5b505050602060405103519050600073ffffffffffffffffffffffffffffffffffffffff168173ffffffffffffffffffffffffffffffffffffffff16036114d357600060016000801b935093509350506114e2565b8060008060001b935093509350505b9450945094915050565b60008060ff8360001c169050601f811115611533576040517fb3512b0c00000000000000000000000000000000000000000000000000000000815260040160405180910390fd5b80915050919050565b6000604051905090565b600080fd5b600080fd5b600073ffffffffffffffffffffffffffffffffffffffff82169050919050565b600061157b82611550565b9050919050565b61158b81611570565b811461159657600080fd5b50565b6000813590506115a881611582565b92915050565b60008115159050919050565b6115c3816115ae565b81146115ce57600080fd5b50565b6000813590506115e0816115ba565b92915050565b600080604083850312156115fd576115fc611546565b5b600061160b85828601611599565b925050602061161c858286016115d1565b9150509250929050565b60006020828403121561163c5761163b611546565b5b600061164a84828501611599565b91505092915050565b61165c816115ae565b82525050565b60006020820190506116776000830184611653565b92915050565b6000819050919050565b6116908161167d565b82525050565b60006020820190506116ab6000830184611687565b92915050565b600080fd5b600060c082840312156116cc576116cb6116b1565b5b81905092915050565b600080fd5b600080fd5b600080fd5b60008083601f8401126116fa576116f96116d5565b5b8235905067ffffffffffffffff811115611717576117166116da565b5b602083019150836001820283011115611733576117326116df565b5b9250929050565b60008060006040848603121561175357611752611546565b5b600084013567ffffffffffffffff8111156117715761177061154b565b5b61177d868287016116b6565b935050602084013567ffffffffffffffff81111561179e5761179d61154b565b5b6117aa868287016116e4565b92509250509250925092565b600081519050919050565b600082825260208201905092915050565b60005b838110156117f05780820151818401526020810190506117d5565b60008484015250505050565b6000601f19601f8301169050919050565b6000611818826117b6565b61182281856117c1565b93506118328185602086016117d2565b61183b816117fc565b840191505092915050565b600060408201905061185b6000830185611653565b818103602083015261186d818461180d565b90509392505050565b60007fff0000000000000000000000000000000000000000000000000000000000000082169050919050565b6118ab81611876565b82525050565b600081519050919050565b600082825260208201905092915050565b60006118d8826118b1565b6118e281856118bc565b93506118f28185602086016117d2565b6118fb816117fc565b840191505092915050565b61190f81611570565b82525050565b6000819050919050565b61192881611915565b82525050565b600081519050919050565b600082825260208201905092915050565b6000819050602082019050919050565b6119638161167d565b82525050565b6000611975838361195a565b60208301905092915050565b6000602082019050919050565b60006119998261192e565b6119a38185611939565b93506119ae8361194a565b8060005b838110156119df5781516119c68882611969565b97506119d183611981565b9250506001810190506119b2565b5085935050505092915050565b600060e082019050611a01600083018a6118a2565b8181036020830152611a1381896118cd565b90508181036040830152611a2781886118cd565b9050611a366060830187611687565b611a436080830186611906565b611a5060a083018561191f565b81810360c0830152611a62818461198e565b905098975050505050505050565b7f4e487b7100000000000000000000000000000000000000000000000000000000600052604160045260246000fd5b611aa8826117fc565b810181811067ffffffffffffffff82111715611ac757611ac6611a70565b5b80604052505050565b6000611ada61153c565b9050611ae68282611a9f565b919050565b600067ffffffffffffffff821115611b0657611b05611a70565b5b602082029050602081019050919050565b6000611b2a611b2584611aeb565b611ad0565b90508083825260208201905060208402830185811115611b4d57611b4c6116df565b5b835b81811015611b765780611b628882611599565b845260208401935050602081019050611b4f565b5050509392505050565b600082601f830112611b9557611b946116d5565b5b8135611ba5848260208601611b17565b91505092915050565b600060208284031215611bc457611bc3611546565b5b600082013567ffffffffffffffff811115611be257611be161154b565b5b611bee84828501611b80565b91505092915050565b60007fffffffff0000000000000000000000000000000000000000000000000000000082169050919050565b611c2c81611bf7565b8114611c3757600080fd5b50565b600081359050611c4981611c23565b92915050565b60008060408385031215611c6657611c65611546565b5b6000611c7485828601611599565b9250506020611c8585828601611c3a565b9150509250929050565b600080600060608486031215611ca857611ca7611546565b5b6000611cb686828701611599565b9350506020611cc786828701611c3a565b9250506040611cd8868287016115d1565b9150509250925092565b7f41646d696e73206f6e6c79000000000000000000000000000000000000000000600082015250565b6000611d18600b836118bc565b9150611d2382611ce2565b602082019050919050565b60006020820190508181036000830152611d4781611d0b565b9050919050565b7f466f727761726465723a207369676e617475726520646f6573206e6f74206d6160008201527f7463682072657175657374000000000000000000000000000000000000000000602082015250565b6000611daa602b836118bc565b9150611db582611d4e565b604082019050919050565b60006020820190508181036000830152611dd981611d9d565b9050919050565b7f4e487b7100000000000000000000000000000000000000000000000000000000600052601160045260246000fd5b6000611e1a8261167d565b9150611e258361167d565b9250828201905080821115611e3d57611e3c611de0565b5b92915050565b600080fd5b600080fd5b600080fd5b60008083356001602003843603038112611e6f57611e6e611e43565b5b80840192508235915067ffffffffffffffff821115611e9157611e90611e48565b5b602083019250600182023603831315611ead57611eac611e4d565b5b509250929050565b600081905092915050565b82818337600083830152505050565b6000611edb8385611eb5565b9350611ee8838584611ec0565b82840190509392505050565b60008160601b9050919050565b6000611f0c82611ef4565b9050919050565b6000611f1e82611f01565b9050919050565b611f36611f3182611570565b611f13565b82525050565b6000611f49828587611ecf565b9150611f558284611f25565b601482019150819050949350505050565b6000611f71826117b6565b611f7b8185611eb5565b9350611f8b8185602086016117d2565b80840191505092915050565b6000611fa38284611f66565b915081905092915050565b7f466f727761726465723a206661696c656420746f20666f72776172642074726160008201527f6e73616374696f6e000000000000000000000000000000000000000000000000602082015250565b600061200a6028836118bc565b915061201582611fae565b604082019050919050565b6000602082019050818103600083015261203981611ffd565b9050919050565b7f4e487b7100000000000000000000000000000000000000000000000000000000600052601260045260246000fd5b600061207a8261167d565b91506120858361167d565b92508261209557612094612040565b5b828204905092915050565b7f4e656564206f6e65206f72206d6f7265206e65772061646d696e730000000000600082015250565b60006120d6601b836118bc565b91506120e1826120a0565b602082019050919050565b60006020820190508181036000830152612105816120c9565b9050919050565b7f4e487b7100000000000000000000000000000000000000000000000000000000600052603260045260246000fd5b6000612148828486611ecf565b91508190509392505050565b600060e082019050612169600083018a61191f565b6121766020830189611906565b6121836040830188611906565b6121906060830187611687565b61219d6080830186611687565b6121aa60a0830185611687565b6121b760c083018461191f565b98975050505050505050565b7f466f727761726465723a206461746120746f6f2073686f727400000000000000600082015250565b60006121f96019836118bc565b9150612204826121c3565b602082019050919050565b60006020820190508181036000830152612228816121ec565b9050919050565b7f4e487b7100000000000000000000000000000000000000000000000000000000600052602260045260246000fd5b6000600282049050600182168061227657607f821691505b6020821081036122895761228861222f565b5b50919050565b7f4e487b7100000000000000000000000000000000000000000000000000000000600052602160045260246000fd5b60006020820190506122d3600083018461191f565b92915050565b600060a0820190506122ee600083018861191f565b6122fb602083018761191f565b612308604083018661191f565b6123156060830185611687565b6123226080830184611906565b9695505050505050565b600060ff82169050919050565b6123428161232c565b82525050565b600060808201905061235d600083018761191f565b61236a6020830186612339565b612377604083018561191f565b612384606083018461191f565b9594505050505056fea264697066735822122060337b3aa88d737661942a5bd46269ca7d2727f6892c260fe88dc5451b6f4e8a64736f6c63430008140033",
  "linkReferences": {},
  "deployedLinkReferences": {}
}