{
  "_format": "hh-sol-artifact-1",
  "contractName": "Nengajo",
  "sourceName": "contracts/Nengajo.sol",
  "abi": [
    {
      "inputs": [
        {
          "internalType": "string",
          "name": "_name",
          "type": "string"
        },
        {
          "internalType": "string",
          "name": "_symbol",
          "type": "string"
        },
        {
          "internalType": "uint256",
          "name": "_open_blockTimestamp",
          "type": "uint256"
        },
        {
          "internalType": "uint256",
          "name": "_close_blockTimestamp",
          "type": "uint256"
        },
        {
          "internalType": "address",
          "name": "_henkakuTokenV2",
          "type": "address"
        },
        {
          "internalType": "address",
          "name": "_henkakuPoolWallet",
          "type": "address"
        }
      ],
      "stateMutability": "nonpayable",
      "type": "constructor"
    },
    {
      "anonymous": false,
      "inputs": [
        {
          "indexed": true,
          "internalType": "address",
          "name": "account",
          "type": "address"
        },
        {
          "indexed": true,
          "internalType": "address",
          "name": "operator",
          "type": "address"
        },
        {
          "indexed": false,
          "internalType": "bool",
          "name": "approved",
          "type": "bool"
        }
      ],
      "name": "ApprovalForAll",
      "type": "event"
    },
    {
      "anonymous": false,
      "inputs": [
        {
          "indexed": true,
          "internalType": "address",
          "name": "minter",
          "type": "address"
        },
        {
          "indexed": true,
          "internalType": "uint256",
          "name": "tokenId",
          "type": "uint256"
        }
      ],
      "name": "Mint",
      "type": "event"
    },
    {
      "anonymous": false,
      "inputs": [
        {
          "indexed": true,
          "internalType": "address",
          "name": "minter",
          "type": "address"
        },
        {
          "indexed": false,
          "internalType": "uint256[]",
          "name": "tokenIds",
          "type": "uint256[]"
        }
      ],
      "name": "MintBatch",
      "type": "event"
    },
    {
      "anonymous": false,
      "inputs": [
        {
          "indexed": true,
          "internalType": "address",
          "name": "creator",
          "type": "address"
        },
        {
          "indexed": false,
          "internalType": "uint256",
          "name": "tokenId",
          "type": "uint256"
        },
        {
          "indexed": false,
          "internalType": "string",
          "name": "metaDataURL",
          "type": "string"
        },
        {
          "indexed": false,
          "internalType": "uint256",
          "name": "maxSupply",
          "type": "uint256"
        }
      ],
      "name": "RegisterNengajo",
      "type": "event"
    },
    {
      "anonymous": false,
      "inputs": [
        {
          "indexed": true,
          "internalType": "address",
          "name": "operator",
          "type": "address"
        },
        {
          "indexed": true,
          "internalType": "address",
          "name": "from",
          "type": "address"
        },
        {
          "indexed": true,
          "internalType": "address",
          "name": "to",
          "type": "address"
        },
        {
          "indexed": false,
          "internalType": "uint256[]",
          "name": "ids",
          "type": "uint256[]"
        },
        {
          "indexed": false,
          "internalType": "uint256[]",
          "name": "values",
          "type": "uint256[]"
        }
      ],
      "name": "TransferBatch",
      "type": "event"
    },
    {
      "anonymous": false,
      "inputs": [
        {
          "indexed": true,
          "internalType": "address",
          "name": "operator",
          "type": "address"
        },
        {
          "indexed": true,
          "internalType": "address",
          "name": "from",
          "type": "address"
        },
        {
          "indexed": true,
          "internalType": "address",
          "name": "to",
          "type": "address"
        },
        {
          "indexed": false,
          "internalType": "uint256",
          "name": "id",
          "type": "uint256"
        },
        {
          "indexed": false,
          "internalType": "uint256",
          "name": "value",
          "type": "uint256"
        }
      ],
      "name": "TransferSingle",
      "type": "event"
    },
    {
      "anonymous": false,
      "inputs": [
        {
          "indexed": false,
          "internalType": "string",
          "name": "value",
          "type": "string"
        },
        {
          "indexed": true,
          "internalType": "uint256",
          "name": "id",
          "type": "uint256"
        }
      ],
      "name": "URI",
      "type": "event"
    },
    {
      "inputs": [
        {
          "internalType": "address[]",
          "name": "_newAdmins",
          "type": "address[]"
        }
      ],
      "name": "addAdmins",
      "outputs": [],
      "stateMutability": "nonpayable",
      "type": "function"
    },
    {
      "inputs": [
        {
          "internalType": "address",
          "name": "",
          "type": "address"
        }
      ],
      "name": "admins",
      "outputs": [
        {
          "internalType": "bool",
          "name": "",
          "type": "bool"
        }
      ],
      "stateMutability": "view",
      "type": "function"
    },
    {
      "inputs": [
        {
          "internalType": "address",
          "name": "account",
          "type": "address"
        },
        {
          "internalType": "uint256",
          "name": "id",
          "type": "uint256"
        }
      ],
      "name": "balanceOf",
      "outputs": [
        {
          "internalType": "uint256",
          "name": "",
          "type": "uint256"
        }
      ],
      "stateMutability": "view",
      "type": "function"
    },
    {
      "inputs": [
        {
          "internalType": "address[]",
          "name": "accounts",
          "type": "address[]"
        },
        {
          "internalType": "uint256[]",
          "name": "ids",
          "type": "uint256[]"
        }
      ],
      "name": "balanceOfBatch",
      "outputs": [
        {
          "internalType": "uint256[]",
          "name": "",
          "type": "uint256[]"
        }
      ],
      "stateMutability": "view",
      "type": "function"
    },
    {
      "inputs": [],
      "name": "checkRemainingCloseTime",
      "outputs": [
        {
          "internalType": "uint256",
          "name": "",
          "type": "uint256"
        }
      ],
      "stateMutability": "view",
      "type": "function"
    },
    {
      "inputs": [],
      "name": "checkRemainingOpenTime",
      "outputs": [
        {
          "internalType": "uint256",
          "name": "",
          "type": "uint256"
        }
      ],
      "stateMutability": "view",
      "type": "function"
    },
    {
      "inputs": [],
      "name": "close_blockTimestamp",
      "outputs": [
        {
          "internalType": "uint256",
          "name": "",
          "type": "uint256"
        }
      ],
      "stateMutability": "view",
      "type": "function"
    },
    {
      "inputs": [
        {
          "internalType": "address",
          "name": "_deleteAdmin",
          "type": "address"
        }
      ],
      "name": "deleteAdmin",
      "outputs": [],
      "stateMutability": "nonpayable",
      "type": "function"
    },
    {
      "inputs": [
        {
          "internalType": "uint256",
          "name": "id",
          "type": "uint256"
        }
      ],
      "name": "exists",
      "outputs": [
        {
          "internalType": "bool",
          "name": "",
          "type": "bool"
        }
      ],
      "stateMutability": "view",
      "type": "function"
    },
    {
      "inputs": [
        {
          "internalType": "address",
          "name": "account",
          "type": "address"
        },
        {
          "internalType": "address",
          "name": "operator",
          "type": "address"
        }
      ],
      "name": "isApprovedForAll",
      "outputs": [
        {
          "internalType": "bool",
          "name": "",
          "type": "bool"
        }
      ],
      "stateMutability": "view",
      "type": "function"
    },
    {
      "inputs": [
        {
          "internalType": "uint256",
          "name": "_tokenId",
          "type": "uint256"
        }
      ],
      "name": "mint",
      "outputs": [],
      "stateMutability": "nonpayable",
      "type": "function"
    },
    {
      "inputs": [
        {
          "internalType": "uint256[]",
          "name": "_tokenIdsList",
          "type": "uint256[]"
        }
      ],
      "name": "mintBatch",
      "outputs": [],
      "stateMutability": "nonpayable",
      "type": "function"
    },
    {
      "inputs": [],
      "name": "mintable",
      "outputs": [
        {
          "internalType": "bool",
          "name": "",
          "type": "bool"
        }
      ],
      "stateMutability": "view",
      "type": "function"
    },
    {
      "inputs": [],
      "name": "name",
      "outputs": [
        {
          "internalType": "string",
          "name": "",
          "type": "string"
        }
      ],
      "stateMutability": "view",
      "type": "function"
    },
    {
      "inputs": [],
      "name": "open_blockTimestamp",
      "outputs": [
        {
          "internalType": "uint256",
          "name": "",
          "type": "uint256"
        }
      ],
      "stateMutability": "view",
      "type": "function"
    },
    {
      "inputs": [
        {
          "internalType": "uint256",
          "name": "_maxSupply",
          "type": "uint256"
        },
        {
          "internalType": "string",
          "name": "_metaDataURL",
          "type": "string"
        }
      ],
      "name": "registerNengajo",
      "outputs": [],
      "stateMutability": "nonpayable",
      "type": "function"
    },
    {
      "inputs": [],
      "name": "retrieveAllNengajoes",
      "outputs": [
        {
          "components": [
            {
              "internalType": "uint256",
              "name": "id",
              "type": "uint256"
            },
            {
              "internalType": "string",
              "name": "uri",
              "type": "string"
            },
            {
              "internalType": "address",
              "name": "creator",
              "type": "address"
            },
            {
              "internalType": "uint256",
              "name": "maxSupply",
              "type": "uint256"
            }
          ],
          "internalType": "struct Nengajo.NengajoInfo[]",
          "name": "",
          "type": "tuple[]"
        }
      ],
      "stateMutability": "view",
      "type": "function"
    },
    {
      "inputs": [
        {
          "internalType": "address",
          "name": "_address",
          "type": "address"
        }
      ],
      "name": "retrieveMintedNengajoes",
      "outputs": [
        {
          "components": [
            {
              "internalType": "uint256",
              "name": "id",
              "type": "uint256"
            },
            {
              "internalType": "string",
              "name": "uri",
              "type": "string"
            },
            {
              "internalType": "address",
              "name": "creator",
              "type": "address"
            },
            {
              "internalType": "uint256",
              "name": "maxSupply",
              "type": "uint256"
            }
          ],
          "internalType": "struct Nengajo.NengajoInfo[]",
          "name": "",
          "type": "tuple[]"
        }
      ],
      "stateMutability": "view",
      "type": "function"
    },
    {
      "inputs": [
        {
          "internalType": "uint256",
          "name": "_tokenId",
          "type": "uint256"
        }
      ],
      "name": "retrieveRegisteredNengajo",
      "outputs": [
        {
          "components": [
            {
              "internalType": "uint256",
              "name": "id",
              "type": "uint256"
            },
            {
              "internalType": "string",
              "name": "uri",
              "type": "string"
            },
            {
              "internalType": "address",
              "name": "creator",
              "type": "address"
            },
            {
              "internalType": "uint256",
              "name": "maxSupply",
              "type": "uint256"
            }
          ],
          "internalType": "struct Nengajo.NengajoInfo",
          "name": "",
          "type": "tuple"
        }
      ],
      "stateMutability": "view",
      "type": "function"
    },
    {
      "inputs": [
        {
          "internalType": "address",
          "name": "_address",
          "type": "address"
        }
      ],
      "name": "retrieveRegisteredNengajoes",
      "outputs": [
        {
          "components": [
            {
              "internalType": "uint256",
              "name": "id",
              "type": "uint256"
            },
            {
              "internalType": "string",
              "name": "uri",
              "type": "string"
            },
            {
              "internalType": "address",
              "name": "creator",
              "type": "address"
            },
            {
              "internalType": "uint256",
              "name": "maxSupply",
              "type": "uint256"
            }
          ],
          "internalType": "struct Nengajo.NengajoInfo[]",
          "name": "",
          "type": "tuple[]"
        }
      ],
      "stateMutability": "view",
      "type": "function"
    },
    {
      "inputs": [
        {
          "internalType": "address",
          "name": "from",
          "type": "address"
        },
        {
          "internalType": "address",
          "name": "to",
          "type": "address"
        },
        {
          "internalType": "uint256[]",
          "name": "ids",
          "type": "uint256[]"
        },
        {
          "internalType": "uint256[]",
          "name": "amounts",
          "type": "uint256[]"
        },
        {
          "internalType": "bytes",
          "name": "data",
          "type": "bytes"
        }
      ],
      "name": "safeBatchTransferFrom",
      "outputs": [],
      "stateMutability": "nonpayable",
      "type": "function"
    },
    {
      "inputs": [
        {
          "internalType": "address",
          "name": "from",
          "type": "address"
        },
        {
          "internalType": "address",
          "name": "to",
          "type": "address"
        },
        {
          "internalType": "uint256",
          "name": "id",
          "type": "uint256"
        },
        {
          "internalType": "uint256",
          "name": "amount",
          "type": "uint256"
        },
        {
          "internalType": "bytes",
          "name": "data",
          "type": "bytes"
        }
      ],
      "name": "safeTransferFrom",
      "outputs": [],
      "stateMutability": "nonpayable",
      "type": "function"
    },
    {
      "inputs": [
        {
          "internalType": "address",
          "name": "operator",
          "type": "address"
        },
        {
          "internalType": "bool",
          "name": "approved",
          "type": "bool"
        }
      ],
      "name": "setApprovalForAll",
      "outputs": [],
      "stateMutability": "nonpayable",
      "type": "function"
    },
    {
      "inputs": [
        {
          "internalType": "bytes4",
          "name": "interfaceId",
          "type": "bytes4"
        }
      ],
      "name": "supportsInterface",
      "outputs": [
        {
          "internalType": "bool",
          "name": "",
          "type": "bool"
        }
      ],
      "stateMutability": "view",
      "type": "function"
    },
    {
      "inputs": [],
      "name": "switchMintable",
      "outputs": [],
      "stateMutability": "nonpayable",
      "type": "function"
    },
    {
      "inputs": [],
      "name": "symbol",
      "outputs": [
        {
          "internalType": "string",
          "name": "",
          "type": "string"
        }
      ],
      "stateMutability": "view",
      "type": "function"
    },
    {
      "inputs": [
        {
          "internalType": "uint256",
          "name": "id",
          "type": "uint256"
        }
      ],
      "name": "totalSupply",
      "outputs": [
        {
          "internalType": "uint256",
          "name": "",
          "type": "uint256"
        }
      ],
      "stateMutability": "view",
      "type": "function"
    },
    {
      "inputs": [
        {
          "internalType": "uint256",
          "name": "_tokenId",
          "type": "uint256"
        }
      ],
      "name": "uri",
      "outputs": [
        {
          "internalType": "string",
          "name": "",
          "type": "string"
        }
      ],
      "stateMutability": "view",
      "type": "function"
    }
  ],
  "bytecode": "0x60c06040523480156200001157600080fd5b5060405162005af838038062005af88339818101604052810190620000379190620004d9565b81818585604051806020016040528060008152506200005c816200027b60201b60201c565b506001600560003373ffffffffffffffffffffffffffffffffffffffff1673ffffffffffffffffffffffffffffffffffffffff16815260200190815260200160002060006101000a81548160ff02191690831515021790555081608081815250508060a08181525050505081600660006101000a81548173ffffffffffffffffffffffffffffffffffffffff021916908373ffffffffffffffffffffffffffffffffffffffff16021790555080600760006101000a81548173ffffffffffffffffffffffffffffffffffffffff021916908373ffffffffffffffffffffffffffffffffffffffff160217905550505085600990816200015c9190620007f4565b5084600a90816200016e9190620007f4565b50600b604051806080016040528060008152602001604051806020016040528060008152508152602001600073ffffffffffffffffffffffffffffffffffffffff16815260200160008152509080600181540180825580915050600190039060005260206000209060040201600090919091909150600082015181600001556020820151816001019081620002049190620007f4565b5060408201518160020160006101000a81548173ffffffffffffffffffffffffffffffffffffffff021916908373ffffffffffffffffffffffffffffffffffffffff1602179055506060820151816003015550506200026f60086200029060201b62001d5e1760201c565b505050505050620008db565b80600290816200028c9190620007f4565b5050565b6001816000016000828254019250508190555050565b6000604051905090565b600080fd5b600080fd5b600080fd5b600080fd5b6000601f19601f8301169050919050565b7f4e487b7100000000000000000000000000000000000000000000000000000000600052604160045260246000fd5b6200030f82620002c4565b810181811067ffffffffffffffff82111715620003315762000330620002d5565b5b80604052505050565b600062000346620002a6565b905062000354828262000304565b919050565b600067ffffffffffffffff821115620003775762000376620002d5565b5b6200038282620002c4565b9050602081019050919050565b60005b83811015620003af57808201518184015260208101905062000392565b60008484015250505050565b6000620003d2620003cc8462000359565b6200033a565b905082815260208101848484011115620003f157620003f0620002bf565b5b620003fe8482856200038f565b509392505050565b600082601f8301126200041e576200041d620002ba565b5b815162000430848260208601620003bb565b91505092915050565b6000819050919050565b6200044e8162000439565b81146200045a57600080fd5b50565b6000815190506200046e8162000443565b92915050565b600073ffffffffffffffffffffffffffffffffffffffff82169050919050565b6000620004a18262000474565b9050919050565b620004b38162000494565b8114620004bf57600080fd5b50565b600081519050620004d381620004a8565b92915050565b60008060008060008060c08789031215620004f957620004f8620002b0565b5b600087015167ffffffffffffffff8111156200051a5762000519620002b5565b5b6200052889828a0162000406565b965050602087015167ffffffffffffffff8111156200054c576200054b620002b5565b5b6200055a89828a0162000406565b95505060406200056d89828a016200045d565b94505060606200058089828a016200045d565b93505060806200059389828a01620004c2565b92505060a0620005a689828a01620004c2565b9150509295509295509295565b600081519050919050565b7f4e487b7100000000000000000000000000000000000000000000000000000000600052602260045260246000fd5b600060028204905060018216806200060657607f821691505b6020821081036200061c576200061b620005be565b5b50919050565b60008190508160005260206000209050919050565b60006020601f8301049050919050565b600082821b905092915050565b600060088302620006867fffffffffffffffffffffffffffffffffffffffffffffffffffffffffffffffff8262000647565b62000692868362000647565b95508019841693508086168417925050509392505050565b6000819050919050565b6000620006d5620006cf620006c98462000439565b620006aa565b62000439565b9050919050565b6000819050919050565b620006f183620006b4565b620007096200070082620006dc565b84845462000654565b825550505050565b600090565b6200072062000711565b6200072d818484620006e6565b505050565b5b8181101562000755576200074960008262000716565b60018101905062000733565b5050565b601f821115620007a4576200076e8162000622565b620007798462000637565b8101602085101562000789578190505b620007a1620007988562000637565b83018262000732565b50505b505050565b600082821c905092915050565b6000620007c960001984600802620007a9565b1980831691505092915050565b6000620007e48383620007b6565b9150826002028217905092915050565b620007ff82620005b3565b67ffffffffffffffff8111156200081b576200081a620002d5565b5b620008278254620005ed565b6200083482828562000759565b600060209050601f8311600181146200086c576000841562000857578287015190505b620008638582620007d6565b865550620008d3565b601f1984166200087c8662000622565b60005b82811015620008a6578489015182556001820191506020850194506020810190506200087f565b86831015620008c65784890151620008c2601f891682620007b6565b8355505b6001600288020188555050505b505050505050565b60805160a0516151cd6200092b6000396000818161126c0152818161180d015281816119690152611b8201526000818161098a0152818161124101528181611b0f0152611b5701526151cd6000f3fe608060405234801561001057600080fd5b50600436106101c35760003560e01c806395d89b41116100f9578063e41932ac11610097578063f4c20c4311610071578063f4c20c431461053c578063f8ca62531461055a578063fd6d779914610578578063ffb2b55a14610596576101c3565b8063e41932ac146104d2578063e985e9c5146104f0578063f242432a14610520576101c3565b8063a22cb465116100d3578063a22cb46514610426578063ab75d59f14610442578063bd85b03914610472578063bf4e575c146104a2576101c3565b806395d89b41146103d05780639c54df64146103ee578063a0712d681461040a576101c3565b8063429b62e5116101665780634f558e79116101405780634f558e791461034a57806356ffa5041461037a57806372a589a7146103965780639298067e146103a0576101c3565b8063429b62e5146102cc5780634bf365df146102fc5780634e1273f41461031a576101c3565b80630e89341c116101a25780630e89341c1461024657806327e1f7df146102765780632eb2c2d6146102925780633cef973c146102ae576101c3565b8062fdd58e146101c857806301ffc9a7146101f857806306fdde0314610228575b600080fd5b6101e260048036038101906101dd91906132cf565b6105b2565b6040516101ef919061331e565b60405180910390f35b610212600480360381019061020d9190613391565b61067a565b60405161021f91906133d9565b60405180910390f35b61023061075c565b60405161023d9190613484565b60405180910390f35b610260600480360381019061025b91906134a6565b6107ea565b60405161026d9190613484565b60405180910390f35b610290600480360381019061028b91906134d3565b610800565b005b6102ac60048036038101906102a791906136fd565b6108e7565b005b6102b6610988565b6040516102c3919061331e565b60405180910390f35b6102e660048036038101906102e191906134d3565b6109ac565b6040516102f391906133d9565b60405180910390f35b6103046109cc565b60405161031191906133d9565b60405180910390f35b610334600480360381019061032f919061388f565b6109df565b60405161034191906139c5565b60405180910390f35b610364600480360381019061035f91906134a6565b610af8565b60405161037191906133d9565b60405180910390f35b610394600480360381019061038f9190613a88565b610b0c565b005b61039e610d79565b005b6103ba60048036038101906103b591906134a6565b610e31565b6040516103c79190613ba0565b60405180910390f35b6103d8610ff7565b6040516103e59190613484565b60405180910390f35b61040860048036038101906104039190613bc2565b611085565b005b610424600480360381019061041f91906134a6565b61123f565b005b610440600480360381019061043b9190613c37565b611398565b005b61045c600480360381019061045791906134d3565b6113ae565b6040516104699190613d9c565b60405180910390f35b61048c600480360381019061048791906134a6565b61167f565b604051610499919061331e565b60405180910390f35b6104bc60048036038101906104b791906134d3565b61169c565b6040516104c99190613d9c565b60405180910390f35b6104da61180b565b6040516104e7919061331e565b60405180910390f35b61050a60048036038101906105059190613dbe565b61182f565b60405161051791906133d9565b60405180910390f35b61053a60048036038101906105359190613dfe565b6118c3565b005b610544611964565b604051610551919061331e565b60405180910390f35b6105626119af565b60405161056f9190613d9c565b60405180910390f35b610580611b0a565b60405161058d919061331e565b60405180910390f35b6105b060048036038101906105ab9190613e95565b611b55565b005b60008073ffffffffffffffffffffffffffffffffffffffff168373ffffffffffffffffffffffffffffffffffffffff1603610622576040517f08c379a000000000000000000000000000000000000000000000000000000000815260040161061990613f50565b60405180910390fd5b60008083815260200190815260200160002060008473ffffffffffffffffffffffffffffffffffffffff1673ffffffffffffffffffffffffffffffffffffffff16815260200190815260200160002054905092915050565b60007fd9b67a26000000000000000000000000000000000000000000000000000000007bffffffffffffffffffffffffffffffffffffffffffffffffffffffff1916827bffffffffffffffffffffffffffffffffffffffffffffffffffffffff1916148061074557507f0e89341c000000000000000000000000000000000000000000000000000000007bffffffffffffffffffffffffffffffffffffffffffffffffffffffff1916827bffffffffffffffffffffffffffffffffffffffffffffffffffffffff1916145b80610755575061075482611d74565b5b9050919050565b6009805461076990613f9f565b80601f016020809104026020016040519081016040528092919081815260200182805461079590613f9f565b80156107e25780601f106107b7576101008083540402835291602001916107e2565b820191906000526020600020905b8154815290600101906020018083116107c557829003601f168201915b505050505081565b60606107f582610e31565b602001519050919050565b600560003373ffffffffffffffffffffffffffffffffffffffff1673ffffffffffffffffffffffffffffffffffffffff16815260200190815260200160002060009054906101000a900460ff1661088c576040517f08c379a00000000000000000000000000000000000000000000000000000000081526004016108839061401c565b60405180910390fd5b6000600560008373ffffffffffffffffffffffffffffffffffffffff1673ffffffffffffffffffffffffffffffffffffffff16815260200190815260200160002060006101000a81548160ff02191690831515021790555050565b6108ef611dde565b73ffffffffffffffffffffffffffffffffffffffff168573ffffffffffffffffffffffffffffffffffffffff16148061093557506109348561092f611dde565b61182f565b5b610974576040517f08c379a000000000000000000000000000000000000000000000000000000000815260040161096b906140ae565b60405180910390fd5b6109818585858585611de6565b5050505050565b7f000000000000000000000000000000000000000000000000000000000000000081565b60056020528060005260406000206000915054906101000a900460ff1681565b600460009054906101000a900460ff1681565b60608151835114610a25576040517f08c379a0000000000000000000000000000000000000000000000000000000008152600401610a1c90614140565b60405180910390fd5b6000835167ffffffffffffffff811115610a4257610a41613505565b5b604051908082528060200260200182016040528015610a705781602001602082028036833780820191505090505b50905060005b8451811015610aed57610abd858281518110610a9557610a94614160565b5b6020026020010151858381518110610ab057610aaf614160565b5b60200260200101516105b2565b828281518110610ad057610acf614160565b5b60200260200101818152505080610ae6906141be565b9050610a76565b508091505092915050565b600080610b048361167f565b119050919050565b600082141580610b3957506040518060200160405280600081525080519060200120818051906020012014155b610b78576040517f08c379a0000000000000000000000000000000000000000000000000000000008152600401610b6f90614252565b60405180910390fd5b600080610b84336113ae565b905060005b8151811015610bc957818181518110610ba557610ba4614160565b5b60200260200101516060015183610bbc9190614272565b9250806001019050610b89565b506000600190506005831115610bed57600a85610be691906142a6565b9050610c29565b60058584610bfb9190614272565b1115610c2857600a60058685610c119190614272565b610c1b91906142e8565b610c2591906142a6565b90505b5b610c3281612107565b6000610c3e600861225b565b9050600b60405180608001604052808381526020018781526020013373ffffffffffffffffffffffffffffffffffffffff168152602001888152509080600181540180825580915050600190039060005260206000209060040201600090919091909150600082015181600001556020820151816001019081610cc191906144c8565b5060408201518160020160006101000a81548173ffffffffffffffffffffffffffffffffffffffff021916908373ffffffffffffffffffffffffffffffffffffffff160217905550606082015181600301555050610d1f6008611d5e565b3373ffffffffffffffffffffffffffffffffffffffff167f7394b8bb37beec806be0e1338b9f41cd3f4f0608a81cc3f51464a8ffad2f5ac7828789604051610d699392919061459a565b60405180910390a2505050505050565b600560003373ffffffffffffffffffffffffffffffffffffffff1673ffffffffffffffffffffffffffffffffffffffff16815260200190815260200160002060009054906101000a900460ff16610e05576040517f08c379a0000000000000000000000000000000000000000000000000000000008152600401610dfc9061401c565b60405180910390fd5b600460009054906101000a900460ff1615600460006101000a81548160ff021916908315150217905550565b610e396131e9565b6000600b805480602002602001604051908101604052809291908181526020016000905b82821015610f8b578382906000526020600020906004020160405180608001604052908160008201548152602001600182018054610e9a90613f9f565b80601f0160208091040260200160405190810160405280929190818152602001828054610ec690613f9f565b8015610f135780601f10610ee857610100808354040283529160200191610f13565b820191906000526020600020905b815481529060010190602001808311610ef657829003601f168201915b505050505081526020016002820160009054906101000a900473ffffffffffffffffffffffffffffffffffffffff1673ffffffffffffffffffffffffffffffffffffffff1673ffffffffffffffffffffffffffffffffffffffff16815260200160038201548152505081526020019060010190610e5d565b50505050905082815111610fd4576040517f08c379a0000000000000000000000000000000000000000000000000000000008152600401610fcb90614624565b60405180910390fd5b808381518110610fe757610fe6614160565b5b6020026020010151915050919050565b600a805461100490613f9f565b80601f016020809104026020016040519081016040528092919081815260200182805461103090613f9f565b801561107d5780601f106110525761010080835404028352916020019161107d565b820191906000526020600020905b81548152906001019060200180831161106057829003601f168201915b505050505081565b600560003373ffffffffffffffffffffffffffffffffffffffff1673ffffffffffffffffffffffffffffffffffffffff16815260200190815260200160002060009054906101000a900460ff16611111576040517f08c379a00000000000000000000000000000000000000000000000000000000081526004016111089061401c565b60405180910390fd5b6000815190506000811161115a576040517f08c379a000000000000000000000000000000000000000000000000000000000815260040161115190614690565b60405180910390fd5b60005b8181101561123a57600083828151811061117a57611179614160565b5b60200260200101519050600560008273ffffffffffffffffffffffffffffffffffffffff1673ffffffffffffffffffffffffffffffffffffffff16815260200190815260200160002060009054906101000a900460ff1661122e576001600560008373ffffffffffffffffffffffffffffffffffffffff1673ffffffffffffffffffffffffffffffffffffffff16815260200190815260200160002060006101000a81548160ff0219169083151502179055505b8160010191505061115d565b505050565b7f00000000000000000000000000000000000000000000000000000000000000004211801561128d5750427f0000000000000000000000000000000000000000000000000000000000000000115b806112a45750600460009054906101000a900460ff165b6112e3576040517f08c379a00000000000000000000000000000000000000000000000000000000081526004016112da906146fc565b60405180910390fd5b6112ed6001612269565b61132c576040517f08c379a00000000000000000000000000000000000000000000000000000000081526004016113239061478e565b60405180910390fd5b61133581612320565b61135133826001604051806020016040528060008152506123c5565b803373ffffffffffffffffffffffffffffffffffffffff167f0f6798a560793a54c3bcfe86a93cde1e73087d944c0ea20544137d412139688560405160405180910390a350565b6113aa6113a3611dde565b8383612575565b5050565b6060600080600b805480602002602001604051908101604052809291908181526020016000905b8282101561150357838290600052602060002090600402016040518060800160405290816000820154815260200160018201805461141290613f9f565b80601f016020809104026020016040519081016040528092919081815260200182805461143e90613f9f565b801561148b5780601f106114605761010080835404028352916020019161148b565b820191906000526020600020905b81548152906001019060200180831161146e57829003601f168201915b505050505081526020016002820160009054906101000a900473ffffffffffffffffffffffffffffffffffffffff1673ffffffffffffffffffffffffffffffffffffffff1673ffffffffffffffffffffffffffffffffffffffff168152602001600382015481525050815260200190600101906113d5565b50505050905060005b815181101561157e578473ffffffffffffffffffffffffffffffffffffffff1682828151811061153f5761153e614160565b5b60200260200101516040015173ffffffffffffffffffffffffffffffffffffffff16036115735782611570906141be565b92505b80600101905061150c565b5060008267ffffffffffffffff81111561159b5761159a613505565b5b6040519080825280602002602001820160405280156115d457816020015b6115c16131e9565b8152602001906001900390816115b95790505b5090506000805b83518110156116725760008482815181106115f9576115f8614160565b5b602002602001015190508773ffffffffffffffffffffffffffffffffffffffff16816040015173ffffffffffffffffffffffffffffffffffffffff1603611666578084848151811061164e5761164d614160565b5b602002602001018190525082611663906141be565b92505b816001019150506115db565b5081945050505050919050565b600060036000838152602001908152602001600020549050919050565b606060006116aa600861225b565b905060008167ffffffffffffffff8111156116c8576116c7613505565b5b6040519080825280602002602001820160405280156116f65781602001602082028036833780820191505090505b5090506000805b8381101561174e57600061171187836105b2565b14611743578083838151811061172a57611729614160565b5b60200260200101818152505081611740906141be565b91505b8060010190506116fd565b5060008167ffffffffffffffff81111561176b5761176a613505565b5b6040519080825280602002602001820160405280156117a457816020015b6117916131e9565b8152602001906001900390816117895790505b50905060005b828110156117fe576117d58482815181106117c8576117c7614160565b5b6020026020010151610e31565b8282815181106117e8576117e7614160565b5b60200260200101819052508060010190506117aa565b5080945050505050919050565b7f000000000000000000000000000000000000000000000000000000000000000081565b6000600160008473ffffffffffffffffffffffffffffffffffffffff1673ffffffffffffffffffffffffffffffffffffffff16815260200190815260200160002060008373ffffffffffffffffffffffffffffffffffffffff1673ffffffffffffffffffffffffffffffffffffffff16815260200190815260200160002060009054906101000a900460ff16905092915050565b6118cb611dde565b73ffffffffffffffffffffffffffffffffffffffff168573ffffffffffffffffffffffffffffffffffffffff16148061191157506119108561190b611dde565b61182f565b5b611950576040517f08c379a0000000000000000000000000000000000000000000000000000000008152600401611947906140ae565b60405180910390fd5b61195d85858585856126e1565b5050505050565b6000807f00000000000000000000000000000000000000000000000000000000000000009050428111156119a657428161199e91906142e8565b9150506119ac565b60009150505b90565b6060600b805480602002602001604051908101604052809291908181526020016000905b82821015611b01578382906000526020600020906004020160405180608001604052908160008201548152602001600182018054611a1090613f9f565b80601f0160208091040260200160405190810160405280929190818152602001828054611a3c90613f9f565b8015611a895780601f10611a5e57610100808354040283529160200191611a89565b820191906000526020600020905b815481529060010190602001808311611a6c57829003601f168201915b505050505081526020016002820160009054906101000a900473ffffffffffffffffffffffffffffffffffffffff1673ffffffffffffffffffffffffffffffffffffffff1673ffffffffffffffffffffffffffffffffffffffff168152602001600382015481525050815260200190600101906119d3565b50505050905090565b6000807f0000000000000000000000000000000000000000000000000000000000000000905042811115611b4c574281611b4491906142e8565b915050611b52565b60009150505b90565b7f000000000000000000000000000000000000000000000000000000000000000042118015611ba35750427f0000000000000000000000000000000000000000000000000000000000000000115b80611bba5750600460009054906101000a900460ff165b611bf9576040517f08c379a0000000000000000000000000000000000000000000000000000000008152600401611bf0906146fc565b60405180910390fd5b611c036001612269565b611c42576040517f08c379a0000000000000000000000000000000000000000000000000000000008152600401611c399061478e565b60405180910390fd5b60008151905060008167ffffffffffffffff811115611c6457611c63613505565b5b604051908082528060200260200182016040528015611c925781602001602082028036833780820191505090505b50905060005b82811015611cef57611cc3848281518110611cb657611cb5614160565b5b6020026020010151612320565b6001828281518110611cd857611cd7614160565b5b602002602001018181525050806001019050611c98565b50611d0b3384836040518060200160405280600081525061297c565b3373ffffffffffffffffffffffffffffffffffffffff167f9be917823b4393f3fa19fa0c1936aaa3771cc52d9ce10b46c4d71ea2850661fd84604051611d5191906139c5565b60405180910390a2505050565b6001816000016000828254019250508190555050565b60007f01ffc9a7000000000000000000000000000000000000000000000000000000007bffffffffffffffffffffffffffffffffffffffffffffffffffffffff1916827bffffffffffffffffffffffffffffffffffffffffffffffffffffffff1916149050919050565b600033905090565b8151835114611e2a576040517f08c379a0000000000000000000000000000000000000000000000000000000008152600401611e2190614820565b60405180910390fd5b600073ffffffffffffffffffffffffffffffffffffffff168473ffffffffffffffffffffffffffffffffffffffff1603611e99576040517f08c379a0000000000000000000000000000000000000000000000000000000008152600401611e90906148b2565b60405180910390fd5b6000611ea3611dde565b9050611eb3818787878787612ba8565b60005b8451811015612064576000858281518110611ed457611ed3614160565b5b602002602001015190506000858381518110611ef357611ef2614160565b5b60200260200101519050600080600084815260200190815260200160002060008b73ffffffffffffffffffffffffffffffffffffffff1673ffffffffffffffffffffffffffffffffffffffff16815260200190815260200160002054905081811015611f94576040517f08c379a0000000000000000000000000000000000000000000000000000000008152600401611f8b90614944565b60405180910390fd5b81810360008085815260200190815260200160002060008c73ffffffffffffffffffffffffffffffffffffffff1673ffffffffffffffffffffffffffffffffffffffff168152602001908152602001600020819055508160008085815260200190815260200160002060008b73ffffffffffffffffffffffffffffffffffffffff1673ffffffffffffffffffffffffffffffffffffffff16815260200190815260200160002060008282546120499190614272565b925050819055505050508061205d906141be565b9050611eb6565b508473ffffffffffffffffffffffffffffffffffffffff168673ffffffffffffffffffffffffffffffffffffffff168273ffffffffffffffffffffffffffffffffffffffff167f4a39dc06d4c0dbc64b70af90fd698a233a518aa5d07e595d983b8c0526c8f7fb87876040516120db929190614964565b60405180910390a46120f1818787878787612bbe565b6120ff818787878787612bc6565b505050505050565b61211081612269565b61214f576040517f08c379a000000000000000000000000000000000000000000000000000000000815260040161214690614a0d565b60405180910390fd5b6000600660009054906101000a900473ffffffffffffffffffffffffffffffffffffffff1673ffffffffffffffffffffffffffffffffffffffff166323b872dd33600760009054906101000a900473ffffffffffffffffffffffffffffffffffffffff16856040518463ffffffff1660e01b81526004016121d293929190614a3c565b6020604051808303816000875af11580156121f1573d6000803e3d6000fd5b505050506040513d601f19601f820116820180604052508101906122159190614a88565b905080612257576040517f08c379a000000000000000000000000000000000000000000000000000000000815260040161224e90614b01565b60405180910390fd5b5050565b600081600001549050919050565b600081600660009054906101000a900473ffffffffffffffffffffffffffffffffffffffff1673ffffffffffffffffffffffffffffffffffffffff166370a08231336040518263ffffffff1660e01b81526004016122c79190614b21565b602060405180830381865afa1580156122e4573d6000803e3d6000fd5b505050506040513d601f19601f820116820180604052508101906123089190614b51565b10612316576001905061231b565b600090505b919050565b600061232c33836105b2565b1461236c576040517f08c379a000000000000000000000000000000000000000000000000000000000815260040161236390614bf0565b60405180910390fd5b6123758161167f565b61237e82610e31565b60600151116123c2576040517f08c379a00000000000000000000000000000000000000000000000000000000081526004016123b990614c5c565b60405180910390fd5b50565b600073ffffffffffffffffffffffffffffffffffffffff168473ffffffffffffffffffffffffffffffffffffffff1603612434576040517f08c379a000000000000000000000000000000000000000000000000000000000815260040161242b90614cee565b60405180910390fd5b600061243e611dde565b9050600061244b85612d9d565b9050600061245885612d9d565b905061246983600089858589612ba8565b8460008088815260200190815260200160002060008973ffffffffffffffffffffffffffffffffffffffff1673ffffffffffffffffffffffffffffffffffffffff16815260200190815260200160002060008282546124c89190614272565b925050819055508673ffffffffffffffffffffffffffffffffffffffff16600073ffffffffffffffffffffffffffffffffffffffff168473ffffffffffffffffffffffffffffffffffffffff167fc3d58168c5ae7397731d063d5bbf3d657854427343f4c083240f7aacaa2d0f628989604051612546929190614d0e565b60405180910390a461255d83600089858589612bbe565b61256c83600089898989612e17565b50505050505050565b8173ffffffffffffffffffffffffffffffffffffffff168373ffffffffffffffffffffffffffffffffffffffff16036125e3576040517f08c379a00000000000000000000000000000000000000000000000000000000081526004016125da90614da9565b60405180910390fd5b80600160008573ffffffffffffffffffffffffffffffffffffffff1673ffffffffffffffffffffffffffffffffffffffff16815260200190815260200160002060008473ffffffffffffffffffffffffffffffffffffffff1673ffffffffffffffffffffffffffffffffffffffff16815260200190815260200160002060006101000a81548160ff0219169083151502179055508173ffffffffffffffffffffffffffffffffffffffff168373ffffffffffffffffffffffffffffffffffffffff167f17307eab39ab6107e8899845ad3d59bd9653f200f220920489ca2b5937696c31836040516126d491906133d9565b60405180910390a3505050565b600073ffffffffffffffffffffffffffffffffffffffff168473ffffffffffffffffffffffffffffffffffffffff1603612750576040517f08c379a0000000000000000000000000000000000000000000000000000000008152600401612747906148b2565b60405180910390fd5b600061275a611dde565b9050600061276785612d9d565b9050600061277485612d9d565b9050612784838989858589612ba8565b600080600088815260200190815260200160002060008a73ffffffffffffffffffffffffffffffffffffffff1673ffffffffffffffffffffffffffffffffffffffff1681526020019081526020016000205490508581101561281b576040517f08c379a000000000000000000000000000000000000000000000000000000000815260040161281290614944565b60405180910390fd5b85810360008089815260200190815260200160002060008b73ffffffffffffffffffffffffffffffffffffffff1673ffffffffffffffffffffffffffffffffffffffff168152602001908152602001600020819055508560008089815260200190815260200160002060008a73ffffffffffffffffffffffffffffffffffffffff1673ffffffffffffffffffffffffffffffffffffffff16815260200190815260200160002060008282546128d09190614272565b925050819055508773ffffffffffffffffffffffffffffffffffffffff168973ffffffffffffffffffffffffffffffffffffffff168573ffffffffffffffffffffffffffffffffffffffff167fc3d58168c5ae7397731d063d5bbf3d657854427343f4c083240f7aacaa2d0f628a8a60405161294d929190614d0e565b60405180910390a4612963848a8a86868a612bbe565b612971848a8a8a8a8a612e17565b505050505050505050565b600073ffffffffffffffffffffffffffffffffffffffff168473ffffffffffffffffffffffffffffffffffffffff16036129eb576040517f08c379a00000000000000000000000000000000000000000000000000000000081526004016129e290614cee565b60405180910390fd5b8151835114612a2f576040517f08c379a0000000000000000000000000000000000000000000000000000000008152600401612a2690614820565b60405180910390fd5b6000612a39611dde565b9050612a4a81600087878787612ba8565b60005b8451811015612b0357838181518110612a6957612a68614160565b5b6020026020010151600080878481518110612a8757612a86614160565b5b6020026020010151815260200190815260200160002060008873ffffffffffffffffffffffffffffffffffffffff1673ffffffffffffffffffffffffffffffffffffffff1681526020019081526020016000206000828254612ae99190614272565b925050819055508080612afb906141be565b915050612a4d565b508473ffffffffffffffffffffffffffffffffffffffff16600073ffffffffffffffffffffffffffffffffffffffff168273ffffffffffffffffffffffffffffffffffffffff167f4a39dc06d4c0dbc64b70af90fd698a233a518aa5d07e595d983b8c0526c8f7fb8787604051612b7b929190614964565b60405180910390a4612b9281600087878787612bbe565b612ba181600087878787612bc6565b5050505050565b612bb6868686868686612fee565b505050505050565b505050505050565b612be58473ffffffffffffffffffffffffffffffffffffffff166131be565b15612d95578373ffffffffffffffffffffffffffffffffffffffff1663bc197c8187878686866040518663ffffffff1660e01b8152600401612c2b959493929190614e1e565b6020604051808303816000875af1925050508015612c6757506040513d601f19601f82011682018060405250810190612c649190614e9b565b60015b612d0c57612c73614ed5565b806308c379a003612ccf5750612c87614ef7565b80612c925750612cd1565b806040517f08c379a0000000000000000000000000000000000000000000000000000000008152600401612cc69190613484565b60405180910390fd5b505b6040517f08c379a0000000000000000000000000000000000000000000000000000000008152600401612d0390614ff9565b60405180910390fd5b63bc197c8160e01b7bffffffffffffffffffffffffffffffffffffffffffffffffffffffff1916817bffffffffffffffffffffffffffffffffffffffffffffffffffffffff191614612d93576040517f08c379a0000000000000000000000000000000000000000000000000000000008152600401612d8a9061508b565b60405180910390fd5b505b505050505050565b60606000600167ffffffffffffffff811115612dbc57612dbb613505565b5b604051908082528060200260200182016040528015612dea5781602001602082028036833780820191505090505b5090508281600081518110612e0257612e01614160565b5b60200260200101818152505080915050919050565b612e368473ffffffffffffffffffffffffffffffffffffffff166131be565b15612fe6578373ffffffffffffffffffffffffffffffffffffffff1663f23a6e6187878686866040518663ffffffff1660e01b8152600401612e7c9594939291906150ab565b6020604051808303816000875af1925050508015612eb857506040513d601f19601f82011682018060405250810190612eb59190614e9b565b60015b612f5d57612ec4614ed5565b806308c379a003612f205750612ed8614ef7565b80612ee35750612f22565b806040517f08c379a0000000000000000000000000000000000000000000000000000000008152600401612f179190613484565b60405180910390fd5b505b6040517f08c379a0000000000000000000000000000000000000000000000000000000008152600401612f5490614ff9565b60405180910390fd5b63f23a6e6160e01b7bffffffffffffffffffffffffffffffffffffffffffffffffffffffff1916817bffffffffffffffffffffffffffffffffffffffffffffffffffffffff191614612fe4576040517f08c379a0000000000000000000000000000000000000000000000000000000008152600401612fdb9061508b565b60405180910390fd5b505b505050505050565b612ffc8686868686866131e1565b600073ffffffffffffffffffffffffffffffffffffffff168573ffffffffffffffffffffffffffffffffffffffff16036130ad5760005b83518110156130ab5782818151811061304f5761304e614160565b5b60200260200101516003600086848151811061306e5761306d614160565b5b6020026020010151815260200190815260200160002060008282546130939190614272565b92505081905550806130a4906141be565b9050613033565b505b600073ffffffffffffffffffffffffffffffffffffffff168473ffffffffffffffffffffffffffffffffffffffff16036131b65760005b83518110156131b457600084828151811061310257613101614160565b5b60200260200101519050600084838151811061312157613120614160565b5b6020026020010151905060006003600084815260200190815260200160002054905081811015613186576040517f08c379a000000000000000000000000000000000000000000000000000000000815260040161317d90615177565b60405180910390fd5b8181036003600085815260200190815260200160002081905550505050806131ad906141be565b90506130e4565b505b505050505050565b6000808273ffffffffffffffffffffffffffffffffffffffff163b119050919050565b505050505050565b60405180608001604052806000815260200160608152602001600073ffffffffffffffffffffffffffffffffffffffff168152602001600081525090565b6000604051905090565b600080fd5b600080fd5b600073ffffffffffffffffffffffffffffffffffffffff82169050919050565b60006132668261323b565b9050919050565b6132768161325b565b811461328157600080fd5b50565b6000813590506132938161326d565b92915050565b6000819050919050565b6132ac81613299565b81146132b757600080fd5b50565b6000813590506132c9816132a3565b92915050565b600080604083850312156132e6576132e5613231565b5b60006132f485828601613284565b9250506020613305858286016132ba565b9150509250929050565b61331881613299565b82525050565b6000602082019050613333600083018461330f565b92915050565b60007fffffffff0000000000000000000000000000000000000000000000000000000082169050919050565b61336e81613339565b811461337957600080fd5b50565b60008135905061338b81613365565b92915050565b6000602082840312156133a7576133a6613231565b5b60006133b58482850161337c565b91505092915050565b60008115159050919050565b6133d3816133be565b82525050565b60006020820190506133ee60008301846133ca565b92915050565b600081519050919050565b600082825260208201905092915050565b60005b8381101561342e578082015181840152602081019050613413565b60008484015250505050565b6000601f19601f8301169050919050565b6000613456826133f4565b61346081856133ff565b9350613470818560208601613410565b6134798161343a565b840191505092915050565b6000602082019050818103600083015261349e818461344b565b905092915050565b6000602082840312156134bc576134bb613231565b5b60006134ca848285016132ba565b91505092915050565b6000602082840312156134e9576134e8613231565b5b60006134f784828501613284565b91505092915050565b600080fd5b7f4e487b7100000000000000000000000000000000000000000000000000000000600052604160045260246000fd5b61353d8261343a565b810181811067ffffffffffffffff8211171561355c5761355b613505565b5b80604052505050565b600061356f613227565b905061357b8282613534565b919050565b600067ffffffffffffffff82111561359b5761359a613505565b5b602082029050602081019050919050565b600080fd5b60006135c46135bf84613580565b613565565b905080838252602082019050602084028301858111156135e7576135e66135ac565b5b835b8181101561361057806135fc88826132ba565b8452602084019350506020810190506135e9565b5050509392505050565b600082601f83011261362f5761362e613500565b5b813561363f8482602086016135b1565b91505092915050565b600080fd5b600067ffffffffffffffff82111561366857613667613505565b5b6136718261343a565b9050602081019050919050565b82818337600083830152505050565b60006136a061369b8461364d565b613565565b9050828152602081018484840111156136bc576136bb613648565b5b6136c784828561367e565b509392505050565b600082601f8301126136e4576136e3613500565b5b81356136f484826020860161368d565b91505092915050565b600080600080600060a0868803121561371957613718613231565b5b600061372788828901613284565b955050602061373888828901613284565b945050604086013567ffffffffffffffff81111561375957613758613236565b5b6137658882890161361a565b935050606086013567ffffffffffffffff81111561378657613785613236565b5b6137928882890161361a565b925050608086013567ffffffffffffffff8111156137b3576137b2613236565b5b6137bf888289016136cf565b9150509295509295909350565b600067ffffffffffffffff8211156137e7576137e6613505565b5b602082029050602081019050919050565b600061380b613806846137cc565b613565565b9050808382526020820190506020840283018581111561382e5761382d6135ac565b5b835b8181101561385757806138438882613284565b845260208401935050602081019050613830565b5050509392505050565b600082601f83011261387657613875613500565b5b81356138868482602086016137f8565b91505092915050565b600080604083850312156138a6576138a5613231565b5b600083013567ffffffffffffffff8111156138c4576138c3613236565b5b6138d085828601613861565b925050602083013567ffffffffffffffff8111156138f1576138f0613236565b5b6138fd8582860161361a565b9150509250929050565b600081519050919050565b600082825260208201905092915050565b6000819050602082019050919050565b61393c81613299565b82525050565b600061394e8383613933565b60208301905092915050565b6000602082019050919050565b600061397282613907565b61397c8185613912565b935061398783613923565b8060005b838110156139b857815161399f8882613942565b97506139aa8361395a565b92505060018101905061398b565b5085935050505092915050565b600060208201905081810360008301526139df8184613967565b905092915050565b600067ffffffffffffffff821115613a0257613a01613505565b5b613a0b8261343a565b9050602081019050919050565b6000613a2b613a26846139e7565b613565565b905082815260208101848484011115613a4757613a46613648565b5b613a5284828561367e565b509392505050565b600082601f830112613a6f57613a6e613500565b5b8135613a7f848260208601613a18565b91505092915050565b60008060408385031215613a9f57613a9e613231565b5b6000613aad858286016132ba565b925050602083013567ffffffffffffffff811115613ace57613acd613236565b5b613ada85828601613a5a565b9150509250929050565b600082825260208201905092915050565b6000613b00826133f4565b613b0a8185613ae4565b9350613b1a818560208601613410565b613b238161343a565b840191505092915050565b613b378161325b565b82525050565b6000608083016000830151613b556000860182613933565b5060208301518482036020860152613b6d8282613af5565b9150506040830151613b826040860182613b2e565b506060830151613b956060860182613933565b508091505092915050565b60006020820190508181036000830152613bba8184613b3d565b905092915050565b600060208284031215613bd857613bd7613231565b5b600082013567ffffffffffffffff811115613bf657613bf5613236565b5b613c0284828501613861565b91505092915050565b613c14816133be565b8114613c1f57600080fd5b50565b600081359050613c3181613c0b565b92915050565b60008060408385031215613c4e57613c4d613231565b5b6000613c5c85828601613284565b9250506020613c6d85828601613c22565b9150509250929050565b600081519050919050565b600082825260208201905092915050565b6000819050602082019050919050565b6000608083016000830151613cbb6000860182613933565b5060208301518482036020860152613cd38282613af5565b9150506040830151613ce86040860182613b2e565b506060830151613cfb6060860182613933565b508091505092915050565b6000613d128383613ca3565b905092915050565b6000602082019050919050565b6000613d3282613c77565b613d3c8185613c82565b935083602082028501613d4e85613c93565b8060005b85811015613d8a5784840389528151613d6b8582613d06565b9450613d7683613d1a565b925060208a01995050600181019050613d52565b50829750879550505050505092915050565b60006020820190508181036000830152613db68184613d27565b905092915050565b60008060408385031215613dd557613dd4613231565b5b6000613de385828601613284565b9250506020613df485828601613284565b9150509250929050565b600080600080600060a08688031215613e1a57613e19613231565b5b6000613e2888828901613284565b9550506020613e3988828901613284565b9450506040613e4a888289016132ba565b9350506060613e5b888289016132ba565b925050608086013567ffffffffffffffff811115613e7c57613e7b613236565b5b613e88888289016136cf565b9150509295509295909350565b600060208284031215613eab57613eaa613231565b5b600082013567ffffffffffffffff811115613ec957613ec8613236565b5b613ed58482850161361a565b91505092915050565b7f455243313135353a2061646472657373207a65726f206973206e6f742061207660008201527f616c6964206f776e657200000000000000000000000000000000000000000000602082015250565b6000613f3a602a836133ff565b9150613f4582613ede565b604082019050919050565b60006020820190508181036000830152613f6981613f2d565b9050919050565b7f4e487b7100000000000000000000000000000000000000000000000000000000600052602260045260246000fd5b60006002820490506001821680613fb757607f821691505b602082108103613fca57613fc9613f70565b5b50919050565b7f41646d696e73206f6e6c79000000000000000000000000000000000000000000600082015250565b6000614006600b836133ff565b915061401182613fd0565b602082019050919050565b6000602082019050818103600083015261403581613ff9565b9050919050565b7f455243313135353a2063616c6c6572206973206e6f7420746f6b656e206f776e60008201527f6572206f7220617070726f766564000000000000000000000000000000000000602082015250565b6000614098602e836133ff565b91506140a38261403c565b604082019050919050565b600060208201905081810360008301526140c78161408b565b9050919050565b7f455243313135353a206163636f756e747320616e6420696473206c656e67746860008201527f206d69736d617463680000000000000000000000000000000000000000000000602082015250565b600061412a6029836133ff565b9150614135826140ce565b604082019050919050565b600060208201905081810360008301526141598161411d565b9050919050565b7f4e487b7100000000000000000000000000000000000000000000000000000000600052603260045260246000fd5b7f4e487b7100000000000000000000000000000000000000000000000000000000600052601160045260246000fd5b60006141c982613299565b91507fffffffffffffffffffffffffffffffffffffffffffffffffffffffffffffffff82036141fb576141fa61418f565b5b600182019050919050565b7f4e656e67616a6f3a20696e76616c696420706172616d73000000000000000000600082015250565b600061423c6017836133ff565b915061424782614206565b602082019050919050565b6000602082019050818103600083015261426b8161422f565b9050919050565b600061427d82613299565b915061428883613299565b92508282019050808211156142a05761429f61418f565b5b92915050565b60006142b182613299565b91506142bc83613299565b92508282026142ca81613299565b915082820484148315176142e1576142e061418f565b5b5092915050565b60006142f382613299565b91506142fe83613299565b92508282039050818111156143165761431561418f565b5b92915050565b60008190508160005260206000209050919050565b60006020601f8301049050919050565b600082821b905092915050565b60006008830261437e7fffffffffffffffffffffffffffffffffffffffffffffffffffffffffffffffff82614341565b6143888683614341565b95508019841693508086168417925050509392505050565b6000819050919050565b60006143c56143c06143bb84613299565b6143a0565b613299565b9050919050565b6000819050919050565b6143df836143aa565b6143f36143eb826143cc565b84845461434e565b825550505050565b600090565b6144086143fb565b6144138184846143d6565b505050565b5b818110156144375761442c600082614400565b600181019050614419565b5050565b601f82111561447c5761444d8161431c565b61445684614331565b81016020851015614465578190505b61447961447185614331565b830182614418565b50505b505050565b600082821c905092915050565b600061449f60001984600802614481565b1980831691505092915050565b60006144b8838361448e565b9150826002028217905092915050565b6144d1826133f4565b67ffffffffffffffff8111156144ea576144e9613505565b5b6144f48254613f9f565b6144ff82828561443b565b600060209050601f8311600181146145325760008415614520578287015190505b61452a85826144ac565b865550614592565b601f1984166145408661431c565b60005b8281101561456857848901518255600182019150602085019450602081019050614543565b868310156145855784890151614581601f89168261448e565b8355505b6001600288020188555050505b505050505050565b60006060820190506145af600083018661330f565b81810360208301526145c1818561344b565b90506145d0604083018461330f565b949350505050565b7f4e656e67616a6f3a206e6f7420617661696c61626c6500000000000000000000600082015250565b600061460e6016836133ff565b9150614619826145d8565b602082019050919050565b6000602082019050818103600083015261463d81614601565b9050919050565b7f4e656564206f6e65206f72206d6f7265206e65772061646d696e730000000000600082015250565b600061467a601b836133ff565b915061468582614644565b602082019050919050565b600060208201905081810360008301526146a98161466d565b9050919050565b7f4e656e67616a6f3a204e6f74206d696e7461626c650000000000000000000000600082015250565b60006146e66015836133ff565b91506146f1826146b0565b602082019050919050565b60006020820190508181036000830152614715816146d9565b9050919050565b7f4e656e67616a6f3a20496e73756666696369656e742048656e6b616b7520546f60008201527f6b656e2042616c616e6365000000000000000000000000000000000000000000602082015250565b6000614778602b836133ff565b91506147838261471c565b604082019050919050565b600060208201905081810360008301526147a78161476b565b9050919050565b7f455243313135353a2069647320616e6420616d6f756e7473206c656e6774682060008201527f6d69736d61746368000000000000000000000000000000000000000000000000602082015250565b600061480a6028836133ff565b9150614815826147ae565b604082019050919050565b60006020820190508181036000830152614839816147fd565b9050919050565b7f455243313135353a207472616e7366657220746f20746865207a65726f20616460008201527f6472657373000000000000000000000000000000000000000000000000000000602082015250565b600061489c6025836133ff565b91506148a782614840565b604082019050919050565b600060208201905081810360008301526148cb8161488f565b9050919050565b7f455243313135353a20696e73756666696369656e742062616c616e636520666f60008201527f72207472616e7366657200000000000000000000000000000000000000000000602082015250565b600061492e602a836133ff565b9150614939826148d2565b604082019050919050565b6000602082019050818103600083015261495d81614921565b9050919050565b6000604082019050818103600083015261497e8185613967565b905081810360208301526149928184613967565b90509392505050565b7f4e656e67616a6f3a20496e73756666696369656e742048656e6b616b7556322060008201527f746f6b656e000000000000000000000000000000000000000000000000000000602082015250565b60006149f76025836133ff565b9150614a028261499b565b604082019050919050565b60006020820190508181036000830152614a26816149ea565b9050919050565b614a368161325b565b82525050565b6000606082019050614a516000830186614a2d565b614a5e6020830185614a2d565b614a6b604083018461330f565b949350505050565b600081519050614a8281613c0b565b92915050565b600060208284031215614a9e57614a9d613231565b5b6000614aac84828501614a73565b91505092915050565b7f4e656e67616a6f3a2048656e6b616b75207472616e73666572206661696c6564600082015250565b6000614aeb6020836133ff565b9150614af682614ab5565b602082019050919050565b60006020820190508181036000830152614b1a81614ade565b9050919050565b6000602082019050614b366000830184614a2d565b92915050565b600081519050614b4b816132a3565b92915050565b600060208284031215614b6757614b66613231565b5b6000614b7584828501614b3c565b91505092915050565b7f4e656e67616a6f3a20596f7520616c726561647920686176652074686973206e60008201527f656e67616a6f0000000000000000000000000000000000000000000000000000602082015250565b6000614bda6026836133ff565b9150614be582614b7e565b604082019050919050565b60006020820190508181036000830152614c0981614bcd565b9050919050565b7f4e656e67616a6f3a204d696e74206c696d697420726561636865640000000000600082015250565b6000614c46601b836133ff565b9150614c5182614c10565b602082019050919050565b60006020820190508181036000830152614c7581614c39565b9050919050565b7f455243313135353a206d696e7420746f20746865207a65726f2061646472657360008201527f7300000000000000000000000000000000000000000000000000000000000000602082015250565b6000614cd86021836133ff565b9150614ce382614c7c565b604082019050919050565b60006020820190508181036000830152614d0781614ccb565b9050919050565b6000604082019050614d23600083018561330f565b614d30602083018461330f565b9392505050565b7f455243313135353a2073657474696e6720617070726f76616c2073746174757360008201527f20666f722073656c660000000000000000000000000000000000000000000000602082015250565b6000614d936029836133ff565b9150614d9e82614d37565b604082019050919050565b60006020820190508181036000830152614dc281614d86565b9050919050565b600081519050919050565b600082825260208201905092915050565b6000614df082614dc9565b614dfa8185614dd4565b9350614e0a818560208601613410565b614e138161343a565b840191505092915050565b600060a082019050614e336000830188614a2d565b614e406020830187614a2d565b8181036040830152614e528186613967565b90508181036060830152614e668185613967565b90508181036080830152614e7a8184614de5565b90509695505050505050565b600081519050614e9581613365565b92915050565b600060208284031215614eb157614eb0613231565b5b6000614ebf84828501614e86565b91505092915050565b60008160e01c9050919050565b600060033d1115614ef45760046000803e614ef1600051614ec8565b90505b90565b600060443d10614f8457614f09613227565b60043d036004823e80513d602482011167ffffffffffffffff82111715614f31575050614f84565b808201805167ffffffffffffffff811115614f4f5750505050614f84565b80602083010160043d038501811115614f6c575050505050614f84565b614f7b82602001850186613534565b82955050505050505b90565b7f455243313135353a207472616e7366657220746f206e6f6e2d4552433131353560008201527f526563656976657220696d706c656d656e746572000000000000000000000000602082015250565b6000614fe36034836133ff565b9150614fee82614f87565b604082019050919050565b6000602082019050818103600083015261501281614fd6565b9050919050565b7f455243313135353a204552433131353552656365697665722072656a6563746560008201527f6420746f6b656e73000000000000000000000000000000000000000000000000602082015250565b60006150756028836133ff565b915061508082615019565b604082019050919050565b600060208201905081810360008301526150a481615068565b9050919050565b600060a0820190506150c06000830188614a2d565b6150cd6020830187614a2d565b6150da604083018661330f565b6150e7606083018561330f565b81810360808301526150f98184614de5565b90509695505050505050565b7f455243313135353a206275726e20616d6f756e74206578636565647320746f7460008201527f616c537570706c79000000000000000000000000000000000000000000000000602082015250565b60006151616028836133ff565b915061516c82615105565b604082019050919050565b6000602082019050818103600083015261519081615154565b905091905056fea26469706673582212203bf63d2122d1c73bafb72bbd3dcf6de7e194a3bcad18477baf3862671c79593364736f6c63430008110033",
  "linkReferences": {},
  "deployedLinkReferences": {}
}