{
  "_format": "hh-sol-artifact-1",
  "contractName": "Nengajo",
  "sourceName": "contracts/Nengajo.sol",
  "abi": [
    {
      "inputs": [
        {
          "internalType": "string",
          "name": "_name",
          "type": "string"
        },
        {
          "internalType": "string",
          "name": "_symbol",
          "type": "string"
        },
        {
          "internalType": "uint256",
          "name": "_open_blockTimestamp",
          "type": "uint256"
        },
        {
          "internalType": "uint256",
          "name": "_close_blockTimestamp",
          "type": "uint256"
        },
        {
          "internalType": "address",
          "name": "_henkakuTokenV2",
          "type": "address"
        },
        {
          "internalType": "address",
          "name": "_henkakuPoolWallet",
          "type": "address"
        }
      ],
      "stateMutability": "nonpayable",
      "type": "constructor"
    },
    {
      "anonymous": false,
      "inputs": [
        {
          "indexed": true,
          "internalType": "address",
          "name": "account",
          "type": "address"
        },
        {
          "indexed": true,
          "internalType": "address",
          "name": "operator",
          "type": "address"
        },
        {
          "indexed": false,
          "internalType": "bool",
          "name": "approved",
          "type": "bool"
        }
      ],
      "name": "ApprovalForAll",
      "type": "event"
    },
    {
      "anonymous": false,
      "inputs": [
        {
          "indexed": true,
          "internalType": "address",
          "name": "minter",
          "type": "address"
        },
        {
          "indexed": true,
          "internalType": "uint256",
          "name": "tokenId",
          "type": "uint256"
        }
      ],
      "name": "Mint",
      "type": "event"
    },
    {
      "anonymous": false,
      "inputs": [
        {
          "indexed": true,
          "internalType": "address",
          "name": "minter",
          "type": "address"
        },
        {
          "indexed": false,
          "internalType": "uint256[]",
          "name": "tokenIds",
          "type": "uint256[]"
        }
      ],
      "name": "MintBatch",
      "type": "event"
    },
    {
      "anonymous": false,
      "inputs": [
        {
          "indexed": true,
          "internalType": "address",
          "name": "creator",
          "type": "address"
        },
        {
          "indexed": false,
          "internalType": "uint256",
          "name": "tokenId",
          "type": "uint256"
        },
        {
          "indexed": false,
          "internalType": "string",
          "name": "metaDataURL",
          "type": "string"
        },
        {
          "indexed": false,
          "internalType": "uint256",
          "name": "maxSupply",
          "type": "uint256"
        }
      ],
      "name": "RegisterNengajo",
      "type": "event"
    },
    {
      "anonymous": false,
      "inputs": [
        {
          "indexed": true,
          "internalType": "address",
          "name": "operator",
          "type": "address"
        },
        {
          "indexed": true,
          "internalType": "address",
          "name": "from",
          "type": "address"
        },
        {
          "indexed": true,
          "internalType": "address",
          "name": "to",
          "type": "address"
        },
        {
          "indexed": false,
          "internalType": "uint256[]",
          "name": "ids",
          "type": "uint256[]"
        },
        {
          "indexed": false,
          "internalType": "uint256[]",
          "name": "values",
          "type": "uint256[]"
        }
      ],
      "name": "TransferBatch",
      "type": "event"
    },
    {
      "anonymous": false,
      "inputs": [
        {
          "indexed": true,
          "internalType": "address",
          "name": "operator",
          "type": "address"
        },
        {
          "indexed": true,
          "internalType": "address",
          "name": "from",
          "type": "address"
        },
        {
          "indexed": true,
          "internalType": "address",
          "name": "to",
          "type": "address"
        },
        {
          "indexed": false,
          "internalType": "uint256",
          "name": "id",
          "type": "uint256"
        },
        {
          "indexed": false,
          "internalType": "uint256",
          "name": "value",
          "type": "uint256"
        }
      ],
      "name": "TransferSingle",
      "type": "event"
    },
    {
      "anonymous": false,
      "inputs": [
        {
          "indexed": false,
          "internalType": "string",
          "name": "value",
          "type": "string"
        },
        {
          "indexed": true,
          "internalType": "uint256",
          "name": "id",
          "type": "uint256"
        }
      ],
      "name": "URI",
      "type": "event"
    },
    {
      "inputs": [
        {
          "internalType": "address[]",
          "name": "_newAdmins",
          "type": "address[]"
        }
      ],
      "name": "addAdmins",
      "outputs": [],
      "stateMutability": "nonpayable",
      "type": "function"
    },
    {
      "inputs": [
        {
          "internalType": "address",
          "name": "account",
          "type": "address"
        },
        {
          "internalType": "uint256",
          "name": "id",
          "type": "uint256"
        }
      ],
      "name": "balanceOf",
      "outputs": [
        {
          "internalType": "uint256",
          "name": "",
          "type": "uint256"
        }
      ],
      "stateMutability": "view",
      "type": "function"
    },
    {
      "inputs": [
        {
          "internalType": "address[]",
          "name": "accounts",
          "type": "address[]"
        },
        {
          "internalType": "uint256[]",
          "name": "ids",
          "type": "uint256[]"
        }
      ],
      "name": "balanceOfBatch",
      "outputs": [
        {
          "internalType": "uint256[]",
          "name": "",
          "type": "uint256[]"
        }
      ],
      "stateMutability": "view",
      "type": "function"
    },
    {
      "inputs": [
        {
          "internalType": "uint256",
          "name": "_maxSupply",
          "type": "uint256"
        }
      ],
      "name": "calcPrice",
      "outputs": [
        {
          "internalType": "uint256",
          "name": "",
          "type": "uint256"
        }
      ],
      "stateMutability": "view",
      "type": "function"
    },
    {
      "inputs": [
        {
          "internalType": "address",
          "name": "_address",
          "type": "address"
        }
      ],
      "name": "changeHenkakuPool",
      "outputs": [],
      "stateMutability": "nonpayable",
      "type": "function"
    },
    {
      "inputs": [],
      "name": "checkRemainingCloseTime",
      "outputs": [
        {
          "internalType": "uint256",
          "name": "",
          "type": "uint256"
        }
      ],
      "stateMutability": "view",
      "type": "function"
    },
    {
      "inputs": [],
      "name": "checkRemainingOpenTime",
      "outputs": [
        {
          "internalType": "uint256",
          "name": "",
          "type": "uint256"
        }
      ],
      "stateMutability": "view",
      "type": "function"
    },
    {
      "inputs": [],
      "name": "close_blockTimestamp",
      "outputs": [
        {
          "internalType": "uint256",
          "name": "",
          "type": "uint256"
        }
      ],
      "stateMutability": "view",
      "type": "function"
    },
    {
      "inputs": [
        {
          "internalType": "address",
          "name": "_deleteAdmin",
          "type": "address"
        }
      ],
      "name": "deleteAdmin",
      "outputs": [],
      "stateMutability": "nonpayable",
      "type": "function"
    },
    {
      "inputs": [
        {
          "internalType": "uint256",
          "name": "id",
          "type": "uint256"
        }
      ],
      "name": "exists",
      "outputs": [
        {
          "internalType": "bool",
          "name": "",
          "type": "bool"
        }
      ],
      "stateMutability": "view",
      "type": "function"
    },
    {
      "inputs": [],
      "name": "henkakuPoolWallet",
      "outputs": [
        {
          "internalType": "address",
          "name": "",
          "type": "address"
        }
      ],
      "stateMutability": "view",
      "type": "function"
    },
    {
      "inputs": [],
      "name": "henkakuV2",
      "outputs": [
        {
          "internalType": "address",
          "name": "",
          "type": "address"
        }
      ],
      "stateMutability": "view",
      "type": "function"
    },
    {
      "inputs": [
        {
          "internalType": "address",
          "name": "_address",
          "type": "address"
        }
      ],
      "name": "isAdmin",
      "outputs": [
        {
          "internalType": "bool",
          "name": "",
          "type": "bool"
        }
      ],
      "stateMutability": "view",
      "type": "function"
    },
    {
      "inputs": [
        {
          "internalType": "address",
          "name": "account",
          "type": "address"
        },
        {
          "internalType": "address",
          "name": "operator",
          "type": "address"
        }
      ],
      "name": "isApprovedForAll",
      "outputs": [
        {
          "internalType": "bool",
          "name": "",
          "type": "bool"
        }
      ],
      "stateMutability": "view",
      "type": "function"
    },
    {
      "inputs": [
        {
          "internalType": "uint256",
          "name": "_tokenId",
          "type": "uint256"
        }
      ],
      "name": "mint",
      "outputs": [],
      "stateMutability": "nonpayable",
      "type": "function"
    },
    {
      "inputs": [
        {
          "internalType": "uint256[]",
          "name": "_tokenIdsList",
          "type": "uint256[]"
        }
      ],
      "name": "mintBatch",
      "outputs": [],
      "stateMutability": "nonpayable",
      "type": "function"
    },
    {
      "inputs": [],
      "name": "mintable",
      "outputs": [
        {
          "internalType": "bool",
          "name": "",
          "type": "bool"
        }
      ],
      "stateMutability": "view",
      "type": "function"
    },
    {
      "inputs": [],
      "name": "name",
      "outputs": [
        {
          "internalType": "string",
          "name": "",
          "type": "string"
        }
      ],
      "stateMutability": "view",
      "type": "function"
    },
    {
      "inputs": [],
      "name": "open_blockTimestamp",
      "outputs": [
        {
          "internalType": "uint256",
          "name": "",
          "type": "uint256"
        }
      ],
      "stateMutability": "view",
      "type": "function"
    },
    {
      "inputs": [
        {
          "internalType": "uint256",
          "name": "_maxSupply",
          "type": "uint256"
        },
        {
          "internalType": "string",
          "name": "_metaDataURL",
          "type": "string"
        }
      ],
      "name": "registerNengajo",
      "outputs": [],
      "stateMutability": "nonpayable",
      "type": "function"
    },
    {
      "inputs": [],
      "name": "retrieveAllNengajoes",
      "outputs": [
        {
          "components": [
            {
              "internalType": "uint256",
              "name": "id",
              "type": "uint256"
            },
            {
              "internalType": "string",
              "name": "uri",
              "type": "string"
            },
            {
              "internalType": "address",
              "name": "creator",
              "type": "address"
            },
            {
              "internalType": "uint256",
              "name": "maxSupply",
              "type": "uint256"
            }
          ],
          "internalType": "struct Nengajo.NengajoInfo[]",
          "name": "",
          "type": "tuple[]"
        }
      ],
      "stateMutability": "view",
      "type": "function"
    },
    {
      "inputs": [
        {
          "internalType": "address",
          "name": "_address",
          "type": "address"
        }
      ],
      "name": "retrieveMintedNengajoes",
      "outputs": [
        {
          "components": [
            {
              "internalType": "uint256",
              "name": "id",
              "type": "uint256"
            },
            {
              "internalType": "string",
              "name": "uri",
              "type": "string"
            },
            {
              "internalType": "address",
              "name": "creator",
              "type": "address"
            },
            {
              "internalType": "uint256",
              "name": "maxSupply",
              "type": "uint256"
            }
          ],
          "internalType": "struct Nengajo.NengajoInfo[]",
          "name": "",
          "type": "tuple[]"
        }
      ],
      "stateMutability": "view",
      "type": "function"
    },
    {
      "inputs": [
        {
          "internalType": "uint256",
          "name": "_tokenId",
          "type": "uint256"
        }
      ],
      "name": "retrieveRegisteredNengajo",
      "outputs": [
        {
          "components": [
            {
              "internalType": "uint256",
              "name": "id",
              "type": "uint256"
            },
            {
              "internalType": "string",
              "name": "uri",
              "type": "string"
            },
            {
              "internalType": "address",
              "name": "creator",
              "type": "address"
            },
            {
              "internalType": "uint256",
              "name": "maxSupply",
              "type": "uint256"
            }
          ],
          "internalType": "struct Nengajo.NengajoInfo",
          "name": "",
          "type": "tuple"
        }
      ],
      "stateMutability": "view",
      "type": "function"
    },
    {
      "inputs": [
        {
          "internalType": "address",
          "name": "_address",
          "type": "address"
        }
      ],
      "name": "retrieveRegisteredNengajoes",
      "outputs": [
        {
          "components": [
            {
              "internalType": "uint256",
              "name": "id",
              "type": "uint256"
            },
            {
              "internalType": "string",
              "name": "uri",
              "type": "string"
            },
            {
              "internalType": "address",
              "name": "creator",
              "type": "address"
            },
            {
              "internalType": "uint256",
              "name": "maxSupply",
              "type": "uint256"
            }
          ],
          "internalType": "struct Nengajo.NengajoInfo[]",
          "name": "",
          "type": "tuple[]"
        }
      ],
      "stateMutability": "view",
      "type": "function"
    },
    {
      "inputs": [
        {
          "internalType": "address",
          "name": "from",
          "type": "address"
        },
        {
          "internalType": "address",
          "name": "to",
          "type": "address"
        },
        {
          "internalType": "uint256[]",
          "name": "ids",
          "type": "uint256[]"
        },
        {
          "internalType": "uint256[]",
          "name": "amounts",
          "type": "uint256[]"
        },
        {
          "internalType": "bytes",
          "name": "data",
          "type": "bytes"
        }
      ],
      "name": "safeBatchTransferFrom",
      "outputs": [],
      "stateMutability": "nonpayable",
      "type": "function"
    },
    {
      "inputs": [
        {
          "internalType": "address",
          "name": "from",
          "type": "address"
        },
        {
          "internalType": "address",
          "name": "to",
          "type": "address"
        },
        {
          "internalType": "uint256",
          "name": "id",
          "type": "uint256"
        },
        {
          "internalType": "uint256",
          "name": "amount",
          "type": "uint256"
        },
        {
          "internalType": "bytes",
          "name": "data",
          "type": "bytes"
        }
      ],
      "name": "safeTransferFrom",
      "outputs": [],
      "stateMutability": "nonpayable",
      "type": "function"
    },
    {
      "inputs": [
        {
          "internalType": "address",
          "name": "operator",
          "type": "address"
        },
        {
          "internalType": "bool",
          "name": "approved",
          "type": "bool"
        }
      ],
      "name": "setApprovalForAll",
      "outputs": [],
      "stateMutability": "nonpayable",
      "type": "function"
    },
    {
      "inputs": [
        {
          "internalType": "bytes4",
          "name": "interfaceId",
          "type": "bytes4"
        }
      ],
      "name": "supportsInterface",
      "outputs": [
        {
          "internalType": "bool",
          "name": "",
          "type": "bool"
        }
      ],
      "stateMutability": "view",
      "type": "function"
    },
    {
      "inputs": [],
      "name": "switchMintable",
      "outputs": [],
      "stateMutability": "nonpayable",
      "type": "function"
    },
    {
      "inputs": [],
      "name": "symbol",
      "outputs": [
        {
          "internalType": "string",
          "name": "",
          "type": "string"
        }
      ],
      "stateMutability": "view",
      "type": "function"
    },
    {
      "inputs": [
        {
          "internalType": "uint256",
          "name": "_tokenId",
          "type": "uint256"
        }
      ],
      "name": "tokenURI",
      "outputs": [
        {
          "internalType": "string",
          "name": "",
          "type": "string"
        }
      ],
      "stateMutability": "view",
      "type": "function"
    },
    {
      "inputs": [
        {
          "internalType": "uint256",
          "name": "id",
          "type": "uint256"
        }
      ],
      "name": "totalSupply",
      "outputs": [
        {
          "internalType": "uint256",
          "name": "",
          "type": "uint256"
        }
      ],
      "stateMutability": "view",
      "type": "function"
    },
    {
      "inputs": [
        {
          "internalType": "uint256",
          "name": "_tokenId",
          "type": "uint256"
        }
      ],
      "name": "uri",
      "outputs": [
        {
          "internalType": "string",
          "name": "",
          "type": "string"
        }
      ],
      "stateMutability": "view",
      "type": "function"
    }
  ],
  "bytecode": "0x60c06040523480156200001157600080fd5b5060405162006358380380620063588339818101604052810190620000379190620004d9565b81818585604051806020016040528060008152506200005c816200027b60201b60201c565b506001600460003373ffffffffffffffffffffffffffffffffffffffff1673ffffffffffffffffffffffffffffffffffffffff16815260200190815260200160002060006101000a81548160ff02191690831515021790555081608081815250508060a08181525050505081600560016101000a81548173ffffffffffffffffffffffffffffffffffffffff021916908373ffffffffffffffffffffffffffffffffffffffff16021790555080600660006101000a81548173ffffffffffffffffffffffffffffffffffffffff021916908373ffffffffffffffffffffffffffffffffffffffff160217905550505085600890816200015c9190620007f4565b5084600990816200016e9190620007f4565b50600c604051806080016040528060008152602001604051806020016040528060008152508152602001600073ffffffffffffffffffffffffffffffffffffffff16815260200160008152509080600181540180825580915050600190039060005260206000209060040201600090919091909150600082015181600001556020820151816001019081620002049190620007f4565b5060408201518160020160006101000a81548173ffffffffffffffffffffffffffffffffffffffff021916908373ffffffffffffffffffffffffffffffffffffffff1602179055506060820151816003015550506200026f60076200029060201b620025531760201c565b505050505050620008db565b80600290816200028c9190620007f4565b5050565b6001816000016000828254019250508190555050565b6000604051905090565b600080fd5b600080fd5b600080fd5b600080fd5b6000601f19601f8301169050919050565b7f4e487b7100000000000000000000000000000000000000000000000000000000600052604160045260246000fd5b6200030f82620002c4565b810181811067ffffffffffffffff82111715620003315762000330620002d5565b5b80604052505050565b600062000346620002a6565b905062000354828262000304565b919050565b600067ffffffffffffffff821115620003775762000376620002d5565b5b6200038282620002c4565b9050602081019050919050565b60005b83811015620003af57808201518184015260208101905062000392565b60008484015250505050565b6000620003d2620003cc8462000359565b6200033a565b905082815260208101848484011115620003f157620003f0620002bf565b5b620003fe8482856200038f565b509392505050565b600082601f8301126200041e576200041d620002ba565b5b815162000430848260208601620003bb565b91505092915050565b6000819050919050565b6200044e8162000439565b81146200045a57600080fd5b50565b6000815190506200046e8162000443565b92915050565b600073ffffffffffffffffffffffffffffffffffffffff82169050919050565b6000620004a18262000474565b9050919050565b620004b38162000494565b8114620004bf57600080fd5b50565b600081519050620004d381620004a8565b92915050565b60008060008060008060c08789031215620004f957620004f8620002b0565b5b600087015167ffffffffffffffff8111156200051a5762000519620002b5565b5b6200052889828a0162000406565b965050602087015167ffffffffffffffff8111156200054c576200054b620002b5565b5b6200055a89828a0162000406565b95505060406200056d89828a016200045d565b94505060606200058089828a016200045d565b93505060806200059389828a01620004c2565b92505060a0620005a689828a01620004c2565b9150509295509295509295565b600081519050919050565b7f4e487b7100000000000000000000000000000000000000000000000000000000600052602260045260246000fd5b600060028204905060018216806200060657607f821691505b6020821081036200061c576200061b620005be565b5b50919050565b60008190508160005260206000209050919050565b60006020601f8301049050919050565b600082821b905092915050565b600060088302620006867fffffffffffffffffffffffffffffffffffffffffffffffffffffffffffffffff8262000647565b62000692868362000647565b95508019841693508086168417925050509392505050565b6000819050919050565b6000620006d5620006cf620006c98462000439565b620006aa565b62000439565b9050919050565b6000819050919050565b620006f183620006b4565b620007096200070082620006dc565b84845462000654565b825550505050565b600090565b6200072062000711565b6200072d818484620006e6565b505050565b5b8181101562000755576200074960008262000716565b60018101905062000733565b5050565b601f821115620007a4576200076e8162000622565b620007798462000637565b8101602085101562000789578190505b620007a1620007988562000637565b83018262000732565b50505b505050565b600082821c905092915050565b6000620007c960001984600802620007a9565b1980831691505092915050565b6000620007e48383620007b6565b9150826002028217905092915050565b620007ff82620005b3565b67ffffffffffffffff8111156200081b576200081a620002d5565b5b620008278254620005ed565b6200083482828562000759565b600060209050601f8311600181146200086c576000841562000857578287015190505b620008638582620007d6565b865550620008d3565b601f1984166200087c8662000622565b60005b82811015620008a6578489015182556001820191506020850194506020810190506200087f565b86831015620008c65784890151620008c2601f891682620007b6565b8355505b6001600288020188555050505b505050505050565b60805160a051615a2d6200092b600039600081816117ad01528181611f3e015281816120e601526122f7015260008181610dcb015281816117820152818161228801526122cc0152615a2d6000f3fe608060405234801561001057600080fd5b50600436106101fa5760003560e01c806395d89b411161011a578063e41932ac116100ad578063f242432a1161007c578063f242432a1461060f578063f4c20c431461062b578063f8ca625314610649578063fd6d779914610667578063ffb2b55a14610685576101fa565b8063e41932ac14610585578063e985e9c5146105a3578063e9f7677d146105d3578063f138e389146105f1576101fa565b8063ab75d59f116100e9578063ab75d59f146104c5578063bd85b039146104f5578063bf4e575c14610525578063c87b56dd14610555576101fa565b806395d89b41146104535780639c54df6414610471578063a0712d681461048d578063a22cb465146104a9576101fa565b80633cef973c116101925780634f558e79116101615780634f558e79146103cd57806356ffa504146103fd57806372a589a7146104195780639298067e14610423576101fa565b80633cef973c14610345578063456e854c146103635780634bf365df1461037f5780634e1273f41461039d576101fa565b806320b92bf6116101ce57806320b92bf6146102ad57806324d7806c146102dd57806327e1f7df1461030d5780632eb2c2d614610329576101fa565b8062fdd58e146101ff57806301ffc9a71461022f57806306fdde031461025f5780630e89341c1461027d575b600080fd5b61021960048036038101906102149190613ac3565b6106a1565b6040516102269190613b12565b60405180910390f35b61024960048036038101906102449190613b85565b610769565b6040516102569190613bcd565b60405180910390f35b61026761084b565b6040516102749190613c78565b60405180910390f35b61029760048036038101906102929190613c9a565b6108d9565b6040516102a49190613c78565b60405180910390f35b6102c760048036038101906102c29190613c9a565b6108ef565b6040516102d49190613b12565b60405180910390f35b6102f760048036038101906102f29190613cc7565b610beb565b6040516103049190613bcd565b60405180910390f35b61032760048036038101906103229190613cc7565b610c41565b005b610343600480360381019061033e9190613ef1565b610d28565b005b61034d610dc9565b60405161035a9190613b12565b60405180910390f35b61037d60048036038101906103789190613cc7565b610ded565b005b610387610f4d565b6040516103949190613bcd565b60405180910390f35b6103b760048036038101906103b29190614083565b610f60565b6040516103c491906141b9565b60405180910390f35b6103e760048036038101906103e29190613c9a565b611079565b6040516103f49190613bcd565b60405180910390f35b6104176004803603810190610412919061427c565b61108d565b005b6104216112ba565b005b61043d60048036038101906104389190613c9a565b611372565b60405161044a9190614394565b60405180910390f35b61045b611538565b6040516104689190613c78565b60405180910390f35b61048b600480360381019061048691906143b6565b6115c6565b005b6104a760048036038101906104a29190613c9a565b611780565b005b6104c360048036038101906104be919061442b565b61193f565b005b6104df60048036038101906104da9190613cc7565b611955565b6040516104ec9190614590565b60405180910390f35b61050f600480360381019061050a9190613c9a565b611c4e565b60405161051c9190613b12565b60405180910390f35b61053f600480360381019061053a9190613cc7565b611c6b565b60405161054c9190614590565b60405180910390f35b61056f600480360381019061056a9190613c9a565b611f26565b60405161057c9190613c78565b60405180910390f35b61058d611f3c565b60405161059a9190613b12565b60405180910390f35b6105bd60048036038101906105b891906145b2565b611f60565b6040516105ca9190613bcd565b60405180910390f35b6105db611ff4565b6040516105e89190614601565b60405180910390f35b6105f961201a565b6040516106069190614601565b60405180910390f35b6106296004803603810190610624919061461c565b612040565b005b6106336120e1565b6040516106409190613b12565b60405180910390f35b610651612128565b60405161065e9190614590565b60405180910390f35b61066f612283565b60405161067c9190613b12565b60405180910390f35b61069f600480360381019061069a91906146b3565b6122ca565b005b60008073ffffffffffffffffffffffffffffffffffffffff168373ffffffffffffffffffffffffffffffffffffffff1603610711576040517f08c379a00000000000000000000000000000000000000000000000000000000081526004016107089061476e565b60405180910390fd5b60008083815260200190815260200160002060008473ffffffffffffffffffffffffffffffffffffffff1673ffffffffffffffffffffffffffffffffffffffff16815260200190815260200160002054905092915050565b60007fd9b67a26000000000000000000000000000000000000000000000000000000007bffffffffffffffffffffffffffffffffffffffffffffffffffffffff1916827bffffffffffffffffffffffffffffffffffffffffffffffffffffffff1916148061083457507f0e89341c000000000000000000000000000000000000000000000000000000007bffffffffffffffffffffffffffffffffffffffffffffffffffffffff1916827bffffffffffffffffffffffffffffffffffffffffffffffffffffffff1916145b80610844575061084382612569565b5b9050919050565b60088054610858906147bd565b80601f0160208091040260200160405190810160405280929190818152602001828054610884906147bd565b80156108d15780601f106108a6576101008083540402835291602001916108d1565b820191906000526020600020905b8154815290600101906020018083116108b457829003601f168201915b505050505081565b60606108e482611372565b602001519050919050565b600080600c805480602002602001604051908101604052809291908181526020016000905b82821015610a42578382906000526020600020906004020160405180608001604052908160008201548152602001600182018054610951906147bd565b80601f016020809104026020016040519081016040528092919081815260200182805461097d906147bd565b80156109ca5780601f1061099f576101008083540402835291602001916109ca565b820191906000526020600020905b8154815290600101906020018083116109ad57829003601f168201915b505050505081526020016002820160009054906101000a900473ffffffffffffffffffffffffffffffffffffffff1673ffffffffffffffffffffffffffffffffffffffff1673ffffffffffffffffffffffffffffffffffffffff16815260200160038201548152505081526020019060010190610914565b5050505090506000600a60003373ffffffffffffffffffffffffffffffffffffffff1673ffffffffffffffffffffffffffffffffffffffff168152602001908152602001600020805480602002602001604051908101604052809291908181526020018280548015610ad357602002820191906000526020600020905b815481526020019060010190808311610abf575b50505050509050600080600090505b8251811015610b3c5783838281518110610aff57610afe6147ee565b5b602002602001015181518110610b1857610b176147ee565b5b60200260200101516060015182610b2f919061484c565b9150806001019050610ae2565b506000808683610b4c919061484c565b9050600a8111610b6657678ac7230489e800009150610bde565b80600a1080610b755750606581105b15610bad57670de0b6b3a76400006028600583610b929190614880565b610b9c91906148c2565b610ba69190614880565b9150610bdd565b670de0b6b3a764000061021c600a83610bc69190614880565b610bd091906148c2565b610bda9190614880565b91505b5b8195505050505050919050565b6000600460008373ffffffffffffffffffffffffffffffffffffffff1673ffffffffffffffffffffffffffffffffffffffff16815260200190815260200160002060009054906101000a900460ff169050919050565b600460003373ffffffffffffffffffffffffffffffffffffffff1673ffffffffffffffffffffffffffffffffffffffff16815260200190815260200160002060009054906101000a900460ff16610ccd576040517f08c379a0000000000000000000000000000000000000000000000000000000008152600401610cc490614942565b60405180910390fd5b6000600460008373ffffffffffffffffffffffffffffffffffffffff1673ffffffffffffffffffffffffffffffffffffffff16815260200190815260200160002060006101000a81548160ff02191690831515021790555050565b610d306125d3565b73ffffffffffffffffffffffffffffffffffffffff168573ffffffffffffffffffffffffffffffffffffffff161480610d765750610d7585610d706125d3565b611f60565b5b610db5576040517f08c379a0000000000000000000000000000000000000000000000000000000008152600401610dac906149d4565b60405180910390fd5b610dc285858585856125db565b5050505050565b7f000000000000000000000000000000000000000000000000000000000000000081565b600460003373ffffffffffffffffffffffffffffffffffffffff1673ffffffffffffffffffffffffffffffffffffffff16815260200190815260200160002060009054906101000a900460ff16610e79576040517f08c379a0000000000000000000000000000000000000000000000000000000008152600401610e7090614942565b60405180910390fd5b8073ffffffffffffffffffffffffffffffffffffffff16600660009054906101000a900473ffffffffffffffffffffffffffffffffffffffff1673ffffffffffffffffffffffffffffffffffffffff1603610f09576040517f08c379a0000000000000000000000000000000000000000000000000000000008152600401610f0090614a40565b60405180910390fd5b80600660006101000a81548173ffffffffffffffffffffffffffffffffffffffff021916908373ffffffffffffffffffffffffffffffffffffffff16021790555050565b600560009054906101000a900460ff1681565b60608151835114610fa6576040517f08c379a0000000000000000000000000000000000000000000000000000000008152600401610f9d90614ad2565b60405180910390fd5b6000835167ffffffffffffffff811115610fc357610fc2613cf9565b5b604051908082528060200260200182016040528015610ff15781602001602082028036833780820191505090505b50905060005b845181101561106e5761103e858281518110611016576110156147ee565b5b6020026020010151858381518110611031576110306147ee565b5b60200260200101516106a1565b828281518110611051576110506147ee565b5b6020026020010181815250508061106790614af2565b9050610ff7565b508091505092915050565b60008061108583611c4e565b119050919050565b6000821415806110ba57506040518060200160405280600081525080519060200120818051906020012014155b6110f9576040517f08c379a00000000000000000000000000000000000000000000000000000000081526004016110f090614b86565b60405180910390fd5b6000611104836108ef565b9050600061111260076128fc565b9050600a60003373ffffffffffffffffffffffffffffffffffffffff1673ffffffffffffffffffffffffffffffffffffffff168152602001908152602001600020819080600181540180825580915050600190039060005260206000200160009091909190915055600c60405180608001604052808381526020018581526020013373ffffffffffffffffffffffffffffffffffffffff1681526020018681525090806001815401808255809150506001900390600052602060002090600402016000909190919091506000820151816000015560208201518160010190816111fb9190614d52565b5060408201518160020160006101000a81548173ffffffffffffffffffffffffffffffffffffffff021916908373ffffffffffffffffffffffffffffffffffffffff1602179055506060820151816003015550506112596007612553565b6112628261290a565b3373ffffffffffffffffffffffffffffffffffffffff167f7394b8bb37beec806be0e1338b9f41cd3f4f0608a81cc3f51464a8ffad2f5ac78285876040516112ac93929190614e24565b60405180910390a250505050565b600460003373ffffffffffffffffffffffffffffffffffffffff1673ffffffffffffffffffffffffffffffffffffffff16815260200190815260200160002060009054906101000a900460ff16611346576040517f08c379a000000000000000000000000000000000000000000000000000000000815260040161133d90614942565b60405180910390fd5b600560009054906101000a900460ff1615600560006101000a81548160ff021916908315150217905550565b61137a6139dd565b6000600c805480602002602001604051908101604052809291908181526020016000905b828210156114cc5783829060005260206000209060040201604051806080016040529081600082015481526020016001820180546113db906147bd565b80601f0160208091040260200160405190810160405280929190818152602001828054611407906147bd565b80156114545780601f1061142957610100808354040283529160200191611454565b820191906000526020600020905b81548152906001019060200180831161143757829003601f168201915b505050505081526020016002820160009054906101000a900473ffffffffffffffffffffffffffffffffffffffff1673ffffffffffffffffffffffffffffffffffffffff1673ffffffffffffffffffffffffffffffffffffffff1681526020016003820154815250508152602001906001019061139e565b50505050905082815111611515576040517f08c379a000000000000000000000000000000000000000000000000000000000815260040161150c90614eae565b60405180910390fd5b808381518110611528576115276147ee565b5b6020026020010151915050919050565b60098054611545906147bd565b80601f0160208091040260200160405190810160405280929190818152602001828054611571906147bd565b80156115be5780601f10611593576101008083540402835291602001916115be565b820191906000526020600020905b8154815290600101906020018083116115a157829003601f168201915b505050505081565b600460003373ffffffffffffffffffffffffffffffffffffffff1673ffffffffffffffffffffffffffffffffffffffff16815260200190815260200160002060009054906101000a900460ff16611652576040517f08c379a000000000000000000000000000000000000000000000000000000000815260040161164990614942565b60405180910390fd5b6000815190506000811161169b576040517f08c379a000000000000000000000000000000000000000000000000000000000815260040161169290614f1a565b60405180910390fd5b60005b8181101561177b5760008382815181106116bb576116ba6147ee565b5b60200260200101519050600460008273ffffffffffffffffffffffffffffffffffffffff1673ffffffffffffffffffffffffffffffffffffffff16815260200190815260200160002060009054906101000a900460ff1661176f576001600460008373ffffffffffffffffffffffffffffffffffffffff1673ffffffffffffffffffffffffffffffffffffffff16815260200190815260200160002060006101000a81548160ff0219169083151502179055505b8160010191505061169e565b505050565b7f0000000000000000000000000000000000000000000000000000000000000000421180156117ce5750427f0000000000000000000000000000000000000000000000000000000000000000115b806117e55750600560009054906101000a900460ff165b611824576040517f08c379a000000000000000000000000000000000000000000000000000000000815260040161181b90614f86565b60405180910390fd5b61182e6001612a5e565b61186d576040517f08c379a000000000000000000000000000000000000000000000000000000000815260040161186490615018565b60405180910390fd5b61187681612b14565b6118923382600160405180602001604052806000815250612bb9565b600b60003373ffffffffffffffffffffffffffffffffffffffff1673ffffffffffffffffffffffffffffffffffffffff168152602001908152602001600020819080600181540180825580915050600190039060005260206000200160009091909190915055803373ffffffffffffffffffffffffffffffffffffffff167f0f6798a560793a54c3bcfe86a93cde1e73087d944c0ea20544137d412139688560405160405180910390a350565b61195161194a6125d3565b8383612d69565b5050565b60606000600c805480602002602001604051908101604052809291908181526020016000905b82821015611aa95783829060005260206000209060040201604051806080016040529081600082015481526020016001820180546119b8906147bd565b80601f01602080910402602001604051908101604052809291908181526020018280546119e4906147bd565b8015611a315780601f10611a0657610100808354040283529160200191611a31565b820191906000526020600020905b815481529060010190602001808311611a1457829003601f168201915b505050505081526020016002820160009054906101000a900473ffffffffffffffffffffffffffffffffffffffff1673ffffffffffffffffffffffffffffffffffffffff1673ffffffffffffffffffffffffffffffffffffffff1681526020016003820154815250508152602001906001019061197b565b5050505090506000600a60008573ffffffffffffffffffffffffffffffffffffffff1673ffffffffffffffffffffffffffffffffffffffff168152602001908152602001600020805480602002602001604051908101604052809291908181526020018280548015611b3a57602002820191906000526020600020905b815481526020019060010190808311611b26575b505050505090506000815167ffffffffffffffff811115611b5e57611b5d613cf9565b5b604051908082528060200260200182016040528015611b9757816020015b611b846139dd565b815260200190600190039081611b7c5790505b50905060005b8251811015611c4257600084848381518110611bbc57611bbb6147ee565b5b602002602001015181518110611bd557611bd46147ee565b5b602002602001015190508673ffffffffffffffffffffffffffffffffffffffff16816040015173ffffffffffffffffffffffffffffffffffffffff1603611c365780838381518110611c2a57611c296147ee565b5b60200260200101819052505b81600101915050611b9d565b50809350505050919050565b600060036000838152602001908152602001600020549050919050565b60606000600c805480602002602001604051908101604052809291908181526020016000905b82821015611dbf578382906000526020600020906004020160405180608001604052908160008201548152602001600182018054611cce906147bd565b80601f0160208091040260200160405190810160405280929190818152602001828054611cfa906147bd565b8015611d475780601f10611d1c57610100808354040283529160200191611d47565b820191906000526020600020905b815481529060010190602001808311611d2a57829003601f168201915b505050505081526020016002820160009054906101000a900473ffffffffffffffffffffffffffffffffffffffff1673ffffffffffffffffffffffffffffffffffffffff1673ffffffffffffffffffffffffffffffffffffffff16815260200160038201548152505081526020019060010190611c91565b5050505090506000600b60008573ffffffffffffffffffffffffffffffffffffffff1673ffffffffffffffffffffffffffffffffffffffff168152602001908152602001600020805480602002602001604051908101604052809291908181526020018280548015611e5057602002820191906000526020600020905b815481526020019060010190808311611e3c575b505050505090506000815167ffffffffffffffff811115611e7457611e73613cf9565b5b604051908082528060200260200182016040528015611ead57816020015b611e9a6139dd565b815260200190600190039081611e925790505b50905060005b8251811015611f1a5783838281518110611ed057611ecf6147ee565b5b602002602001015181518110611ee957611ee86147ee565b5b6020026020010151828281518110611f0457611f036147ee565b5b6020026020010181905250806001019050611eb3565b50809350505050919050565b6060611f3182611372565b602001519050919050565b7f000000000000000000000000000000000000000000000000000000000000000081565b6000600160008473ffffffffffffffffffffffffffffffffffffffff1673ffffffffffffffffffffffffffffffffffffffff16815260200190815260200160002060008373ffffffffffffffffffffffffffffffffffffffff1673ffffffffffffffffffffffffffffffffffffffff16815260200190815260200160002060009054906101000a900460ff16905092915050565b600560019054906101000a900473ffffffffffffffffffffffffffffffffffffffff1681565b600660009054906101000a900473ffffffffffffffffffffffffffffffffffffffff1681565b6120486125d3565b73ffffffffffffffffffffffffffffffffffffffff168573ffffffffffffffffffffffffffffffffffffffff16148061208e575061208d856120886125d3565b611f60565b5b6120cd576040517f08c379a00000000000000000000000000000000000000000000000000000000081526004016120c4906149d4565b60405180910390fd5b6120da8585858585612ed5565b5050505050565b6000807f00000000000000000000000000000000000000000000000000000000000000009050428111612115576000612122565b428161212191906148c2565b5b91505090565b6060600c805480602002602001604051908101604052809291908181526020016000905b8282101561227a578382906000526020600020906004020160405180608001604052908160008201548152602001600182018054612189906147bd565b80601f01602080910402602001604051908101604052809291908181526020018280546121b5906147bd565b80156122025780601f106121d757610100808354040283529160200191612202565b820191906000526020600020905b8154815290600101906020018083116121e557829003601f168201915b505050505081526020016002820160009054906101000a900473ffffffffffffffffffffffffffffffffffffffff1673ffffffffffffffffffffffffffffffffffffffff1673ffffffffffffffffffffffffffffffffffffffff1681526020016003820154815250508152602001906001019061214c565b50505050905090565b6000807f000000000000000000000000000000000000000000000000000000000000000090504281116122b75760006122c4565b42816122c391906148c2565b5b91505090565b7f0000000000000000000000000000000000000000000000000000000000000000421180156123185750427f0000000000000000000000000000000000000000000000000000000000000000115b8061232f5750600560009054906101000a900460ff165b61236e576040517f08c379a000000000000000000000000000000000000000000000000000000000815260040161236590614f86565b60405180910390fd5b6123786001612a5e565b6123b7576040517f08c379a00000000000000000000000000000000000000000000000000000000081526004016123ae90615018565b60405180910390fd5b60008151905060008167ffffffffffffffff8111156123d9576123d8613cf9565b5b6040519080825280602002602001820160405280156124075781602001602082028036833780820191505090505b50905060005b828110156124e45761243884828151811061242b5761242a6147ee565b5b6020026020010151612b14565b600182828151811061244d5761244c6147ee565b5b602002602001018181525050600b60003373ffffffffffffffffffffffffffffffffffffffff1673ffffffffffffffffffffffffffffffffffffffff1681526020019081526020016000208482815181106124ab576124aa6147ee565b5b6020026020010151908060018154018082558091505060019003906000526020600020016000909190919091505580600101905061240d565b5061250033848360405180602001604052806000815250613170565b3373ffffffffffffffffffffffffffffffffffffffff167f9be917823b4393f3fa19fa0c1936aaa3771cc52d9ce10b46c4d71ea2850661fd8460405161254691906141b9565b60405180910390a2505050565b6001816000016000828254019250508190555050565b60007f01ffc9a7000000000000000000000000000000000000000000000000000000007bffffffffffffffffffffffffffffffffffffffffffffffffffffffff1916827bffffffffffffffffffffffffffffffffffffffffffffffffffffffff1916149050919050565b600033905090565b815183511461261f576040517f08c379a0000000000000000000000000000000000000000000000000000000008152600401612616906150aa565b60405180910390fd5b600073ffffffffffffffffffffffffffffffffffffffff168473ffffffffffffffffffffffffffffffffffffffff160361268e576040517f08c379a00000000000000000000000000000000000000000000000000000000081526004016126859061513c565b60405180910390fd5b60006126986125d3565b90506126a881878787878761339c565b60005b84518110156128595760008582815181106126c9576126c86147ee565b5b6020026020010151905060008583815181106126e8576126e76147ee565b5b60200260200101519050600080600084815260200190815260200160002060008b73ffffffffffffffffffffffffffffffffffffffff1673ffffffffffffffffffffffffffffffffffffffff16815260200190815260200160002054905081811015612789576040517f08c379a0000000000000000000000000000000000000000000000000000000008152600401612780906151ce565b60405180910390fd5b81810360008085815260200190815260200160002060008c73ffffffffffffffffffffffffffffffffffffffff1673ffffffffffffffffffffffffffffffffffffffff168152602001908152602001600020819055508160008085815260200190815260200160002060008b73ffffffffffffffffffffffffffffffffffffffff1673ffffffffffffffffffffffffffffffffffffffff168152602001908152602001600020600082825461283e919061484c565b925050819055505050508061285290614af2565b90506126ab565b508473ffffffffffffffffffffffffffffffffffffffff168673ffffffffffffffffffffffffffffffffffffffff168273ffffffffffffffffffffffffffffffffffffffff167f4a39dc06d4c0dbc64b70af90fd698a233a518aa5d07e595d983b8c0526c8f7fb87876040516128d09291906151ee565b60405180910390a46128e68187878787876133b2565b6128f48187878787876133ba565b505050505050565b600081600001549050919050565b61291381612a5e565b612952576040517f08c379a000000000000000000000000000000000000000000000000000000000815260040161294990615297565b60405180910390fd5b6000600560019054906101000a900473ffffffffffffffffffffffffffffffffffffffff1673ffffffffffffffffffffffffffffffffffffffff166323b872dd33600660009054906101000a900473ffffffffffffffffffffffffffffffffffffffff16856040518463ffffffff1660e01b81526004016129d5939291906152b7565b6020604051808303816000875af11580156129f4573d6000803e3d6000fd5b505050506040513d601f19601f82011682018060405250810190612a189190615303565b905080612a5a576040517f08c379a0000000000000000000000000000000000000000000000000000000008152600401612a519061537c565b60405180910390fd5b5050565b600081600560019054906101000a900473ffffffffffffffffffffffffffffffffffffffff1673ffffffffffffffffffffffffffffffffffffffff166370a08231336040518263ffffffff1660e01b8152600401612abc9190614601565b602060405180830381865afa158015612ad9573d6000803e3d6000fd5b505050506040513d601f19601f82011682018060405250810190612afd91906153b1565b1015612b0a576000612b0d565b60015b9050919050565b6000612b2033836106a1565b14612b60576040517f08c379a0000000000000000000000000000000000000000000000000000000008152600401612b5790615450565b60405180910390fd5b612b6981611c4e565b612b7282611372565b6060015111612bb6576040517f08c379a0000000000000000000000000000000000000000000000000000000008152600401612bad906154bc565b60405180910390fd5b50565b600073ffffffffffffffffffffffffffffffffffffffff168473ffffffffffffffffffffffffffffffffffffffff1603612c28576040517f08c379a0000000000000000000000000000000000000000000000000000000008152600401612c1f9061554e565b60405180910390fd5b6000612c326125d3565b90506000612c3f85613591565b90506000612c4c85613591565b9050612c5d8360008985858961339c565b8460008088815260200190815260200160002060008973ffffffffffffffffffffffffffffffffffffffff1673ffffffffffffffffffffffffffffffffffffffff1681526020019081526020016000206000828254612cbc919061484c565b925050819055508673ffffffffffffffffffffffffffffffffffffffff16600073ffffffffffffffffffffffffffffffffffffffff168473ffffffffffffffffffffffffffffffffffffffff167fc3d58168c5ae7397731d063d5bbf3d657854427343f4c083240f7aacaa2d0f628989604051612d3a92919061556e565b60405180910390a4612d51836000898585896133b2565b612d608360008989898961360b565b50505050505050565b8173ffffffffffffffffffffffffffffffffffffffff168373ffffffffffffffffffffffffffffffffffffffff1603612dd7576040517f08c379a0000000000000000000000000000000000000000000000000000000008152600401612dce90615609565b60405180910390fd5b80600160008573ffffffffffffffffffffffffffffffffffffffff1673ffffffffffffffffffffffffffffffffffffffff16815260200190815260200160002060008473ffffffffffffffffffffffffffffffffffffffff1673ffffffffffffffffffffffffffffffffffffffff16815260200190815260200160002060006101000a81548160ff0219169083151502179055508173ffffffffffffffffffffffffffffffffffffffff168373ffffffffffffffffffffffffffffffffffffffff167f17307eab39ab6107e8899845ad3d59bd9653f200f220920489ca2b5937696c3183604051612ec89190613bcd565b60405180910390a3505050565b600073ffffffffffffffffffffffffffffffffffffffff168473ffffffffffffffffffffffffffffffffffffffff1603612f44576040517f08c379a0000000000000000000000000000000000000000000000000000000008152600401612f3b9061513c565b60405180910390fd5b6000612f4e6125d3565b90506000612f5b85613591565b90506000612f6885613591565b9050612f7883898985858961339c565b600080600088815260200190815260200160002060008a73ffffffffffffffffffffffffffffffffffffffff1673ffffffffffffffffffffffffffffffffffffffff1681526020019081526020016000205490508581101561300f576040517f08c379a0000000000000000000000000000000000000000000000000000000008152600401613006906151ce565b60405180910390fd5b85810360008089815260200190815260200160002060008b73ffffffffffffffffffffffffffffffffffffffff1673ffffffffffffffffffffffffffffffffffffffff168152602001908152602001600020819055508560008089815260200190815260200160002060008a73ffffffffffffffffffffffffffffffffffffffff1673ffffffffffffffffffffffffffffffffffffffff16815260200190815260200160002060008282546130c4919061484c565b925050819055508773ffffffffffffffffffffffffffffffffffffffff168973ffffffffffffffffffffffffffffffffffffffff168573ffffffffffffffffffffffffffffffffffffffff167fc3d58168c5ae7397731d063d5bbf3d657854427343f4c083240f7aacaa2d0f628a8a60405161314192919061556e565b60405180910390a4613157848a8a86868a6133b2565b613165848a8a8a8a8a61360b565b505050505050505050565b600073ffffffffffffffffffffffffffffffffffffffff168473ffffffffffffffffffffffffffffffffffffffff16036131df576040517f08c379a00000000000000000000000000000000000000000000000000000000081526004016131d69061554e565b60405180910390fd5b8151835114613223576040517f08c379a000000000000000000000000000000000000000000000000000000000815260040161321a906150aa565b60405180910390fd5b600061322d6125d3565b905061323e8160008787878761339c565b60005b84518110156132f75783818151811061325d5761325c6147ee565b5b602002602001015160008087848151811061327b5761327a6147ee565b5b6020026020010151815260200190815260200160002060008873ffffffffffffffffffffffffffffffffffffffff1673ffffffffffffffffffffffffffffffffffffffff16815260200190815260200160002060008282546132dd919061484c565b9250508190555080806132ef90614af2565b915050613241565b508473ffffffffffffffffffffffffffffffffffffffff16600073ffffffffffffffffffffffffffffffffffffffff168273ffffffffffffffffffffffffffffffffffffffff167f4a39dc06d4c0dbc64b70af90fd698a233a518aa5d07e595d983b8c0526c8f7fb878760405161336f9291906151ee565b60405180910390a4613386816000878787876133b2565b613395816000878787876133ba565b5050505050565b6133aa8686868686866137e2565b505050505050565b505050505050565b6133d98473ffffffffffffffffffffffffffffffffffffffff166139b2565b15613589578373ffffffffffffffffffffffffffffffffffffffff1663bc197c8187878686866040518663ffffffff1660e01b815260040161341f95949392919061567e565b6020604051808303816000875af192505050801561345b57506040513d601f19601f8201168201806040525081019061345891906156fb565b60015b61350057613467615735565b806308c379a0036134c3575061347b615757565b8061348657506134c5565b806040517f08c379a00000000000000000000000000000000000000000000000000000000081526004016134ba9190613c78565b60405180910390fd5b505b6040517f08c379a00000000000000000000000000000000000000000000000000000000081526004016134f790615859565b60405180910390fd5b63bc197c8160e01b7bffffffffffffffffffffffffffffffffffffffffffffffffffffffff1916817bffffffffffffffffffffffffffffffffffffffffffffffffffffffff191614613587576040517f08c379a000000000000000000000000000000000000000000000000000000000815260040161357e906158eb565b60405180910390fd5b505b505050505050565b60606000600167ffffffffffffffff8111156135b0576135af613cf9565b5b6040519080825280602002602001820160405280156135de5781602001602082028036833780820191505090505b50905082816000815181106135f6576135f56147ee565b5b60200260200101818152505080915050919050565b61362a8473ffffffffffffffffffffffffffffffffffffffff166139b2565b156137da578373ffffffffffffffffffffffffffffffffffffffff1663f23a6e6187878686866040518663ffffffff1660e01b815260040161367095949392919061590b565b6020604051808303816000875af19250505080156136ac57506040513d601f19601f820116820180604052508101906136a991906156fb565b60015b613751576136b8615735565b806308c379a00361371457506136cc615757565b806136d75750613716565b806040517f08c379a000000000000000000000000000000000000000000000000000000000815260040161370b9190613c78565b60405180910390fd5b505b6040517f08c379a000000000000000000000000000000000000000000000000000000000815260040161374890615859565b60405180910390fd5b63f23a6e6160e01b7bffffffffffffffffffffffffffffffffffffffffffffffffffffffff1916817bffffffffffffffffffffffffffffffffffffffffffffffffffffffff1916146137d8576040517f08c379a00000000000000000000000000000000000000000000000000000000081526004016137cf906158eb565b60405180910390fd5b505b505050505050565b6137f08686868686866139d5565b600073ffffffffffffffffffffffffffffffffffffffff168573ffffffffffffffffffffffffffffffffffffffff16036138a15760005b835181101561389f57828181518110613843576138426147ee565b5b602002602001015160036000868481518110613862576138616147ee565b5b602002602001015181526020019081526020016000206000828254613887919061484c565b925050819055508061389890614af2565b9050613827565b505b600073ffffffffffffffffffffffffffffffffffffffff168473ffffffffffffffffffffffffffffffffffffffff16036139aa5760005b83518110156139a85760008482815181106138f6576138f56147ee565b5b602002602001015190506000848381518110613915576139146147ee565b5b602002602001015190506000600360008481526020019081526020016000205490508181101561397a576040517f08c379a0000000000000000000000000000000000000000000000000000000008152600401613971906159d7565b60405180910390fd5b8181036003600085815260200190815260200160002081905550505050806139a190614af2565b90506138d8565b505b505050505050565b6000808273ffffffffffffffffffffffffffffffffffffffff163b119050919050565b505050505050565b60405180608001604052806000815260200160608152602001600073ffffffffffffffffffffffffffffffffffffffff168152602001600081525090565b6000604051905090565b600080fd5b600080fd5b600073ffffffffffffffffffffffffffffffffffffffff82169050919050565b6000613a5a82613a2f565b9050919050565b613a6a81613a4f565b8114613a7557600080fd5b50565b600081359050613a8781613a61565b92915050565b6000819050919050565b613aa081613a8d565b8114613aab57600080fd5b50565b600081359050613abd81613a97565b92915050565b60008060408385031215613ada57613ad9613a25565b5b6000613ae885828601613a78565b9250506020613af985828601613aae565b9150509250929050565b613b0c81613a8d565b82525050565b6000602082019050613b276000830184613b03565b92915050565b60007fffffffff0000000000000000000000000000000000000000000000000000000082169050919050565b613b6281613b2d565b8114613b6d57600080fd5b50565b600081359050613b7f81613b59565b92915050565b600060208284031215613b9b57613b9a613a25565b5b6000613ba984828501613b70565b91505092915050565b60008115159050919050565b613bc781613bb2565b82525050565b6000602082019050613be26000830184613bbe565b92915050565b600081519050919050565b600082825260208201905092915050565b60005b83811015613c22578082015181840152602081019050613c07565b60008484015250505050565b6000601f19601f8301169050919050565b6000613c4a82613be8565b613c548185613bf3565b9350613c64818560208601613c04565b613c6d81613c2e565b840191505092915050565b60006020820190508181036000830152613c928184613c3f565b905092915050565b600060208284031215613cb057613caf613a25565b5b6000613cbe84828501613aae565b91505092915050565b600060208284031215613cdd57613cdc613a25565b5b6000613ceb84828501613a78565b91505092915050565b600080fd5b7f4e487b7100000000000000000000000000000000000000000000000000000000600052604160045260246000fd5b613d3182613c2e565b810181811067ffffffffffffffff82111715613d5057613d4f613cf9565b5b80604052505050565b6000613d63613a1b565b9050613d6f8282613d28565b919050565b600067ffffffffffffffff821115613d8f57613d8e613cf9565b5b602082029050602081019050919050565b600080fd5b6000613db8613db384613d74565b613d59565b90508083825260208201905060208402830185811115613ddb57613dda613da0565b5b835b81811015613e045780613df08882613aae565b845260208401935050602081019050613ddd565b5050509392505050565b600082601f830112613e2357613e22613cf4565b5b8135613e33848260208601613da5565b91505092915050565b600080fd5b600067ffffffffffffffff821115613e5c57613e5b613cf9565b5b613e6582613c2e565b9050602081019050919050565b82818337600083830152505050565b6000613e94613e8f84613e41565b613d59565b905082815260208101848484011115613eb057613eaf613e3c565b5b613ebb848285613e72565b509392505050565b600082601f830112613ed857613ed7613cf4565b5b8135613ee8848260208601613e81565b91505092915050565b600080600080600060a08688031215613f0d57613f0c613a25565b5b6000613f1b88828901613a78565b9550506020613f2c88828901613a78565b945050604086013567ffffffffffffffff811115613f4d57613f4c613a2a565b5b613f5988828901613e0e565b935050606086013567ffffffffffffffff811115613f7a57613f79613a2a565b5b613f8688828901613e0e565b925050608086013567ffffffffffffffff811115613fa757613fa6613a2a565b5b613fb388828901613ec3565b9150509295509295909350565b600067ffffffffffffffff821115613fdb57613fda613cf9565b5b602082029050602081019050919050565b6000613fff613ffa84613fc0565b613d59565b9050808382526020820190506020840283018581111561402257614021613da0565b5b835b8181101561404b57806140378882613a78565b845260208401935050602081019050614024565b5050509392505050565b600082601f83011261406a57614069613cf4565b5b813561407a848260208601613fec565b91505092915050565b6000806040838503121561409a57614099613a25565b5b600083013567ffffffffffffffff8111156140b8576140b7613a2a565b5b6140c485828601614055565b925050602083013567ffffffffffffffff8111156140e5576140e4613a2a565b5b6140f185828601613e0e565b9150509250929050565b600081519050919050565b600082825260208201905092915050565b6000819050602082019050919050565b61413081613a8d565b82525050565b60006141428383614127565b60208301905092915050565b6000602082019050919050565b6000614166826140fb565b6141708185614106565b935061417b83614117565b8060005b838110156141ac5781516141938882614136565b975061419e8361414e565b92505060018101905061417f565b5085935050505092915050565b600060208201905081810360008301526141d3818461415b565b905092915050565b600067ffffffffffffffff8211156141f6576141f5613cf9565b5b6141ff82613c2e565b9050602081019050919050565b600061421f61421a846141db565b613d59565b90508281526020810184848401111561423b5761423a613e3c565b5b614246848285613e72565b509392505050565b600082601f83011261426357614262613cf4565b5b813561427384826020860161420c565b91505092915050565b6000806040838503121561429357614292613a25565b5b60006142a185828601613aae565b925050602083013567ffffffffffffffff8111156142c2576142c1613a2a565b5b6142ce8582860161424e565b9150509250929050565b600082825260208201905092915050565b60006142f482613be8565b6142fe81856142d8565b935061430e818560208601613c04565b61431781613c2e565b840191505092915050565b61432b81613a4f565b82525050565b60006080830160008301516143496000860182614127565b506020830151848203602086015261436182826142e9565b91505060408301516143766040860182614322565b5060608301516143896060860182614127565b508091505092915050565b600060208201905081810360008301526143ae8184614331565b905092915050565b6000602082840312156143cc576143cb613a25565b5b600082013567ffffffffffffffff8111156143ea576143e9613a2a565b5b6143f684828501614055565b91505092915050565b61440881613bb2565b811461441357600080fd5b50565b600081359050614425816143ff565b92915050565b6000806040838503121561444257614441613a25565b5b600061445085828601613a78565b925050602061446185828601614416565b9150509250929050565b600081519050919050565b600082825260208201905092915050565b6000819050602082019050919050565b60006080830160008301516144af6000860182614127565b50602083015184820360208601526144c782826142e9565b91505060408301516144dc6040860182614322565b5060608301516144ef6060860182614127565b508091505092915050565b60006145068383614497565b905092915050565b6000602082019050919050565b60006145268261446b565b6145308185614476565b93508360208202850161454285614487565b8060005b8581101561457e578484038952815161455f85826144fa565b945061456a8361450e565b925060208a01995050600181019050614546565b50829750879550505050505092915050565b600060208201905081810360008301526145aa818461451b565b905092915050565b600080604083850312156145c9576145c8613a25565b5b60006145d785828601613a78565b92505060206145e885828601613a78565b9150509250929050565b6145fb81613a4f565b82525050565b600060208201905061461660008301846145f2565b92915050565b600080600080600060a0868803121561463857614637613a25565b5b600061464688828901613a78565b955050602061465788828901613a78565b945050604061466888828901613aae565b935050606061467988828901613aae565b925050608086013567ffffffffffffffff81111561469a57614699613a2a565b5b6146a688828901613ec3565b9150509295509295909350565b6000602082840312156146c9576146c8613a25565b5b600082013567ffffffffffffffff8111156146e7576146e6613a2a565b5b6146f384828501613e0e565b91505092915050565b7f455243313135353a2061646472657373207a65726f206973206e6f742061207660008201527f616c6964206f776e657200000000000000000000000000000000000000000000602082015250565b6000614758602a83613bf3565b9150614763826146fc565b604082019050919050565b600060208201905081810360008301526147878161474b565b9050919050565b7f4e487b7100000000000000000000000000000000000000000000000000000000600052602260045260246000fd5b600060028204905060018216806147d557607f821691505b6020821081036147e8576147e761478e565b5b50919050565b7f4e487b7100000000000000000000000000000000000000000000000000000000600052603260045260246000fd5b7f4e487b7100000000000000000000000000000000000000000000000000000000600052601160045260246000fd5b600061485782613a8d565b915061486283613a8d565b925082820190508082111561487a5761487961481d565b5b92915050565b600061488b82613a8d565b915061489683613a8d565b92508282026148a481613a8d565b915082820484148315176148bb576148ba61481d565b5b5092915050565b60006148cd82613a8d565b91506148d883613a8d565b92508282039050818111156148f0576148ef61481d565b5b92915050565b7f41646d696e73206f6e6c79000000000000000000000000000000000000000000600082015250565b600061492c600b83613bf3565b9150614937826148f6565b602082019050919050565b6000602082019050818103600083015261495b8161491f565b9050919050565b7f455243313135353a2063616c6c6572206973206e6f7420746f6b656e206f776e60008201527f6572206f7220617070726f766564000000000000000000000000000000000000602082015250565b60006149be602e83613bf3565b91506149c982614962565b604082019050919050565b600060208201905081810360008301526149ed816149b1565b9050919050565b7f48656e6b616b7520506f6f6c3a2073616d652061646472657373000000000000600082015250565b6000614a2a601a83613bf3565b9150614a35826149f4565b602082019050919050565b60006020820190508181036000830152614a5981614a1d565b9050919050565b7f455243313135353a206163636f756e747320616e6420696473206c656e67746860008201527f206d69736d617463680000000000000000000000000000000000000000000000602082015250565b6000614abc602983613bf3565b9150614ac782614a60565b604082019050919050565b60006020820190508181036000830152614aeb81614aaf565b9050919050565b6000614afd82613a8d565b91507fffffffffffffffffffffffffffffffffffffffffffffffffffffffffffffffff8203614b2f57614b2e61481d565b5b600182019050919050565b7f4e656e67616a6f3a20696e76616c696420706172616d73000000000000000000600082015250565b6000614b70601783613bf3565b9150614b7b82614b3a565b602082019050919050565b60006020820190508181036000830152614b9f81614b63565b9050919050565b60008190508160005260206000209050919050565b60006020601f8301049050919050565b600082821b905092915050565b600060088302614c087fffffffffffffffffffffffffffffffffffffffffffffffffffffffffffffffff82614bcb565b614c128683614bcb565b95508019841693508086168417925050509392505050565b6000819050919050565b6000614c4f614c4a614c4584613a8d565b614c2a565b613a8d565b9050919050565b6000819050919050565b614c6983614c34565b614c7d614c7582614c56565b848454614bd8565b825550505050565b600090565b614c92614c85565b614c9d818484614c60565b505050565b5b81811015614cc157614cb6600082614c8a565b600181019050614ca3565b5050565b601f821115614d0657614cd781614ba6565b614ce084614bbb565b81016020851015614cef578190505b614d03614cfb85614bbb565b830182614ca2565b50505b505050565b600082821c905092915050565b6000614d2960001984600802614d0b565b1980831691505092915050565b6000614d428383614d18565b9150826002028217905092915050565b614d5b82613be8565b67ffffffffffffffff811115614d7457614d73613cf9565b5b614d7e82546147bd565b614d89828285614cc5565b600060209050601f831160018114614dbc5760008415614daa578287015190505b614db48582614d36565b865550614e1c565b601f198416614dca86614ba6565b60005b82811015614df257848901518255600182019150602085019450602081019050614dcd565b86831015614e0f5784890151614e0b601f891682614d18565b8355505b6001600288020188555050505b505050505050565b6000606082019050614e396000830186613b03565b8181036020830152614e4b8185613c3f565b9050614e5a6040830184613b03565b949350505050565b7f4e656e67616a6f3a206e6f7420617661696c61626c6500000000000000000000600082015250565b6000614e98601683613bf3565b9150614ea382614e62565b602082019050919050565b60006020820190508181036000830152614ec781614e8b565b9050919050565b7f4e656564206f6e65206f72206d6f7265206e65772061646d696e730000000000600082015250565b6000614f04601b83613bf3565b9150614f0f82614ece565b602082019050919050565b60006020820190508181036000830152614f3381614ef7565b9050919050565b7f4e656e67616a6f3a204e6f74206d696e7461626c650000000000000000000000600082015250565b6000614f70601583613bf3565b9150614f7b82614f3a565b602082019050919050565b60006020820190508181036000830152614f9f81614f63565b9050919050565b7f4e656e67616a6f3a20496e73756666696369656e742048656e6b616b7520546f60008201527f6b656e2042616c616e6365000000000000000000000000000000000000000000602082015250565b6000615002602b83613bf3565b915061500d82614fa6565b604082019050919050565b6000602082019050818103600083015261503181614ff5565b9050919050565b7f455243313135353a2069647320616e6420616d6f756e7473206c656e6774682060008201527f6d69736d61746368000000000000000000000000000000000000000000000000602082015250565b6000615094602883613bf3565b915061509f82615038565b604082019050919050565b600060208201905081810360008301526150c381615087565b9050919050565b7f455243313135353a207472616e7366657220746f20746865207a65726f20616460008201527f6472657373000000000000000000000000000000000000000000000000000000602082015250565b6000615126602583613bf3565b9150615131826150ca565b604082019050919050565b6000602082019050818103600083015261515581615119565b9050919050565b7f455243313135353a20696e73756666696369656e742062616c616e636520666f60008201527f72207472616e7366657200000000000000000000000000000000000000000000602082015250565b60006151b8602a83613bf3565b91506151c38261515c565b604082019050919050565b600060208201905081810360008301526151e7816151ab565b9050919050565b60006040820190508181036000830152615208818561415b565b9050818103602083015261521c818461415b565b90509392505050565b7f4e656e67616a6f3a20496e73756666696369656e742048656e6b616b7556322060008201527f746f6b656e000000000000000000000000000000000000000000000000000000602082015250565b6000615281602583613bf3565b915061528c82615225565b604082019050919050565b600060208201905081810360008301526152b081615274565b9050919050565b60006060820190506152cc60008301866145f2565b6152d960208301856145f2565b6152e66040830184613b03565b949350505050565b6000815190506152fd816143ff565b92915050565b60006020828403121561531957615318613a25565b5b6000615327848285016152ee565b91505092915050565b7f4e656e67616a6f3a2048656e6b616b75207472616e73666572206661696c6564600082015250565b6000615366602083613bf3565b915061537182615330565b602082019050919050565b6000602082019050818103600083015261539581615359565b9050919050565b6000815190506153ab81613a97565b92915050565b6000602082840312156153c7576153c6613a25565b5b60006153d58482850161539c565b91505092915050565b7f4e656e67616a6f3a20596f7520616c726561647920686176652074686973206e60008201527f656e67616a6f0000000000000000000000000000000000000000000000000000602082015250565b600061543a602683613bf3565b9150615445826153de565b604082019050919050565b600060208201905081810360008301526154698161542d565b9050919050565b7f4e656e67616a6f3a204d696e74206c696d697420726561636865640000000000600082015250565b60006154a6601b83613bf3565b91506154b182615470565b602082019050919050565b600060208201905081810360008301526154d581615499565b9050919050565b7f455243313135353a206d696e7420746f20746865207a65726f2061646472657360008201527f7300000000000000000000000000000000000000000000000000000000000000602082015250565b6000615538602183613bf3565b9150615543826154dc565b604082019050919050565b600060208201905081810360008301526155678161552b565b9050919050565b60006040820190506155836000830185613b03565b6155906020830184613b03565b9392505050565b7f455243313135353a2073657474696e6720617070726f76616c2073746174757360008201527f20666f722073656c660000000000000000000000000000000000000000000000602082015250565b60006155f3602983613bf3565b91506155fe82615597565b604082019050919050565b60006020820190508181036000830152615622816155e6565b9050919050565b600081519050919050565b600082825260208201905092915050565b600061565082615629565b61565a8185615634565b935061566a818560208601613c04565b61567381613c2e565b840191505092915050565b600060a08201905061569360008301886145f2565b6156a060208301876145f2565b81810360408301526156b2818661415b565b905081810360608301526156c6818561415b565b905081810360808301526156da8184615645565b90509695505050505050565b6000815190506156f581613b59565b92915050565b60006020828403121561571157615710613a25565b5b600061571f848285016156e6565b91505092915050565b60008160e01c9050919050565b600060033d11156157545760046000803e615751600051615728565b90505b90565b600060443d106157e457615769613a1b565b60043d036004823e80513d602482011167ffffffffffffffff821117156157915750506157e4565b808201805167ffffffffffffffff8111156157af57505050506157e4565b80602083010160043d0385018111156157cc5750505050506157e4565b6157db82602001850186613d28565b82955050505050505b90565b7f455243313135353a207472616e7366657220746f206e6f6e2d4552433131353560008201527f526563656976657220696d706c656d656e746572000000000000000000000000602082015250565b6000615843603483613bf3565b915061584e826157e7565b604082019050919050565b6000602082019050818103600083015261587281615836565b9050919050565b7f455243313135353a204552433131353552656365697665722072656a6563746560008201527f6420746f6b656e73000000000000000000000000000000000000000000000000602082015250565b60006158d5602883613bf3565b91506158e082615879565b604082019050919050565b60006020820190508181036000830152615904816158c8565b9050919050565b600060a08201905061592060008301886145f2565b61592d60208301876145f2565b61593a6040830186613b03565b6159476060830185613b03565b81810360808301526159598184615645565b90509695505050505050565b7f455243313135353a206275726e20616d6f756e74206578636565647320746f7460008201527f616c537570706c79000000000000000000000000000000000000000000000000602082015250565b60006159c1602883613bf3565b91506159cc82615965565b604082019050919050565b600060208201905081810360008301526159f0816159b4565b905091905056fea26469706673582212204ae2276cb3f9725b553efebc945e4ef2ddd0e1d7c229dd62fa0decc4bf23c6b664736f6c63430008110033",
  "linkReferences": {},
  "deployedLinkReferences": {}
}