{
  "_format": "hh-sol-artifact-1",
  "contractName": "Otakiage",
  "sourceName": "contracts/community/Otakiage.sol",
  "abi": [
    {
      "inputs": [
        {
          "internalType": "address",
          "name": "_trustedForwarder",
          "type": "address"
        },
        {
          "internalType": "address",
          "name": "_omamoriAddress",
          "type": "address"
        }
      ],
      "stateMutability": "nonpayable",
      "type": "constructor"
    },
    {
      "inputs": [
        {
          "internalType": "address",
          "name": "sender",
          "type": "address"
        },
        {
          "internalType": "uint256",
          "name": "tokenId",
          "type": "uint256"
        },
        {
          "internalType": "address",
          "name": "owner",
          "type": "address"
        }
      ],
      "name": "ERC721IncorrectOwner",
      "type": "error"
    },
    {
      "inputs": [
        {
          "internalType": "address",
          "name": "operator",
          "type": "address"
        },
        {
          "internalType": "uint256",
          "name": "tokenId",
          "type": "uint256"
        }
      ],
      "name": "ERC721InsufficientApproval",
      "type": "error"
    },
    {
      "inputs": [
        {
          "internalType": "address",
          "name": "approver",
          "type": "address"
        }
      ],
      "name": "ERC721InvalidApprover",
      "type": "error"
    },
    {
      "inputs": [
        {
          "internalType": "address",
          "name": "operator",
          "type": "address"
        }
      ],
      "name": "ERC721InvalidOperator",
      "type": "error"
    },
    {
      "inputs": [
        {
          "internalType": "address",
          "name": "owner",
          "type": "address"
        }
      ],
      "name": "ERC721InvalidOwner",
      "type": "error"
    },
    {
      "inputs": [
        {
          "internalType": "address",
          "name": "receiver",
          "type": "address"
        }
      ],
      "name": "ERC721InvalidReceiver",
      "type": "error"
    },
    {
      "inputs": [
        {
          "internalType": "address",
          "name": "sender",
          "type": "address"
        }
      ],
      "name": "ERC721InvalidSender",
      "type": "error"
    },
    {
      "inputs": [
        {
          "internalType": "uint256",
          "name": "tokenId",
          "type": "uint256"
        }
      ],
      "name": "ERC721NonexistentToken",
      "type": "error"
    },
    {
      "anonymous": false,
      "inputs": [
        {
          "indexed": true,
          "internalType": "address",
          "name": "owner",
          "type": "address"
        },
        {
          "indexed": true,
          "internalType": "address",
          "name": "approved",
          "type": "address"
        },
        {
          "indexed": true,
          "internalType": "uint256",
          "name": "tokenId",
          "type": "uint256"
        }
      ],
      "name": "Approval",
      "type": "event"
    },
    {
      "anonymous": false,
      "inputs": [
        {
          "indexed": true,
          "internalType": "address",
          "name": "owner",
          "type": "address"
        },
        {
          "indexed": true,
          "internalType": "address",
          "name": "operator",
          "type": "address"
        },
        {
          "indexed": false,
          "internalType": "bool",
          "name": "approved",
          "type": "bool"
        }
      ],
      "name": "ApprovalForAll",
      "type": "event"
    },
    {
      "anonymous": false,
      "inputs": [
        {
          "indexed": true,
          "internalType": "address",
          "name": "to",
          "type": "address"
        },
        {
          "indexed": true,
          "internalType": "uint256",
          "name": "tokenId",
          "type": "uint256"
        }
      ],
      "name": "Mint",
      "type": "event"
    },
    {
      "anonymous": false,
      "inputs": [
        {
          "indexed": false,
          "internalType": "address[]",
          "name": "users",
          "type": "address[]"
        }
      ],
      "name": "OtakiageEvent",
      "type": "event"
    },
    {
      "anonymous": false,
      "inputs": [
        {
          "indexed": true,
          "internalType": "address",
          "name": "from",
          "type": "address"
        },
        {
          "indexed": false,
          "internalType": "uint256[]",
          "name": "ids",
          "type": "uint256[]"
        },
        {
          "indexed": false,
          "internalType": "uint256[]",
          "name": "values",
          "type": "uint256[]"
        }
      ],
      "name": "SendAllOmamori",
      "type": "event"
    },
    {
      "anonymous": false,
      "inputs": [
        {
          "indexed": true,
          "internalType": "address",
          "name": "from",
          "type": "address"
        },
        {
          "indexed": true,
          "internalType": "address",
          "name": "to",
          "type": "address"
        },
        {
          "indexed": true,
          "internalType": "uint256",
          "name": "tokenId",
          "type": "uint256"
        }
      ],
      "name": "Transfer",
      "type": "event"
    },
    {
      "inputs": [
        {
          "internalType": "address[]",
          "name": "_newAdmins",
          "type": "address[]"
        }
      ],
      "name": "addAdmins",
      "outputs": [],
      "stateMutability": "nonpayable",
      "type": "function"
    },
    {
      "inputs": [
        {
          "internalType": "address",
          "name": "to",
          "type": "address"
        },
        {
          "internalType": "uint256",
          "name": "tokenId",
          "type": "uint256"
        }
      ],
      "name": "approve",
      "outputs": [],
      "stateMutability": "nonpayable",
      "type": "function"
    },
    {
      "inputs": [
        {
          "internalType": "address",
          "name": "owner",
          "type": "address"
        }
      ],
      "name": "balanceOf",
      "outputs": [
        {
          "internalType": "uint256",
          "name": "",
          "type": "uint256"
        }
      ],
      "stateMutability": "view",
      "type": "function"
    },
    {
      "inputs": [
        {
          "internalType": "address[]",
          "name": "tos",
          "type": "address[]"
        }
      ],
      "name": "batchMintOtakiage",
      "outputs": [],
      "stateMutability": "nonpayable",
      "type": "function"
    },
    {
      "inputs": [],
      "name": "cid",
      "outputs": [
        {
          "internalType": "string",
          "name": "",
          "type": "string"
        }
      ],
      "stateMutability": "view",
      "type": "function"
    },
    {
      "inputs": [
        {
          "internalType": "address",
          "name": "_deleteAdmin",
          "type": "address"
        }
      ],
      "name": "deleteAdmin",
      "outputs": [],
      "stateMutability": "nonpayable",
      "type": "function"
    },
    {
      "inputs": [],
      "name": "fetchHoldingOmamoriBalance",
      "outputs": [
        {
          "internalType": "uint256[]",
          "name": "",
          "type": "uint256[]"
        },
        {
          "internalType": "uint256[]",
          "name": "",
          "type": "uint256[]"
        }
      ],
      "stateMutability": "view",
      "type": "function"
    },
    {
      "inputs": [
        {
          "internalType": "uint256",
          "name": "tokenId",
          "type": "uint256"
        }
      ],
      "name": "getApproved",
      "outputs": [
        {
          "internalType": "address",
          "name": "",
          "type": "address"
        }
      ],
      "stateMutability": "view",
      "type": "function"
    },
    {
      "inputs": [],
      "name": "getCID",
      "outputs": [
        {
          "internalType": "string",
          "name": "",
          "type": "string"
        }
      ],
      "stateMutability": "view",
      "type": "function"
    },
    {
      "inputs": [
        {
          "internalType": "uint256",
          "name": "tokenId",
          "type": "uint256"
        }
      ],
      "name": "getImage",
      "outputs": [
        {
          "internalType": "string",
          "name": "",
          "type": "string"
        }
      ],
      "stateMutability": "view",
      "type": "function"
    },
    {
      "inputs": [],
      "name": "getOtakiageOmamoriBalances",
      "outputs": [
        {
          "internalType": "uint256[]",
          "name": "",
          "type": "uint256[]"
        }
      ],
      "stateMutability": "view",
      "type": "function"
    },
    {
      "inputs": [],
      "name": "getOtakiageUserCount",
      "outputs": [
        {
          "internalType": "uint256",
          "name": "",
          "type": "uint256"
        }
      ],
      "stateMutability": "view",
      "type": "function"
    },
    {
      "inputs": [
        {
          "internalType": "address",
          "name": "user",
          "type": "address"
        }
      ],
      "name": "getOtakiageUserOmamoriIds",
      "outputs": [
        {
          "internalType": "uint256[]",
          "name": "",
          "type": "uint256[]"
        }
      ],
      "stateMutability": "view",
      "type": "function"
    },
    {
      "inputs": [
        {
          "internalType": "address",
          "name": "user",
          "type": "address"
        }
      ],
      "name": "getOtakiageUserOmamoriIdsCount",
      "outputs": [
        {
          "internalType": "uint256",
          "name": "",
          "type": "uint256"
        }
      ],
      "stateMutability": "view",
      "type": "function"
    },
    {
      "inputs": [],
      "name": "getOtakiageUsersArr",
      "outputs": [
        {
          "internalType": "address[]",
          "name": "",
          "type": "address[]"
        }
      ],
      "stateMutability": "view",
      "type": "function"
    },
    {
      "inputs": [],
      "name": "imageExtension",
      "outputs": [
        {
          "internalType": "string",
          "name": "",
          "type": "string"
        }
      ],
      "stateMutability": "view",
      "type": "function"
    },
    {
      "inputs": [
        {
          "internalType": "address",
          "name": "_address",
          "type": "address"
        }
      ],
      "name": "isAdmin",
      "outputs": [
        {
          "internalType": "bool",
          "name": "",
          "type": "bool"
        }
      ],
      "stateMutability": "view",
      "type": "function"
    },
    {
      "inputs": [
        {
          "internalType": "address",
          "name": "owner",
          "type": "address"
        },
        {
          "internalType": "address",
          "name": "operator",
          "type": "address"
        }
      ],
      "name": "isApprovedForAll",
      "outputs": [
        {
          "internalType": "bool",
          "name": "",
          "type": "bool"
        }
      ],
      "stateMutability": "view",
      "type": "function"
    },
    {
      "inputs": [
        {
          "internalType": "address",
          "name": "forwarder",
          "type": "address"
        }
      ],
      "name": "isTrustedForwarder",
      "outputs": [
        {
          "internalType": "bool",
          "name": "",
          "type": "bool"
        }
      ],
      "stateMutability": "view",
      "type": "function"
    },
    {
      "inputs": [
        {
          "internalType": "address",
          "name": "to",
          "type": "address"
        }
      ],
      "name": "mintOtakiage",
      "outputs": [],
      "stateMutability": "nonpayable",
      "type": "function"
    },
    {
      "inputs": [],
      "name": "name",
      "outputs": [
        {
          "internalType": "string",
          "name": "",
          "type": "string"
        }
      ],
      "stateMutability": "view",
      "type": "function"
    },
    {
      "inputs": [],
      "name": "omamoriContract",
      "outputs": [
        {
          "internalType": "contract IERC1155",
          "name": "",
          "type": "address"
        }
      ],
      "stateMutability": "view",
      "type": "function"
    },
    {
      "inputs": [],
      "name": "omamoriTokenIdOffset",
      "outputs": [
        {
          "internalType": "uint256",
          "name": "",
          "type": "uint256"
        }
      ],
      "stateMutability": "view",
      "type": "function"
    },
    {
      "inputs": [],
      "name": "omamoriTypeCount",
      "outputs": [
        {
          "internalType": "uint256",
          "name": "",
          "type": "uint256"
        }
      ],
      "stateMutability": "view",
      "type": "function"
    },
    {
      "inputs": [
        {
          "internalType": "address",
          "name": "operator",
          "type": "address"
        },
        {
          "internalType": "address",
          "name": "from",
          "type": "address"
        },
        {
          "internalType": "uint256[]",
          "name": "ids",
          "type": "uint256[]"
        },
        {
          "internalType": "uint256[]",
          "name": "values",
          "type": "uint256[]"
        },
        {
          "internalType": "bytes",
          "name": "data",
          "type": "bytes"
        }
      ],
      "name": "onERC1155BatchReceived",
      "outputs": [
        {
          "internalType": "bytes4",
          "name": "",
          "type": "bytes4"
        }
      ],
      "stateMutability": "nonpayable",
      "type": "function"
    },
    {
      "inputs": [
        {
          "internalType": "address",
          "name": "operator",
          "type": "address"
        },
        {
          "internalType": "address",
          "name": "from",
          "type": "address"
        },
        {
          "internalType": "uint256",
          "name": "id",
          "type": "uint256"
        },
        {
          "internalType": "uint256",
          "name": "value",
          "type": "uint256"
        },
        {
          "internalType": "bytes",
          "name": "data",
          "type": "bytes"
        }
      ],
      "name": "onERC1155Received",
      "outputs": [
        {
          "internalType": "bytes4",
          "name": "",
          "type": "bytes4"
        }
      ],
      "stateMutability": "nonpayable",
      "type": "function"
    },
    {
      "inputs": [],
      "name": "otakiage",
      "outputs": [],
      "stateMutability": "nonpayable",
      "type": "function"
    },
    {
      "inputs": [
        {
          "internalType": "address",
          "name": "",
          "type": "address"
        },
        {
          "internalType": "uint256",
          "name": "",
          "type": "uint256"
        }
      ],
      "name": "otakiageUserOmamoriIds",
      "outputs": [
        {
          "internalType": "uint256",
          "name": "",
          "type": "uint256"
        }
      ],
      "stateMutability": "view",
      "type": "function"
    },
    {
      "inputs": [
        {
          "internalType": "uint256",
          "name": "",
          "type": "uint256"
        }
      ],
      "name": "otakiageUsersArr",
      "outputs": [
        {
          "internalType": "address",
          "name": "",
          "type": "address"
        }
      ],
      "stateMutability": "view",
      "type": "function"
    },
    {
      "inputs": [
        {
          "internalType": "uint256",
          "name": "tokenId",
          "type": "uint256"
        }
      ],
      "name": "ownerOf",
      "outputs": [
        {
          "internalType": "address",
          "name": "",
          "type": "address"
        }
      ],
      "stateMutability": "view",
      "type": "function"
    },
    {
      "inputs": [
        {
          "internalType": "address",
          "name": "user",
          "type": "address"
        },
        {
          "internalType": "uint256[]",
          "name": "omamoriIds",
          "type": "uint256[]"
        }
      ],
      "name": "recordOtakiageUser",
      "outputs": [],
      "stateMutability": "nonpayable",
      "type": "function"
    },
    {
      "inputs": [
        {
          "internalType": "address[]",
          "name": "users",
          "type": "address[]"
        },
        {
          "internalType": "uint256[]",
          "name": "omamoriIds",
          "type": "uint256[]"
        }
      ],
      "name": "recordOtakiageUsers",
      "outputs": [],
      "stateMutability": "nonpayable",
      "type": "function"
    },
    {
      "inputs": [
        {
          "internalType": "address",
          "name": "from",
          "type": "address"
        },
        {
          "internalType": "address",
          "name": "to",
          "type": "address"
        },
        {
          "internalType": "uint256",
          "name": "tokenId",
          "type": "uint256"
        }
      ],
      "name": "safeTransferFrom",
      "outputs": [],
      "stateMutability": "nonpayable",
      "type": "function"
    },
    {
      "inputs": [
        {
          "internalType": "address",
          "name": "from",
          "type": "address"
        },
        {
          "internalType": "address",
          "name": "to",
          "type": "address"
        },
        {
          "internalType": "uint256",
          "name": "tokenId",
          "type": "uint256"
        },
        {
          "internalType": "bytes",
          "name": "data",
          "type": "bytes"
        }
      ],
      "name": "safeTransferFrom",
      "outputs": [],
      "stateMutability": "nonpayable",
      "type": "function"
    },
    {
      "inputs": [],
      "name": "sendAllOmamori",
      "outputs": [],
      "stateMutability": "nonpayable",
      "type": "function"
    },
    {
      "inputs": [
        {
          "internalType": "address",
          "name": "operator",
          "type": "address"
        },
        {
          "internalType": "bool",
          "name": "approved",
          "type": "bool"
        }
      ],
      "name": "setApprovalForAll",
      "outputs": [],
      "stateMutability": "nonpayable",
      "type": "function"
    },
    {
      "inputs": [
        {
          "internalType": "string",
          "name": "_cid",
          "type": "string"
        }
      ],
      "name": "setCID",
      "outputs": [],
      "stateMutability": "nonpayable",
      "type": "function"
    },
    {
      "inputs": [
        {
          "internalType": "string",
          "name": "_imageExtension",
          "type": "string"
        }
      ],
      "name": "setImageExtension",
      "outputs": [],
      "stateMutability": "nonpayable",
      "type": "function"
    },
    {
      "inputs": [
        {
          "internalType": "address",
          "name": "_omamoriAddress",
          "type": "address"
        }
      ],
      "name": "setOmamoriAddress",
      "outputs": [],
      "stateMutability": "nonpayable",
      "type": "function"
    },
    {
      "inputs": [
        {
          "internalType": "uint256",
          "name": "_omamoriTokenIdOffset",
          "type": "uint256"
        }
      ],
      "name": "setOmamoriTokenIdOffset",
      "outputs": [],
      "stateMutability": "nonpayable",
      "type": "function"
    },
    {
      "inputs": [
        {
          "internalType": "uint256",
          "name": "_omamoriTypeCount",
          "type": "uint256"
        }
      ],
      "name": "setOmamoriTypeCount",
      "outputs": [],
      "stateMutability": "nonpayable",
      "type": "function"
    },
    {
      "inputs": [
        {
          "internalType": "bytes4",
          "name": "interfaceId",
          "type": "bytes4"
        }
      ],
      "name": "supportsInterface",
      "outputs": [
        {
          "internalType": "bool",
          "name": "",
          "type": "bool"
        }
      ],
      "stateMutability": "view",
      "type": "function"
    },
    {
      "inputs": [],
      "name": "symbol",
      "outputs": [
        {
          "internalType": "string",
          "name": "",
          "type": "string"
        }
      ],
      "stateMutability": "view",
      "type": "function"
    },
    {
      "inputs": [],
      "name": "tokenIds",
      "outputs": [
        {
          "internalType": "uint256",
          "name": "",
          "type": "uint256"
        }
      ],
      "stateMutability": "view",
      "type": "function"
    },
    {
      "inputs": [
        {
          "internalType": "uint256",
          "name": "tokenId",
          "type": "uint256"
        }
      ],
      "name": "tokenURI",
      "outputs": [
        {
          "internalType": "string",
          "name": "",
          "type": "string"
        }
      ],
      "stateMutability": "view",
      "type": "function"
    },
    {
      "inputs": [
        {
          "internalType": "address",
          "name": "from",
          "type": "address"
        },
        {
          "internalType": "address",
          "name": "to",
          "type": "address"
        },
        {
          "internalType": "uint256",
          "name": "tokenId",
          "type": "uint256"
        }
      ],
      "name": "transferFrom",
      "outputs": [],
      "stateMutability": "nonpayable",
      "type": "function"
    },
    {
      "inputs": [],
      "name": "trustedForwarder",
      "outputs": [
        {
          "internalType": "address",
          "name": "",
          "type": "address"
        }
      ],
      "stateMutability": "view",
      "type": "function"
    }
  ],
  "bytecode": "0x60a06040523480156200001157600080fd5b506040516200577238038062005772833981810160405281019062000037919062000261565b816040518060400160405280600881526020017f4f74616b696167650000000000000000000000000000000000000000000000008152506040518060400160405280600381526020017f4f544b00000000000000000000000000000000000000000000000000000000008152508160009081620000b5919062000522565b508060019081620000c7919062000522565b5050508073ffffffffffffffffffffffffffffffffffffffff1660808173ffffffffffffffffffffffffffffffffffffffff1681525050506001600660003373ffffffffffffffffffffffffffffffffffffffff1673ffffffffffffffffffffffffffffffffffffffff16815260200190815260200160002060006101000a81548160ff02191690831515021790555080600960006101000a81548173ffffffffffffffffffffffffffffffffffffffff021916908373ffffffffffffffffffffffffffffffffffffffff16021790555060066008819055506001600a819055506040518060400160405280600481526020017f2e706e6700000000000000000000000000000000000000000000000000000000815250600c9081620001ee919062000522565b50505062000609565b600080fd5b600073ffffffffffffffffffffffffffffffffffffffff82169050919050565b60006200022982620001fc565b9050919050565b6200023b816200021c565b81146200024757600080fd5b50565b6000815190506200025b8162000230565b92915050565b600080604083850312156200027b576200027a620001f7565b5b60006200028b858286016200024a565b92505060206200029e858286016200024a565b9150509250929050565b600081519050919050565b7f4e487b7100000000000000000000000000000000000000000000000000000000600052604160045260246000fd5b7f4e487b7100000000000000000000000000000000000000000000000000000000600052602260045260246000fd5b600060028204905060018216806200032a57607f821691505b60208210810362000340576200033f620002e2565b5b50919050565b60008190508160005260206000209050919050565b60006020601f8301049050919050565b600082821b905092915050565b600060088302620003aa7fffffffffffffffffffffffffffffffffffffffffffffffffffffffffffffffff826200036b565b620003b686836200036b565b95508019841693508086168417925050509392505050565b6000819050919050565b6000819050919050565b600062000403620003fd620003f784620003ce565b620003d8565b620003ce565b9050919050565b6000819050919050565b6200041f83620003e2565b620004376200042e826200040a565b84845462000378565b825550505050565b600090565b6200044e6200043f565b6200045b81848462000414565b505050565b5b8181101562000483576200047760008262000444565b60018101905062000461565b5050565b601f821115620004d2576200049c8162000346565b620004a7846200035b565b81016020851015620004b7578190505b620004cf620004c6856200035b565b83018262000460565b50505b505050565b600082821c905092915050565b6000620004f760001984600802620004d7565b1980831691505092915050565b6000620005128383620004e4565b9150826002028217905092915050565b6200052d82620002a8565b67ffffffffffffffff811115620005495762000548620002b3565b5b62000555825462000311565b6200056282828562000487565b600060209050601f8311600181146200059a576000841562000585578287015190505b62000591858262000504565b86555062000601565b601f198416620005aa8662000346565b60005b82811015620005d457848901518255600182019150602085019450602081019050620005ad565b86831015620005f45784890151620005f0601f891682620004e4565b8355505b6001600288020188555050505b505050505050565b60805161514d620006256000396000611658015261514d6000f3fe608060405234801561001057600080fd5b50600436106102955760003560e01c80637da0a87711610167578063c7a54b29116100ce578063d95a642d11610087578063d95a642d146107fd578063e985e9c51461082d578063e9b0225d1461085d578063f182098f14610879578063f23a6e6114610897578063f5b0ec86146108c757610295565b8063c7a54b2914610714578063c87b56dd14610744578063cafccc7a14610774578063d2dbb30514610792578063d3ab8491146107ae578063d42990fb146107cd57610295565b8063a9ef3aeb11610120578063a9ef3aeb14610652578063aa3ec0a914610670578063ac28d1441461068e578063b88d4fde146106ac578063bc197c81146106c8578063c3d6ee7f146106f857610295565b80637da0a877146105a257806395d89b41146105c05780639c54df64146105de578063a036ba9d146105fa578063a22cb46514610618578063a83120a61461063457610295565b806327e1f7df1161020b57806343c998b4116101c457806343c998b4146104ba5780634add175c146104d6578063572b6c05146104f45780636352211e1461052457806370a0823114610554578063714cff561461058457610295565b806327e1f7df146103fe5780632c032a1d1461041a578063302716121461043657806339e3aa7e146104525780633a90c62a1461046e57806342842e0e1461049e57610295565b8063095ea7b31161025d578063095ea7b31461034057806309bdd0601461035c57806323b872dd14610378578063247bddf41461039457806324d7806c1461039e5780632607aafa146103ce57610295565b806301ae85781461029a57806301ffc9a7146102a457806302790e34146102d457806306fdde03146102f2578063081812fc14610310575b600080fd5b6102a26108e3565b005b6102be60048036038101906102b99190613592565b610a38565b6040516102cb91906135da565b60405180910390f35b6102dc610b1a565b6040516102e99190613685565b60405180910390f35b6102fa610bac565b6040516103079190613685565b60405180910390f35b61032a600480360381019061032591906136dd565b610c3e565b604051610337919061374b565b60405180910390f35b61035a60048036038101906103559190613792565b610c5a565b005b610376600480360381019061037191906136dd565b610c70565b005b610392600480360381019061038d91906137d2565b610d06565b005b61039c610e08565b005b6103b860048036038101906103b39190613825565b6110a8565b6040516103c591906135da565b60405180910390f35b6103e860048036038101906103e391906136dd565b6110fe565b6040516103f59190613685565b60405180910390f35b61041860048036038101906104139190613825565b611135565b005b610434600480360381019061042f9190613a5d565b61121c565b005b610450600480360381019061044b9190613825565b6112b6565b005b61046c60048036038101906104679190613b30565b611386565b005b610488600480360381019061048391906136dd565b611428565b604051610495919061374b565b60405180910390f35b6104b860048036038101906104b391906137d2565b611467565b005b6104d460048036038101906104cf91906136dd565b611487565b005b6104de61151d565b6040516104eb9190613bdc565b60405180910390f35b61050e60048036038101906105099190613825565b611543565b60405161051b91906135da565b60405180910390f35b61053e600480360381019061053991906136dd565b611582565b60405161054b919061374b565b60405180910390f35b61056e60048036038101906105699190613825565b611594565b60405161057b9190613c06565b60405180910390f35b61058c61164e565b6040516105999190613c06565b60405180910390f35b6105aa611654565b6040516105b7919061374b565b60405180910390f35b6105c861167c565b6040516105d59190613685565b60405180910390f35b6105f860048036038101906105f39190613c21565b61170e565b005b6106026118c8565b60405161060f9190613c06565b60405180910390f35b610632600480360381019061062d9190613c96565b6118ce565b005b61063c6118e4565b6040516106499190613d94565b60405180910390f35b61065a611972565b6040516106679190613685565b60405180910390f35b610678611a00565b6040516106859190613685565b60405180910390f35b610696611a8e565b6040516106a39190613c06565b60405180910390f35b6106c660048036038101906106c19190613e6b565b611a94565b005b6106e260048036038101906106dd9190613f9a565b611ab1565b6040516106ef9190614085565b60405180910390f35b610712600480360381019061070d9190613b30565b611ac9565b005b61072e60048036038101906107299190613825565b611b6b565b60405161073b919061415e565b60405180910390f35b61075e600480360381019061075991906136dd565b611c02565b60405161076b9190613685565b60405180910390f35b61077c611c88565b604051610789919061415e565b60405180910390f35b6107ac60048036038101906107a79190613c21565b611e70565b005b6107b6611f48565b6040516107c4929190614180565b60405180910390f35b6107e760048036038101906107e29190613792565b612142565b6040516107f49190613c06565b60405180910390f35b61081760048036038101906108129190613825565b612173565b6040516108249190613c06565b60405180910390f35b610847600480360381019061084291906141b7565b6121bf565b60405161085491906135da565b60405180910390f35b610877600480360381019061087291906141f7565b612253565b005b6108816122ed565b60405161088e9190613c06565b60405180910390f35b6108b160048036038101906108ac9190614253565b6122fa565b6040516108be9190614085565b60405180910390f35b6108e160048036038101906108dc9190613825565b612310565b005b600660003373ffffffffffffffffffffffffffffffffffffffff1673ffffffffffffffffffffffffffffffffffffffff16815260200190815260200160002060009054906101000a900460ff1661096f576040517f08c379a000000000000000000000000000000000000000000000000000000000815260040161096690614339565b60405180910390fd5b6109fe600d8054806020026020016040519081016040528092919081815260200182805480156109f457602002820191906000526020600020905b8160009054906101000a900473ffffffffffffffffffffffffffffffffffffffff1673ffffffffffffffffffffffffffffffffffffffff16815260200190600101908083116109aa575b5050505050611e70565b7f3299847ac387aeae1cb8f68630b8282971831d8257d503f3e95992fcb47c9290600d604051610a2e9190614445565b60405180910390a1565b60007f80ac58cd000000000000000000000000000000000000000000000000000000007bffffffffffffffffffffffffffffffffffffffffffffffffffffffff1916827bffffffffffffffffffffffffffffffffffffffffffffffffffffffff19161480610b0357507f5b5e139f000000000000000000000000000000000000000000000000000000007bffffffffffffffffffffffffffffffffffffffffffffffffffffffff1916827bffffffffffffffffffffffffffffffffffffffffffffffffffffffff1916145b80610b135750610b128261240d565b5b9050919050565b6060600b8054610b2990614496565b80601f0160208091040260200160405190810160405280929190818152602001828054610b5590614496565b8015610ba25780601f10610b7757610100808354040283529160200191610ba2565b820191906000526020600020905b815481529060010190602001808311610b8557829003601f168201915b5050505050905090565b606060008054610bbb90614496565b80601f0160208091040260200160405190810160405280929190818152602001828054610be790614496565b8015610c345780601f10610c0957610100808354040283529160200191610c34565b820191906000526020600020905b815481529060010190602001808311610c1757829003601f168201915b5050505050905090565b6000610c4982612477565b50610c53826124ff565b9050919050565b610c6c8282610c6761253c565b61256e565b5050565b600660003373ffffffffffffffffffffffffffffffffffffffff1673ffffffffffffffffffffffffffffffffffffffff16815260200190815260200160002060009054906101000a900460ff16610cfc576040517f08c379a0000000000000000000000000000000000000000000000000000000008152600401610cf390614339565b60405180910390fd5b80600a8190555050565b600073ffffffffffffffffffffffffffffffffffffffff168273ffffffffffffffffffffffffffffffffffffffff1603610d785760006040517f64a0ae92000000000000000000000000000000000000000000000000000000008152600401610d6f919061374b565b60405180910390fd5b6000610d8c8383610d8761253c565b612580565b90508373ffffffffffffffffffffffffffffffffffffffff168173ffffffffffffffffffffffffffffffffffffffff1614610e02578382826040517f64283d7b000000000000000000000000000000000000000000000000000000008152600401610df9939291906144c7565b60405180910390fd5b50505050565b600080610e13611f48565b91509150600960009054906101000a900473ffffffffffffffffffffffffffffffffffffffff1673ffffffffffffffffffffffffffffffffffffffff16632eb2c2d6610e5d61253c565b3085856040518563ffffffff1660e01b8152600401610e7f9493929190614535565b600060405180830381600087803b158015610e9957600080fd5b505af1158015610ead573d6000803e3d6000fd5b50505050600060085467ffffffffffffffff811115610ecf57610ece613857565b5b604051908082528060200260200182016040528015610efd5781602001602082028036833780820191505090505b5090506000808451905060005b81811015610f91576000858281518110610f2757610f2661459b565b5b60200260200101511115610f7e57858181518110610f4857610f4761459b565b5b6020026020010151848481518110610f6357610f6261459b565b5b6020026020010181815250508280610f7a906145f9565b9350505b8080610f89906145f9565b915050610f0a565b5060008267ffffffffffffffff811115610fae57610fad613857565b5b604051908082528060200260200182016040528015610fdc5781602001602082028036833780820191505090505b50905060005b8381101561103757848181518110610ffd57610ffc61459b565b5b60200260200101518282815181106110185761101761459b565b5b602002602001018181525050808061102f906145f9565b915050610fe2565b5061104961104361253c565b8261279a565b61105161253c565b73ffffffffffffffffffffffffffffffffffffffff167f1256566f8c33d7969d943ac535a6d0b48b7d7132e6c46ee3c7c8e22b40b6adca8787604051611098929190614180565b60405180910390a2505050505050565b6000600660008373ffffffffffffffffffffffffffffffffffffffff1673ffffffffffffffffffffffffffffffffffffffff16815260200190815260200160002060009054906101000a900460ff169050919050565b6060600b61110b83612855565b600c60405160200161111f93929190614761565b6040516020818303038152906040529050919050565b600660003373ffffffffffffffffffffffffffffffffffffffff1673ffffffffffffffffffffffffffffffffffffffff16815260200190815260200160002060009054906101000a900460ff166111c1576040517f08c379a00000000000000000000000000000000000000000000000000000000081526004016111b890614339565b60405180910390fd5b6000600660008373ffffffffffffffffffffffffffffffffffffffff1673ffffffffffffffffffffffffffffffffffffffff16815260200190815260200160002060006101000a81548160ff02191690831515021790555050565b600660003373ffffffffffffffffffffffffffffffffffffffff1673ffffffffffffffffffffffffffffffffffffffff16815260200190815260200160002060009054906101000a900460ff166112a8576040517f08c379a000000000000000000000000000000000000000000000000000000000815260040161129f90614339565b60405180910390fd5b6112b28282612923565b5050565b600660003373ffffffffffffffffffffffffffffffffffffffff1673ffffffffffffffffffffffffffffffffffffffff16815260200190815260200160002060009054906101000a900460ff16611342576040517f08c379a000000000000000000000000000000000000000000000000000000000815260040161133990614339565b60405180910390fd5b80600960006101000a81548173ffffffffffffffffffffffffffffffffffffffff021916908373ffffffffffffffffffffffffffffffffffffffff16021790555050565b600660003373ffffffffffffffffffffffffffffffffffffffff1673ffffffffffffffffffffffffffffffffffffffff16815260200190815260200160002060009054906101000a900460ff16611412576040517f08c379a000000000000000000000000000000000000000000000000000000000815260040161140990614339565b60405180910390fd5b8181600c9182611423929190614948565b505050565b600d818154811061143857600080fd5b906000526020600020016000915054906101000a900473ffffffffffffffffffffffffffffffffffffffff1681565b61148283838360405180602001604052806000815250611a94565b505050565b600660003373ffffffffffffffffffffffffffffffffffffffff1673ffffffffffffffffffffffffffffffffffffffff16815260200190815260200160002060009054906101000a900460ff16611513576040517f08c379a000000000000000000000000000000000000000000000000000000000815260040161150a90614339565b60405180910390fd5b8060088190555050565b600960009054906101000a900473ffffffffffffffffffffffffffffffffffffffff1681565b600061154d611654565b73ffffffffffffffffffffffffffffffffffffffff168273ffffffffffffffffffffffffffffffffffffffff16149050919050565b600061158d82612477565b9050919050565b60008073ffffffffffffffffffffffffffffffffffffffff168273ffffffffffffffffffffffffffffffffffffffff16036116075760006040517f89c62b640000000000000000000000000000000000000000000000000000000081526004016115fe919061374b565b60405180910390fd5b600360008373ffffffffffffffffffffffffffffffffffffffff1673ffffffffffffffffffffffffffffffffffffffff168152602001908152602001600020549050919050565b60075481565b60007f0000000000000000000000000000000000000000000000000000000000000000905090565b60606001805461168b90614496565b80601f01602080910402602001604051908101604052809291908181526020018280546116b790614496565b80156117045780601f106116d957610100808354040283529160200191611704565b820191906000526020600020905b8154815290600101906020018083116116e757829003601f168201915b5050505050905090565b600660003373ffffffffffffffffffffffffffffffffffffffff1673ffffffffffffffffffffffffffffffffffffffff16815260200190815260200160002060009054906101000a900460ff1661179a576040517f08c379a000000000000000000000000000000000000000000000000000000000815260040161179190614339565b60405180910390fd5b600081519050600081116117e3576040517f08c379a00000000000000000000000000000000000000000000000000000000081526004016117da90614a64565b60405180910390fd5b60005b818110156118c35760008382815181106118035761180261459b565b5b60200260200101519050600660008273ffffffffffffffffffffffffffffffffffffffff1673ffffffffffffffffffffffffffffffffffffffff16815260200190815260200160002060009054906101000a900460ff166118b7576001600660008373ffffffffffffffffffffffffffffffffffffffff1673ffffffffffffffffffffffffffffffffffffffff16815260200190815260200160002060006101000a81548160ff0219169083151502179055505b816001019150506117e6565b505050565b60085481565b6118e06118d961253c565b838361296b565b5050565b6060600d80548060200260200160405190810160405280929190818152602001828054801561196857602002820191906000526020600020905b8160009054906101000a900473ffffffffffffffffffffffffffffffffffffffff1673ffffffffffffffffffffffffffffffffffffffff168152602001906001019080831161191e575b5050505050905090565b600c805461197f90614496565b80601f01602080910402602001604051908101604052809291908181526020018280546119ab90614496565b80156119f85780601f106119cd576101008083540402835291602001916119f8565b820191906000526020600020905b8154815290600101906020018083116119db57829003601f168201915b505050505081565b600b8054611a0d90614496565b80601f0160208091040260200160405190810160405280929190818152602001828054611a3990614496565b8015611a865780601f10611a5b57610100808354040283529160200191611a86565b820191906000526020600020905b815481529060010190602001808311611a6957829003601f168201915b505050505081565b600a5481565b611a9f848484610d06565b611aab84848484612ada565b50505050565b600063bc197c8160e01b905098975050505050505050565b600660003373ffffffffffffffffffffffffffffffffffffffff1673ffffffffffffffffffffffffffffffffffffffff16815260200190815260200160002060009054906101000a900460ff16611b55576040517f08c379a0000000000000000000000000000000000000000000000000000000008152600401611b4c90614339565b60405180910390fd5b8181600b9182611b66929190614948565b505050565b6060600e60008373ffffffffffffffffffffffffffffffffffffffff1673ffffffffffffffffffffffffffffffffffffffff168152602001908152602001600020805480602002602001604051908101604052809291908181526020018280548015611bf657602002820191906000526020600020905b815481526020019060010190808311611be2575b50505050509050919050565b60606000611c0f83612855565b90506000604051806060016040528083604051602001611c2f9190614aaa565b604051602081830303815290604052815260200183604051602001611c549190614aaa565b6040516020818303038152906040528152602001611c71866110fe565b8152509050611c7f81612c91565b92505050919050565b60606000600854905060008167ffffffffffffffff811115611cad57611cac613857565b5b604051908082528060200260200182016040528015611cdb5781602001602082028036833780820191505090505b50905060008267ffffffffffffffff811115611cfa57611cf9613857565b5b604051908082528060200260200182016040528015611d285781602001602082028036833780820191505090505b50905060005b83811015611dc45730838281518110611d4a57611d4961459b565b5b602002602001019073ffffffffffffffffffffffffffffffffffffffff16908173ffffffffffffffffffffffffffffffffffffffff1681525050600a5481611d929190614ad0565b828281518110611da557611da461459b565b5b6020026020010181815250508080611dbc906145f9565b915050611d2e565b50600960009054906101000a900473ffffffffffffffffffffffffffffffffffffffff1673ffffffffffffffffffffffffffffffffffffffff16634e1273f483836040518363ffffffff1660e01b8152600401611e22929190614b04565b600060405180830381865afa158015611e3f573d6000803e3d6000fd5b505050506040513d6000823e3d601f19601f82011682018060405250810190611e689190614be7565b935050505090565b600660003373ffffffffffffffffffffffffffffffffffffffff1673ffffffffffffffffffffffffffffffffffffffff16815260200190815260200160002060009054906101000a900460ff16611efc576040517f08c379a0000000000000000000000000000000000000000000000000000000008152600401611ef390614339565b60405180910390fd5b60008151905060005b81811015611f4357611f30838281518110611f2357611f2261459b565b5b6020026020010151612310565b8080611f3b906145f9565b915050611f05565b505050565b6060806000600854905060008167ffffffffffffffff811115611f6e57611f6d613857565b5b604051908082528060200260200182016040528015611f9c5781602001602082028036833780820191505090505b50905060008267ffffffffffffffff811115611fbb57611fba613857565b5b604051908082528060200260200182016040528015611fe95781602001602082028036833780820191505090505b50905060005b8381101561208c57611fff61253c565b8382815181106120125761201161459b565b5b602002602001019073ffffffffffffffffffffffffffffffffffffffff16908173ffffffffffffffffffffffffffffffffffffffff1681525050600a548161205a9190614ad0565b82828151811061206d5761206c61459b565b5b6020026020010181815250508080612084906145f9565b915050611fef565b506000600960009054906101000a900473ffffffffffffffffffffffffffffffffffffffff1673ffffffffffffffffffffffffffffffffffffffff16634e1273f484846040518363ffffffff1660e01b81526004016120ec929190614b04565b600060405180830381865afa158015612109573d6000803e3d6000fd5b505050506040513d6000823e3d601f19601f820116820180604052508101906121329190614be7565b9050818195509550505050509091565b600e602052816000526040600020818154811061215e57600080fd5b90600052602060002001600091509150505481565b6000600e60008373ffffffffffffffffffffffffffffffffffffffff1673ffffffffffffffffffffffffffffffffffffffff168152602001908152602001600020805490509050919050565b6000600560008473ffffffffffffffffffffffffffffffffffffffff1673ffffffffffffffffffffffffffffffffffffffff16815260200190815260200160002060008373ffffffffffffffffffffffffffffffffffffffff1673ffffffffffffffffffffffffffffffffffffffff16815260200190815260200160002060009054906101000a900460ff16905092915050565b600660003373ffffffffffffffffffffffffffffffffffffffff1673ffffffffffffffffffffffffffffffffffffffff16815260200190815260200160002060009054906101000a900460ff166122df576040517f08c379a00000000000000000000000000000000000000000000000000000000081526004016122d690614339565b60405180910390fd5b6122e9828261279a565b5050565b6000600d80549050905090565b600063f23a6e6160e01b90509695505050505050565b600660003373ffffffffffffffffffffffffffffffffffffffff1673ffffffffffffffffffffffffffffffffffffffff16815260200190815260200160002060009054906101000a900460ff1661239c576040517f08c379a000000000000000000000000000000000000000000000000000000000815260040161239390614339565b60405180910390fd5b60006007549050600760008154809291906123b6906145f9565b91905055506123c58282612cf1565b808273ffffffffffffffffffffffffffffffffffffffff167f0f6798a560793a54c3bcfe86a93cde1e73087d944c0ea20544137d412139688560405160405180910390a35050565b60007f01ffc9a7000000000000000000000000000000000000000000000000000000007bffffffffffffffffffffffffffffffffffffffffffffffffffffffff1916827bffffffffffffffffffffffffffffffffffffffffffffffffffffffff1916149050919050565b60008061248383612dea565b9050600073ffffffffffffffffffffffffffffffffffffffff168173ffffffffffffffffffffffffffffffffffffffff16036124f657826040517f7e2732890000000000000000000000000000000000000000000000000000000081526004016124ed9190613c06565b60405180910390fd5b80915050919050565b60006004600083815260200190815260200160002060009054906101000a900473ffffffffffffffffffffffffffffffffffffffff169050919050565b600061254733611543565b1561255b57601436033560601c905061256a565b612563612e27565b905061256b565b5b90565b61257b8383836001612e9c565b505050565b60008061258c84612dea565b9050600073ffffffffffffffffffffffffffffffffffffffff168373ffffffffffffffffffffffffffffffffffffffff16146125ce576125cd818486613061565b5b600073ffffffffffffffffffffffffffffffffffffffff168173ffffffffffffffffffffffffffffffffffffffff161461265f57612610600085600080612e9c565b6001600360008373ffffffffffffffffffffffffffffffffffffffff1673ffffffffffffffffffffffffffffffffffffffff168152602001908152602001600020600082825403925050819055505b600073ffffffffffffffffffffffffffffffffffffffff168573ffffffffffffffffffffffffffffffffffffffff16146126e2576001600360008773ffffffffffffffffffffffffffffffffffffffff1673ffffffffffffffffffffffffffffffffffffffff168152602001908152602001600020600082825401925050819055505b846002600086815260200190815260200160002060006101000a81548173ffffffffffffffffffffffffffffffffffffffff021916908373ffffffffffffffffffffffffffffffffffffffff160217905550838573ffffffffffffffffffffffffffffffffffffffff168273ffffffffffffffffffffffffffffffffffffffff167fddf252ad1be2c89b69c2b068fc378daa952ba7f163c4a11628f55a4df523b3ef60405160405180910390a4809150509392505050565b600d829080600181540180825580915050600190039060005260206000200160009091909190916101000a81548173ffffffffffffffffffffffffffffffffffffffff021916908373ffffffffffffffffffffffffffffffffffffffff16021790555080600e60008473ffffffffffffffffffffffffffffffffffffffff1673ffffffffffffffffffffffffffffffffffffffff16815260200190815260200160002090805190602001906128509291906134bc565b505050565b60606000600161286484613125565b01905060008167ffffffffffffffff81111561288357612882613857565b5b6040519080825280601f01601f1916602001820160405280156128b55781602001600182028036833780820191505090505b509050600082602001820190505b600115612918578080600190039150507f3031323334353637383961626364656600000000000000000000000000000000600a86061a8153600a858161290c5761290b614c30565b5b049450600085036128c3575b819350505050919050565b60005b8251811015612966576129538382815181106129455761294461459b565b5b60200260200101518361279a565b808061295e906145f9565b915050612926565b505050565b600073ffffffffffffffffffffffffffffffffffffffff168273ffffffffffffffffffffffffffffffffffffffff16036129dc57816040517f5b08ba180000000000000000000000000000000000000000000000000000000081526004016129d3919061374b565b60405180910390fd5b80600560008573ffffffffffffffffffffffffffffffffffffffff1673ffffffffffffffffffffffffffffffffffffffff16815260200190815260200160002060008473ffffffffffffffffffffffffffffffffffffffff1673ffffffffffffffffffffffffffffffffffffffff16815260200190815260200160002060006101000a81548160ff0219169083151502179055508173ffffffffffffffffffffffffffffffffffffffff168373ffffffffffffffffffffffffffffffffffffffff167f17307eab39ab6107e8899845ad3d59bd9653f200f220920489ca2b5937696c3183604051612acd91906135da565b60405180910390a3505050565b60008373ffffffffffffffffffffffffffffffffffffffff163b1115612c8b578273ffffffffffffffffffffffffffffffffffffffff1663150b7a02612b1e61253c565b8685856040518563ffffffff1660e01b8152600401612b409493929190614ca3565b6020604051808303816000875af1925050508015612b7c57506040513d601f19601f82011682018060405250810190612b799190614d04565b60015b612c00573d8060008114612bac576040519150601f19603f3d011682016040523d82523d6000602084013e612bb1565b606091505b506000815103612bf857836040517f64a0ae92000000000000000000000000000000000000000000000000000000008152600401612bef919061374b565b60405180910390fd5b805181602001fd5b63150b7a0260e01b7bffffffffffffffffffffffffffffffffffffffffffffffffffffffff1916817bffffffffffffffffffffffffffffffffffffffffffffffffffffffff191614612c8957836040517f64a0ae92000000000000000000000000000000000000000000000000000000008152600401612c80919061374b565b60405180910390fd5b505b50505050565b6060612ccb826000015183602001518460400151604051602001612cb793929190614e61565b604051602081830303815290604052613278565b604051602001612cdb9190614f0a565b6040516020818303038152906040529050919050565b600073ffffffffffffffffffffffffffffffffffffffff168273ffffffffffffffffffffffffffffffffffffffff1603612d635760006040517f64a0ae92000000000000000000000000000000000000000000000000000000008152600401612d5a919061374b565b60405180910390fd5b6000612d7183836000612580565b9050600073ffffffffffffffffffffffffffffffffffffffff168173ffffffffffffffffffffffffffffffffffffffff1614612de55760006040517f73c6ac6e000000000000000000000000000000000000000000000000000000008152600401612ddc919061374b565b60405180910390fd5b505050565b60006002600083815260200190815260200160002060009054906101000a900473ffffffffffffffffffffffffffffffffffffffff169050919050565b600080600036905090506000612e3b6133db565b9050612e4633611543565b8015612e525750808210155b15612e8c576000368284612e669190614f2c565b908092612e7593929190614f6a565b90612e809190614fdc565b60601c92505050612e99565b612e946133ea565b925050505b90565b8080612ed55750600073ffffffffffffffffffffffffffffffffffffffff168273ffffffffffffffffffffffffffffffffffffffff1614155b15613009576000612ee584612477565b9050600073ffffffffffffffffffffffffffffffffffffffff168373ffffffffffffffffffffffffffffffffffffffff1614158015612f5057508273ffffffffffffffffffffffffffffffffffffffff168173ffffffffffffffffffffffffffffffffffffffff1614155b8015612f635750612f6181846121bf565b155b15612fa557826040517fa9fbf51f000000000000000000000000000000000000000000000000000000008152600401612f9c919061374b565b60405180910390fd5b811561300757838573ffffffffffffffffffffffffffffffffffffffff168273ffffffffffffffffffffffffffffffffffffffff167f8c5be1e5ebec7d5bd14f71427d1e84f3dd0314c0f7b2291e5b200ac8c7c3b92560405160405180910390a45b505b836004600085815260200190815260200160002060006101000a81548173ffffffffffffffffffffffffffffffffffffffff021916908373ffffffffffffffffffffffffffffffffffffffff16021790555050505050565b61306c8383836133f2565b61312057600073ffffffffffffffffffffffffffffffffffffffff168373ffffffffffffffffffffffffffffffffffffffff16036130e157806040517f7e2732890000000000000000000000000000000000000000000000000000000081526004016130d89190613c06565b60405180910390fd5b81816040517f177e802f00000000000000000000000000000000000000000000000000000000815260040161311792919061503b565b60405180910390fd5b505050565b600080600090507a184f03e93ff9f4daa797ed6e38ed64bf6a1f0100000000000000008310613183577a184f03e93ff9f4daa797ed6e38ed64bf6a1f010000000000000000838161317957613178614c30565b5b0492506040810190505b6d04ee2d6d415b85acef810000000083106131c0576d04ee2d6d415b85acef810000000083816131b6576131b5614c30565b5b0492506020810190505b662386f26fc1000083106131ef57662386f26fc1000083816131e5576131e4614c30565b5b0492506010810190505b6305f5e1008310613218576305f5e100838161320e5761320d614c30565b5b0492506008810190505b612710831061323d57612710838161323357613232614c30565b5b0492506004810190505b60648310613260576064838161325657613255614c30565b5b0492506002810190505b600a831061326f576001810190505b80915050919050565b6060600082510361329a576040518060200160405280600081525090506133d6565b60006040518060600160405280604081526020016150d860409139905060006003600285516132c99190614ad0565b6132d39190615064565b60046132df9190615095565b67ffffffffffffffff8111156132f8576132f7613857565b5b6040519080825280601f01601f19166020018201604052801561332a5781602001600182028036833780820191505090505b509050600182016020820185865187015b80821015613396576003820191508151603f8160121c168501518453600184019350603f81600c1c168501518453600184019350603f8160061c168501518453600184019350603f811685015184536001840193505061333b565b50506003865106600181146133b257600281146133c5576133cd565b603d6001830353603d60028303536133cd565b603d60018303535b50505080925050505b919050565b60006133e56134b3565b905090565b600033905090565b60008073ffffffffffffffffffffffffffffffffffffffff168373ffffffffffffffffffffffffffffffffffffffff16141580156134aa57508273ffffffffffffffffffffffffffffffffffffffff168473ffffffffffffffffffffffffffffffffffffffff16148061346b575061346a84846121bf565b5b806134a957508273ffffffffffffffffffffffffffffffffffffffff16613491836124ff565b73ffffffffffffffffffffffffffffffffffffffff16145b5b90509392505050565b60006014905090565b8280548282559060005260206000209081019282156134f8579160200282015b828111156134f75782518255916020019190600101906134dc565b5b5090506135059190613509565b5090565b5b8082111561352257600081600090555060010161350a565b5090565b6000604051905090565b600080fd5b600080fd5b60007fffffffff0000000000000000000000000000000000000000000000000000000082169050919050565b61356f8161353a565b811461357a57600080fd5b50565b60008135905061358c81613566565b92915050565b6000602082840312156135a8576135a7613530565b5b60006135b68482850161357d565b91505092915050565b60008115159050919050565b6135d4816135bf565b82525050565b60006020820190506135ef60008301846135cb565b92915050565b600081519050919050565b600082825260208201905092915050565b60005b8381101561362f578082015181840152602081019050613614565b60008484015250505050565b6000601f19601f8301169050919050565b6000613657826135f5565b6136618185613600565b9350613671818560208601613611565b61367a8161363b565b840191505092915050565b6000602082019050818103600083015261369f818461364c565b905092915050565b6000819050919050565b6136ba816136a7565b81146136c557600080fd5b50565b6000813590506136d7816136b1565b92915050565b6000602082840312156136f3576136f2613530565b5b6000613701848285016136c8565b91505092915050565b600073ffffffffffffffffffffffffffffffffffffffff82169050919050565b60006137358261370a565b9050919050565b6137458161372a565b82525050565b6000602082019050613760600083018461373c565b92915050565b61376f8161372a565b811461377a57600080fd5b50565b60008135905061378c81613766565b92915050565b600080604083850312156137a9576137a8613530565b5b60006137b78582860161377d565b92505060206137c8858286016136c8565b9150509250929050565b6000806000606084860312156137eb576137ea613530565b5b60006137f98682870161377d565b935050602061380a8682870161377d565b925050604061381b868287016136c8565b9150509250925092565b60006020828403121561383b5761383a613530565b5b60006138498482850161377d565b91505092915050565b600080fd5b7f4e487b7100000000000000000000000000000000000000000000000000000000600052604160045260246000fd5b61388f8261363b565b810181811067ffffffffffffffff821117156138ae576138ad613857565b5b80604052505050565b60006138c1613526565b90506138cd8282613886565b919050565b600067ffffffffffffffff8211156138ed576138ec613857565b5b602082029050602081019050919050565b600080fd5b6000613916613911846138d2565b6138b7565b90508083825260208201905060208402830185811115613939576139386138fe565b5b835b81811015613962578061394e888261377d565b84526020840193505060208101905061393b565b5050509392505050565b600082601f83011261398157613980613852565b5b8135613991848260208601613903565b91505092915050565b600067ffffffffffffffff8211156139b5576139b4613857565b5b602082029050602081019050919050565b60006139d96139d48461399a565b6138b7565b905080838252602082019050602084028301858111156139fc576139fb6138fe565b5b835b81811015613a255780613a1188826136c8565b8452602084019350506020810190506139fe565b5050509392505050565b600082601f830112613a4457613a43613852565b5b8135613a548482602086016139c6565b91505092915050565b60008060408385031215613a7457613a73613530565b5b600083013567ffffffffffffffff811115613a9257613a91613535565b5b613a9e8582860161396c565b925050602083013567ffffffffffffffff811115613abf57613abe613535565b5b613acb85828601613a2f565b9150509250929050565b600080fd5b60008083601f840112613af057613aef613852565b5b8235905067ffffffffffffffff811115613b0d57613b0c613ad5565b5b602083019150836001820283011115613b2957613b286138fe565b5b9250929050565b60008060208385031215613b4757613b46613530565b5b600083013567ffffffffffffffff811115613b6557613b64613535565b5b613b7185828601613ada565b92509250509250929050565b6000819050919050565b6000613ba2613b9d613b988461370a565b613b7d565b61370a565b9050919050565b6000613bb482613b87565b9050919050565b6000613bc682613ba9565b9050919050565b613bd681613bbb565b82525050565b6000602082019050613bf16000830184613bcd565b92915050565b613c00816136a7565b82525050565b6000602082019050613c1b6000830184613bf7565b92915050565b600060208284031215613c3757613c36613530565b5b600082013567ffffffffffffffff811115613c5557613c54613535565b5b613c618482850161396c565b91505092915050565b613c73816135bf565b8114613c7e57600080fd5b50565b600081359050613c9081613c6a565b92915050565b60008060408385031215613cad57613cac613530565b5b6000613cbb8582860161377d565b9250506020613ccc85828601613c81565b9150509250929050565b600081519050919050565b600082825260208201905092915050565b6000819050602082019050919050565b613d0b8161372a565b82525050565b6000613d1d8383613d02565b60208301905092915050565b6000602082019050919050565b6000613d4182613cd6565b613d4b8185613ce1565b9350613d5683613cf2565b8060005b83811015613d87578151613d6e8882613d11565b9750613d7983613d29565b925050600181019050613d5a565b5085935050505092915050565b60006020820190508181036000830152613dae8184613d36565b905092915050565b600080fd5b600067ffffffffffffffff821115613dd657613dd5613857565b5b613ddf8261363b565b9050602081019050919050565b82818337600083830152505050565b6000613e0e613e0984613dbb565b6138b7565b905082815260208101848484011115613e2a57613e29613db6565b5b613e35848285613dec565b509392505050565b600082601f830112613e5257613e51613852565b5b8135613e62848260208601613dfb565b91505092915050565b60008060008060808587031215613e8557613e84613530565b5b6000613e938782880161377d565b9450506020613ea48782880161377d565b9350506040613eb5878288016136c8565b925050606085013567ffffffffffffffff811115613ed657613ed5613535565b5b613ee287828801613e3d565b91505092959194509250565b60008083601f840112613f0457613f03613852565b5b8235905067ffffffffffffffff811115613f2157613f20613ad5565b5b602083019150836020820283011115613f3d57613f3c6138fe565b5b9250929050565b60008083601f840112613f5a57613f59613852565b5b8235905067ffffffffffffffff811115613f7757613f76613ad5565b5b602083019150836001820283011115613f9357613f926138fe565b5b9250929050565b60008060008060008060008060a0898b031215613fba57613fb9613530565b5b6000613fc88b828c0161377d565b9850506020613fd98b828c0161377d565b975050604089013567ffffffffffffffff811115613ffa57613ff9613535565b5b6140068b828c01613eee565b9650965050606089013567ffffffffffffffff81111561402957614028613535565b5b6140358b828c01613eee565b9450945050608089013567ffffffffffffffff81111561405857614057613535565b5b6140648b828c01613f44565b92509250509295985092959890939650565b61407f8161353a565b82525050565b600060208201905061409a6000830184614076565b92915050565b600081519050919050565b600082825260208201905092915050565b6000819050602082019050919050565b6140d5816136a7565b82525050565b60006140e783836140cc565b60208301905092915050565b6000602082019050919050565b600061410b826140a0565b61411581856140ab565b9350614120836140bc565b8060005b8381101561415157815161413888826140db565b9750614143836140f3565b925050600181019050614124565b5085935050505092915050565b600060208201905081810360008301526141788184614100565b905092915050565b6000604082019050818103600083015261419a8185614100565b905081810360208301526141ae8184614100565b90509392505050565b600080604083850312156141ce576141cd613530565b5b60006141dc8582860161377d565b92505060206141ed8582860161377d565b9150509250929050565b6000806040838503121561420e5761420d613530565b5b600061421c8582860161377d565b925050602083013567ffffffffffffffff81111561423d5761423c613535565b5b61424985828601613a2f565b9150509250929050565b60008060008060008060a087890312156142705761426f613530565b5b600061427e89828a0161377d565b965050602061428f89828a0161377d565b95505060406142a089828a016136c8565b94505060606142b189828a016136c8565b935050608087013567ffffffffffffffff8111156142d2576142d1613535565b5b6142de89828a01613f44565b92509250509295509295509295565b7f41646d696e73206f6e6c79000000000000000000000000000000000000000000600082015250565b6000614323600b83613600565b915061432e826142ed565b602082019050919050565b6000602082019050818103600083015261435281614316565b9050919050565b600081549050919050565b60008190508160005260206000209050919050565b60008160001c9050919050565b600073ffffffffffffffffffffffffffffffffffffffff82169050919050565b60006143b96143b483614379565b614386565b9050919050565b60006143cc82546143a6565b9050919050565b6000600182019050919050565b60006143eb82614359565b6143f58185613ce1565b935061440083614364565b8060005b8381101561443857614415826143c0565b61441f8882613d11565b975061442a836143d3565b925050600181019050614404565b5085935050505092915050565b6000602082019050818103600083015261445f81846143e0565b905092915050565b7f4e487b7100000000000000000000000000000000000000000000000000000000600052602260045260246000fd5b600060028204905060018216806144ae57607f821691505b6020821081036144c1576144c0614467565b5b50919050565b60006060820190506144dc600083018661373c565b6144e96020830185613bf7565b6144f6604083018461373c565b949350505050565b600082825260208201905092915050565b50565b600061451f6000836144fe565b915061452a8261450f565b600082019050919050565b600060a08201905061454a600083018761373c565b614557602083018661373c565b81810360408301526145698185614100565b9050818103606083015261457d8184614100565b9050818103608083015261459081614512565b905095945050505050565b7f4e487b7100000000000000000000000000000000000000000000000000000000600052603260045260246000fd5b7f4e487b7100000000000000000000000000000000000000000000000000000000600052601160045260246000fd5b6000614604826136a7565b91507fffffffffffffffffffffffffffffffffffffffffffffffffffffffffffffffff8203614636576146356145ca565b5b600182019050919050565b7f697066733a2f2f00000000000000000000000000000000000000000000000000815250565b600081905092915050565b60008190508160005260206000209050919050565b6000815461469481614496565b61469e8186614667565b945060018216600081146146b957600181146146ce57614701565b60ff1983168652811515820286019350614701565b6146d785614672565b60005b838110156146f9578154818901526001820191506020810190506146da565b838801955050505b50505092915050565b7f2f00000000000000000000000000000000000000000000000000000000000000815250565b600061473b826135f5565b6147458185614667565b9350614755818560208601613611565b80840191505092915050565b600061476c82614641565b60078201915061477c8286614687565b91506147878261470a565b6001820191506147978285614730565b91506147a38284614687565b9150819050949350505050565b600082905092915050565b60006020601f8301049050919050565b600082821b905092915050565b6000600883026148087fffffffffffffffffffffffffffffffffffffffffffffffffffffffffffffffff826147cb565b61481286836147cb565b95508019841693508086168417925050509392505050565b600061484561484061483b846136a7565b613b7d565b6136a7565b9050919050565b6000819050919050565b61485f8361482a565b61487361486b8261484c565b8484546147d8565b825550505050565b600090565b61488861487b565b614893818484614856565b505050565b5b818110156148b7576148ac600082614880565b600181019050614899565b5050565b601f8211156148fc576148cd81614672565b6148d6846147bb565b810160208510156148e5578190505b6148f96148f1856147bb565b830182614898565b50505b505050565b600082821c905092915050565b600061491f60001984600802614901565b1980831691505092915050565b6000614938838361490e565b9150826002028217905092915050565b61495283836147b0565b67ffffffffffffffff81111561496b5761496a613857565b5b6149758254614496565b6149808282856148bb565b6000601f8311600181146149af576000841561499d578287013590505b6149a7858261492c565b865550614a0f565b601f1984166149bd86614672565b60005b828110156149e5578489013582556001820191506020850194506020810190506149c0565b86831015614a0257848901356149fe601f89168261490e565b8355505b6001600288020188555050505b50505050505050565b7f4e656564206f6e65206f72206d6f7265206e65772061646d696e730000000000600082015250565b6000614a4e601b83613600565b9150614a5982614a18565b602082019050919050565b60006020820190508181036000830152614a7d81614a41565b9050919050565b7f4f74616b69616765204e46542000000000000000000000000000000000000000815250565b6000614ab582614a84565b600d82019150614ac58284614730565b915081905092915050565b6000614adb826136a7565b9150614ae6836136a7565b9250828201905080821115614afe57614afd6145ca565b5b92915050565b60006040820190508181036000830152614b1e8185613d36565b90508181036020830152614b328184614100565b90509392505050565b600081519050614b4a816136b1565b92915050565b6000614b63614b5e8461399a565b6138b7565b90508083825260208201905060208402830185811115614b8657614b856138fe565b5b835b81811015614baf5780614b9b8882614b3b565b845260208401935050602081019050614b88565b5050509392505050565b600082601f830112614bce57614bcd613852565b5b8151614bde848260208601614b50565b91505092915050565b600060208284031215614bfd57614bfc613530565b5b600082015167ffffffffffffffff811115614c1b57614c1a613535565b5b614c2784828501614bb9565b91505092915050565b7f4e487b7100000000000000000000000000000000000000000000000000000000600052601260045260246000fd5b600081519050919050565b6000614c7582614c5f565b614c7f81856144fe565b9350614c8f818560208601613611565b614c988161363b565b840191505092915050565b6000608082019050614cb8600083018761373c565b614cc5602083018661373c565b614cd26040830185613bf7565b8181036060830152614ce48184614c6a565b905095945050505050565b600081519050614cfe81613566565b92915050565b600060208284031215614d1a57614d19613530565b5b6000614d2884828501614cef565b91505092915050565b7f7b226e616d65223a220000000000000000000000000000000000000000000000600082015250565b6000614d67600983614667565b9150614d7282614d31565b600982019050919050565b7f222c20226465736372697074696f6e223a220000000000000000000000000000600082015250565b6000614db3601283614667565b9150614dbe82614d7d565b601282019050919050565b7f222c2022696d616765223a202200000000000000000000000000000000000000600082015250565b6000614dff600d83614667565b9150614e0a82614dc9565b600d82019050919050565b7f227d000000000000000000000000000000000000000000000000000000000000600082015250565b6000614e4b600283614667565b9150614e5682614e15565b600282019050919050565b6000614e6c82614d5a565b9150614e788286614730565b9150614e8382614da6565b9150614e8f8285614730565b9150614e9a82614df2565b9150614ea68284614730565b9150614eb182614e3e565b9150819050949350505050565b7f646174613a6170706c69636174696f6e2f6a736f6e3b6261736536342c000000600082015250565b6000614ef4601d83614667565b9150614eff82614ebe565b601d82019050919050565b6000614f1582614ee7565b9150614f218284614730565b915081905092915050565b6000614f37826136a7565b9150614f42836136a7565b9250828203905081811115614f5a57614f596145ca565b5b92915050565b600080fd5b600080fd5b60008085851115614f7e57614f7d614f60565b5b83861115614f8f57614f8e614f65565b5b6001850283019150848603905094509492505050565b600082905092915050565b60007fffffffffffffffffffffffffffffffffffffffff00000000000000000000000082169050919050565b6000614fe88383614fa5565b82614ff38135614fb0565b925060148210156150335761502e7fffffffffffffffffffffffffffffffffffffffff000000000000000000000000836014036008026147cb565b831692505b505092915050565b6000604082019050615050600083018561373c565b61505d6020830184613bf7565b9392505050565b600061506f826136a7565b915061507a836136a7565b92508261508a57615089614c30565b5b828204905092915050565b60006150a0826136a7565b91506150ab836136a7565b92508282026150b9816136a7565b915082820484148315176150d0576150cf6145ca565b5b509291505056fe4142434445464748494a4b4c4d4e4f505152535455565758595a6162636465666768696a6b6c6d6e6f707172737475767778797a303132333435363738392b2fa26469706673582212205e2ca9f9de7e8e61c01602adc95a828dd643ce73c14c947052952fb93be1dd2664736f6c63430008140033",
  "linkReferences": {},
  "deployedLinkReferences": {}
}