{
  "_format": "hh-sol-artifact-1",
  "contractName": "Otakiage",
  "sourceName": "contracts/community/Otakiage.sol",
  "abi": [
    {
      "inputs": [
        {
          "internalType": "address",
          "name": "_trustedForwarder",
          "type": "address"
        },
        {
          "internalType": "address",
          "name": "_omamoriAddress",
          "type": "address"
        }
      ],
      "stateMutability": "nonpayable",
      "type": "constructor"
    },
    {
      "inputs": [
        {
          "internalType": "address",
          "name": "sender",
          "type": "address"
        },
        {
          "internalType": "uint256",
          "name": "tokenId",
          "type": "uint256"
        },
        {
          "internalType": "address",
          "name": "owner",
          "type": "address"
        }
      ],
      "name": "ERC721IncorrectOwner",
      "type": "error"
    },
    {
      "inputs": [
        {
          "internalType": "address",
          "name": "operator",
          "type": "address"
        },
        {
          "internalType": "uint256",
          "name": "tokenId",
          "type": "uint256"
        }
      ],
      "name": "ERC721InsufficientApproval",
      "type": "error"
    },
    {
      "inputs": [
        {
          "internalType": "address",
          "name": "approver",
          "type": "address"
        }
      ],
      "name": "ERC721InvalidApprover",
      "type": "error"
    },
    {
      "inputs": [
        {
          "internalType": "address",
          "name": "operator",
          "type": "address"
        }
      ],
      "name": "ERC721InvalidOperator",
      "type": "error"
    },
    {
      "inputs": [
        {
          "internalType": "address",
          "name": "owner",
          "type": "address"
        }
      ],
      "name": "ERC721InvalidOwner",
      "type": "error"
    },
    {
      "inputs": [
        {
          "internalType": "address",
          "name": "receiver",
          "type": "address"
        }
      ],
      "name": "ERC721InvalidReceiver",
      "type": "error"
    },
    {
      "inputs": [
        {
          "internalType": "address",
          "name": "sender",
          "type": "address"
        }
      ],
      "name": "ERC721InvalidSender",
      "type": "error"
    },
    {
      "inputs": [
        {
          "internalType": "uint256",
          "name": "tokenId",
          "type": "uint256"
        }
      ],
      "name": "ERC721NonexistentToken",
      "type": "error"
    },
    {
      "anonymous": false,
      "inputs": [
        {
          "indexed": true,
          "internalType": "address",
          "name": "owner",
          "type": "address"
        },
        {
          "indexed": true,
          "internalType": "address",
          "name": "approved",
          "type": "address"
        },
        {
          "indexed": true,
          "internalType": "uint256",
          "name": "tokenId",
          "type": "uint256"
        }
      ],
      "name": "Approval",
      "type": "event"
    },
    {
      "anonymous": false,
      "inputs": [
        {
          "indexed": true,
          "internalType": "address",
          "name": "owner",
          "type": "address"
        },
        {
          "indexed": true,
          "internalType": "address",
          "name": "operator",
          "type": "address"
        },
        {
          "indexed": false,
          "internalType": "bool",
          "name": "approved",
          "type": "bool"
        }
      ],
      "name": "ApprovalForAll",
      "type": "event"
    },
    {
      "anonymous": false,
      "inputs": [
        {
          "indexed": true,
          "internalType": "address",
          "name": "to",
          "type": "address"
        },
        {
          "indexed": true,
          "internalType": "uint256",
          "name": "tokenId",
          "type": "uint256"
        }
      ],
      "name": "Mint",
      "type": "event"
    },
    {
      "anonymous": false,
      "inputs": [
        {
          "indexed": false,
          "internalType": "address[]",
          "name": "users",
          "type": "address[]"
        }
      ],
      "name": "OtakiageEvent",
      "type": "event"
    },
    {
      "anonymous": false,
      "inputs": [
        {
          "indexed": true,
          "internalType": "address",
          "name": "from",
          "type": "address"
        },
        {
          "indexed": false,
          "internalType": "uint256[]",
          "name": "ids",
          "type": "uint256[]"
        },
        {
          "indexed": false,
          "internalType": "uint256[]",
          "name": "values",
          "type": "uint256[]"
        }
      ],
      "name": "SendAllOmamori",
      "type": "event"
    },
    {
      "anonymous": false,
      "inputs": [
        {
          "indexed": true,
          "internalType": "address",
          "name": "from",
          "type": "address"
        },
        {
          "indexed": true,
          "internalType": "address",
          "name": "to",
          "type": "address"
        },
        {
          "indexed": true,
          "internalType": "uint256",
          "name": "tokenId",
          "type": "uint256"
        }
      ],
      "name": "Transfer",
      "type": "event"
    },
    {
      "inputs": [
        {
          "internalType": "address[]",
          "name": "_newAdmins",
          "type": "address[]"
        }
      ],
      "name": "addAdmins",
      "outputs": [],
      "stateMutability": "nonpayable",
      "type": "function"
    },
    {
      "inputs": [
        {
          "internalType": "address",
          "name": "to",
          "type": "address"
        },
        {
          "internalType": "uint256",
          "name": "tokenId",
          "type": "uint256"
        }
      ],
      "name": "approve",
      "outputs": [],
      "stateMutability": "nonpayable",
      "type": "function"
    },
    {
      "inputs": [
        {
          "internalType": "address",
          "name": "owner",
          "type": "address"
        }
      ],
      "name": "balanceOf",
      "outputs": [
        {
          "internalType": "uint256",
          "name": "",
          "type": "uint256"
        }
      ],
      "stateMutability": "view",
      "type": "function"
    },
    {
      "inputs": [
        {
          "internalType": "address[]",
          "name": "tos",
          "type": "address[]"
        }
      ],
      "name": "batchMintOtakiage",
      "outputs": [],
      "stateMutability": "nonpayable",
      "type": "function"
    },
    {
      "inputs": [],
      "name": "cid",
      "outputs": [
        {
          "internalType": "string",
          "name": "",
          "type": "string"
        }
      ],
      "stateMutability": "view",
      "type": "function"
    },
    {
      "inputs": [
        {
          "internalType": "address",
          "name": "_deleteAdmin",
          "type": "address"
        }
      ],
      "name": "deleteAdmin",
      "outputs": [],
      "stateMutability": "nonpayable",
      "type": "function"
    },
    {
      "inputs": [],
      "name": "fetchHoldingOmamoriBalance",
      "outputs": [
        {
          "internalType": "uint256[]",
          "name": "",
          "type": "uint256[]"
        },
        {
          "internalType": "uint256[]",
          "name": "",
          "type": "uint256[]"
        }
      ],
      "stateMutability": "view",
      "type": "function"
    },
    {
      "inputs": [
        {
          "internalType": "uint256",
          "name": "tokenId",
          "type": "uint256"
        }
      ],
      "name": "getApproved",
      "outputs": [
        {
          "internalType": "address",
          "name": "",
          "type": "address"
        }
      ],
      "stateMutability": "view",
      "type": "function"
    },
    {
      "inputs": [],
      "name": "getCID",
      "outputs": [
        {
          "internalType": "string",
          "name": "",
          "type": "string"
        }
      ],
      "stateMutability": "view",
      "type": "function"
    },
    {
      "inputs": [
        {
          "internalType": "uint256",
          "name": "tokenId",
          "type": "uint256"
        }
      ],
      "name": "getImage",
      "outputs": [
        {
          "internalType": "string",
          "name": "",
          "type": "string"
        }
      ],
      "stateMutability": "view",
      "type": "function"
    },
    {
      "inputs": [],
      "name": "getOtakiageUserCount",
      "outputs": [
        {
          "internalType": "uint256",
          "name": "",
          "type": "uint256"
        }
      ],
      "stateMutability": "view",
      "type": "function"
    },
    {
      "inputs": [
        {
          "internalType": "address",
          "name": "user",
          "type": "address"
        }
      ],
      "name": "getOtakiageUserOmamoriIds",
      "outputs": [
        {
          "internalType": "uint256[]",
          "name": "",
          "type": "uint256[]"
        }
      ],
      "stateMutability": "view",
      "type": "function"
    },
    {
      "inputs": [
        {
          "internalType": "address",
          "name": "user",
          "type": "address"
        }
      ],
      "name": "getOtakiageUserOmamoriIdsCount",
      "outputs": [
        {
          "internalType": "uint256",
          "name": "",
          "type": "uint256"
        }
      ],
      "stateMutability": "view",
      "type": "function"
    },
    {
      "inputs": [],
      "name": "getOtakiageUsersArr",
      "outputs": [
        {
          "internalType": "address[]",
          "name": "",
          "type": "address[]"
        }
      ],
      "stateMutability": "view",
      "type": "function"
    },
    {
      "inputs": [],
      "name": "imageExtension",
      "outputs": [
        {
          "internalType": "string",
          "name": "",
          "type": "string"
        }
      ],
      "stateMutability": "view",
      "type": "function"
    },
    {
      "inputs": [
        {
          "internalType": "address",
          "name": "_address",
          "type": "address"
        }
      ],
      "name": "isAdmin",
      "outputs": [
        {
          "internalType": "bool",
          "name": "",
          "type": "bool"
        }
      ],
      "stateMutability": "view",
      "type": "function"
    },
    {
      "inputs": [
        {
          "internalType": "address",
          "name": "owner",
          "type": "address"
        },
        {
          "internalType": "address",
          "name": "operator",
          "type": "address"
        }
      ],
      "name": "isApprovedForAll",
      "outputs": [
        {
          "internalType": "bool",
          "name": "",
          "type": "bool"
        }
      ],
      "stateMutability": "view",
      "type": "function"
    },
    {
      "inputs": [
        {
          "internalType": "address",
          "name": "forwarder",
          "type": "address"
        }
      ],
      "name": "isTrustedForwarder",
      "outputs": [
        {
          "internalType": "bool",
          "name": "",
          "type": "bool"
        }
      ],
      "stateMutability": "view",
      "type": "function"
    },
    {
      "inputs": [
        {
          "internalType": "address",
          "name": "to",
          "type": "address"
        }
      ],
      "name": "mintOtakiage",
      "outputs": [],
      "stateMutability": "nonpayable",
      "type": "function"
    },
    {
      "inputs": [],
      "name": "name",
      "outputs": [
        {
          "internalType": "string",
          "name": "",
          "type": "string"
        }
      ],
      "stateMutability": "view",
      "type": "function"
    },
    {
      "inputs": [],
      "name": "omamoriContract",
      "outputs": [
        {
          "internalType": "contract IERC1155",
          "name": "",
          "type": "address"
        }
      ],
      "stateMutability": "view",
      "type": "function"
    },
    {
      "inputs": [],
      "name": "omamoriTokenIdOffset",
      "outputs": [
        {
          "internalType": "uint256",
          "name": "",
          "type": "uint256"
        }
      ],
      "stateMutability": "view",
      "type": "function"
    },
    {
      "inputs": [],
      "name": "omamoriTypeCount",
      "outputs": [
        {
          "internalType": "uint256",
          "name": "",
          "type": "uint256"
        }
      ],
      "stateMutability": "view",
      "type": "function"
    },
    {
      "inputs": [
        {
          "internalType": "address",
          "name": "operator",
          "type": "address"
        },
        {
          "internalType": "address",
          "name": "from",
          "type": "address"
        },
        {
          "internalType": "uint256[]",
          "name": "ids",
          "type": "uint256[]"
        },
        {
          "internalType": "uint256[]",
          "name": "values",
          "type": "uint256[]"
        },
        {
          "internalType": "bytes",
          "name": "data",
          "type": "bytes"
        }
      ],
      "name": "onERC1155BatchReceived",
      "outputs": [
        {
          "internalType": "bytes4",
          "name": "",
          "type": "bytes4"
        }
      ],
      "stateMutability": "nonpayable",
      "type": "function"
    },
    {
      "inputs": [
        {
          "internalType": "address",
          "name": "operator",
          "type": "address"
        },
        {
          "internalType": "address",
          "name": "from",
          "type": "address"
        },
        {
          "internalType": "uint256",
          "name": "id",
          "type": "uint256"
        },
        {
          "internalType": "uint256",
          "name": "value",
          "type": "uint256"
        },
        {
          "internalType": "bytes",
          "name": "data",
          "type": "bytes"
        }
      ],
      "name": "onERC1155Received",
      "outputs": [
        {
          "internalType": "bytes4",
          "name": "",
          "type": "bytes4"
        }
      ],
      "stateMutability": "nonpayable",
      "type": "function"
    },
    {
      "inputs": [],
      "name": "otakiage",
      "outputs": [],
      "stateMutability": "nonpayable",
      "type": "function"
    },
    {
      "inputs": [
        {
          "internalType": "address",
          "name": "",
          "type": "address"
        },
        {
          "internalType": "uint256",
          "name": "",
          "type": "uint256"
        }
      ],
      "name": "otakiageUserOmamoriIds",
      "outputs": [
        {
          "internalType": "uint256",
          "name": "",
          "type": "uint256"
        }
      ],
      "stateMutability": "view",
      "type": "function"
    },
    {
      "inputs": [
        {
          "internalType": "uint256",
          "name": "",
          "type": "uint256"
        }
      ],
      "name": "otakiageUsersArr",
      "outputs": [
        {
          "internalType": "address",
          "name": "",
          "type": "address"
        }
      ],
      "stateMutability": "view",
      "type": "function"
    },
    {
      "inputs": [
        {
          "internalType": "uint256",
          "name": "tokenId",
          "type": "uint256"
        }
      ],
      "name": "ownerOf",
      "outputs": [
        {
          "internalType": "address",
          "name": "",
          "type": "address"
        }
      ],
      "stateMutability": "view",
      "type": "function"
    },
    {
      "inputs": [
        {
          "internalType": "address",
          "name": "user",
          "type": "address"
        },
        {
          "internalType": "uint256[]",
          "name": "omamoriIds",
          "type": "uint256[]"
        }
      ],
      "name": "recordOtakiageUser",
      "outputs": [],
      "stateMutability": "nonpayable",
      "type": "function"
    },
    {
      "inputs": [
        {
          "internalType": "address[]",
          "name": "users",
          "type": "address[]"
        },
        {
          "internalType": "uint256[]",
          "name": "omamoriIds",
          "type": "uint256[]"
        }
      ],
      "name": "recordOtakiageUsers",
      "outputs": [],
      "stateMutability": "nonpayable",
      "type": "function"
    },
    {
      "inputs": [
        {
          "internalType": "address",
          "name": "from",
          "type": "address"
        },
        {
          "internalType": "address",
          "name": "to",
          "type": "address"
        },
        {
          "internalType": "uint256",
          "name": "tokenId",
          "type": "uint256"
        }
      ],
      "name": "safeTransferFrom",
      "outputs": [],
      "stateMutability": "nonpayable",
      "type": "function"
    },
    {
      "inputs": [
        {
          "internalType": "address",
          "name": "from",
          "type": "address"
        },
        {
          "internalType": "address",
          "name": "to",
          "type": "address"
        },
        {
          "internalType": "uint256",
          "name": "tokenId",
          "type": "uint256"
        },
        {
          "internalType": "bytes",
          "name": "data",
          "type": "bytes"
        }
      ],
      "name": "safeTransferFrom",
      "outputs": [],
      "stateMutability": "nonpayable",
      "type": "function"
    },
    {
      "inputs": [],
      "name": "sendAllOmamori",
      "outputs": [],
      "stateMutability": "nonpayable",
      "type": "function"
    },
    {
      "inputs": [
        {
          "internalType": "address",
          "name": "operator",
          "type": "address"
        },
        {
          "internalType": "bool",
          "name": "approved",
          "type": "bool"
        }
      ],
      "name": "setApprovalForAll",
      "outputs": [],
      "stateMutability": "nonpayable",
      "type": "function"
    },
    {
      "inputs": [
        {
          "internalType": "string",
          "name": "_cid",
          "type": "string"
        }
      ],
      "name": "setCID",
      "outputs": [],
      "stateMutability": "nonpayable",
      "type": "function"
    },
    {
      "inputs": [
        {
          "internalType": "string",
          "name": "_imageExtension",
          "type": "string"
        }
      ],
      "name": "setImageExtension",
      "outputs": [],
      "stateMutability": "nonpayable",
      "type": "function"
    },
    {
      "inputs": [
        {
          "internalType": "address",
          "name": "_omamoriAddress",
          "type": "address"
        }
      ],
      "name": "setOmamoriAddress",
      "outputs": [],
      "stateMutability": "nonpayable",
      "type": "function"
    },
    {
      "inputs": [
        {
          "internalType": "uint256",
          "name": "_omamoriTokenIdOffset",
          "type": "uint256"
        }
      ],
      "name": "setOmamoriTokenIdOffset",
      "outputs": [],
      "stateMutability": "nonpayable",
      "type": "function"
    },
    {
      "inputs": [
        {
          "internalType": "uint256",
          "name": "_omamoriTypeCount",
          "type": "uint256"
        }
      ],
      "name": "setOmamoriTypeCount",
      "outputs": [],
      "stateMutability": "nonpayable",
      "type": "function"
    },
    {
      "inputs": [
        {
          "internalType": "bytes4",
          "name": "interfaceId",
          "type": "bytes4"
        }
      ],
      "name": "supportsInterface",
      "outputs": [
        {
          "internalType": "bool",
          "name": "",
          "type": "bool"
        }
      ],
      "stateMutability": "view",
      "type": "function"
    },
    {
      "inputs": [],
      "name": "symbol",
      "outputs": [
        {
          "internalType": "string",
          "name": "",
          "type": "string"
        }
      ],
      "stateMutability": "view",
      "type": "function"
    },
    {
      "inputs": [],
      "name": "tokenIds",
      "outputs": [
        {
          "internalType": "uint256",
          "name": "",
          "type": "uint256"
        }
      ],
      "stateMutability": "view",
      "type": "function"
    },
    {
      "inputs": [
        {
          "internalType": "uint256",
          "name": "tokenId",
          "type": "uint256"
        }
      ],
      "name": "tokenURI",
      "outputs": [
        {
          "internalType": "string",
          "name": "",
          "type": "string"
        }
      ],
      "stateMutability": "view",
      "type": "function"
    },
    {
      "inputs": [
        {
          "internalType": "address",
          "name": "from",
          "type": "address"
        },
        {
          "internalType": "address",
          "name": "to",
          "type": "address"
        },
        {
          "internalType": "uint256",
          "name": "tokenId",
          "type": "uint256"
        }
      ],
      "name": "transferFrom",
      "outputs": [],
      "stateMutability": "nonpayable",
      "type": "function"
    },
    {
      "inputs": [],
      "name": "trustedForwarder",
      "outputs": [
        {
          "internalType": "address",
          "name": "",
          "type": "address"
        }
      ],
      "stateMutability": "view",
      "type": "function"
    }
  ],
  "bytecode": "0x60a06040523480156200001157600080fd5b50604051620055bc380380620055bc833981810160405281019062000037919062000261565b816040518060400160405280600881526020017f4f74616b696167650000000000000000000000000000000000000000000000008152506040518060400160405280600381526020017f4f544b00000000000000000000000000000000000000000000000000000000008152508160009081620000b5919062000522565b508060019081620000c7919062000522565b5050508073ffffffffffffffffffffffffffffffffffffffff1660808173ffffffffffffffffffffffffffffffffffffffff1681525050506001600660003373ffffffffffffffffffffffffffffffffffffffff1673ffffffffffffffffffffffffffffffffffffffff16815260200190815260200160002060006101000a81548160ff02191690831515021790555080600960006101000a81548173ffffffffffffffffffffffffffffffffffffffff021916908373ffffffffffffffffffffffffffffffffffffffff16021790555060066008819055506001600a819055506040518060400160405280600481526020017f2e706e6700000000000000000000000000000000000000000000000000000000815250600c9081620001ee919062000522565b50505062000609565b600080fd5b600073ffffffffffffffffffffffffffffffffffffffff82169050919050565b60006200022982620001fc565b9050919050565b6200023b816200021c565b81146200024757600080fd5b50565b6000815190506200025b8162000230565b92915050565b600080604083850312156200027b576200027a620001f7565b5b60006200028b858286016200024a565b92505060206200029e858286016200024a565b9150509250929050565b600081519050919050565b7f4e487b7100000000000000000000000000000000000000000000000000000000600052604160045260246000fd5b7f4e487b7100000000000000000000000000000000000000000000000000000000600052602260045260246000fd5b600060028204905060018216806200032a57607f821691505b60208210810362000340576200033f620002e2565b5b50919050565b60008190508160005260206000209050919050565b60006020601f8301049050919050565b600082821b905092915050565b600060088302620003aa7fffffffffffffffffffffffffffffffffffffffffffffffffffffffffffffffff826200036b565b620003b686836200036b565b95508019841693508086168417925050509392505050565b6000819050919050565b6000819050919050565b600062000403620003fd620003f784620003ce565b620003d8565b620003ce565b9050919050565b6000819050919050565b6200041f83620003e2565b620004376200042e826200040a565b84845462000378565b825550505050565b600090565b6200044e6200043f565b6200045b81848462000414565b505050565b5b8181101562000483576200047760008262000444565b60018101905062000461565b5050565b601f821115620004d2576200049c8162000346565b620004a7846200035b565b81016020851015620004b7578190505b620004cf620004c6856200035b565b83018262000460565b50505b505050565b600082821c905092915050565b6000620004f760001984600802620004d7565b1980831691505092915050565b6000620005128383620004e4565b9150826002028217905092915050565b6200052d82620002a8565b67ffffffffffffffff811115620005495762000548620002b3565b5b62000555825462000311565b6200056282828562000487565b600060209050601f8311600181146200059a576000841562000585578287015190505b62000591858262000504565b86555062000601565b601f198416620005aa8662000346565b60005b82811015620005d457848901518255600182019150602085019450602081019050620005ad565b86831015620005f45784890151620005f0601f891682620004e4565b8355505b6001600288020188555050505b505050505050565b608051614f9762000625600039600061162f0152614f976000f3fe608060405234801561001057600080fd5b506004361061028a5760003560e01c80637da0a8771161015c578063c3d6ee7f116100ce578063d95a642d11610087578063d95a642d146107d4578063e985e9c514610804578063e9b0225d14610834578063f182098f14610850578063f23a6e611461086e578063f5b0ec861461089e5761028a565b8063c3d6ee7f146106ed578063c7a54b2914610709578063c87b56dd14610739578063d2dbb30514610769578063d3ab849114610785578063d42990fb146107a45761028a565b8063a83120a611610120578063a83120a614610629578063a9ef3aeb14610647578063aa3ec0a914610665578063ac28d14414610683578063b88d4fde146106a1578063bc197c81146106bd5761028a565b80637da0a8771461059757806395d89b41146105b55780639c54df64146105d3578063a036ba9d146105ef578063a22cb4651461060d5761028a565b806327e1f7df1161020057806343c998b4116101b957806343c998b4146104af5780634add175c146104cb578063572b6c05146104e95780636352211e1461051957806370a0823114610549578063714cff56146105795761028a565b806327e1f7df146103f35780632c032a1d1461040f578063302716121461042b57806339e3aa7e146104475780633a90c62a1461046357806342842e0e146104935761028a565b8063095ea7b311610252578063095ea7b31461033557806309bdd0601461035157806323b872dd1461036d578063247bddf41461038957806324d7806c146103935780632607aafa146103c35761028a565b806301ae85781461028f57806301ffc9a71461029957806302790e34146102c957806306fdde03146102e7578063081812fc14610305575b600080fd5b6102976108ba565b005b6102b360048036038101906102ae9190613381565b610a0f565b6040516102c091906133c9565b60405180910390f35b6102d1610af1565b6040516102de9190613474565b60405180910390f35b6102ef610b83565b6040516102fc9190613474565b60405180910390f35b61031f600480360381019061031a91906134cc565b610c15565b60405161032c919061353a565b60405180910390f35b61034f600480360381019061034a9190613581565b610c31565b005b61036b600480360381019061036691906134cc565b610c47565b005b610387600480360381019061038291906135c1565b610cdd565b005b610391610ddf565b005b6103ad60048036038101906103a89190613614565b61107f565b6040516103ba91906133c9565b60405180910390f35b6103dd60048036038101906103d891906134cc565b6110d5565b6040516103ea9190613474565b60405180910390f35b61040d60048036038101906104089190613614565b61110c565b005b6104296004803603810190610424919061384c565b6111f3565b005b61044560048036038101906104409190613614565b61128d565b005b610461600480360381019061045c919061391f565b61135d565b005b61047d600480360381019061047891906134cc565b6113ff565b60405161048a919061353a565b60405180910390f35b6104ad60048036038101906104a891906135c1565b61143e565b005b6104c960048036038101906104c491906134cc565b61145e565b005b6104d36114f4565b6040516104e091906139cb565b60405180910390f35b61050360048036038101906104fe9190613614565b61151a565b60405161051091906133c9565b60405180910390f35b610533600480360381019061052e91906134cc565b611559565b604051610540919061353a565b60405180910390f35b610563600480360381019061055e9190613614565b61156b565b60405161057091906139f5565b60405180910390f35b610581611625565b60405161058e91906139f5565b60405180910390f35b61059f61162b565b6040516105ac919061353a565b60405180910390f35b6105bd611653565b6040516105ca9190613474565b60405180910390f35b6105ed60048036038101906105e89190613a10565b6116e5565b005b6105f761189f565b60405161060491906139f5565b60405180910390f35b61062760048036038101906106229190613a85565b6118a5565b005b6106316118bb565b60405161063e9190613b83565b60405180910390f35b61064f611949565b60405161065c9190613474565b60405180910390f35b61066d6119d7565b60405161067a9190613474565b60405180910390f35b61068b611a65565b60405161069891906139f5565b60405180910390f35b6106bb60048036038101906106b69190613c5a565b611a6b565b005b6106d760048036038101906106d29190613d89565b611a88565b6040516106e49190613e74565b60405180910390f35b6107076004803603810190610702919061391f565b611aa0565b005b610723600480360381019061071e9190613614565b611b42565b6040516107309190613f4d565b60405180910390f35b610753600480360381019061074e91906134cc565b611bd9565b6040516107609190613474565b60405180910390f35b610783600480360381019061077e9190613a10565b611c5f565b005b61078d611d37565b60405161079b929190613f6f565b60405180910390f35b6107be60048036038101906107b99190613581565b611f31565b6040516107cb91906139f5565b60405180910390f35b6107ee60048036038101906107e99190613614565b611f62565b6040516107fb91906139f5565b60405180910390f35b61081e60048036038101906108199190613fa6565b611fae565b60405161082b91906133c9565b60405180910390f35b61084e60048036038101906108499190613fe6565b612042565b005b6108586120dc565b60405161086591906139f5565b60405180910390f35b61088860048036038101906108839190614042565b6120e9565b6040516108959190613e74565b60405180910390f35b6108b860048036038101906108b39190613614565b6120ff565b005b600660003373ffffffffffffffffffffffffffffffffffffffff1673ffffffffffffffffffffffffffffffffffffffff16815260200190815260200160002060009054906101000a900460ff16610946576040517f08c379a000000000000000000000000000000000000000000000000000000000815260040161093d90614128565b60405180910390fd5b6109d5600d8054806020026020016040519081016040528092919081815260200182805480156109cb57602002820191906000526020600020905b8160009054906101000a900473ffffffffffffffffffffffffffffffffffffffff1673ffffffffffffffffffffffffffffffffffffffff1681526020019060010190808311610981575b5050505050611c5f565b7f3299847ac387aeae1cb8f68630b8282971831d8257d503f3e95992fcb47c9290600d604051610a059190614234565b60405180910390a1565b60007f80ac58cd000000000000000000000000000000000000000000000000000000007bffffffffffffffffffffffffffffffffffffffffffffffffffffffff1916827bffffffffffffffffffffffffffffffffffffffffffffffffffffffff19161480610ada57507f5b5e139f000000000000000000000000000000000000000000000000000000007bffffffffffffffffffffffffffffffffffffffffffffffffffffffff1916827bffffffffffffffffffffffffffffffffffffffffffffffffffffffff1916145b80610aea5750610ae9826121fc565b5b9050919050565b6060600b8054610b0090614285565b80601f0160208091040260200160405190810160405280929190818152602001828054610b2c90614285565b8015610b795780601f10610b4e57610100808354040283529160200191610b79565b820191906000526020600020905b815481529060010190602001808311610b5c57829003601f168201915b5050505050905090565b606060008054610b9290614285565b80601f0160208091040260200160405190810160405280929190818152602001828054610bbe90614285565b8015610c0b5780601f10610be057610100808354040283529160200191610c0b565b820191906000526020600020905b815481529060010190602001808311610bee57829003601f168201915b5050505050905090565b6000610c2082612266565b50610c2a826122ee565b9050919050565b610c438282610c3e61232b565b61235d565b5050565b600660003373ffffffffffffffffffffffffffffffffffffffff1673ffffffffffffffffffffffffffffffffffffffff16815260200190815260200160002060009054906101000a900460ff16610cd3576040517f08c379a0000000000000000000000000000000000000000000000000000000008152600401610cca90614128565b60405180910390fd5b80600a8190555050565b600073ffffffffffffffffffffffffffffffffffffffff168273ffffffffffffffffffffffffffffffffffffffff1603610d4f5760006040517f64a0ae92000000000000000000000000000000000000000000000000000000008152600401610d46919061353a565b60405180910390fd5b6000610d638383610d5e61232b565b61236f565b90508373ffffffffffffffffffffffffffffffffffffffff168173ffffffffffffffffffffffffffffffffffffffff1614610dd9578382826040517f64283d7b000000000000000000000000000000000000000000000000000000008152600401610dd0939291906142b6565b60405180910390fd5b50505050565b600080610dea611d37565b91509150600960009054906101000a900473ffffffffffffffffffffffffffffffffffffffff1673ffffffffffffffffffffffffffffffffffffffff16632eb2c2d6610e3461232b565b3085856040518563ffffffff1660e01b8152600401610e569493929190614324565b600060405180830381600087803b158015610e7057600080fd5b505af1158015610e84573d6000803e3d6000fd5b50505050600060085467ffffffffffffffff811115610ea657610ea5613646565b5b604051908082528060200260200182016040528015610ed45781602001602082028036833780820191505090505b5090506000808451905060005b81811015610f68576000858281518110610efe57610efd61438a565b5b60200260200101511115610f5557858181518110610f1f57610f1e61438a565b5b6020026020010151848481518110610f3a57610f3961438a565b5b6020026020010181815250508280610f51906143e8565b9350505b8080610f60906143e8565b915050610ee1565b5060008267ffffffffffffffff811115610f8557610f84613646565b5b604051908082528060200260200182016040528015610fb35781602001602082028036833780820191505090505b50905060005b8381101561100e57848181518110610fd457610fd361438a565b5b6020026020010151828281518110610fef57610fee61438a565b5b6020026020010181815250508080611006906143e8565b915050610fb9565b5061102061101a61232b565b82612589565b61102861232b565b73ffffffffffffffffffffffffffffffffffffffff167f1256566f8c33d7969d943ac535a6d0b48b7d7132e6c46ee3c7c8e22b40b6adca878760405161106f929190613f6f565b60405180910390a2505050505050565b6000600660008373ffffffffffffffffffffffffffffffffffffffff1673ffffffffffffffffffffffffffffffffffffffff16815260200190815260200160002060009054906101000a900460ff169050919050565b6060600b6110e283612644565b600c6040516020016110f693929190614550565b6040516020818303038152906040529050919050565b600660003373ffffffffffffffffffffffffffffffffffffffff1673ffffffffffffffffffffffffffffffffffffffff16815260200190815260200160002060009054906101000a900460ff16611198576040517f08c379a000000000000000000000000000000000000000000000000000000000815260040161118f90614128565b60405180910390fd5b6000600660008373ffffffffffffffffffffffffffffffffffffffff1673ffffffffffffffffffffffffffffffffffffffff16815260200190815260200160002060006101000a81548160ff02191690831515021790555050565b600660003373ffffffffffffffffffffffffffffffffffffffff1673ffffffffffffffffffffffffffffffffffffffff16815260200190815260200160002060009054906101000a900460ff1661127f576040517f08c379a000000000000000000000000000000000000000000000000000000000815260040161127690614128565b60405180910390fd5b6112898282612712565b5050565b600660003373ffffffffffffffffffffffffffffffffffffffff1673ffffffffffffffffffffffffffffffffffffffff16815260200190815260200160002060009054906101000a900460ff16611319576040517f08c379a000000000000000000000000000000000000000000000000000000000815260040161131090614128565b60405180910390fd5b80600960006101000a81548173ffffffffffffffffffffffffffffffffffffffff021916908373ffffffffffffffffffffffffffffffffffffffff16021790555050565b600660003373ffffffffffffffffffffffffffffffffffffffff1673ffffffffffffffffffffffffffffffffffffffff16815260200190815260200160002060009054906101000a900460ff166113e9576040517f08c379a00000000000000000000000000000000000000000000000000000000081526004016113e090614128565b60405180910390fd5b8181600c91826113fa929190614737565b505050565b600d818154811061140f57600080fd5b906000526020600020016000915054906101000a900473ffffffffffffffffffffffffffffffffffffffff1681565b61145983838360405180602001604052806000815250611a6b565b505050565b600660003373ffffffffffffffffffffffffffffffffffffffff1673ffffffffffffffffffffffffffffffffffffffff16815260200190815260200160002060009054906101000a900460ff166114ea576040517f08c379a00000000000000000000000000000000000000000000000000000000081526004016114e190614128565b60405180910390fd5b8060088190555050565b600960009054906101000a900473ffffffffffffffffffffffffffffffffffffffff1681565b600061152461162b565b73ffffffffffffffffffffffffffffffffffffffff168273ffffffffffffffffffffffffffffffffffffffff16149050919050565b600061156482612266565b9050919050565b60008073ffffffffffffffffffffffffffffffffffffffff168273ffffffffffffffffffffffffffffffffffffffff16036115de5760006040517f89c62b640000000000000000000000000000000000000000000000000000000081526004016115d5919061353a565b60405180910390fd5b600360008373ffffffffffffffffffffffffffffffffffffffff1673ffffffffffffffffffffffffffffffffffffffff168152602001908152602001600020549050919050565b60075481565b60007f0000000000000000000000000000000000000000000000000000000000000000905090565b60606001805461166290614285565b80601f016020809104026020016040519081016040528092919081815260200182805461168e90614285565b80156116db5780601f106116b0576101008083540402835291602001916116db565b820191906000526020600020905b8154815290600101906020018083116116be57829003601f168201915b5050505050905090565b600660003373ffffffffffffffffffffffffffffffffffffffff1673ffffffffffffffffffffffffffffffffffffffff16815260200190815260200160002060009054906101000a900460ff16611771576040517f08c379a000000000000000000000000000000000000000000000000000000000815260040161176890614128565b60405180910390fd5b600081519050600081116117ba576040517f08c379a00000000000000000000000000000000000000000000000000000000081526004016117b190614853565b60405180910390fd5b60005b8181101561189a5760008382815181106117da576117d961438a565b5b60200260200101519050600660008273ffffffffffffffffffffffffffffffffffffffff1673ffffffffffffffffffffffffffffffffffffffff16815260200190815260200160002060009054906101000a900460ff1661188e576001600660008373ffffffffffffffffffffffffffffffffffffffff1673ffffffffffffffffffffffffffffffffffffffff16815260200190815260200160002060006101000a81548160ff0219169083151502179055505b816001019150506117bd565b505050565b60085481565b6118b76118b061232b565b838361275a565b5050565b6060600d80548060200260200160405190810160405280929190818152602001828054801561193f57602002820191906000526020600020905b8160009054906101000a900473ffffffffffffffffffffffffffffffffffffffff1673ffffffffffffffffffffffffffffffffffffffff16815260200190600101908083116118f5575b5050505050905090565b600c805461195690614285565b80601f016020809104026020016040519081016040528092919081815260200182805461198290614285565b80156119cf5780601f106119a4576101008083540402835291602001916119cf565b820191906000526020600020905b8154815290600101906020018083116119b257829003601f168201915b505050505081565b600b80546119e490614285565b80601f0160208091040260200160405190810160405280929190818152602001828054611a1090614285565b8015611a5d5780601f10611a3257610100808354040283529160200191611a5d565b820191906000526020600020905b815481529060010190602001808311611a4057829003601f168201915b505050505081565b600a5481565b611a76848484610cdd565b611a82848484846128c9565b50505050565b600063bc197c8160e01b905098975050505050505050565b600660003373ffffffffffffffffffffffffffffffffffffffff1673ffffffffffffffffffffffffffffffffffffffff16815260200190815260200160002060009054906101000a900460ff16611b2c576040517f08c379a0000000000000000000000000000000000000000000000000000000008152600401611b2390614128565b60405180910390fd5b8181600b9182611b3d929190614737565b505050565b6060600e60008373ffffffffffffffffffffffffffffffffffffffff1673ffffffffffffffffffffffffffffffffffffffff168152602001908152602001600020805480602002602001604051908101604052809291908181526020018280548015611bcd57602002820191906000526020600020905b815481526020019060010190808311611bb9575b50505050509050919050565b60606000611be683612644565b90506000604051806060016040528083604051602001611c069190614899565b604051602081830303815290604052815260200183604051602001611c2b91906148e5565b6040516020818303038152906040528152602001611c48866110d5565b8152509050611c5681612a80565b92505050919050565b600660003373ffffffffffffffffffffffffffffffffffffffff1673ffffffffffffffffffffffffffffffffffffffff16815260200190815260200160002060009054906101000a900460ff16611ceb576040517f08c379a0000000000000000000000000000000000000000000000000000000008152600401611ce290614128565b60405180910390fd5b60008151905060005b81811015611d3257611d1f838281518110611d1257611d1161438a565b5b60200260200101516120ff565b8080611d2a906143e8565b915050611cf4565b505050565b6060806000600854905060008167ffffffffffffffff811115611d5d57611d5c613646565b5b604051908082528060200260200182016040528015611d8b5781602001602082028036833780820191505090505b50905060008267ffffffffffffffff811115611daa57611da9613646565b5b604051908082528060200260200182016040528015611dd85781602001602082028036833780820191505090505b50905060005b83811015611e7b57611dee61232b565b838281518110611e0157611e0061438a565b5b602002602001019073ffffffffffffffffffffffffffffffffffffffff16908173ffffffffffffffffffffffffffffffffffffffff1681525050600a5481611e49919061491a565b828281518110611e5c57611e5b61438a565b5b6020026020010181815250508080611e73906143e8565b915050611dde565b506000600960009054906101000a900473ffffffffffffffffffffffffffffffffffffffff1673ffffffffffffffffffffffffffffffffffffffff16634e1273f484846040518363ffffffff1660e01b8152600401611edb92919061494e565b600060405180830381865afa158015611ef8573d6000803e3d6000fd5b505050506040513d6000823e3d601f19601f82011682018060405250810190611f219190614a31565b9050818195509550505050509091565b600e6020528160005260406000208181548110611f4d57600080fd5b90600052602060002001600091509150505481565b6000600e60008373ffffffffffffffffffffffffffffffffffffffff1673ffffffffffffffffffffffffffffffffffffffff168152602001908152602001600020805490509050919050565b6000600560008473ffffffffffffffffffffffffffffffffffffffff1673ffffffffffffffffffffffffffffffffffffffff16815260200190815260200160002060008373ffffffffffffffffffffffffffffffffffffffff1673ffffffffffffffffffffffffffffffffffffffff16815260200190815260200160002060009054906101000a900460ff16905092915050565b600660003373ffffffffffffffffffffffffffffffffffffffff1673ffffffffffffffffffffffffffffffffffffffff16815260200190815260200160002060009054906101000a900460ff166120ce576040517f08c379a00000000000000000000000000000000000000000000000000000000081526004016120c590614128565b60405180910390fd5b6120d88282612589565b5050565b6000600d80549050905090565b600063f23a6e6160e01b90509695505050505050565b600660003373ffffffffffffffffffffffffffffffffffffffff1673ffffffffffffffffffffffffffffffffffffffff16815260200190815260200160002060009054906101000a900460ff1661218b576040517f08c379a000000000000000000000000000000000000000000000000000000000815260040161218290614128565b60405180910390fd5b60006007549050600760008154809291906121a5906143e8565b91905055506121b48282612ae0565b808273ffffffffffffffffffffffffffffffffffffffff167f0f6798a560793a54c3bcfe86a93cde1e73087d944c0ea20544137d412139688560405160405180910390a35050565b60007f01ffc9a7000000000000000000000000000000000000000000000000000000007bffffffffffffffffffffffffffffffffffffffffffffffffffffffff1916827bffffffffffffffffffffffffffffffffffffffffffffffffffffffff1916149050919050565b60008061227283612bd9565b9050600073ffffffffffffffffffffffffffffffffffffffff168173ffffffffffffffffffffffffffffffffffffffff16036122e557826040517f7e2732890000000000000000000000000000000000000000000000000000000081526004016122dc91906139f5565b60405180910390fd5b80915050919050565b60006004600083815260200190815260200160002060009054906101000a900473ffffffffffffffffffffffffffffffffffffffff169050919050565b60006123363361151a565b1561234a57601436033560601c9050612359565b612352612c16565b905061235a565b5b90565b61236a8383836001612c8b565b505050565b60008061237b84612bd9565b9050600073ffffffffffffffffffffffffffffffffffffffff168373ffffffffffffffffffffffffffffffffffffffff16146123bd576123bc818486612e50565b5b600073ffffffffffffffffffffffffffffffffffffffff168173ffffffffffffffffffffffffffffffffffffffff161461244e576123ff600085600080612c8b565b6001600360008373ffffffffffffffffffffffffffffffffffffffff1673ffffffffffffffffffffffffffffffffffffffff168152602001908152602001600020600082825403925050819055505b600073ffffffffffffffffffffffffffffffffffffffff168573ffffffffffffffffffffffffffffffffffffffff16146124d1576001600360008773ffffffffffffffffffffffffffffffffffffffff1673ffffffffffffffffffffffffffffffffffffffff168152602001908152602001600020600082825401925050819055505b846002600086815260200190815260200160002060006101000a81548173ffffffffffffffffffffffffffffffffffffffff021916908373ffffffffffffffffffffffffffffffffffffffff160217905550838573ffffffffffffffffffffffffffffffffffffffff168273ffffffffffffffffffffffffffffffffffffffff167fddf252ad1be2c89b69c2b068fc378daa952ba7f163c4a11628f55a4df523b3ef60405160405180910390a4809150509392505050565b600d829080600181540180825580915050600190039060005260206000200160009091909190916101000a81548173ffffffffffffffffffffffffffffffffffffffff021916908373ffffffffffffffffffffffffffffffffffffffff16021790555080600e60008473ffffffffffffffffffffffffffffffffffffffff1673ffffffffffffffffffffffffffffffffffffffff168152602001908152602001600020908051906020019061263f9291906132ab565b505050565b60606000600161265384612f14565b01905060008167ffffffffffffffff81111561267257612671613646565b5b6040519080825280601f01601f1916602001820160405280156126a45781602001600182028036833780820191505090505b509050600082602001820190505b600115612707578080600190039150507f3031323334353637383961626364656600000000000000000000000000000000600a86061a8153600a85816126fb576126fa614a7a565b5b049450600085036126b2575b819350505050919050565b60005b8251811015612755576127428382815181106127345761273361438a565b5b602002602001015183612589565b808061274d906143e8565b915050612715565b505050565b600073ffffffffffffffffffffffffffffffffffffffff168273ffffffffffffffffffffffffffffffffffffffff16036127cb57816040517f5b08ba180000000000000000000000000000000000000000000000000000000081526004016127c2919061353a565b60405180910390fd5b80600560008573ffffffffffffffffffffffffffffffffffffffff1673ffffffffffffffffffffffffffffffffffffffff16815260200190815260200160002060008473ffffffffffffffffffffffffffffffffffffffff1673ffffffffffffffffffffffffffffffffffffffff16815260200190815260200160002060006101000a81548160ff0219169083151502179055508173ffffffffffffffffffffffffffffffffffffffff168373ffffffffffffffffffffffffffffffffffffffff167f17307eab39ab6107e8899845ad3d59bd9653f200f220920489ca2b5937696c31836040516128bc91906133c9565b60405180910390a3505050565b60008373ffffffffffffffffffffffffffffffffffffffff163b1115612a7a578273ffffffffffffffffffffffffffffffffffffffff1663150b7a0261290d61232b565b8685856040518563ffffffff1660e01b815260040161292f9493929190614aed565b6020604051808303816000875af192505050801561296b57506040513d601f19601f820116820180604052508101906129689190614b4e565b60015b6129ef573d806000811461299b576040519150601f19603f3d011682016040523d82523d6000602084013e6129a0565b606091505b5060008151036129e757836040517f64a0ae920000000000000000000000000000000000000000000000000000000081526004016129de919061353a565b60405180910390fd5b805181602001fd5b63150b7a0260e01b7bffffffffffffffffffffffffffffffffffffffffffffffffffffffff1916817bffffffffffffffffffffffffffffffffffffffffffffffffffffffff191614612a7857836040517f64a0ae92000000000000000000000000000000000000000000000000000000008152600401612a6f919061353a565b60405180910390fd5b505b50505050565b6060612aba826000015183602001518460400151604051602001612aa693929190614cab565b604051602081830303815290604052613067565b604051602001612aca9190614d54565b6040516020818303038152906040529050919050565b600073ffffffffffffffffffffffffffffffffffffffff168273ffffffffffffffffffffffffffffffffffffffff1603612b525760006040517f64a0ae92000000000000000000000000000000000000000000000000000000008152600401612b49919061353a565b60405180910390fd5b6000612b608383600061236f565b9050600073ffffffffffffffffffffffffffffffffffffffff168173ffffffffffffffffffffffffffffffffffffffff1614612bd45760006040517f73c6ac6e000000000000000000000000000000000000000000000000000000008152600401612bcb919061353a565b60405180910390fd5b505050565b60006002600083815260200190815260200160002060009054906101000a900473ffffffffffffffffffffffffffffffffffffffff169050919050565b600080600036905090506000612c2a6131ca565b9050612c353361151a565b8015612c415750808210155b15612c7b576000368284612c559190614d76565b908092612c6493929190614db4565b90612c6f9190614e26565b60601c92505050612c88565b612c836131d9565b925050505b90565b8080612cc45750600073ffffffffffffffffffffffffffffffffffffffff168273ffffffffffffffffffffffffffffffffffffffff1614155b15612df8576000612cd484612266565b9050600073ffffffffffffffffffffffffffffffffffffffff168373ffffffffffffffffffffffffffffffffffffffff1614158015612d3f57508273ffffffffffffffffffffffffffffffffffffffff168173ffffffffffffffffffffffffffffffffffffffff1614155b8015612d525750612d508184611fae565b155b15612d9457826040517fa9fbf51f000000000000000000000000000000000000000000000000000000008152600401612d8b919061353a565b60405180910390fd5b8115612df657838573ffffffffffffffffffffffffffffffffffffffff168273ffffffffffffffffffffffffffffffffffffffff167f8c5be1e5ebec7d5bd14f71427d1e84f3dd0314c0f7b2291e5b200ac8c7c3b92560405160405180910390a45b505b836004600085815260200190815260200160002060006101000a81548173ffffffffffffffffffffffffffffffffffffffff021916908373ffffffffffffffffffffffffffffffffffffffff16021790555050505050565b612e5b8383836131e1565b612f0f57600073ffffffffffffffffffffffffffffffffffffffff168373ffffffffffffffffffffffffffffffffffffffff1603612ed057806040517f7e273289000000000000000000000000000000000000000000000000000000008152600401612ec791906139f5565b60405180910390fd5b81816040517f177e802f000000000000000000000000000000000000000000000000000000008152600401612f06929190614e85565b60405180910390fd5b505050565b600080600090507a184f03e93ff9f4daa797ed6e38ed64bf6a1f0100000000000000008310612f72577a184f03e93ff9f4daa797ed6e38ed64bf6a1f0100000000000000008381612f6857612f67614a7a565b5b0492506040810190505b6d04ee2d6d415b85acef81000000008310612faf576d04ee2d6d415b85acef81000000008381612fa557612fa4614a7a565b5b0492506020810190505b662386f26fc100008310612fde57662386f26fc100008381612fd457612fd3614a7a565b5b0492506010810190505b6305f5e1008310613007576305f5e1008381612ffd57612ffc614a7a565b5b0492506008810190505b612710831061302c57612710838161302257613021614a7a565b5b0492506004810190505b6064831061304f576064838161304557613044614a7a565b5b0492506002810190505b600a831061305e576001810190505b80915050919050565b60606000825103613089576040518060200160405280600081525090506131c5565b6000604051806060016040528060408152602001614f2260409139905060006003600285516130b8919061491a565b6130c29190614eae565b60046130ce9190614edf565b67ffffffffffffffff8111156130e7576130e6613646565b5b6040519080825280601f01601f1916602001820160405280156131195781602001600182028036833780820191505090505b509050600182016020820185865187015b80821015613185576003820191508151603f8160121c168501518453600184019350603f81600c1c168501518453600184019350603f8160061c168501518453600184019350603f811685015184536001840193505061312a565b50506003865106600181146131a157600281146131b4576131bc565b603d6001830353603d60028303536131bc565b603d60018303535b50505080925050505b919050565b60006131d46132a2565b905090565b600033905090565b60008073ffffffffffffffffffffffffffffffffffffffff168373ffffffffffffffffffffffffffffffffffffffff161415801561329957508273ffffffffffffffffffffffffffffffffffffffff168473ffffffffffffffffffffffffffffffffffffffff16148061325a57506132598484611fae565b5b8061329857508273ffffffffffffffffffffffffffffffffffffffff16613280836122ee565b73ffffffffffffffffffffffffffffffffffffffff16145b5b90509392505050565b60006014905090565b8280548282559060005260206000209081019282156132e7579160200282015b828111156132e65782518255916020019190600101906132cb565b5b5090506132f491906132f8565b5090565b5b808211156133115760008160009055506001016132f9565b5090565b6000604051905090565b600080fd5b600080fd5b60007fffffffff0000000000000000000000000000000000000000000000000000000082169050919050565b61335e81613329565b811461336957600080fd5b50565b60008135905061337b81613355565b92915050565b6000602082840312156133975761339661331f565b5b60006133a58482850161336c565b91505092915050565b60008115159050919050565b6133c3816133ae565b82525050565b60006020820190506133de60008301846133ba565b92915050565b600081519050919050565b600082825260208201905092915050565b60005b8381101561341e578082015181840152602081019050613403565b60008484015250505050565b6000601f19601f8301169050919050565b6000613446826133e4565b61345081856133ef565b9350613460818560208601613400565b6134698161342a565b840191505092915050565b6000602082019050818103600083015261348e818461343b565b905092915050565b6000819050919050565b6134a981613496565b81146134b457600080fd5b50565b6000813590506134c6816134a0565b92915050565b6000602082840312156134e2576134e161331f565b5b60006134f0848285016134b7565b91505092915050565b600073ffffffffffffffffffffffffffffffffffffffff82169050919050565b6000613524826134f9565b9050919050565b61353481613519565b82525050565b600060208201905061354f600083018461352b565b92915050565b61355e81613519565b811461356957600080fd5b50565b60008135905061357b81613555565b92915050565b600080604083850312156135985761359761331f565b5b60006135a68582860161356c565b92505060206135b7858286016134b7565b9150509250929050565b6000806000606084860312156135da576135d961331f565b5b60006135e88682870161356c565b93505060206135f98682870161356c565b925050604061360a868287016134b7565b9150509250925092565b60006020828403121561362a5761362961331f565b5b60006136388482850161356c565b91505092915050565b600080fd5b7f4e487b7100000000000000000000000000000000000000000000000000000000600052604160045260246000fd5b61367e8261342a565b810181811067ffffffffffffffff8211171561369d5761369c613646565b5b80604052505050565b60006136b0613315565b90506136bc8282613675565b919050565b600067ffffffffffffffff8211156136dc576136db613646565b5b602082029050602081019050919050565b600080fd5b6000613705613700846136c1565b6136a6565b90508083825260208201905060208402830185811115613728576137276136ed565b5b835b81811015613751578061373d888261356c565b84526020840193505060208101905061372a565b5050509392505050565b600082601f8301126137705761376f613641565b5b81356137808482602086016136f2565b91505092915050565b600067ffffffffffffffff8211156137a4576137a3613646565b5b602082029050602081019050919050565b60006137c86137c384613789565b6136a6565b905080838252602082019050602084028301858111156137eb576137ea6136ed565b5b835b81811015613814578061380088826134b7565b8452602084019350506020810190506137ed565b5050509392505050565b600082601f83011261383357613832613641565b5b81356138438482602086016137b5565b91505092915050565b600080604083850312156138635761386261331f565b5b600083013567ffffffffffffffff81111561388157613880613324565b5b61388d8582860161375b565b925050602083013567ffffffffffffffff8111156138ae576138ad613324565b5b6138ba8582860161381e565b9150509250929050565b600080fd5b60008083601f8401126138df576138de613641565b5b8235905067ffffffffffffffff8111156138fc576138fb6138c4565b5b602083019150836001820283011115613918576139176136ed565b5b9250929050565b600080602083850312156139365761393561331f565b5b600083013567ffffffffffffffff81111561395457613953613324565b5b613960858286016138c9565b92509250509250929050565b6000819050919050565b600061399161398c613987846134f9565b61396c565b6134f9565b9050919050565b60006139a382613976565b9050919050565b60006139b582613998565b9050919050565b6139c5816139aa565b82525050565b60006020820190506139e060008301846139bc565b92915050565b6139ef81613496565b82525050565b6000602082019050613a0a60008301846139e6565b92915050565b600060208284031215613a2657613a2561331f565b5b600082013567ffffffffffffffff811115613a4457613a43613324565b5b613a508482850161375b565b91505092915050565b613a62816133ae565b8114613a6d57600080fd5b50565b600081359050613a7f81613a59565b92915050565b60008060408385031215613a9c57613a9b61331f565b5b6000613aaa8582860161356c565b9250506020613abb85828601613a70565b9150509250929050565b600081519050919050565b600082825260208201905092915050565b6000819050602082019050919050565b613afa81613519565b82525050565b6000613b0c8383613af1565b60208301905092915050565b6000602082019050919050565b6000613b3082613ac5565b613b3a8185613ad0565b9350613b4583613ae1565b8060005b83811015613b76578151613b5d8882613b00565b9750613b6883613b18565b925050600181019050613b49565b5085935050505092915050565b60006020820190508181036000830152613b9d8184613b25565b905092915050565b600080fd5b600067ffffffffffffffff821115613bc557613bc4613646565b5b613bce8261342a565b9050602081019050919050565b82818337600083830152505050565b6000613bfd613bf884613baa565b6136a6565b905082815260208101848484011115613c1957613c18613ba5565b5b613c24848285613bdb565b509392505050565b600082601f830112613c4157613c40613641565b5b8135613c51848260208601613bea565b91505092915050565b60008060008060808587031215613c7457613c7361331f565b5b6000613c828782880161356c565b9450506020613c938782880161356c565b9350506040613ca4878288016134b7565b925050606085013567ffffffffffffffff811115613cc557613cc4613324565b5b613cd187828801613c2c565b91505092959194509250565b60008083601f840112613cf357613cf2613641565b5b8235905067ffffffffffffffff811115613d1057613d0f6138c4565b5b602083019150836020820283011115613d2c57613d2b6136ed565b5b9250929050565b60008083601f840112613d4957613d48613641565b5b8235905067ffffffffffffffff811115613d6657613d656138c4565b5b602083019150836001820283011115613d8257613d816136ed565b5b9250929050565b60008060008060008060008060a0898b031215613da957613da861331f565b5b6000613db78b828c0161356c565b9850506020613dc88b828c0161356c565b975050604089013567ffffffffffffffff811115613de957613de8613324565b5b613df58b828c01613cdd565b9650965050606089013567ffffffffffffffff811115613e1857613e17613324565b5b613e248b828c01613cdd565b9450945050608089013567ffffffffffffffff811115613e4757613e46613324565b5b613e538b828c01613d33565b92509250509295985092959890939650565b613e6e81613329565b82525050565b6000602082019050613e896000830184613e65565b92915050565b600081519050919050565b600082825260208201905092915050565b6000819050602082019050919050565b613ec481613496565b82525050565b6000613ed68383613ebb565b60208301905092915050565b6000602082019050919050565b6000613efa82613e8f565b613f048185613e9a565b9350613f0f83613eab565b8060005b83811015613f40578151613f278882613eca565b9750613f3283613ee2565b925050600181019050613f13565b5085935050505092915050565b60006020820190508181036000830152613f678184613eef565b905092915050565b60006040820190508181036000830152613f898185613eef565b90508181036020830152613f9d8184613eef565b90509392505050565b60008060408385031215613fbd57613fbc61331f565b5b6000613fcb8582860161356c565b9250506020613fdc8582860161356c565b9150509250929050565b60008060408385031215613ffd57613ffc61331f565b5b600061400b8582860161356c565b925050602083013567ffffffffffffffff81111561402c5761402b613324565b5b6140388582860161381e565b9150509250929050565b60008060008060008060a0878903121561405f5761405e61331f565b5b600061406d89828a0161356c565b965050602061407e89828a0161356c565b955050604061408f89828a016134b7565b94505060606140a089828a016134b7565b935050608087013567ffffffffffffffff8111156140c1576140c0613324565b5b6140cd89828a01613d33565b92509250509295509295509295565b7f41646d696e73206f6e6c79000000000000000000000000000000000000000000600082015250565b6000614112600b836133ef565b915061411d826140dc565b602082019050919050565b6000602082019050818103600083015261414181614105565b9050919050565b600081549050919050565b60008190508160005260206000209050919050565b60008160001c9050919050565b600073ffffffffffffffffffffffffffffffffffffffff82169050919050565b60006141a86141a383614168565b614175565b9050919050565b60006141bb8254614195565b9050919050565b6000600182019050919050565b60006141da82614148565b6141e48185613ad0565b93506141ef83614153565b8060005b8381101561422757614204826141af565b61420e8882613b00565b9750614219836141c2565b9250506001810190506141f3565b5085935050505092915050565b6000602082019050818103600083015261424e81846141cf565b905092915050565b7f4e487b7100000000000000000000000000000000000000000000000000000000600052602260045260246000fd5b6000600282049050600182168061429d57607f821691505b6020821081036142b0576142af614256565b5b50919050565b60006060820190506142cb600083018661352b565b6142d860208301856139e6565b6142e5604083018461352b565b949350505050565b600082825260208201905092915050565b50565b600061430e6000836142ed565b9150614319826142fe565b600082019050919050565b600060a082019050614339600083018761352b565b614346602083018661352b565b81810360408301526143588185613eef565b9050818103606083015261436c8184613eef565b9050818103608083015261437f81614301565b905095945050505050565b7f4e487b7100000000000000000000000000000000000000000000000000000000600052603260045260246000fd5b7f4e487b7100000000000000000000000000000000000000000000000000000000600052601160045260246000fd5b60006143f382613496565b91507fffffffffffffffffffffffffffffffffffffffffffffffffffffffffffffffff8203614425576144246143b9565b5b600182019050919050565b7f697066733a2f2f00000000000000000000000000000000000000000000000000815250565b600081905092915050565b60008190508160005260206000209050919050565b6000815461448381614285565b61448d8186614456565b945060018216600081146144a857600181146144bd576144f0565b60ff19831686528115158202860193506144f0565b6144c685614461565b60005b838110156144e8578154818901526001820191506020810190506144c9565b838801955050505b50505092915050565b7f2f00000000000000000000000000000000000000000000000000000000000000815250565b600061452a826133e4565b6145348185614456565b9350614544818560208601613400565b80840191505092915050565b600061455b82614430565b60078201915061456b8286614476565b9150614576826144f9565b600182019150614586828561451f565b91506145928284614476565b9150819050949350505050565b600082905092915050565b60006020601f8301049050919050565b600082821b905092915050565b6000600883026145f77fffffffffffffffffffffffffffffffffffffffffffffffffffffffffffffffff826145ba565b61460186836145ba565b95508019841693508086168417925050509392505050565b600061463461462f61462a84613496565b61396c565b613496565b9050919050565b6000819050919050565b61464e83614619565b61466261465a8261463b565b8484546145c7565b825550505050565b600090565b61467761466a565b614682818484614645565b505050565b5b818110156146a65761469b60008261466f565b600181019050614688565b5050565b601f8211156146eb576146bc81614461565b6146c5846145aa565b810160208510156146d4578190505b6146e86146e0856145aa565b830182614687565b50505b505050565b600082821c905092915050565b600061470e600019846008026146f0565b1980831691505092915050565b600061472783836146fd565b9150826002028217905092915050565b614741838361459f565b67ffffffffffffffff81111561475a57614759613646565b5b6147648254614285565b61476f8282856146aa565b6000601f83116001811461479e576000841561478c578287013590505b614796858261471b565b8655506147fe565b601f1984166147ac86614461565b60005b828110156147d4578489013582556001820191506020850194506020810190506147af565b868310156147f157848901356147ed601f8916826146fd565b8355505b6001600288020188555050505b50505050505050565b7f4e656564206f6e65206f72206d6f7265206e65772061646d696e730000000000600082015250565b600061483d601b836133ef565b915061484882614807565b602082019050919050565b6000602082019050818103600083015261486c81614830565b9050919050565b7f4d65646963616c2044414f204e46542000000000000000000000000000000000815250565b60006148a482614873565b6010820191506148b4828461451f565b915081905092915050565b7f2069732061206d656d626572206f6620746865204d65646963616c2044414f00815250565b60006148f082614873565b601082019150614900828461451f565b915061490b826148bf565b601f8201915081905092915050565b600061492582613496565b915061493083613496565b9250828201905080821115614948576149476143b9565b5b92915050565b600060408201905081810360008301526149688185613b25565b9050818103602083015261497c8184613eef565b90509392505050565b600081519050614994816134a0565b92915050565b60006149ad6149a884613789565b6136a6565b905080838252602082019050602084028301858111156149d0576149cf6136ed565b5b835b818110156149f957806149e58882614985565b8452602084019350506020810190506149d2565b5050509392505050565b600082601f830112614a1857614a17613641565b5b8151614a2884826020860161499a565b91505092915050565b600060208284031215614a4757614a4661331f565b5b600082015167ffffffffffffffff811115614a6557614a64613324565b5b614a7184828501614a03565b91505092915050565b7f4e487b7100000000000000000000000000000000000000000000000000000000600052601260045260246000fd5b600081519050919050565b6000614abf82614aa9565b614ac981856142ed565b9350614ad9818560208601613400565b614ae28161342a565b840191505092915050565b6000608082019050614b02600083018761352b565b614b0f602083018661352b565b614b1c60408301856139e6565b8181036060830152614b2e8184614ab4565b905095945050505050565b600081519050614b4881613355565b92915050565b600060208284031215614b6457614b6361331f565b5b6000614b7284828501614b39565b91505092915050565b7f7b226e616d65223a220000000000000000000000000000000000000000000000600082015250565b6000614bb1600983614456565b9150614bbc82614b7b565b600982019050919050565b7f222c20226465736372697074696f6e223a220000000000000000000000000000600082015250565b6000614bfd601283614456565b9150614c0882614bc7565b601282019050919050565b7f222c2022696d616765223a202200000000000000000000000000000000000000600082015250565b6000614c49600d83614456565b9150614c5482614c13565b600d82019050919050565b7f227d000000000000000000000000000000000000000000000000000000000000600082015250565b6000614c95600283614456565b9150614ca082614c5f565b600282019050919050565b6000614cb682614ba4565b9150614cc2828661451f565b9150614ccd82614bf0565b9150614cd9828561451f565b9150614ce482614c3c565b9150614cf0828461451f565b9150614cfb82614c88565b9150819050949350505050565b7f646174613a6170706c69636174696f6e2f6a736f6e3b6261736536342c000000600082015250565b6000614d3e601d83614456565b9150614d4982614d08565b601d82019050919050565b6000614d5f82614d31565b9150614d6b828461451f565b915081905092915050565b6000614d8182613496565b9150614d8c83613496565b9250828203905081811115614da457614da36143b9565b5b92915050565b600080fd5b600080fd5b60008085851115614dc857614dc7614daa565b5b83861115614dd957614dd8614daf565b5b6001850283019150848603905094509492505050565b600082905092915050565b60007fffffffffffffffffffffffffffffffffffffffff00000000000000000000000082169050919050565b6000614e328383614def565b82614e3d8135614dfa565b92506014821015614e7d57614e787fffffffffffffffffffffffffffffffffffffffff000000000000000000000000836014036008026145ba565b831692505b505092915050565b6000604082019050614e9a600083018561352b565b614ea760208301846139e6565b9392505050565b6000614eb982613496565b9150614ec483613496565b925082614ed457614ed3614a7a565b5b828204905092915050565b6000614eea82613496565b9150614ef583613496565b9250828202614f0381613496565b91508282048414831517614f1a57614f196143b9565b5b509291505056fe4142434445464748494a4b4c4d4e4f505152535455565758595a6162636465666768696a6b6c6d6e6f707172737475767778797a303132333435363738392b2fa2646970667358221220c6634d34632748addb42d0a6b249c952ec94eb43172ae798fb1ff76089bc0b1164736f6c63430008140033",
  "linkReferences": {},
  "deployedLinkReferences": {}
}