{
  "_format": "hh-sol-artifact-1",
  "contractName": "Otakiage",
  "sourceName": "contracts/community/Otakiage.sol",
  "abi": [
    {
      "inputs": [
        {
          "internalType": "address",
          "name": "_trustedForwarder",
          "type": "address"
        },
        {
          "internalType": "address",
          "name": "_omamoriAddress",
          "type": "address"
        }
      ],
      "stateMutability": "nonpayable",
      "type": "constructor"
    },
    {
      "inputs": [
        {
          "internalType": "address",
          "name": "sender",
          "type": "address"
        },
        {
          "internalType": "uint256",
          "name": "tokenId",
          "type": "uint256"
        },
        {
          "internalType": "address",
          "name": "owner",
          "type": "address"
        }
      ],
      "name": "ERC721IncorrectOwner",
      "type": "error"
    },
    {
      "inputs": [
        {
          "internalType": "address",
          "name": "operator",
          "type": "address"
        },
        {
          "internalType": "uint256",
          "name": "tokenId",
          "type": "uint256"
        }
      ],
      "name": "ERC721InsufficientApproval",
      "type": "error"
    },
    {
      "inputs": [
        {
          "internalType": "address",
          "name": "approver",
          "type": "address"
        }
      ],
      "name": "ERC721InvalidApprover",
      "type": "error"
    },
    {
      "inputs": [
        {
          "internalType": "address",
          "name": "operator",
          "type": "address"
        }
      ],
      "name": "ERC721InvalidOperator",
      "type": "error"
    },
    {
      "inputs": [
        {
          "internalType": "address",
          "name": "owner",
          "type": "address"
        }
      ],
      "name": "ERC721InvalidOwner",
      "type": "error"
    },
    {
      "inputs": [
        {
          "internalType": "address",
          "name": "receiver",
          "type": "address"
        }
      ],
      "name": "ERC721InvalidReceiver",
      "type": "error"
    },
    {
      "inputs": [
        {
          "internalType": "address",
          "name": "sender",
          "type": "address"
        }
      ],
      "name": "ERC721InvalidSender",
      "type": "error"
    },
    {
      "inputs": [
        {
          "internalType": "uint256",
          "name": "tokenId",
          "type": "uint256"
        }
      ],
      "name": "ERC721NonexistentToken",
      "type": "error"
    },
    {
      "anonymous": false,
      "inputs": [
        {
          "indexed": true,
          "internalType": "address",
          "name": "owner",
          "type": "address"
        },
        {
          "indexed": true,
          "internalType": "address",
          "name": "approved",
          "type": "address"
        },
        {
          "indexed": true,
          "internalType": "uint256",
          "name": "tokenId",
          "type": "uint256"
        }
      ],
      "name": "Approval",
      "type": "event"
    },
    {
      "anonymous": false,
      "inputs": [
        {
          "indexed": true,
          "internalType": "address",
          "name": "owner",
          "type": "address"
        },
        {
          "indexed": true,
          "internalType": "address",
          "name": "operator",
          "type": "address"
        },
        {
          "indexed": false,
          "internalType": "bool",
          "name": "approved",
          "type": "bool"
        }
      ],
      "name": "ApprovalForAll",
      "type": "event"
    },
    {
      "anonymous": false,
      "inputs": [
        {
          "indexed": true,
          "internalType": "address",
          "name": "to",
          "type": "address"
        },
        {
          "indexed": true,
          "internalType": "uint256",
          "name": "tokenId",
          "type": "uint256"
        }
      ],
      "name": "Mint",
      "type": "event"
    },
    {
      "anonymous": false,
      "inputs": [
        {
          "indexed": false,
          "internalType": "address[]",
          "name": "users",
          "type": "address[]"
        }
      ],
      "name": "OtakiageEvent",
      "type": "event"
    },
    {
      "anonymous": false,
      "inputs": [
        {
          "indexed": true,
          "internalType": "address",
          "name": "from",
          "type": "address"
        },
        {
          "indexed": false,
          "internalType": "uint256[]",
          "name": "ids",
          "type": "uint256[]"
        },
        {
          "indexed": false,
          "internalType": "uint256[]",
          "name": "values",
          "type": "uint256[]"
        }
      ],
      "name": "SendAllOmamori",
      "type": "event"
    },
    {
      "anonymous": false,
      "inputs": [
        {
          "indexed": true,
          "internalType": "address",
          "name": "from",
          "type": "address"
        },
        {
          "indexed": true,
          "internalType": "address",
          "name": "to",
          "type": "address"
        },
        {
          "indexed": true,
          "internalType": "uint256",
          "name": "tokenId",
          "type": "uint256"
        }
      ],
      "name": "Transfer",
      "type": "event"
    },
    {
      "inputs": [
        {
          "internalType": "address[]",
          "name": "_newAdmins",
          "type": "address[]"
        }
      ],
      "name": "addAdmins",
      "outputs": [],
      "stateMutability": "nonpayable",
      "type": "function"
    },
    {
      "inputs": [
        {
          "internalType": "address",
          "name": "to",
          "type": "address"
        },
        {
          "internalType": "uint256",
          "name": "tokenId",
          "type": "uint256"
        }
      ],
      "name": "approve",
      "outputs": [],
      "stateMutability": "nonpayable",
      "type": "function"
    },
    {
      "inputs": [
        {
          "internalType": "address",
          "name": "owner",
          "type": "address"
        }
      ],
      "name": "balanceOf",
      "outputs": [
        {
          "internalType": "uint256",
          "name": "",
          "type": "uint256"
        }
      ],
      "stateMutability": "view",
      "type": "function"
    },
    {
      "inputs": [
        {
          "internalType": "address[]",
          "name": "tos",
          "type": "address[]"
        }
      ],
      "name": "batchMintOtakiage",
      "outputs": [],
      "stateMutability": "nonpayable",
      "type": "function"
    },
    {
      "inputs": [],
      "name": "cid",
      "outputs": [
        {
          "internalType": "string",
          "name": "",
          "type": "string"
        }
      ],
      "stateMutability": "view",
      "type": "function"
    },
    {
      "inputs": [
        {
          "internalType": "address",
          "name": "_deleteAdmin",
          "type": "address"
        }
      ],
      "name": "deleteAdmin",
      "outputs": [],
      "stateMutability": "nonpayable",
      "type": "function"
    },
    {
      "inputs": [],
      "name": "fetchHoldingOmamoriBalance",
      "outputs": [
        {
          "internalType": "uint256[]",
          "name": "",
          "type": "uint256[]"
        },
        {
          "internalType": "uint256[]",
          "name": "",
          "type": "uint256[]"
        }
      ],
      "stateMutability": "view",
      "type": "function"
    },
    {
      "inputs": [
        {
          "internalType": "uint256",
          "name": "tokenId",
          "type": "uint256"
        }
      ],
      "name": "getApproved",
      "outputs": [
        {
          "internalType": "address",
          "name": "",
          "type": "address"
        }
      ],
      "stateMutability": "view",
      "type": "function"
    },
    {
      "inputs": [],
      "name": "getCID",
      "outputs": [
        {
          "internalType": "string",
          "name": "",
          "type": "string"
        }
      ],
      "stateMutability": "view",
      "type": "function"
    },
    {
      "inputs": [
        {
          "internalType": "uint256",
          "name": "tokenId",
          "type": "uint256"
        }
      ],
      "name": "getImage",
      "outputs": [
        {
          "internalType": "string",
          "name": "",
          "type": "string"
        }
      ],
      "stateMutability": "view",
      "type": "function"
    },
    {
      "inputs": [],
      "name": "getOtakiageOmamoriBalances",
      "outputs": [
        {
          "internalType": "uint256[]",
          "name": "",
          "type": "uint256[]"
        }
      ],
      "stateMutability": "view",
      "type": "function"
    },
    {
      "inputs": [],
      "name": "getOtakiageOmamoriInfo",
      "outputs": [
        {
          "components": [
            {
              "internalType": "uint256",
              "name": "id",
              "type": "uint256"
            },
            {
              "internalType": "string",
              "name": "uri",
              "type": "string"
            },
            {
              "internalType": "address",
              "name": "creator",
              "type": "address"
            },
            {
              "internalType": "uint256",
              "name": "maxSupply",
              "type": "uint256"
            }
          ],
          "internalType": "struct IOmamori.NengajoInfo[]",
          "name": "",
          "type": "tuple[]"
        }
      ],
      "stateMutability": "view",
      "type": "function"
    },
    {
      "inputs": [],
      "name": "getOtakiageOmamoriInfoWithBalance",
      "outputs": [
        {
          "components": [
            {
              "internalType": "uint256",
              "name": "id",
              "type": "uint256"
            },
            {
              "internalType": "string",
              "name": "uri",
              "type": "string"
            },
            {
              "internalType": "address",
              "name": "creator",
              "type": "address"
            },
            {
              "internalType": "uint256",
              "name": "maxSupply",
              "type": "uint256"
            },
            {
              "internalType": "uint256",
              "name": "balance",
              "type": "uint256"
            }
          ],
          "internalType": "struct IOtakiage.NengajoInfoWithBalance[]",
          "name": "",
          "type": "tuple[]"
        }
      ],
      "stateMutability": "view",
      "type": "function"
    },
    {
      "inputs": [],
      "name": "getOtakiageUserCount",
      "outputs": [
        {
          "internalType": "uint256",
          "name": "",
          "type": "uint256"
        }
      ],
      "stateMutability": "view",
      "type": "function"
    },
    {
      "inputs": [
        {
          "internalType": "address",
          "name": "user",
          "type": "address"
        }
      ],
      "name": "getOtakiageUserOmamoriIds",
      "outputs": [
        {
          "internalType": "uint256[]",
          "name": "",
          "type": "uint256[]"
        }
      ],
      "stateMutability": "view",
      "type": "function"
    },
    {
      "inputs": [
        {
          "internalType": "address",
          "name": "user",
          "type": "address"
        }
      ],
      "name": "getOtakiageUserOmamoriIdsCount",
      "outputs": [
        {
          "internalType": "uint256",
          "name": "",
          "type": "uint256"
        }
      ],
      "stateMutability": "view",
      "type": "function"
    },
    {
      "inputs": [],
      "name": "getOtakiageUsersArr",
      "outputs": [
        {
          "internalType": "address[]",
          "name": "",
          "type": "address[]"
        }
      ],
      "stateMutability": "view",
      "type": "function"
    },
    {
      "inputs": [],
      "name": "imageExtension",
      "outputs": [
        {
          "internalType": "string",
          "name": "",
          "type": "string"
        }
      ],
      "stateMutability": "view",
      "type": "function"
    },
    {
      "inputs": [
        {
          "internalType": "address",
          "name": "_address",
          "type": "address"
        }
      ],
      "name": "isAdmin",
      "outputs": [
        {
          "internalType": "bool",
          "name": "",
          "type": "bool"
        }
      ],
      "stateMutability": "view",
      "type": "function"
    },
    {
      "inputs": [
        {
          "internalType": "address",
          "name": "owner",
          "type": "address"
        },
        {
          "internalType": "address",
          "name": "operator",
          "type": "address"
        }
      ],
      "name": "isApprovedForAll",
      "outputs": [
        {
          "internalType": "bool",
          "name": "",
          "type": "bool"
        }
      ],
      "stateMutability": "view",
      "type": "function"
    },
    {
      "inputs": [
        {
          "internalType": "address",
          "name": "forwarder",
          "type": "address"
        }
      ],
      "name": "isTrustedForwarder",
      "outputs": [
        {
          "internalType": "bool",
          "name": "",
          "type": "bool"
        }
      ],
      "stateMutability": "view",
      "type": "function"
    },
    {
      "inputs": [
        {
          "internalType": "address",
          "name": "to",
          "type": "address"
        }
      ],
      "name": "mintOtakiage",
      "outputs": [],
      "stateMutability": "nonpayable",
      "type": "function"
    },
    {
      "inputs": [],
      "name": "name",
      "outputs": [
        {
          "internalType": "string",
          "name": "",
          "type": "string"
        }
      ],
      "stateMutability": "view",
      "type": "function"
    },
    {
      "inputs": [],
      "name": "omamoriContract",
      "outputs": [
        {
          "internalType": "contract IOmamori",
          "name": "",
          "type": "address"
        }
      ],
      "stateMutability": "view",
      "type": "function"
    },
    {
      "inputs": [],
      "name": "omamoriTokenIdOffset",
      "outputs": [
        {
          "internalType": "uint256",
          "name": "",
          "type": "uint256"
        }
      ],
      "stateMutability": "view",
      "type": "function"
    },
    {
      "inputs": [],
      "name": "omamoriTypeCount",
      "outputs": [
        {
          "internalType": "uint256",
          "name": "",
          "type": "uint256"
        }
      ],
      "stateMutability": "view",
      "type": "function"
    },
    {
      "inputs": [
        {
          "internalType": "address",
          "name": "operator",
          "type": "address"
        },
        {
          "internalType": "address",
          "name": "from",
          "type": "address"
        },
        {
          "internalType": "uint256[]",
          "name": "ids",
          "type": "uint256[]"
        },
        {
          "internalType": "uint256[]",
          "name": "values",
          "type": "uint256[]"
        },
        {
          "internalType": "bytes",
          "name": "data",
          "type": "bytes"
        }
      ],
      "name": "onERC1155BatchReceived",
      "outputs": [
        {
          "internalType": "bytes4",
          "name": "",
          "type": "bytes4"
        }
      ],
      "stateMutability": "nonpayable",
      "type": "function"
    },
    {
      "inputs": [
        {
          "internalType": "address",
          "name": "operator",
          "type": "address"
        },
        {
          "internalType": "address",
          "name": "from",
          "type": "address"
        },
        {
          "internalType": "uint256",
          "name": "id",
          "type": "uint256"
        },
        {
          "internalType": "uint256",
          "name": "value",
          "type": "uint256"
        },
        {
          "internalType": "bytes",
          "name": "data",
          "type": "bytes"
        }
      ],
      "name": "onERC1155Received",
      "outputs": [
        {
          "internalType": "bytes4",
          "name": "",
          "type": "bytes4"
        }
      ],
      "stateMutability": "nonpayable",
      "type": "function"
    },
    {
      "inputs": [],
      "name": "otakiage",
      "outputs": [],
      "stateMutability": "nonpayable",
      "type": "function"
    },
    {
      "inputs": [
        {
          "internalType": "address",
          "name": "",
          "type": "address"
        },
        {
          "internalType": "uint256",
          "name": "",
          "type": "uint256"
        }
      ],
      "name": "otakiageUserOmamoriIds",
      "outputs": [
        {
          "internalType": "uint256",
          "name": "",
          "type": "uint256"
        }
      ],
      "stateMutability": "view",
      "type": "function"
    },
    {
      "inputs": [
        {
          "internalType": "uint256",
          "name": "",
          "type": "uint256"
        }
      ],
      "name": "otakiageUsersArr",
      "outputs": [
        {
          "internalType": "address",
          "name": "",
          "type": "address"
        }
      ],
      "stateMutability": "view",
      "type": "function"
    },
    {
      "inputs": [
        {
          "internalType": "uint256",
          "name": "tokenId",
          "type": "uint256"
        }
      ],
      "name": "ownerOf",
      "outputs": [
        {
          "internalType": "address",
          "name": "",
          "type": "address"
        }
      ],
      "stateMutability": "view",
      "type": "function"
    },
    {
      "inputs": [
        {
          "internalType": "address",
          "name": "user",
          "type": "address"
        },
        {
          "internalType": "uint256[]",
          "name": "omamoriIds",
          "type": "uint256[]"
        }
      ],
      "name": "recordOtakiageUser",
      "outputs": [],
      "stateMutability": "nonpayable",
      "type": "function"
    },
    {
      "inputs": [
        {
          "internalType": "address[]",
          "name": "users",
          "type": "address[]"
        },
        {
          "internalType": "uint256[]",
          "name": "omamoriIds",
          "type": "uint256[]"
        }
      ],
      "name": "recordOtakiageUsers",
      "outputs": [],
      "stateMutability": "nonpayable",
      "type": "function"
    },
    {
      "inputs": [
        {
          "internalType": "address",
          "name": "from",
          "type": "address"
        },
        {
          "internalType": "address",
          "name": "to",
          "type": "address"
        },
        {
          "internalType": "uint256",
          "name": "tokenId",
          "type": "uint256"
        }
      ],
      "name": "safeTransferFrom",
      "outputs": [],
      "stateMutability": "nonpayable",
      "type": "function"
    },
    {
      "inputs": [
        {
          "internalType": "address",
          "name": "from",
          "type": "address"
        },
        {
          "internalType": "address",
          "name": "to",
          "type": "address"
        },
        {
          "internalType": "uint256",
          "name": "tokenId",
          "type": "uint256"
        },
        {
          "internalType": "bytes",
          "name": "data",
          "type": "bytes"
        }
      ],
      "name": "safeTransferFrom",
      "outputs": [],
      "stateMutability": "nonpayable",
      "type": "function"
    },
    {
      "inputs": [],
      "name": "sendAllOmamori",
      "outputs": [],
      "stateMutability": "nonpayable",
      "type": "function"
    },
    {
      "inputs": [
        {
          "internalType": "address",
          "name": "operator",
          "type": "address"
        },
        {
          "internalType": "bool",
          "name": "approved",
          "type": "bool"
        }
      ],
      "name": "setApprovalForAll",
      "outputs": [],
      "stateMutability": "nonpayable",
      "type": "function"
    },
    {
      "inputs": [
        {
          "internalType": "string",
          "name": "_cid",
          "type": "string"
        }
      ],
      "name": "setCID",
      "outputs": [],
      "stateMutability": "nonpayable",
      "type": "function"
    },
    {
      "inputs": [
        {
          "internalType": "string",
          "name": "_imageExtension",
          "type": "string"
        }
      ],
      "name": "setImageExtension",
      "outputs": [],
      "stateMutability": "nonpayable",
      "type": "function"
    },
    {
      "inputs": [
        {
          "internalType": "address",
          "name": "_omamoriAddress",
          "type": "address"
        }
      ],
      "name": "setOmamoriAddress",
      "outputs": [],
      "stateMutability": "nonpayable",
      "type": "function"
    },
    {
      "inputs": [
        {
          "internalType": "uint256",
          "name": "_omamoriTokenIdOffset",
          "type": "uint256"
        }
      ],
      "name": "setOmamoriTokenIdOffset",
      "outputs": [],
      "stateMutability": "nonpayable",
      "type": "function"
    },
    {
      "inputs": [
        {
          "internalType": "uint256",
          "name": "_omamoriTypeCount",
          "type": "uint256"
        }
      ],
      "name": "setOmamoriTypeCount",
      "outputs": [],
      "stateMutability": "nonpayable",
      "type": "function"
    },
    {
      "inputs": [
        {
          "internalType": "bytes4",
          "name": "interfaceId",
          "type": "bytes4"
        }
      ],
      "name": "supportsInterface",
      "outputs": [
        {
          "internalType": "bool",
          "name": "",
          "type": "bool"
        }
      ],
      "stateMutability": "view",
      "type": "function"
    },
    {
      "inputs": [],
      "name": "symbol",
      "outputs": [
        {
          "internalType": "string",
          "name": "",
          "type": "string"
        }
      ],
      "stateMutability": "view",
      "type": "function"
    },
    {
      "inputs": [],
      "name": "tokenIds",
      "outputs": [
        {
          "internalType": "uint256",
          "name": "",
          "type": "uint256"
        }
      ],
      "stateMutability": "view",
      "type": "function"
    },
    {
      "inputs": [
        {
          "internalType": "uint256",
          "name": "tokenId",
          "type": "uint256"
        }
      ],
      "name": "tokenURI",
      "outputs": [
        {
          "internalType": "string",
          "name": "",
          "type": "string"
        }
      ],
      "stateMutability": "view",
      "type": "function"
    },
    {
      "inputs": [
        {
          "internalType": "address",
          "name": "from",
          "type": "address"
        },
        {
          "internalType": "address",
          "name": "to",
          "type": "address"
        },
        {
          "internalType": "uint256",
          "name": "tokenId",
          "type": "uint256"
        }
      ],
      "name": "transferFrom",
      "outputs": [],
      "stateMutability": "nonpayable",
      "type": "function"
    },
    {
      "inputs": [],
      "name": "trustedForwarder",
      "outputs": [
        {
          "internalType": "address",
          "name": "",
          "type": "address"
        }
      ],
      "stateMutability": "view",
      "type": "function"
    }
  ],
  "bytecode": "0x60a06040523480156200001157600080fd5b506040516200632638038062006326833981810160405281019062000037919062000261565b816040518060400160405280600881526020017f4f74616b696167650000000000000000000000000000000000000000000000008152506040518060400160405280600381526020017f4f544b00000000000000000000000000000000000000000000000000000000008152508160009081620000b5919062000522565b508060019081620000c7919062000522565b5050508073ffffffffffffffffffffffffffffffffffffffff1660808173ffffffffffffffffffffffffffffffffffffffff1681525050506001600660003373ffffffffffffffffffffffffffffffffffffffff1673ffffffffffffffffffffffffffffffffffffffff16815260200190815260200160002060006101000a81548160ff02191690831515021790555080600960006101000a81548173ffffffffffffffffffffffffffffffffffffffff021916908373ffffffffffffffffffffffffffffffffffffffff16021790555060066008819055506001600a819055506040518060400160405280600481526020017f2e706e6700000000000000000000000000000000000000000000000000000000815250600c9081620001ee919062000522565b50505062000609565b600080fd5b600073ffffffffffffffffffffffffffffffffffffffff82169050919050565b60006200022982620001fc565b9050919050565b6200023b816200021c565b81146200024757600080fd5b50565b6000815190506200025b8162000230565b92915050565b600080604083850312156200027b576200027a620001f7565b5b60006200028b858286016200024a565b92505060206200029e858286016200024a565b9150509250929050565b600081519050919050565b7f4e487b7100000000000000000000000000000000000000000000000000000000600052604160045260246000fd5b7f4e487b7100000000000000000000000000000000000000000000000000000000600052602260045260246000fd5b600060028204905060018216806200032a57607f821691505b60208210810362000340576200033f620002e2565b5b50919050565b60008190508160005260206000209050919050565b60006020601f8301049050919050565b600082821b905092915050565b600060088302620003aa7fffffffffffffffffffffffffffffffffffffffffffffffffffffffffffffffff826200036b565b620003b686836200036b565b95508019841693508086168417925050509392505050565b6000819050919050565b6000819050919050565b600062000403620003fd620003f784620003ce565b620003d8565b620003ce565b9050919050565b6000819050919050565b6200041f83620003e2565b620004376200042e826200040a565b84845462000378565b825550505050565b600090565b6200044e6200043f565b6200045b81848462000414565b505050565b5b8181101562000483576200047760008262000444565b60018101905062000461565b5050565b601f821115620004d2576200049c8162000346565b620004a7846200035b565b81016020851015620004b7578190505b620004cf620004c6856200035b565b83018262000460565b50505b505050565b600082821c905092915050565b6000620004f760001984600802620004d7565b1980831691505092915050565b6000620005128383620004e4565b9150826002028217905092915050565b6200052d82620002a8565b67ffffffffffffffff811115620005495762000548620002b3565b5b62000555825462000311565b6200056282828562000487565b600060209050601f8311600181146200059a576000841562000585578287015190505b62000591858262000504565b86555062000601565b601f198416620005aa8662000346565b60005b82811015620005d457848901518255600182019150602085019450602081019050620005ad565b86831015620005f45784890151620005f0601f891682620004e4565b8355505b6001600288020188555050505b505050505050565b608051615d0162000625600039600061197d0152615d016000f3fe608060405234801561001057600080fd5b50600436106102bb5760003560e01c80637da0a87711610182578063c3d6ee7f116100e9578063d42990fb116100a2578063e9b0225d1161007c578063e9b0225d146108bf578063f182098f146108db578063f23a6e61146108f9578063f5b0ec8614610929576102bb565b8063d42990fb1461082f578063d95a642d1461085f578063e985e9c51461088f576102bb565b8063c3d6ee7f1461075a578063c7a54b2914610776578063c87b56dd146107a6578063cafccc7a146107d6578063d2dbb305146107f4578063d3ab849114610810576102bb565b8063a83120a61161013b578063a83120a614610696578063a9ef3aeb146106b4578063aa3ec0a9146106d2578063ac28d144146106f0578063b88d4fde1461070e578063bc197c811461072a576102bb565b80637da0a877146105e65780638b008c061461060457806395d89b41146106225780639c54df6414610640578063a036ba9d1461065c578063a22cb4651461067a576102bb565b80632bec8c971161022657806343c998b4116101df57806343c998b4146104fe5780634add175c1461051a578063572b6c05146105385780636352211e1461056857806370a0823114610598578063714cff56146105c8576102bb565b80632bec8c97146104405780632c032a1d1461045e578063302716121461047a57806339e3aa7e146104965780633a90c62a146104b257806342842e0e146104e2576102bb565b806309bdd0601161027857806309bdd0601461038257806323b872dd1461039e578063247bddf4146103ba57806324d7806c146103c45780632607aafa146103f457806327e1f7df14610424576102bb565b806301ae8578146102c057806301ffc9a7146102ca57806302790e34146102fa57806306fdde0314610318578063081812fc14610336578063095ea7b314610366575b600080fd5b6102c8610945565b005b6102e460048036038101906102df9190613bdd565b610a9a565b6040516102f19190613c25565b60405180910390f35b610302610b7c565b60405161030f9190613cd0565b60405180910390f35b610320610c0e565b60405161032d9190613cd0565b60405180910390f35b610350600480360381019061034b9190613d28565b610ca0565b60405161035d9190613d96565b60405180910390f35b610380600480360381019061037b9190613ddd565b610cbc565b005b61039c60048036038101906103979190613d28565b610cd2565b005b6103b860048036038101906103b39190613e1d565b610d68565b005b6103c2610e6a565b005b6103de60048036038101906103d99190613e70565b61110a565b6040516103eb9190613c25565b60405180910390f35b61040e60048036038101906104099190613d28565b611160565b60405161041b9190613cd0565b60405180910390f35b61043e60048036038101906104399190613e70565b611197565b005b61044861127e565b604051610455919061403d565b60405180910390f35b6104786004803603810190610473919061426a565b611541565b005b610494600480360381019061048f9190613e70565b6115db565b005b6104b060048036038101906104ab919061433d565b6116ab565b005b6104cc60048036038101906104c79190613d28565b61174d565b6040516104d99190613d96565b60405180910390f35b6104fc60048036038101906104f79190613e1d565b61178c565b005b61051860048036038101906105139190613d28565b6117ac565b005b610522611842565b60405161052f91906143e9565b60405180910390f35b610552600480360381019061054d9190613e70565b611868565b60405161055f9190613c25565b60405180910390f35b610582600480360381019061057d9190613d28565b6118a7565b60405161058f9190613d96565b60405180910390f35b6105b260048036038101906105ad9190613e70565b6118b9565b6040516105bf9190614413565b60405180910390f35b6105d0611973565b6040516105dd9190614413565b60405180910390f35b6105ee611979565b6040516105fb9190613d96565b60405180910390f35b61060c6119a1565b6040516106199190614553565b60405180910390f35b61062a611c44565b6040516106379190613cd0565b60405180910390f35b61065a60048036038101906106559190614575565b611cd6565b005b610664611e90565b6040516106719190614413565b60405180910390f35b610694600480360381019061068f91906145ea565b611e96565b005b61069e611eac565b6040516106ab91906146d9565b60405180910390f35b6106bc611f3a565b6040516106c99190613cd0565b60405180910390f35b6106da611fc8565b6040516106e79190613cd0565b60405180910390f35b6106f8612056565b6040516107059190614413565b60405180910390f35b610728600480360381019061072391906147b0565b61205c565b005b610744600480360381019061073f91906148df565b612079565b60405161075191906149ca565b60405180910390f35b610774600480360381019061076f919061433d565b612091565b005b610790600480360381019061078b9190613e70565b612133565b60405161079d9190614a94565b60405180910390f35b6107c060048036038101906107bb9190613d28565b6121ca565b6040516107cd9190613cd0565b60405180910390f35b6107de612250565b6040516107eb9190614a94565b60405180910390f35b61080e60048036038101906108099190614575565b612438565b005b610818612510565b604051610826929190614ab6565b60405180910390f35b61084960048036038101906108449190613ddd565b61270a565b6040516108569190614413565b60405180910390f35b61087960048036038101906108749190613e70565b61273b565b6040516108869190614413565b60405180910390f35b6108a960048036038101906108a49190614aed565b612787565b6040516108b69190613c25565b60405180910390f35b6108d960048036038101906108d49190614b2d565b61281b565b005b6108e36128b5565b6040516108f09190614413565b60405180910390f35b610913600480360381019061090e9190614b89565b6128c2565b60405161092091906149ca565b60405180910390f35b610943600480360381019061093e9190613e70565b6128d8565b005b600660003373ffffffffffffffffffffffffffffffffffffffff1673ffffffffffffffffffffffffffffffffffffffff16815260200190815260200160002060009054906101000a900460ff166109d1576040517f08c379a00000000000000000000000000000000000000000000000000000000081526004016109c890614c6f565b60405180910390fd5b610a60600d805480602002602001604051908101604052809291908181526020018280548015610a5657602002820191906000526020600020905b8160009054906101000a900473ffffffffffffffffffffffffffffffffffffffff1673ffffffffffffffffffffffffffffffffffffffff1681526020019060010190808311610a0c575b5050505050612438565b7f3299847ac387aeae1cb8f68630b8282971831d8257d503f3e95992fcb47c9290600d604051610a909190614d7b565b60405180910390a1565b60007f80ac58cd000000000000000000000000000000000000000000000000000000007bffffffffffffffffffffffffffffffffffffffffffffffffffffffff1916827bffffffffffffffffffffffffffffffffffffffffffffffffffffffff19161480610b6557507f5b5e139f000000000000000000000000000000000000000000000000000000007bffffffffffffffffffffffffffffffffffffffffffffffffffffffff1916827bffffffffffffffffffffffffffffffffffffffffffffffffffffffff1916145b80610b755750610b74826129d5565b5b9050919050565b6060600b8054610b8b90614dcc565b80601f0160208091040260200160405190810160405280929190818152602001828054610bb790614dcc565b8015610c045780601f10610bd957610100808354040283529160200191610c04565b820191906000526020600020905b815481529060010190602001808311610be757829003601f168201915b5050505050905090565b606060008054610c1d90614dcc565b80601f0160208091040260200160405190810160405280929190818152602001828054610c4990614dcc565b8015610c965780601f10610c6b57610100808354040283529160200191610c96565b820191906000526020600020905b815481529060010190602001808311610c7957829003601f168201915b5050505050905090565b6000610cab82612a3f565b50610cb582612ac7565b9050919050565b610cce8282610cc9612b04565b612b36565b5050565b600660003373ffffffffffffffffffffffffffffffffffffffff1673ffffffffffffffffffffffffffffffffffffffff16815260200190815260200160002060009054906101000a900460ff16610d5e576040517f08c379a0000000000000000000000000000000000000000000000000000000008152600401610d5590614c6f565b60405180910390fd5b80600a8190555050565b600073ffffffffffffffffffffffffffffffffffffffff168273ffffffffffffffffffffffffffffffffffffffff1603610dda5760006040517f64a0ae92000000000000000000000000000000000000000000000000000000008152600401610dd19190613d96565b60405180910390fd5b6000610dee8383610de9612b04565b612b48565b90508373ffffffffffffffffffffffffffffffffffffffff168173ffffffffffffffffffffffffffffffffffffffff1614610e64578382826040517f64283d7b000000000000000000000000000000000000000000000000000000008152600401610e5b93929190614dfd565b60405180910390fd5b50505050565b600080610e75612510565b91509150600960009054906101000a900473ffffffffffffffffffffffffffffffffffffffff1673ffffffffffffffffffffffffffffffffffffffff16632eb2c2d6610ebf612b04565b3085856040518563ffffffff1660e01b8152600401610ee19493929190614e6b565b600060405180830381600087803b158015610efb57600080fd5b505af1158015610f0f573d6000803e3d6000fd5b50505050600060085467ffffffffffffffff811115610f3157610f30614064565b5b604051908082528060200260200182016040528015610f5f5781602001602082028036833780820191505090505b5090506000808451905060005b81811015610ff3576000858281518110610f8957610f88614ed1565b5b60200260200101511115610fe057858181518110610faa57610fa9614ed1565b5b6020026020010151848481518110610fc557610fc4614ed1565b5b6020026020010181815250508280610fdc90614f2f565b9350505b8080610feb90614f2f565b915050610f6c565b5060008267ffffffffffffffff8111156110105761100f614064565b5b60405190808252806020026020018201604052801561103e5781602001602082028036833780820191505090505b50905060005b838110156110995784818151811061105f5761105e614ed1565b5b602002602001015182828151811061107a57611079614ed1565b5b602002602001018181525050808061109190614f2f565b915050611044565b506110ab6110a5612b04565b82612d62565b6110b3612b04565b73ffffffffffffffffffffffffffffffffffffffff167f1256566f8c33d7969d943ac535a6d0b48b7d7132e6c46ee3c7c8e22b40b6adca87876040516110fa929190614ab6565b60405180910390a2505050505050565b6000600660008373ffffffffffffffffffffffffffffffffffffffff1673ffffffffffffffffffffffffffffffffffffffff16815260200190815260200160002060009054906101000a900460ff169050919050565b6060600b61116d83612e1d565b600c60405160200161118193929190615097565b6040516020818303038152906040529050919050565b600660003373ffffffffffffffffffffffffffffffffffffffff1673ffffffffffffffffffffffffffffffffffffffff16815260200190815260200160002060009054906101000a900460ff16611223576040517f08c379a000000000000000000000000000000000000000000000000000000000815260040161121a90614c6f565b60405180910390fd5b6000600660008373ffffffffffffffffffffffffffffffffffffffff1673ffffffffffffffffffffffffffffffffffffffff16815260200190815260200160002060006101000a81548160ff02191690831515021790555050565b6060600061128a612250565b90506000600960009054906101000a900473ffffffffffffffffffffffffffffffffffffffff1673ffffffffffffffffffffffffffffffffffffffff1663f8ca62536040518163ffffffff1660e01b8152600401600060405180830381865afa1580156112fb573d6000803e3d6000fd5b505050506040513d6000823e3d601f19601f820116820180604052508101906113249190615330565b90506000805b835181101561137857600084828151811061134857611347614ed1565b5b6020026020010151111561136557818061136190614f2f565b9250505b808061137090614f2f565b91505061132a565b50600081905060008167ffffffffffffffff81111561139a57611399614064565b5b6040519080825280602002602001820160405280156113d357816020015b6113c0613a84565b8152602001906001900390816113b85790505b50905060005b828110156115355760008682815181106113f6576113f5614ed1565b5b60200260200101511115611522576040518060a001604052808660018461141d9190615379565b8151811061142e5761142d614ed1565b5b60200260200101516000015181526020018660018461144d9190615379565b8151811061145e5761145d614ed1565b5b60200260200101516020015181526020018660018461147d9190615379565b8151811061148e5761148d614ed1565b5b60200260200101516040015173ffffffffffffffffffffffffffffffffffffffff168152602001866001846114c39190615379565b815181106114d4576114d3614ed1565b5b60200260200101516060015181526020018783815181106114f8576114f7614ed1565b5b602002602001015181525082828151811061151657611515614ed1565b5b60200260200101819052505b808061152d90614f2f565b9150506113d9565b50809550505050505090565b600660003373ffffffffffffffffffffffffffffffffffffffff1673ffffffffffffffffffffffffffffffffffffffff16815260200190815260200160002060009054906101000a900460ff166115cd576040517f08c379a00000000000000000000000000000000000000000000000000000000081526004016115c490614c6f565b60405180910390fd5b6115d78282612eeb565b5050565b600660003373ffffffffffffffffffffffffffffffffffffffff1673ffffffffffffffffffffffffffffffffffffffff16815260200190815260200160002060009054906101000a900460ff16611667576040517f08c379a000000000000000000000000000000000000000000000000000000000815260040161165e90614c6f565b60405180910390fd5b80600960006101000a81548173ffffffffffffffffffffffffffffffffffffffff021916908373ffffffffffffffffffffffffffffffffffffffff16021790555050565b600660003373ffffffffffffffffffffffffffffffffffffffff1673ffffffffffffffffffffffffffffffffffffffff16815260200190815260200160002060009054906101000a900460ff16611737576040517f08c379a000000000000000000000000000000000000000000000000000000000815260040161172e90614c6f565b60405180910390fd5b8181600c9182611748929190615545565b505050565b600d818154811061175d57600080fd5b906000526020600020016000915054906101000a900473ffffffffffffffffffffffffffffffffffffffff1681565b6117a78383836040518060200160405280600081525061205c565b505050565b600660003373ffffffffffffffffffffffffffffffffffffffff1673ffffffffffffffffffffffffffffffffffffffff16815260200190815260200160002060009054906101000a900460ff16611838576040517f08c379a000000000000000000000000000000000000000000000000000000000815260040161182f90614c6f565b60405180910390fd5b8060088190555050565b600960009054906101000a900473ffffffffffffffffffffffffffffffffffffffff1681565b6000611872611979565b73ffffffffffffffffffffffffffffffffffffffff168273ffffffffffffffffffffffffffffffffffffffff16149050919050565b60006118b282612a3f565b9050919050565b60008073ffffffffffffffffffffffffffffffffffffffff168273ffffffffffffffffffffffffffffffffffffffff160361192c5760006040517f89c62b640000000000000000000000000000000000000000000000000000000081526004016119239190613d96565b60405180910390fd5b600360008373ffffffffffffffffffffffffffffffffffffffff1673ffffffffffffffffffffffffffffffffffffffff168152602001908152602001600020549050919050565b60075481565b60007f0000000000000000000000000000000000000000000000000000000000000000905090565b606060006119ad612250565b90506000600960009054906101000a900473ffffffffffffffffffffffffffffffffffffffff1673ffffffffffffffffffffffffffffffffffffffff1663f8ca62536040518163ffffffff1660e01b8152600401600060405180830381865afa158015611a1e573d6000803e3d6000fd5b505050506040513d6000823e3d601f19601f82011682018060405250810190611a479190615330565b90506000805b8351811015611a9b576000848281518110611a6b57611a6a614ed1565b5b60200260200101511115611a88578180611a8490614f2f565b9250505b8080611a9390614f2f565b915050611a4d565b50600081905060008167ffffffffffffffff811115611abd57611abc614064565b5b604051908082528060200260200182016040528015611af657816020015b611ae3613ac9565b815260200190600190039081611adb5790505b50905060005b82811015611c38576000868281518110611b1957611b18614ed1565b5b60200260200101511115611c2557604051806080016040528086600184611b409190615379565b81518110611b5157611b50614ed1565b5b602002602001015160000151815260200186600184611b709190615379565b81518110611b8157611b80614ed1565b5b602002602001015160200151815260200186600184611ba09190615379565b81518110611bb157611bb0614ed1565b5b60200260200101516040015173ffffffffffffffffffffffffffffffffffffffff16815260200186600184611be69190615379565b81518110611bf757611bf6614ed1565b5b602002602001015160600151815250828281518110611c1957611c18614ed1565b5b60200260200101819052505b8080611c3090614f2f565b915050611afc565b50809550505050505090565b606060018054611c5390614dcc565b80601f0160208091040260200160405190810160405280929190818152602001828054611c7f90614dcc565b8015611ccc5780601f10611ca157610100808354040283529160200191611ccc565b820191906000526020600020905b815481529060010190602001808311611caf57829003601f168201915b5050505050905090565b600660003373ffffffffffffffffffffffffffffffffffffffff1673ffffffffffffffffffffffffffffffffffffffff16815260200190815260200160002060009054906101000a900460ff16611d62576040517f08c379a0000000000000000000000000000000000000000000000000000000008152600401611d5990614c6f565b60405180910390fd5b60008151905060008111611dab576040517f08c379a0000000000000000000000000000000000000000000000000000000008152600401611da290615661565b60405180910390fd5b60005b81811015611e8b576000838281518110611dcb57611dca614ed1565b5b60200260200101519050600660008273ffffffffffffffffffffffffffffffffffffffff1673ffffffffffffffffffffffffffffffffffffffff16815260200190815260200160002060009054906101000a900460ff16611e7f576001600660008373ffffffffffffffffffffffffffffffffffffffff1673ffffffffffffffffffffffffffffffffffffffff16815260200190815260200160002060006101000a81548160ff0219169083151502179055505b81600101915050611dae565b505050565b60085481565b611ea8611ea1612b04565b8383612f33565b5050565b6060600d805480602002602001604051908101604052809291908181526020018280548015611f3057602002820191906000526020600020905b8160009054906101000a900473ffffffffffffffffffffffffffffffffffffffff1673ffffffffffffffffffffffffffffffffffffffff1681526020019060010190808311611ee6575b5050505050905090565b600c8054611f4790614dcc565b80601f0160208091040260200160405190810160405280929190818152602001828054611f7390614dcc565b8015611fc05780601f10611f9557610100808354040283529160200191611fc0565b820191906000526020600020905b815481529060010190602001808311611fa357829003601f168201915b505050505081565b600b8054611fd590614dcc565b80601f016020809104026020016040519081016040528092919081815260200182805461200190614dcc565b801561204e5780601f106120235761010080835404028352916020019161204e565b820191906000526020600020905b81548152906001019060200180831161203157829003601f168201915b505050505081565b600a5481565b612067848484610d68565b612073848484846130a2565b50505050565b600063bc197c8160e01b905098975050505050505050565b600660003373ffffffffffffffffffffffffffffffffffffffff1673ffffffffffffffffffffffffffffffffffffffff16815260200190815260200160002060009054906101000a900460ff1661211d576040517f08c379a000000000000000000000000000000000000000000000000000000000815260040161211490614c6f565b60405180910390fd5b8181600b918261212e929190615545565b505050565b6060600e60008373ffffffffffffffffffffffffffffffffffffffff1673ffffffffffffffffffffffffffffffffffffffff1681526020019081526020016000208054806020026020016040519081016040528092919081815260200182805480156121be57602002820191906000526020600020905b8154815260200190600101908083116121aa575b50505050509050919050565b606060006121d783612e1d565b905060006040518060600160405280836040516020016121f791906156a7565b60405160208183030381529060405281526020018360405160200161221c91906156a7565b604051602081830303815290604052815260200161223986611160565b815250905061224781613259565b92505050919050565b60606000600854905060008167ffffffffffffffff81111561227557612274614064565b5b6040519080825280602002602001820160405280156122a35781602001602082028036833780820191505090505b50905060008267ffffffffffffffff8111156122c2576122c1614064565b5b6040519080825280602002602001820160405280156122f05781602001602082028036833780820191505090505b50905060005b8381101561238c573083828151811061231257612311614ed1565b5b602002602001019073ffffffffffffffffffffffffffffffffffffffff16908173ffffffffffffffffffffffffffffffffffffffff1681525050600a548161235a9190615379565b82828151811061236d5761236c614ed1565b5b602002602001018181525050808061238490614f2f565b9150506122f6565b50600960009054906101000a900473ffffffffffffffffffffffffffffffffffffffff1673ffffffffffffffffffffffffffffffffffffffff16634e1273f483836040518363ffffffff1660e01b81526004016123ea9291906156cd565b600060405180830381865afa158015612407573d6000803e3d6000fd5b505050506040513d6000823e3d601f19601f82011682018060405250810190612430919061579b565b935050505090565b600660003373ffffffffffffffffffffffffffffffffffffffff1673ffffffffffffffffffffffffffffffffffffffff16815260200190815260200160002060009054906101000a900460ff166124c4576040517f08c379a00000000000000000000000000000000000000000000000000000000081526004016124bb90614c6f565b60405180910390fd5b60008151905060005b8181101561250b576124f88382815181106124eb576124ea614ed1565b5b60200260200101516128d8565b808061250390614f2f565b9150506124cd565b505050565b6060806000600854905060008167ffffffffffffffff81111561253657612535614064565b5b6040519080825280602002602001820160405280156125645781602001602082028036833780820191505090505b50905060008267ffffffffffffffff81111561258357612582614064565b5b6040519080825280602002602001820160405280156125b15781602001602082028036833780820191505090505b50905060005b83811015612654576125c7612b04565b8382815181106125da576125d9614ed1565b5b602002602001019073ffffffffffffffffffffffffffffffffffffffff16908173ffffffffffffffffffffffffffffffffffffffff1681525050600a54816126229190615379565b82828151811061263557612634614ed1565b5b602002602001018181525050808061264c90614f2f565b9150506125b7565b506000600960009054906101000a900473ffffffffffffffffffffffffffffffffffffffff1673ffffffffffffffffffffffffffffffffffffffff16634e1273f484846040518363ffffffff1660e01b81526004016126b49291906156cd565b600060405180830381865afa1580156126d1573d6000803e3d6000fd5b505050506040513d6000823e3d601f19601f820116820180604052508101906126fa919061579b565b9050818195509550505050509091565b600e602052816000526040600020818154811061272657600080fd5b90600052602060002001600091509150505481565b6000600e60008373ffffffffffffffffffffffffffffffffffffffff1673ffffffffffffffffffffffffffffffffffffffff168152602001908152602001600020805490509050919050565b6000600560008473ffffffffffffffffffffffffffffffffffffffff1673ffffffffffffffffffffffffffffffffffffffff16815260200190815260200160002060008373ffffffffffffffffffffffffffffffffffffffff1673ffffffffffffffffffffffffffffffffffffffff16815260200190815260200160002060009054906101000a900460ff16905092915050565b600660003373ffffffffffffffffffffffffffffffffffffffff1673ffffffffffffffffffffffffffffffffffffffff16815260200190815260200160002060009054906101000a900460ff166128a7576040517f08c379a000000000000000000000000000000000000000000000000000000000815260040161289e90614c6f565b60405180910390fd5b6128b18282612d62565b5050565b6000600d80549050905090565b600063f23a6e6160e01b90509695505050505050565b600660003373ffffffffffffffffffffffffffffffffffffffff1673ffffffffffffffffffffffffffffffffffffffff16815260200190815260200160002060009054906101000a900460ff16612964576040517f08c379a000000000000000000000000000000000000000000000000000000000815260040161295b90614c6f565b60405180910390fd5b600060075490506007600081548092919061297e90614f2f565b919050555061298d82826132b9565b808273ffffffffffffffffffffffffffffffffffffffff167f0f6798a560793a54c3bcfe86a93cde1e73087d944c0ea20544137d412139688560405160405180910390a35050565b60007f01ffc9a7000000000000000000000000000000000000000000000000000000007bffffffffffffffffffffffffffffffffffffffffffffffffffffffff1916827bffffffffffffffffffffffffffffffffffffffffffffffffffffffff1916149050919050565b600080612a4b836133b2565b9050600073ffffffffffffffffffffffffffffffffffffffff168173ffffffffffffffffffffffffffffffffffffffff1603612abe57826040517f7e273289000000000000000000000000000000000000000000000000000000008152600401612ab59190614413565b60405180910390fd5b80915050919050565b60006004600083815260200190815260200160002060009054906101000a900473ffffffffffffffffffffffffffffffffffffffff169050919050565b6000612b0f33611868565b15612b2357601436033560601c9050612b32565b612b2b6133ef565b9050612b33565b5b90565b612b438383836001613464565b505050565b600080612b54846133b2565b9050600073ffffffffffffffffffffffffffffffffffffffff168373ffffffffffffffffffffffffffffffffffffffff1614612b9657612b95818486613629565b5b600073ffffffffffffffffffffffffffffffffffffffff168173ffffffffffffffffffffffffffffffffffffffff1614612c2757612bd8600085600080613464565b6001600360008373ffffffffffffffffffffffffffffffffffffffff1673ffffffffffffffffffffffffffffffffffffffff168152602001908152602001600020600082825403925050819055505b600073ffffffffffffffffffffffffffffffffffffffff168573ffffffffffffffffffffffffffffffffffffffff1614612caa576001600360008773ffffffffffffffffffffffffffffffffffffffff1673ffffffffffffffffffffffffffffffffffffffff168152602001908152602001600020600082825401925050819055505b846002600086815260200190815260200160002060006101000a81548173ffffffffffffffffffffffffffffffffffffffff021916908373ffffffffffffffffffffffffffffffffffffffff160217905550838573ffffffffffffffffffffffffffffffffffffffff168273ffffffffffffffffffffffffffffffffffffffff167fddf252ad1be2c89b69c2b068fc378daa952ba7f163c4a11628f55a4df523b3ef60405160405180910390a4809150509392505050565b600d829080600181540180825580915050600190039060005260206000200160009091909190916101000a81548173ffffffffffffffffffffffffffffffffffffffff021916908373ffffffffffffffffffffffffffffffffffffffff16021790555080600e60008473ffffffffffffffffffffffffffffffffffffffff1673ffffffffffffffffffffffffffffffffffffffff1681526020019081526020016000209080519060200190612e18929190613b07565b505050565b606060006001612e2c846136ed565b01905060008167ffffffffffffffff811115612e4b57612e4a614064565b5b6040519080825280601f01601f191660200182016040528015612e7d5781602001600182028036833780820191505090505b509050600082602001820190505b600115612ee0578080600190039150507f3031323334353637383961626364656600000000000000000000000000000000600a86061a8153600a8581612ed457612ed36157e4565b5b04945060008503612e8b575b819350505050919050565b60005b8251811015612f2e57612f1b838281518110612f0d57612f0c614ed1565b5b602002602001015183612d62565b8080612f2690614f2f565b915050612eee565b505050565b600073ffffffffffffffffffffffffffffffffffffffff168273ffffffffffffffffffffffffffffffffffffffff1603612fa457816040517f5b08ba18000000000000000000000000000000000000000000000000000000008152600401612f9b9190613d96565b60405180910390fd5b80600560008573ffffffffffffffffffffffffffffffffffffffff1673ffffffffffffffffffffffffffffffffffffffff16815260200190815260200160002060008473ffffffffffffffffffffffffffffffffffffffff1673ffffffffffffffffffffffffffffffffffffffff16815260200190815260200160002060006101000a81548160ff0219169083151502179055508173ffffffffffffffffffffffffffffffffffffffff168373ffffffffffffffffffffffffffffffffffffffff167f17307eab39ab6107e8899845ad3d59bd9653f200f220920489ca2b5937696c31836040516130959190613c25565b60405180910390a3505050565b60008373ffffffffffffffffffffffffffffffffffffffff163b1115613253578273ffffffffffffffffffffffffffffffffffffffff1663150b7a026130e6612b04565b8685856040518563ffffffff1660e01b81526004016131089493929190615857565b6020604051808303816000875af192505050801561314457506040513d601f19601f8201168201806040525081019061314191906158b8565b60015b6131c8573d8060008114613174576040519150601f19603f3d011682016040523d82523d6000602084013e613179565b606091505b5060008151036131c057836040517f64a0ae920000000000000000000000000000000000000000000000000000000081526004016131b79190613d96565b60405180910390fd5b805181602001fd5b63150b7a0260e01b7bffffffffffffffffffffffffffffffffffffffffffffffffffffffff1916817bffffffffffffffffffffffffffffffffffffffffffffffffffffffff19161461325157836040517f64a0ae920000000000000000000000000000000000000000000000000000000081526004016132489190613d96565b60405180910390fd5b505b50505050565b606061329382600001518360200151846040015160405160200161327f93929190615a15565b604051602081830303815290604052613840565b6040516020016132a39190615abe565b6040516020818303038152906040529050919050565b600073ffffffffffffffffffffffffffffffffffffffff168273ffffffffffffffffffffffffffffffffffffffff160361332b5760006040517f64a0ae920000000000000000000000000000000000000000000000000000000081526004016133229190613d96565b60405180910390fd5b600061333983836000612b48565b9050600073ffffffffffffffffffffffffffffffffffffffff168173ffffffffffffffffffffffffffffffffffffffff16146133ad5760006040517f73c6ac6e0000000000000000000000000000000000000000000000000000000081526004016133a49190613d96565b60405180910390fd5b505050565b60006002600083815260200190815260200160002060009054906101000a900473ffffffffffffffffffffffffffffffffffffffff169050919050565b6000806000369050905060006134036139a3565b905061340e33611868565b801561341a5750808210155b1561345457600036828461342e9190615ae0565b90809261343d93929190615b1e565b906134489190615b90565b60601c92505050613461565b61345c6139b2565b925050505b90565b808061349d5750600073ffffffffffffffffffffffffffffffffffffffff168273ffffffffffffffffffffffffffffffffffffffff1614155b156135d15760006134ad84612a3f565b9050600073ffffffffffffffffffffffffffffffffffffffff168373ffffffffffffffffffffffffffffffffffffffff161415801561351857508273ffffffffffffffffffffffffffffffffffffffff168173ffffffffffffffffffffffffffffffffffffffff1614155b801561352b57506135298184612787565b155b1561356d57826040517fa9fbf51f0000000000000000000000000000000000000000000000000000000081526004016135649190613d96565b60405180910390fd5b81156135cf57838573ffffffffffffffffffffffffffffffffffffffff168273ffffffffffffffffffffffffffffffffffffffff167f8c5be1e5ebec7d5bd14f71427d1e84f3dd0314c0f7b2291e5b200ac8c7c3b92560405160405180910390a45b505b836004600085815260200190815260200160002060006101000a81548173ffffffffffffffffffffffffffffffffffffffff021916908373ffffffffffffffffffffffffffffffffffffffff16021790555050505050565b6136348383836139ba565b6136e857600073ffffffffffffffffffffffffffffffffffffffff168373ffffffffffffffffffffffffffffffffffffffff16036136a957806040517f7e2732890000000000000000000000000000000000000000000000000000000081526004016136a09190614413565b60405180910390fd5b81816040517f177e802f0000000000000000000000000000000000000000000000000000000081526004016136df929190615bef565b60405180910390fd5b505050565b600080600090507a184f03e93ff9f4daa797ed6e38ed64bf6a1f010000000000000000831061374b577a184f03e93ff9f4daa797ed6e38ed64bf6a1f0100000000000000008381613741576137406157e4565b5b0492506040810190505b6d04ee2d6d415b85acef81000000008310613788576d04ee2d6d415b85acef8100000000838161377e5761377d6157e4565b5b0492506020810190505b662386f26fc1000083106137b757662386f26fc1000083816137ad576137ac6157e4565b5b0492506010810190505b6305f5e10083106137e0576305f5e10083816137d6576137d56157e4565b5b0492506008810190505b61271083106138055761271083816137fb576137fa6157e4565b5b0492506004810190505b60648310613828576064838161381e5761381d6157e4565b5b0492506002810190505b600a8310613837576001810190505b80915050919050565b606060008251036138625760405180602001604052806000815250905061399e565b6000604051806060016040528060408152602001615c8c60409139905060006003600285516138919190615379565b61389b9190615c18565b60046138a79190615c49565b67ffffffffffffffff8111156138c0576138bf614064565b5b6040519080825280601f01601f1916602001820160405280156138f25781602001600182028036833780820191505090505b509050600182016020820185865187015b8082101561395e576003820191508151603f8160121c168501518453600184019350603f81600c1c168501518453600184019350603f8160061c168501518453600184019350603f8116850151845360018401935050613903565b505060038651066001811461397a576002811461398d57613995565b603d6001830353603d6002830353613995565b603d60018303535b50505080925050505b919050565b60006139ad613a7b565b905090565b600033905090565b60008073ffffffffffffffffffffffffffffffffffffffff168373ffffffffffffffffffffffffffffffffffffffff1614158015613a7257508273ffffffffffffffffffffffffffffffffffffffff168473ffffffffffffffffffffffffffffffffffffffff161480613a335750613a328484612787565b5b80613a7157508273ffffffffffffffffffffffffffffffffffffffff16613a5983612ac7565b73ffffffffffffffffffffffffffffffffffffffff16145b5b90509392505050565b60006014905090565b6040518060a001604052806000815260200160608152602001600073ffffffffffffffffffffffffffffffffffffffff16815260200160008152602001600081525090565b60405180608001604052806000815260200160608152602001600073ffffffffffffffffffffffffffffffffffffffff168152602001600081525090565b828054828255906000526020600020908101928215613b43579160200282015b82811115613b42578251825591602001919060010190613b27565b5b509050613b509190613b54565b5090565b5b80821115613b6d576000816000905550600101613b55565b5090565b6000604051905090565b600080fd5b600080fd5b60007fffffffff0000000000000000000000000000000000000000000000000000000082169050919050565b613bba81613b85565b8114613bc557600080fd5b50565b600081359050613bd781613bb1565b92915050565b600060208284031215613bf357613bf2613b7b565b5b6000613c0184828501613bc8565b91505092915050565b60008115159050919050565b613c1f81613c0a565b82525050565b6000602082019050613c3a6000830184613c16565b92915050565b600081519050919050565b600082825260208201905092915050565b60005b83811015613c7a578082015181840152602081019050613c5f565b60008484015250505050565b6000601f19601f8301169050919050565b6000613ca282613c40565b613cac8185613c4b565b9350613cbc818560208601613c5c565b613cc581613c86565b840191505092915050565b60006020820190508181036000830152613cea8184613c97565b905092915050565b6000819050919050565b613d0581613cf2565b8114613d1057600080fd5b50565b600081359050613d2281613cfc565b92915050565b600060208284031215613d3e57613d3d613b7b565b5b6000613d4c84828501613d13565b91505092915050565b600073ffffffffffffffffffffffffffffffffffffffff82169050919050565b6000613d8082613d55565b9050919050565b613d9081613d75565b82525050565b6000602082019050613dab6000830184613d87565b92915050565b613dba81613d75565b8114613dc557600080fd5b50565b600081359050613dd781613db1565b92915050565b60008060408385031215613df457613df3613b7b565b5b6000613e0285828601613dc8565b9250506020613e1385828601613d13565b9150509250929050565b600080600060608486031215613e3657613e35613b7b565b5b6000613e4486828701613dc8565b9350506020613e5586828701613dc8565b9250506040613e6686828701613d13565b9150509250925092565b600060208284031215613e8657613e85613b7b565b5b6000613e9484828501613dc8565b91505092915050565b600081519050919050565b600082825260208201905092915050565b6000819050602082019050919050565b613ed281613cf2565b82525050565b600082825260208201905092915050565b6000613ef482613c40565b613efe8185613ed8565b9350613f0e818560208601613c5c565b613f1781613c86565b840191505092915050565b613f2b81613d75565b82525050565b600060a083016000830151613f496000860182613ec9565b5060208301518482036020860152613f618282613ee9565b9150506040830151613f766040860182613f22565b506060830151613f896060860182613ec9565b506080830151613f9c6080860182613ec9565b508091505092915050565b6000613fb38383613f31565b905092915050565b6000602082019050919050565b6000613fd382613e9d565b613fdd8185613ea8565b935083602082028501613fef85613eb9565b8060005b8581101561402b578484038952815161400c8582613fa7565b945061401783613fbb565b925060208a01995050600181019050613ff3565b50829750879550505050505092915050565b600060208201905081810360008301526140578184613fc8565b905092915050565b600080fd5b7f4e487b7100000000000000000000000000000000000000000000000000000000600052604160045260246000fd5b61409c82613c86565b810181811067ffffffffffffffff821117156140bb576140ba614064565b5b80604052505050565b60006140ce613b71565b90506140da8282614093565b919050565b600067ffffffffffffffff8211156140fa576140f9614064565b5b602082029050602081019050919050565b600080fd5b600061412361411e846140df565b6140c4565b905080838252602082019050602084028301858111156141465761414561410b565b5b835b8181101561416f578061415b8882613dc8565b845260208401935050602081019050614148565b5050509392505050565b600082601f83011261418e5761418d61405f565b5b813561419e848260208601614110565b91505092915050565b600067ffffffffffffffff8211156141c2576141c1614064565b5b602082029050602081019050919050565b60006141e66141e1846141a7565b6140c4565b905080838252602082019050602084028301858111156142095761420861410b565b5b835b81811015614232578061421e8882613d13565b84526020840193505060208101905061420b565b5050509392505050565b600082601f8301126142515761425061405f565b5b81356142618482602086016141d3565b91505092915050565b6000806040838503121561428157614280613b7b565b5b600083013567ffffffffffffffff81111561429f5761429e613b80565b5b6142ab85828601614179565b925050602083013567ffffffffffffffff8111156142cc576142cb613b80565b5b6142d88582860161423c565b9150509250929050565b600080fd5b60008083601f8401126142fd576142fc61405f565b5b8235905067ffffffffffffffff81111561431a576143196142e2565b5b6020830191508360018202830111156143365761433561410b565b5b9250929050565b6000806020838503121561435457614353613b7b565b5b600083013567ffffffffffffffff81111561437257614371613b80565b5b61437e858286016142e7565b92509250509250929050565b6000819050919050565b60006143af6143aa6143a584613d55565b61438a565b613d55565b9050919050565b60006143c182614394565b9050919050565b60006143d3826143b6565b9050919050565b6143e3816143c8565b82525050565b60006020820190506143fe60008301846143da565b92915050565b61440d81613cf2565b82525050565b60006020820190506144286000830184614404565b92915050565b600081519050919050565b600082825260208201905092915050565b6000819050602082019050919050565b60006080830160008301516144726000860182613ec9565b506020830151848203602086015261448a8282613ee9565b915050604083015161449f6040860182613f22565b5060608301516144b26060860182613ec9565b508091505092915050565b60006144c9838361445a565b905092915050565b6000602082019050919050565b60006144e98261442e565b6144f38185614439565b9350836020820285016145058561444a565b8060005b85811015614541578484038952815161452285826144bd565b945061452d836144d1565b925060208a01995050600181019050614509565b50829750879550505050505092915050565b6000602082019050818103600083015261456d81846144de565b905092915050565b60006020828403121561458b5761458a613b7b565b5b600082013567ffffffffffffffff8111156145a9576145a8613b80565b5b6145b584828501614179565b91505092915050565b6145c781613c0a565b81146145d257600080fd5b50565b6000813590506145e4816145be565b92915050565b6000806040838503121561460157614600613b7b565b5b600061460f85828601613dc8565b9250506020614620858286016145d5565b9150509250929050565b600081519050919050565b600082825260208201905092915050565b6000819050602082019050919050565b60006146628383613f22565b60208301905092915050565b6000602082019050919050565b60006146868261462a565b6146908185614635565b935061469b83614646565b8060005b838110156146cc5781516146b38882614656565b97506146be8361466e565b92505060018101905061469f565b5085935050505092915050565b600060208201905081810360008301526146f3818461467b565b905092915050565b600080fd5b600067ffffffffffffffff82111561471b5761471a614064565b5b61472482613c86565b9050602081019050919050565b82818337600083830152505050565b600061475361474e84614700565b6140c4565b90508281526020810184848401111561476f5761476e6146fb565b5b61477a848285614731565b509392505050565b600082601f8301126147975761479661405f565b5b81356147a7848260208601614740565b91505092915050565b600080600080608085870312156147ca576147c9613b7b565b5b60006147d887828801613dc8565b94505060206147e987828801613dc8565b93505060406147fa87828801613d13565b925050606085013567ffffffffffffffff81111561481b5761481a613b80565b5b61482787828801614782565b91505092959194509250565b60008083601f8401126148495761484861405f565b5b8235905067ffffffffffffffff811115614866576148656142e2565b5b6020830191508360208202830111156148825761488161410b565b5b9250929050565b60008083601f84011261489f5761489e61405f565b5b8235905067ffffffffffffffff8111156148bc576148bb6142e2565b5b6020830191508360018202830111156148d8576148d761410b565b5b9250929050565b60008060008060008060008060a0898b0312156148ff576148fe613b7b565b5b600061490d8b828c01613dc8565b985050602061491e8b828c01613dc8565b975050604089013567ffffffffffffffff81111561493f5761493e613b80565b5b61494b8b828c01614833565b9650965050606089013567ffffffffffffffff81111561496e5761496d613b80565b5b61497a8b828c01614833565b9450945050608089013567ffffffffffffffff81111561499d5761499c613b80565b5b6149a98b828c01614889565b92509250509295985092959890939650565b6149c481613b85565b82525050565b60006020820190506149df60008301846149bb565b92915050565b600081519050919050565b600082825260208201905092915050565b6000819050602082019050919050565b6000614a1d8383613ec9565b60208301905092915050565b6000602082019050919050565b6000614a41826149e5565b614a4b81856149f0565b9350614a5683614a01565b8060005b83811015614a87578151614a6e8882614a11565b9750614a7983614a29565b925050600181019050614a5a565b5085935050505092915050565b60006020820190508181036000830152614aae8184614a36565b905092915050565b60006040820190508181036000830152614ad08185614a36565b90508181036020830152614ae48184614a36565b90509392505050565b60008060408385031215614b0457614b03613b7b565b5b6000614b1285828601613dc8565b9250506020614b2385828601613dc8565b9150509250929050565b60008060408385031215614b4457614b43613b7b565b5b6000614b5285828601613dc8565b925050602083013567ffffffffffffffff811115614b7357614b72613b80565b5b614b7f8582860161423c565b9150509250929050565b60008060008060008060a08789031215614ba657614ba5613b7b565b5b6000614bb489828a01613dc8565b9650506020614bc589828a01613dc8565b9550506040614bd689828a01613d13565b9450506060614be789828a01613d13565b935050608087013567ffffffffffffffff811115614c0857614c07613b80565b5b614c1489828a01614889565b92509250509295509295509295565b7f41646d696e73206f6e6c79000000000000000000000000000000000000000000600082015250565b6000614c59600b83613c4b565b9150614c6482614c23565b602082019050919050565b60006020820190508181036000830152614c8881614c4c565b9050919050565b600081549050919050565b60008190508160005260206000209050919050565b60008160001c9050919050565b600073ffffffffffffffffffffffffffffffffffffffff82169050919050565b6000614cef614cea83614caf565b614cbc565b9050919050565b6000614d028254614cdc565b9050919050565b6000600182019050919050565b6000614d2182614c8f565b614d2b8185614635565b9350614d3683614c9a565b8060005b83811015614d6e57614d4b82614cf6565b614d558882614656565b9750614d6083614d09565b925050600181019050614d3a565b5085935050505092915050565b60006020820190508181036000830152614d958184614d16565b905092915050565b7f4e487b7100000000000000000000000000000000000000000000000000000000600052602260045260246000fd5b60006002820490506001821680614de457607f821691505b602082108103614df757614df6614d9d565b5b50919050565b6000606082019050614e126000830186613d87565b614e1f6020830185614404565b614e2c6040830184613d87565b949350505050565b600082825260208201905092915050565b50565b6000614e55600083614e34565b9150614e6082614e45565b600082019050919050565b600060a082019050614e806000830187613d87565b614e8d6020830186613d87565b8181036040830152614e9f8185614a36565b90508181036060830152614eb38184614a36565b90508181036080830152614ec681614e48565b905095945050505050565b7f4e487b7100000000000000000000000000000000000000000000000000000000600052603260045260246000fd5b7f4e487b7100000000000000000000000000000000000000000000000000000000600052601160045260246000fd5b6000614f3a82613cf2565b91507fffffffffffffffffffffffffffffffffffffffffffffffffffffffffffffffff8203614f6c57614f6b614f00565b5b600182019050919050565b7f697066733a2f2f00000000000000000000000000000000000000000000000000815250565b600081905092915050565b60008190508160005260206000209050919050565b60008154614fca81614dcc565b614fd48186614f9d565b94506001821660008114614fef576001811461500457615037565b60ff1983168652811515820286019350615037565b61500d85614fa8565b60005b8381101561502f57815481890152600182019150602081019050615010565b838801955050505b50505092915050565b7f2f00000000000000000000000000000000000000000000000000000000000000815250565b600061507182613c40565b61507b8185614f9d565b935061508b818560208601613c5c565b80840191505092915050565b60006150a282614f77565b6007820191506150b28286614fbd565b91506150bd82615040565b6001820191506150cd8285615066565b91506150d98284614fbd565b9150819050949350505050565b600067ffffffffffffffff82111561510157615100614064565b5b602082029050602081019050919050565b600080fd5b600080fd5b60008151905061512b81613cfc565b92915050565b600067ffffffffffffffff82111561514c5761514b614064565b5b61515582613c86565b9050602081019050919050565b600061517561517084615131565b6140c4565b905082815260208101848484011115615191576151906146fb565b5b61519c848285613c5c565b509392505050565b600082601f8301126151b9576151b861405f565b5b81516151c9848260208601615162565b91505092915050565b6000815190506151e181613db1565b92915050565b6000608082840312156151fd576151fc615112565b5b61520760806140c4565b905060006152178482850161511c565b600083015250602082015167ffffffffffffffff81111561523b5761523a615117565b5b615247848285016151a4565b602083015250604061525b848285016151d2565b604083015250606061526f8482850161511c565b60608301525092915050565b600061528e615289846150e6565b6140c4565b905080838252602082019050602084028301858111156152b1576152b061410b565b5b835b818110156152f857805167ffffffffffffffff8111156152d6576152d561405f565b5b8086016152e389826151e7565b855260208501945050506020810190506152b3565b5050509392505050565b600082601f8301126153175761531661405f565b5b815161532784826020860161527b565b91505092915050565b60006020828403121561534657615345613b7b565b5b600082015167ffffffffffffffff81111561536457615363613b80565b5b61537084828501615302565b91505092915050565b600061538482613cf2565b915061538f83613cf2565b92508282019050808211156153a7576153a6614f00565b5b92915050565b600082905092915050565b60006020601f8301049050919050565b600082821b905092915050565b6000600883026154057fffffffffffffffffffffffffffffffffffffffffffffffffffffffffffffffff826153c8565b61540f86836153c8565b95508019841693508086168417925050509392505050565b600061544261543d61543884613cf2565b61438a565b613cf2565b9050919050565b6000819050919050565b61545c83615427565b61547061546882615449565b8484546153d5565b825550505050565b600090565b615485615478565b615490818484615453565b505050565b5b818110156154b4576154a960008261547d565b600181019050615496565b5050565b601f8211156154f9576154ca81614fa8565b6154d3846153b8565b810160208510156154e2578190505b6154f66154ee856153b8565b830182615495565b50505b505050565b600082821c905092915050565b600061551c600019846008026154fe565b1980831691505092915050565b6000615535838361550b565b9150826002028217905092915050565b61554f83836153ad565b67ffffffffffffffff81111561556857615567614064565b5b6155728254614dcc565b61557d8282856154b8565b6000601f8311600181146155ac576000841561559a578287013590505b6155a48582615529565b86555061560c565b601f1984166155ba86614fa8565b60005b828110156155e2578489013582556001820191506020850194506020810190506155bd565b868310156155ff57848901356155fb601f89168261550b565b8355505b6001600288020188555050505b50505050505050565b7f4e656564206f6e65206f72206d6f7265206e65772061646d696e730000000000600082015250565b600061564b601b83613c4b565b915061565682615615565b602082019050919050565b6000602082019050818103600083015261567a8161563e565b9050919050565b7f4f74616b69616765204e46542000000000000000000000000000000000000000815250565b60006156b282615681565b600d820191506156c28284615066565b915081905092915050565b600060408201905081810360008301526156e7818561467b565b905081810360208301526156fb8184614a36565b90509392505050565b6000615717615712846141a7565b6140c4565b9050808382526020820190506020840283018581111561573a5761573961410b565b5b835b81811015615763578061574f888261511c565b84526020840193505060208101905061573c565b5050509392505050565b600082601f8301126157825761578161405f565b5b8151615792848260208601615704565b91505092915050565b6000602082840312156157b1576157b0613b7b565b5b600082015167ffffffffffffffff8111156157cf576157ce613b80565b5b6157db8482850161576d565b91505092915050565b7f4e487b7100000000000000000000000000000000000000000000000000000000600052601260045260246000fd5b600081519050919050565b600061582982615813565b6158338185614e34565b9350615843818560208601613c5c565b61584c81613c86565b840191505092915050565b600060808201905061586c6000830187613d87565b6158796020830186613d87565b6158866040830185614404565b8181036060830152615898818461581e565b905095945050505050565b6000815190506158b281613bb1565b92915050565b6000602082840312156158ce576158cd613b7b565b5b60006158dc848285016158a3565b91505092915050565b7f7b226e616d65223a220000000000000000000000000000000000000000000000600082015250565b600061591b600983614f9d565b9150615926826158e5565b600982019050919050565b7f222c20226465736372697074696f6e223a220000000000000000000000000000600082015250565b6000615967601283614f9d565b915061597282615931565b601282019050919050565b7f222c2022696d616765223a202200000000000000000000000000000000000000600082015250565b60006159b3600d83614f9d565b91506159be8261597d565b600d82019050919050565b7f227d000000000000000000000000000000000000000000000000000000000000600082015250565b60006159ff600283614f9d565b9150615a0a826159c9565b600282019050919050565b6000615a208261590e565b9150615a2c8286615066565b9150615a378261595a565b9150615a438285615066565b9150615a4e826159a6565b9150615a5a8284615066565b9150615a65826159f2565b9150819050949350505050565b7f646174613a6170706c69636174696f6e2f6a736f6e3b6261736536342c000000600082015250565b6000615aa8601d83614f9d565b9150615ab382615a72565b601d82019050919050565b6000615ac982615a9b565b9150615ad58284615066565b915081905092915050565b6000615aeb82613cf2565b9150615af683613cf2565b9250828203905081811115615b0e57615b0d614f00565b5b92915050565b600080fd5b600080fd5b60008085851115615b3257615b31615b14565b5b83861115615b4357615b42615b19565b5b6001850283019150848603905094509492505050565b600082905092915050565b60007fffffffffffffffffffffffffffffffffffffffff00000000000000000000000082169050919050565b6000615b9c8383615b59565b82615ba78135615b64565b92506014821015615be757615be27fffffffffffffffffffffffffffffffffffffffff000000000000000000000000836014036008026153c8565b831692505b505092915050565b6000604082019050615c046000830185613d87565b615c116020830184614404565b9392505050565b6000615c2382613cf2565b9150615c2e83613cf2565b925082615c3e57615c3d6157e4565b5b828204905092915050565b6000615c5482613cf2565b9150615c5f83613cf2565b9250828202615c6d81613cf2565b91508282048414831517615c8457615c83614f00565b5b509291505056fe4142434445464748494a4b4c4d4e4f505152535455565758595a6162636465666768696a6b6c6d6e6f707172737475767778797a303132333435363738392b2fa26469706673582212207ca5c7c7ac3723ce8e7f0fe96899f9117b2f520800b06df6869f1c10c6784de664736f6c63430008140033",
  "linkReferences": {},
  "deployedLinkReferences": {}
}