{
  "_format": "hh-sol-artifact-1",
  "contractName": "Ticket",
  "sourceName": "contracts/community/Ticket.sol",
  "abi": [
    {
      "inputs": [
        {
          "internalType": "string",
          "name": "_name",
          "type": "string"
        },
        {
          "internalType": "string",
          "name": "_symbol",
          "type": "string"
        },
        {
          "internalType": "address",
          "name": "_henkakuTokenV2",
          "type": "address"
        }
      ],
      "stateMutability": "nonpayable",
      "type": "constructor"
    },
    {
      "inputs": [
        {
          "internalType": "string",
          "name": "",
          "type": "string"
        }
      ],
      "name": "InvalidParams",
      "type": "error"
    },
    {
      "anonymous": false,
      "inputs": [
        {
          "indexed": true,
          "internalType": "address",
          "name": "account",
          "type": "address"
        },
        {
          "indexed": true,
          "internalType": "address",
          "name": "operator",
          "type": "address"
        },
        {
          "indexed": false,
          "internalType": "bool",
          "name": "approved",
          "type": "bool"
        }
      ],
      "name": "ApprovalForAll",
      "type": "event"
    },
    {
      "anonymous": false,
      "inputs": [
        {
          "indexed": true,
          "internalType": "address",
          "name": "minter",
          "type": "address"
        },
        {
          "indexed": true,
          "internalType": "uint256",
          "name": "tokenId",
          "type": "uint256"
        }
      ],
      "name": "Mint",
      "type": "event"
    },
    {
      "anonymous": false,
      "inputs": [
        {
          "indexed": true,
          "internalType": "address",
          "name": "creator",
          "type": "address"
        },
        {
          "indexed": false,
          "internalType": "uint64",
          "name": "open_blockTimestamp",
          "type": "uint64"
        },
        {
          "indexed": false,
          "internalType": "uint64",
          "name": "close_blockTimestamp",
          "type": "uint64"
        },
        {
          "indexed": false,
          "internalType": "uint64",
          "name": "maxSupply",
          "type": "uint64"
        },
        {
          "indexed": false,
          "internalType": "uint256",
          "name": "tokenId",
          "type": "uint256"
        },
        {
          "indexed": false,
          "internalType": "uint256",
          "name": "price",
          "type": "uint256"
        },
        {
          "indexed": false,
          "internalType": "string",
          "name": "metaDataURL",
          "type": "string"
        }
      ],
      "name": "RegisterTicket",
      "type": "event"
    },
    {
      "anonymous": false,
      "inputs": [
        {
          "indexed": true,
          "internalType": "address",
          "name": "operator",
          "type": "address"
        },
        {
          "indexed": true,
          "internalType": "address",
          "name": "from",
          "type": "address"
        },
        {
          "indexed": true,
          "internalType": "address",
          "name": "to",
          "type": "address"
        },
        {
          "indexed": false,
          "internalType": "uint256[]",
          "name": "ids",
          "type": "uint256[]"
        },
        {
          "indexed": false,
          "internalType": "uint256[]",
          "name": "values",
          "type": "uint256[]"
        }
      ],
      "name": "TransferBatch",
      "type": "event"
    },
    {
      "anonymous": false,
      "inputs": [
        {
          "indexed": true,
          "internalType": "address",
          "name": "operator",
          "type": "address"
        },
        {
          "indexed": true,
          "internalType": "address",
          "name": "from",
          "type": "address"
        },
        {
          "indexed": true,
          "internalType": "address",
          "name": "to",
          "type": "address"
        },
        {
          "indexed": false,
          "internalType": "uint256",
          "name": "id",
          "type": "uint256"
        },
        {
          "indexed": false,
          "internalType": "uint256",
          "name": "value",
          "type": "uint256"
        }
      ],
      "name": "TransferSingle",
      "type": "event"
    },
    {
      "anonymous": false,
      "inputs": [
        {
          "indexed": false,
          "internalType": "string",
          "name": "value",
          "type": "string"
        },
        {
          "indexed": true,
          "internalType": "uint256",
          "name": "id",
          "type": "uint256"
        }
      ],
      "name": "URI",
      "type": "event"
    },
    {
      "inputs": [
        {
          "internalType": "address[]",
          "name": "_newAdmins",
          "type": "address[]"
        }
      ],
      "name": "addAdmins",
      "outputs": [],
      "stateMutability": "nonpayable",
      "type": "function"
    },
    {
      "inputs": [
        {
          "internalType": "address",
          "name": "account",
          "type": "address"
        },
        {
          "internalType": "uint256",
          "name": "id",
          "type": "uint256"
        }
      ],
      "name": "balanceOf",
      "outputs": [
        {
          "internalType": "uint256",
          "name": "",
          "type": "uint256"
        }
      ],
      "stateMutability": "view",
      "type": "function"
    },
    {
      "inputs": [
        {
          "internalType": "address[]",
          "name": "accounts",
          "type": "address[]"
        },
        {
          "internalType": "uint256[]",
          "name": "ids",
          "type": "uint256[]"
        }
      ],
      "name": "balanceOfBatch",
      "outputs": [
        {
          "internalType": "uint256[]",
          "name": "",
          "type": "uint256[]"
        }
      ],
      "stateMutability": "view",
      "type": "function"
    },
    {
      "inputs": [
        {
          "internalType": "address",
          "name": "_deleteAdmin",
          "type": "address"
        }
      ],
      "name": "deleteAdmin",
      "outputs": [],
      "stateMutability": "nonpayable",
      "type": "function"
    },
    {
      "inputs": [
        {
          "internalType": "uint256",
          "name": "id",
          "type": "uint256"
        }
      ],
      "name": "exists",
      "outputs": [
        {
          "internalType": "bool",
          "name": "",
          "type": "bool"
        }
      ],
      "stateMutability": "view",
      "type": "function"
    },
    {
      "inputs": [],
      "name": "henkakuV2",
      "outputs": [
        {
          "internalType": "address",
          "name": "",
          "type": "address"
        }
      ],
      "stateMutability": "view",
      "type": "function"
    },
    {
      "inputs": [
        {
          "internalType": "address",
          "name": "_address",
          "type": "address"
        }
      ],
      "name": "isAdmin",
      "outputs": [
        {
          "internalType": "bool",
          "name": "",
          "type": "bool"
        }
      ],
      "stateMutability": "view",
      "type": "function"
    },
    {
      "inputs": [
        {
          "internalType": "address",
          "name": "account",
          "type": "address"
        },
        {
          "internalType": "address",
          "name": "operator",
          "type": "address"
        }
      ],
      "name": "isApprovedForAll",
      "outputs": [
        {
          "internalType": "bool",
          "name": "",
          "type": "bool"
        }
      ],
      "stateMutability": "view",
      "type": "function"
    },
    {
      "inputs": [
        {
          "internalType": "uint256",
          "name": "_tokenId",
          "type": "uint256"
        }
      ],
      "name": "mint",
      "outputs": [],
      "stateMutability": "nonpayable",
      "type": "function"
    },
    {
      "inputs": [],
      "name": "mintable",
      "outputs": [
        {
          "internalType": "bool",
          "name": "",
          "type": "bool"
        }
      ],
      "stateMutability": "view",
      "type": "function"
    },
    {
      "inputs": [],
      "name": "name",
      "outputs": [
        {
          "internalType": "string",
          "name": "",
          "type": "string"
        }
      ],
      "stateMutability": "view",
      "type": "function"
    },
    {
      "inputs": [
        {
          "internalType": "uint64",
          "name": "_maxSupply",
          "type": "uint64"
        },
        {
          "internalType": "string",
          "name": "_metaDataURL",
          "type": "string"
        },
        {
          "internalType": "uint256",
          "name": "_price",
          "type": "uint256"
        },
        {
          "internalType": "uint64",
          "name": "_open_blockTimestamp",
          "type": "uint64"
        },
        {
          "internalType": "uint64",
          "name": "_close_blockTimestamp",
          "type": "uint64"
        },
        {
          "internalType": "address",
          "name": "poolWallet",
          "type": "address"
        }
      ],
      "name": "registerTicket",
      "outputs": [],
      "stateMutability": "nonpayable",
      "type": "function"
    },
    {
      "inputs": [],
      "name": "retrieveAllTickets",
      "outputs": [
        {
          "components": [
            {
              "internalType": "address",
              "name": "creator",
              "type": "address"
            },
            {
              "internalType": "address",
              "name": "poolWallet",
              "type": "address"
            },
            {
              "internalType": "uint64",
              "name": "open_blockTimestamp",
              "type": "uint64"
            },
            {
              "internalType": "uint64",
              "name": "close_blockTimestamp",
              "type": "uint64"
            },
            {
              "internalType": "uint64",
              "name": "maxSupply",
              "type": "uint64"
            },
            {
              "internalType": "uint256",
              "name": "id",
              "type": "uint256"
            },
            {
              "internalType": "uint256",
              "name": "price",
              "type": "uint256"
            },
            {
              "internalType": "string",
              "name": "uri",
              "type": "string"
            }
          ],
          "internalType": "struct Ticket.TicketInfo[]",
          "name": "",
          "type": "tuple[]"
        }
      ],
      "stateMutability": "view",
      "type": "function"
    },
    {
      "inputs": [
        {
          "internalType": "address",
          "name": "_address",
          "type": "address"
        }
      ],
      "name": "retrieveMintedTickets",
      "outputs": [
        {
          "components": [
            {
              "internalType": "address",
              "name": "creator",
              "type": "address"
            },
            {
              "internalType": "address",
              "name": "poolWallet",
              "type": "address"
            },
            {
              "internalType": "uint64",
              "name": "open_blockTimestamp",
              "type": "uint64"
            },
            {
              "internalType": "uint64",
              "name": "close_blockTimestamp",
              "type": "uint64"
            },
            {
              "internalType": "uint64",
              "name": "maxSupply",
              "type": "uint64"
            },
            {
              "internalType": "uint256",
              "name": "id",
              "type": "uint256"
            },
            {
              "internalType": "uint256",
              "name": "price",
              "type": "uint256"
            },
            {
              "internalType": "string",
              "name": "uri",
              "type": "string"
            }
          ],
          "internalType": "struct Ticket.TicketInfo[]",
          "name": "",
          "type": "tuple[]"
        }
      ],
      "stateMutability": "view",
      "type": "function"
    },
    {
      "inputs": [
        {
          "internalType": "uint256",
          "name": "_tokenId",
          "type": "uint256"
        }
      ],
      "name": "retrieveRegisteredTicket",
      "outputs": [
        {
          "components": [
            {
              "internalType": "address",
              "name": "creator",
              "type": "address"
            },
            {
              "internalType": "address",
              "name": "poolWallet",
              "type": "address"
            },
            {
              "internalType": "uint64",
              "name": "open_blockTimestamp",
              "type": "uint64"
            },
            {
              "internalType": "uint64",
              "name": "close_blockTimestamp",
              "type": "uint64"
            },
            {
              "internalType": "uint64",
              "name": "maxSupply",
              "type": "uint64"
            },
            {
              "internalType": "uint256",
              "name": "id",
              "type": "uint256"
            },
            {
              "internalType": "uint256",
              "name": "price",
              "type": "uint256"
            },
            {
              "internalType": "string",
              "name": "uri",
              "type": "string"
            }
          ],
          "internalType": "struct Ticket.TicketInfo",
          "name": "",
          "type": "tuple"
        }
      ],
      "stateMutability": "view",
      "type": "function"
    },
    {
      "inputs": [
        {
          "internalType": "address",
          "name": "_address",
          "type": "address"
        }
      ],
      "name": "retrieveRegisteredTickets",
      "outputs": [
        {
          "components": [
            {
              "internalType": "address",
              "name": "creator",
              "type": "address"
            },
            {
              "internalType": "address",
              "name": "poolWallet",
              "type": "address"
            },
            {
              "internalType": "uint64",
              "name": "open_blockTimestamp",
              "type": "uint64"
            },
            {
              "internalType": "uint64",
              "name": "close_blockTimestamp",
              "type": "uint64"
            },
            {
              "internalType": "uint64",
              "name": "maxSupply",
              "type": "uint64"
            },
            {
              "internalType": "uint256",
              "name": "id",
              "type": "uint256"
            },
            {
              "internalType": "uint256",
              "name": "price",
              "type": "uint256"
            },
            {
              "internalType": "string",
              "name": "uri",
              "type": "string"
            }
          ],
          "internalType": "struct Ticket.TicketInfo[]",
          "name": "",
          "type": "tuple[]"
        }
      ],
      "stateMutability": "view",
      "type": "function"
    },
    {
      "inputs": [
        {
          "internalType": "address",
          "name": "from",
          "type": "address"
        },
        {
          "internalType": "address",
          "name": "to",
          "type": "address"
        },
        {
          "internalType": "uint256[]",
          "name": "ids",
          "type": "uint256[]"
        },
        {
          "internalType": "uint256[]",
          "name": "amounts",
          "type": "uint256[]"
        },
        {
          "internalType": "bytes",
          "name": "data",
          "type": "bytes"
        }
      ],
      "name": "safeBatchTransferFrom",
      "outputs": [],
      "stateMutability": "nonpayable",
      "type": "function"
    },
    {
      "inputs": [
        {
          "internalType": "address",
          "name": "from",
          "type": "address"
        },
        {
          "internalType": "address",
          "name": "to",
          "type": "address"
        },
        {
          "internalType": "uint256",
          "name": "id",
          "type": "uint256"
        },
        {
          "internalType": "uint256",
          "name": "amount",
          "type": "uint256"
        },
        {
          "internalType": "bytes",
          "name": "data",
          "type": "bytes"
        }
      ],
      "name": "safeTransferFrom",
      "outputs": [],
      "stateMutability": "nonpayable",
      "type": "function"
    },
    {
      "inputs": [
        {
          "internalType": "address",
          "name": "operator",
          "type": "address"
        },
        {
          "internalType": "bool",
          "name": "approved",
          "type": "bool"
        }
      ],
      "name": "setApprovalForAll",
      "outputs": [],
      "stateMutability": "nonpayable",
      "type": "function"
    },
    {
      "inputs": [
        {
          "internalType": "bytes4",
          "name": "interfaceId",
          "type": "bytes4"
        }
      ],
      "name": "supportsInterface",
      "outputs": [
        {
          "internalType": "bool",
          "name": "",
          "type": "bool"
        }
      ],
      "stateMutability": "view",
      "type": "function"
    },
    {
      "inputs": [],
      "name": "switchMintable",
      "outputs": [],
      "stateMutability": "nonpayable",
      "type": "function"
    },
    {
      "inputs": [],
      "name": "symbol",
      "outputs": [
        {
          "internalType": "string",
          "name": "",
          "type": "string"
        }
      ],
      "stateMutability": "view",
      "type": "function"
    },
    {
      "inputs": [
        {
          "internalType": "uint256",
          "name": "_tokenId",
          "type": "uint256"
        }
      ],
      "name": "tokenURI",
      "outputs": [
        {
          "internalType": "string",
          "name": "",
          "type": "string"
        }
      ],
      "stateMutability": "view",
      "type": "function"
    },
    {
      "inputs": [
        {
          "internalType": "uint256",
          "name": "id",
          "type": "uint256"
        }
      ],
      "name": "totalSupply",
      "outputs": [
        {
          "internalType": "uint256",
          "name": "",
          "type": "uint256"
        }
      ],
      "stateMutability": "view",
      "type": "function"
    },
    {
      "inputs": [
        {
          "internalType": "uint256",
          "name": "_tokenId",
          "type": "uint256"
        }
      ],
      "name": "uri",
      "outputs": [
        {
          "internalType": "string",
          "name": "",
          "type": "string"
        }
      ],
      "stateMutability": "view",
      "type": "function"
    }
  ],
  "bytecode": "0x60806040523480156200001157600080fd5b5060405162005eaf38038062005eaf833981810160405281019062000037919062000569565b806040518060200160405280600081525062000059816200034660201b60201c565b506001600460003373ffffffffffffffffffffffffffffffffffffffff1673ffffffffffffffffffffffffffffffffffffffff16815260200190815260200160002060006101000a81548160ff02191690831515021790555080600560016101000a81548173ffffffffffffffffffffffffffffffffffffffff021916908373ffffffffffffffffffffffffffffffffffffffff1602179055505082600790816200010591906200084e565b5081600890816200011791906200084e565b50600b604051806101000160405280600073ffffffffffffffffffffffffffffffffffffffff168152602001600073ffffffffffffffffffffffffffffffffffffffff168152602001600067ffffffffffffffff168152602001600067ffffffffffffffff168152602001600067ffffffffffffffff168152602001600081526020016000815260200160405180602001604052806000815250815250908060018154018082558091505060019003906000526020600020906006020160009091909190915060008201518160000160006101000a81548173ffffffffffffffffffffffffffffffffffffffff021916908373ffffffffffffffffffffffffffffffffffffffff16021790555060208201518160010160006101000a81548173ffffffffffffffffffffffffffffffffffffffff021916908373ffffffffffffffffffffffffffffffffffffffff16021790555060408201518160010160146101000a81548167ffffffffffffffff021916908367ffffffffffffffff16021790555060608201518160020160006101000a81548167ffffffffffffffff021916908367ffffffffffffffff16021790555060808201518160020160086101000a81548167ffffffffffffffff021916908367ffffffffffffffff16021790555060a0820151816003015560c0820151816004015560e08201518160050190816200032391906200084e565b5050506200033d60066200035b60201b620021dd1760201c565b50505062000935565b80600290816200035791906200084e565b5050565b6001816000016000828254019250508190555050565b6000604051905090565b600080fd5b600080fd5b600080fd5b600080fd5b6000601f19601f8301169050919050565b7f4e487b7100000000000000000000000000000000000000000000000000000000600052604160045260246000fd5b620003da826200038f565b810181811067ffffffffffffffff82111715620003fc57620003fb620003a0565b5b80604052505050565b60006200041162000371565b90506200041f8282620003cf565b919050565b600067ffffffffffffffff821115620004425762000441620003a0565b5b6200044d826200038f565b9050602081019050919050565b60005b838110156200047a5780820151818401526020810190506200045d565b60008484015250505050565b60006200049d620004978462000424565b62000405565b905082815260208101848484011115620004bc57620004bb6200038a565b5b620004c98482856200045a565b509392505050565b600082601f830112620004e957620004e862000385565b5b8151620004fb84826020860162000486565b91505092915050565b600073ffffffffffffffffffffffffffffffffffffffff82169050919050565b6000620005318262000504565b9050919050565b620005438162000524565b81146200054f57600080fd5b50565b600081519050620005638162000538565b92915050565b6000806000606084860312156200058557620005846200037b565b5b600084015167ffffffffffffffff811115620005a657620005a562000380565b5b620005b486828701620004d1565b935050602084015167ffffffffffffffff811115620005d857620005d762000380565b5b620005e686828701620004d1565b9250506040620005f98682870162000552565b9150509250925092565b600081519050919050565b7f4e487b7100000000000000000000000000000000000000000000000000000000600052602260045260246000fd5b600060028204905060018216806200065657607f821691505b6020821081036200066c576200066b6200060e565b5b50919050565b60008190508160005260206000209050919050565b60006020601f8301049050919050565b600082821b905092915050565b600060088302620006d67fffffffffffffffffffffffffffffffffffffffffffffffffffffffffffffffff8262000697565b620006e2868362000697565b95508019841693508086168417925050509392505050565b6000819050919050565b6000819050919050565b60006200072f620007296200072384620006fa565b62000704565b620006fa565b9050919050565b6000819050919050565b6200074b836200070e565b620007636200075a8262000736565b848454620006a4565b825550505050565b600090565b6200077a6200076b565b6200078781848462000740565b505050565b5b81811015620007af57620007a360008262000770565b6001810190506200078d565b5050565b601f821115620007fe57620007c88162000672565b620007d38462000687565b81016020851015620007e3578190505b620007fb620007f28562000687565b8301826200078c565b50505b505050565b600082821c905092915050565b6000620008236000198460080262000803565b1980831691505092915050565b60006200083e838362000810565b9150826002028217905092915050565b620008598262000603565b67ffffffffffffffff811115620008755762000874620003a0565b5b6200088182546200063d565b6200088e828285620007b3565b600060209050601f831160018114620008c65760008415620008b1578287015190505b620008bd858262000830565b8655506200092d565b601f198416620008d68662000672565b60005b828110156200090057848901518255600182019150602085019450602081019050620008d9565b868310156200092057848901516200091c601f89168262000810565b8355505b6001600288020188555050505b505050505050565b61556a80620009456000396000f3fe608060405234801561001057600080fd5b50600436106101725760003560e01c806372a589a7116100de578063bd85b03911610097578063e9f7677d11610071578063e9f7677d14610481578063f0ab48571461049f578063f1d8659c146104cf578063f242432a146104ff57610172565b8063bd85b039146103f1578063c87b56dd14610421578063e985e9c51461045157610172565b806372a589a7146103575780637408a11a1461036157806395d89b411461037f5780639c54df641461039d578063a0712d68146103b9578063a22cb465146103d557610172565b80632eb2c2d6116101305780632eb2c2d6146102715780634bf365df1461028d5780634e1273f4146102ab5780634f558e79146102db578063516c906f1461030b5780635838c6481461033b57610172565b8062fdd58e1461017757806301ffc9a7146101a757806306fdde03146101d75780630e89341c146101f557806324d7806c1461022557806327e1f7df14610255575b600080fd5b610191600480360381019061018c91906134ac565b61051b565b60405161019e91906134fb565b60405180910390f35b6101c160048036038101906101bc919061356e565b6105e3565b6040516101ce91906135b6565b60405180910390f35b6101df6106c5565b6040516101ec9190613661565b60405180910390f35b61020f600480360381019061020a9190613683565b610753565b60405161021c9190613661565b60405180910390f35b61023f600480360381019061023a91906136b0565b610769565b60405161024c91906135b6565b60405180910390f35b61026f600480360381019061026a91906136b0565b6107bf565b005b61028b600480360381019061028691906138da565b6108a6565b005b610295610947565b6040516102a291906135b6565b60405180910390f35b6102c560048036038101906102c09190613a6c565b61095a565b6040516102d29190613ba2565b60405180910390f35b6102f560048036038101906102f09190613683565b610a73565b60405161030291906135b6565b60405180910390f35b61032560048036038101906103209190613683565b610a87565b6040516103329190613cf0565b60405180910390f35b61035560048036038101906103509190613d99565b610cf3565b005b61035f611114565b005b6103696111cc565b6040516103769190613fba565b60405180910390f35b610387611414565b6040516103949190613661565b60405180910390f35b6103b760048036038101906103b29190613fdc565b6114a2565b005b6103d360048036038101906103ce9190613683565b61165c565b005b6103ef60048036038101906103ea9190614051565b61196f565b005b61040b60048036038101906104069190613683565b611985565b60405161041891906134fb565b60405180910390f35b61043b60048036038101906104369190613683565b6119a2565b6040516104489190613661565b60405180910390f35b61046b60048036038101906104669190614091565b6119b8565b60405161047891906135b6565b60405180910390f35b610489611a4c565b60405161049691906140e0565b60405180910390f35b6104b960048036038101906104b491906136b0565b611a72565b6040516104c69190613fba565b60405180910390f35b6104e960048036038101906104e491906136b0565b611dda565b6040516104f69190613fba565b60405180910390f35b610519600480360381019061051491906140fb565b61213c565b005b60008073ffffffffffffffffffffffffffffffffffffffff168373ffffffffffffffffffffffffffffffffffffffff160361058b576040517f08c379a000000000000000000000000000000000000000000000000000000000815260040161058290614204565b60405180910390fd5b60008083815260200190815260200160002060008473ffffffffffffffffffffffffffffffffffffffff1673ffffffffffffffffffffffffffffffffffffffff16815260200190815260200160002054905092915050565b60007fd9b67a26000000000000000000000000000000000000000000000000000000007bffffffffffffffffffffffffffffffffffffffffffffffffffffffff1916827bffffffffffffffffffffffffffffffffffffffffffffffffffffffff191614806106ae57507f0e89341c000000000000000000000000000000000000000000000000000000007bffffffffffffffffffffffffffffffffffffffffffffffffffffffff1916827bffffffffffffffffffffffffffffffffffffffffffffffffffffffff1916145b806106be57506106bd826121f3565b5b9050919050565b600780546106d290614253565b80601f01602080910402602001604051908101604052809291908181526020018280546106fe90614253565b801561074b5780601f106107205761010080835404028352916020019161074b565b820191906000526020600020905b81548152906001019060200180831161072e57829003601f168201915b505050505081565b606061075e82610a87565b60e001519050919050565b6000600460008373ffffffffffffffffffffffffffffffffffffffff1673ffffffffffffffffffffffffffffffffffffffff16815260200190815260200160002060009054906101000a900460ff169050919050565b600460003373ffffffffffffffffffffffffffffffffffffffff1673ffffffffffffffffffffffffffffffffffffffff16815260200190815260200160002060009054906101000a900460ff1661084b576040517f08c379a0000000000000000000000000000000000000000000000000000000008152600401610842906142d0565b60405180910390fd5b6000600460008373ffffffffffffffffffffffffffffffffffffffff1673ffffffffffffffffffffffffffffffffffffffff16815260200190815260200160002060006101000a81548160ff02191690831515021790555050565b6108ae61225d565b73ffffffffffffffffffffffffffffffffffffffff168573ffffffffffffffffffffffffffffffffffffffff1614806108f457506108f3856108ee61225d565b6119b8565b5b610933576040517f08c379a000000000000000000000000000000000000000000000000000000000815260040161092a90614362565b60405180910390fd5b6109408585858585612265565b5050505050565b600560009054906101000a900460ff1681565b606081518351146109a0576040517f08c379a0000000000000000000000000000000000000000000000000000000008152600401610997906143f4565b60405180910390fd5b6000835167ffffffffffffffff8111156109bd576109bc6136e2565b5b6040519080825280602002602001820160405280156109eb5781602001602082028036833780820191505090505b50905060005b8451811015610a6857610a38858281518110610a1057610a0f614414565b5b6020026020010151858381518110610a2b57610a2a614414565b5b602002602001015161051b565b828281518110610a4b57610a4a614414565b5b60200260200101818152505080610a6190614472565b90506109f1565b508091505092915050565b600080610a7f83611985565b119050919050565b610a8f613375565b81600b8054905011610ad6576040517f08c379a0000000000000000000000000000000000000000000000000000000008152600401610acd90614506565b60405180910390fd5b600b8281548110610aea57610ae9614414565b5b9060005260206000209060060201604051806101000160405290816000820160009054906101000a900473ffffffffffffffffffffffffffffffffffffffff1673ffffffffffffffffffffffffffffffffffffffff1673ffffffffffffffffffffffffffffffffffffffff1681526020016001820160009054906101000a900473ffffffffffffffffffffffffffffffffffffffff1673ffffffffffffffffffffffffffffffffffffffff1673ffffffffffffffffffffffffffffffffffffffff1681526020016001820160149054906101000a900467ffffffffffffffff1667ffffffffffffffff1667ffffffffffffffff1681526020016002820160009054906101000a900467ffffffffffffffff1667ffffffffffffffff1667ffffffffffffffff1681526020016002820160089054906101000a900467ffffffffffffffff1667ffffffffffffffff1667ffffffffffffffff1681526020016003820154815260200160048201548152602001600582018054610c6a90614253565b80601f0160208091040260200160405190810160405280929190818152602001828054610c9690614253565b8015610ce35780601f10610cb857610100808354040283529160200191610ce3565b820191906000526020600020905b815481529060010190602001808311610cc657829003601f168201915b5050505050815250509050919050565b610cfd6001612586565b610d3c576040517f08c379a0000000000000000000000000000000000000000000000000000000008152600401610d3390614598565b60405180910390fd5b60008767ffffffffffffffff161480610d815750600073ffffffffffffffffffffffffffffffffffffffff168173ffffffffffffffffffffffffffffffffffffffff16145b80610db8575060405180602001604052806000815250805190602001208686604051610dae9291906145e8565b6040518091039020145b15610df8576040517fa8c278dd000000000000000000000000000000000000000000000000000000008152600401610def9061464d565b60405180910390fd5b6000610e04600661263c565b9050600960003373ffffffffffffffffffffffffffffffffffffffff1673ffffffffffffffffffffffffffffffffffffffff168152602001908152602001600020819080600181540180825580915050600190039060005260206000200160009091909190915055600b6040518061010001604052803373ffffffffffffffffffffffffffffffffffffffff1681526020018473ffffffffffffffffffffffffffffffffffffffff1681526020018667ffffffffffffffff1681526020018567ffffffffffffffff1681526020018a67ffffffffffffffff16815260200183815260200187815260200189898080601f016020809104026020016040519081016040528093929190818152602001838380828437600081840152601f19601f82011690508083019250505050505050815250908060018154018082558091505060019003906000526020600020906006020160009091909190915060008201518160000160006101000a81548173ffffffffffffffffffffffffffffffffffffffff021916908373ffffffffffffffffffffffffffffffffffffffff16021790555060208201518160010160006101000a81548173ffffffffffffffffffffffffffffffffffffffff021916908373ffffffffffffffffffffffffffffffffffffffff16021790555060408201518160010160146101000a81548167ffffffffffffffff021916908367ffffffffffffffff16021790555060608201518160020160006101000a81548167ffffffffffffffff021916908367ffffffffffffffff16021790555060808201518160020160086101000a81548167ffffffffffffffff021916908367ffffffffffffffff16021790555060a0820151816003015560c0820151816004015560e08201518160050190816110a39190614819565b5050506110b060066121dd565b3373ffffffffffffffffffffffffffffffffffffffff167f9399585238a88be2b5face8de26f6002bf9fc7679f041ed0ff0afc6583f88ef685858b858a8d8d6040516111029796959493929190614927565b60405180910390a25050505050505050565b600460003373ffffffffffffffffffffffffffffffffffffffff1673ffffffffffffffffffffffffffffffffffffffff16815260200190815260200160002060009054906101000a900460ff166111a0576040517f08c379a0000000000000000000000000000000000000000000000000000000008152600401611197906142d0565b60405180910390fd5b600560009054906101000a900460ff1615600560006101000a81548160ff021916908315150217905550565b6060600b805480602002602001604051908101604052809291908181526020016000905b8282101561140b5783829060005260206000209060060201604051806101000160405290816000820160009054906101000a900473ffffffffffffffffffffffffffffffffffffffff1673ffffffffffffffffffffffffffffffffffffffff1673ffffffffffffffffffffffffffffffffffffffff1681526020016001820160009054906101000a900473ffffffffffffffffffffffffffffffffffffffff1673ffffffffffffffffffffffffffffffffffffffff1673ffffffffffffffffffffffffffffffffffffffff1681526020016001820160149054906101000a900467ffffffffffffffff1667ffffffffffffffff1667ffffffffffffffff1681526020016002820160009054906101000a900467ffffffffffffffff1667ffffffffffffffff1667ffffffffffffffff1681526020016002820160089054906101000a900467ffffffffffffffff1667ffffffffffffffff1667ffffffffffffffff168152602001600382015481526020016004820154815260200160058201805461137a90614253565b80601f01602080910402602001604051908101604052809291908181526020018280546113a690614253565b80156113f35780601f106113c8576101008083540402835291602001916113f3565b820191906000526020600020905b8154815290600101906020018083116113d657829003601f168201915b505050505081525050815260200190600101906111f0565b50505050905090565b6008805461142190614253565b80601f016020809104026020016040519081016040528092919081815260200182805461144d90614253565b801561149a5780601f1061146f5761010080835404028352916020019161149a565b820191906000526020600020905b81548152906001019060200180831161147d57829003601f168201915b505050505081565b600460003373ffffffffffffffffffffffffffffffffffffffff1673ffffffffffffffffffffffffffffffffffffffff16815260200190815260200160002060009054906101000a900460ff1661152e576040517f08c379a0000000000000000000000000000000000000000000000000000000008152600401611525906142d0565b60405180910390fd5b60008151905060008111611577576040517f08c379a000000000000000000000000000000000000000000000000000000000815260040161156e906149dd565b60405180910390fd5b60005b8181101561165757600083828151811061159757611596614414565b5b60200260200101519050600460008273ffffffffffffffffffffffffffffffffffffffff1673ffffffffffffffffffffffffffffffffffffffff16815260200190815260200160002060009054906101000a900460ff1661164b576001600460008373ffffffffffffffffffffffffffffffffffffffff1673ffffffffffffffffffffffffffffffffffffffff16815260200190815260200160002060006101000a81548160ff0219169083151502179055505b8160010191505061157a565b505050565b6116666001612586565b6116a5576040517f08c379a000000000000000000000000000000000000000000000000000000000815260040161169c90614598565b60405180910390fd5b600560009054906101000a900460ff166116f4576040517f08c379a00000000000000000000000000000000000000000000000000000000081526004016116eb90614a49565b60405180910390fd5b6000611700338361051b565b14611740576040517f08c379a000000000000000000000000000000000000000000000000000000000815260040161173790614adb565b60405180910390fd5b600061174b82610a87565b905042816040015167ffffffffffffffff16111561179e576040517f08c379a000000000000000000000000000000000000000000000000000000000815260040161179590614b47565b60405180910390fd5b42816060015167ffffffffffffffff1610156117ef576040517f08c379a00000000000000000000000000000000000000000000000000000000081526004016117e690614bb3565b60405180910390fd5b6117f882611985565b816080015167ffffffffffffffff1611611847576040517f08c379a000000000000000000000000000000000000000000000000000000000815260040161183e90614c1f565b60405180910390fd5b6118548160c00151612586565b611893576040517f08c379a000000000000000000000000000000000000000000000000000000000815260040161188a90614598565b60405180910390fd5b600a60003373ffffffffffffffffffffffffffffffffffffffff1673ffffffffffffffffffffffffffffffffffffffff16815260200190815260200160002082908060018154018082558091505060019003906000526020600020016000909190919091505561190b8160c00151826020015161264a565b611927338360016040518060200160405280600081525061277d565b813373ffffffffffffffffffffffffffffffffffffffff167f0f6798a560793a54c3bcfe86a93cde1e73087d944c0ea20544137d412139688560405160405180910390a35050565b61198161197a61225d565b838361292d565b5050565b600060036000838152602001908152602001600020549050919050565b60606119ad82610a87565b60e001519050919050565b6000600160008473ffffffffffffffffffffffffffffffffffffffff1673ffffffffffffffffffffffffffffffffffffffff16815260200190815260200160002060008373ffffffffffffffffffffffffffffffffffffffff1673ffffffffffffffffffffffffffffffffffffffff16815260200190815260200160002060009054906101000a900460ff16905092915050565b600560019054906101000a900473ffffffffffffffffffffffffffffffffffffffff1681565b60606000600960008473ffffffffffffffffffffffffffffffffffffffff1673ffffffffffffffffffffffffffffffffffffffff168152602001908152602001600020805480602002602001604051908101604052809291908181526020018280548015611aff57602002820191906000526020600020905b815481526020019060010190808311611aeb575b5050505050905060008151905060008167ffffffffffffffff811115611b2857611b276136e2565b5b604051908082528060200260200182016040528015611b6157816020015b611b4e613375565b815260200190600190039081611b465790505b50905060005b82811015611dce576000600b858381518110611b8657611b85614414565b5b602002602001015181548110611b9f57611b9e614414565b5b9060005260206000209060060201604051806101000160405290816000820160009054906101000a900473ffffffffffffffffffffffffffffffffffffffff1673ffffffffffffffffffffffffffffffffffffffff1673ffffffffffffffffffffffffffffffffffffffff1681526020016001820160009054906101000a900473ffffffffffffffffffffffffffffffffffffffff1673ffffffffffffffffffffffffffffffffffffffff1673ffffffffffffffffffffffffffffffffffffffff1681526020016001820160149054906101000a900467ffffffffffffffff1667ffffffffffffffff1667ffffffffffffffff1681526020016002820160009054906101000a900467ffffffffffffffff1667ffffffffffffffff1667ffffffffffffffff1681526020016002820160089054906101000a900467ffffffffffffffff1667ffffffffffffffff1667ffffffffffffffff1681526020016003820154815260200160048201548152602001600582018054611d1f90614253565b80601f0160208091040260200160405190810160405280929190818152602001828054611d4b90614253565b8015611d985780601f10611d6d57610100808354040283529160200191611d98565b820191906000526020600020905b815481529060010190602001808311611d7b57829003601f168201915b505050505081525050905080838381518110611db757611db6614414565b5b602002602001018190525081600101915050611b67565b50809350505050919050565b60606000600a60008473ffffffffffffffffffffffffffffffffffffffff1673ffffffffffffffffffffffffffffffffffffffff168152602001908152602001600020805480602002602001604051908101604052809291908181526020018280548015611e6757602002820191906000526020600020905b815481526020019060010190808311611e53575b5050505050905060008151905060008167ffffffffffffffff811115611e9057611e8f6136e2565b5b604051908082528060200260200182016040528015611ec957816020015b611eb6613375565b815260200190600190039081611eae5790505b50905060005b8281101561213057600b848281518110611eec57611eeb614414565b5b602002602001015181548110611f0557611f04614414565b5b9060005260206000209060060201604051806101000160405290816000820160009054906101000a900473ffffffffffffffffffffffffffffffffffffffff1673ffffffffffffffffffffffffffffffffffffffff1673ffffffffffffffffffffffffffffffffffffffff1681526020016001820160009054906101000a900473ffffffffffffffffffffffffffffffffffffffff1673ffffffffffffffffffffffffffffffffffffffff1673ffffffffffffffffffffffffffffffffffffffff1681526020016001820160149054906101000a900467ffffffffffffffff1667ffffffffffffffff1667ffffffffffffffff1681526020016002820160009054906101000a900467ffffffffffffffff1667ffffffffffffffff1667ffffffffffffffff1681526020016002820160089054906101000a900467ffffffffffffffff1667ffffffffffffffff1667ffffffffffffffff168152602001600382015481526020016004820154815260200160058201805461208590614253565b80601f01602080910402602001604051908101604052809291908181526020018280546120b190614253565b80156120fe5780601f106120d3576101008083540402835291602001916120fe565b820191906000526020600020905b8154815290600101906020018083116120e157829003601f168201915b50505050508152505082828151811061211a57612119614414565b5b6020026020010181905250806001019050611ecf565b50809350505050919050565b61214461225d565b73ffffffffffffffffffffffffffffffffffffffff168573ffffffffffffffffffffffffffffffffffffffff16148061218a57506121898561218461225d565b6119b8565b5b6121c9576040517f08c379a00000000000000000000000000000000000000000000000000000000081526004016121c090614362565b60405180910390fd5b6121d68585858585612a99565b5050505050565b6001816000016000828254019250508190555050565b60007f01ffc9a7000000000000000000000000000000000000000000000000000000007bffffffffffffffffffffffffffffffffffffffffffffffffffffffff1916827bffffffffffffffffffffffffffffffffffffffffffffffffffffffff1916149050919050565b600033905090565b81518351146122a9576040517f08c379a00000000000000000000000000000000000000000000000000000000081526004016122a090614cb1565b60405180910390fd5b600073ffffffffffffffffffffffffffffffffffffffff168473ffffffffffffffffffffffffffffffffffffffff1603612318576040517f08c379a000000000000000000000000000000000000000000000000000000000815260040161230f90614d43565b60405180910390fd5b600061232261225d565b9050612332818787878787612d34565b60005b84518110156124e357600085828151811061235357612352614414565b5b60200260200101519050600085838151811061237257612371614414565b5b60200260200101519050600080600084815260200190815260200160002060008b73ffffffffffffffffffffffffffffffffffffffff1673ffffffffffffffffffffffffffffffffffffffff16815260200190815260200160002054905081811015612413576040517f08c379a000000000000000000000000000000000000000000000000000000000815260040161240a90614dd5565b60405180910390fd5b81810360008085815260200190815260200160002060008c73ffffffffffffffffffffffffffffffffffffffff1673ffffffffffffffffffffffffffffffffffffffff168152602001908152602001600020819055508160008085815260200190815260200160002060008b73ffffffffffffffffffffffffffffffffffffffff1673ffffffffffffffffffffffffffffffffffffffff16815260200190815260200160002060008282546124c89190614df5565b92505081905550505050806124dc90614472565b9050612335565b508473ffffffffffffffffffffffffffffffffffffffff168673ffffffffffffffffffffffffffffffffffffffff168273ffffffffffffffffffffffffffffffffffffffff167f4a39dc06d4c0dbc64b70af90fd698a233a518aa5d07e595d983b8c0526c8f7fb878760405161255a929190614e29565b60405180910390a4612570818787878787612d4a565b61257e818787878787612d52565b505050505050565b600081600560019054906101000a900473ffffffffffffffffffffffffffffffffffffffff1673ffffffffffffffffffffffffffffffffffffffff166370a08231336040518263ffffffff1660e01b81526004016125e491906140e0565b602060405180830381865afa158015612601573d6000803e3d6000fd5b505050506040513d601f19601f820116820180604052508101906126259190614e75565b1015612632576000612635565b60015b9050919050565b600081600001549050919050565b61265382612586565b612692576040517f08c379a000000000000000000000000000000000000000000000000000000000815260040161268990614f14565b60405180910390fd5b6000600560019054906101000a900473ffffffffffffffffffffffffffffffffffffffff1673ffffffffffffffffffffffffffffffffffffffff166323b872dd3384866040518463ffffffff1660e01b81526004016126f393929190614f34565b6020604051808303816000875af1158015612712573d6000803e3d6000fd5b505050506040513d601f19601f820116820180604052508101906127369190614f80565b905080612778576040517f08c379a000000000000000000000000000000000000000000000000000000000815260040161276f90614ff9565b60405180910390fd5b505050565b600073ffffffffffffffffffffffffffffffffffffffff168473ffffffffffffffffffffffffffffffffffffffff16036127ec576040517f08c379a00000000000000000000000000000000000000000000000000000000081526004016127e39061508b565b60405180910390fd5b60006127f661225d565b9050600061280385612f29565b9050600061281085612f29565b905061282183600089858589612d34565b8460008088815260200190815260200160002060008973ffffffffffffffffffffffffffffffffffffffff1673ffffffffffffffffffffffffffffffffffffffff16815260200190815260200160002060008282546128809190614df5565b925050819055508673ffffffffffffffffffffffffffffffffffffffff16600073ffffffffffffffffffffffffffffffffffffffff168473ffffffffffffffffffffffffffffffffffffffff167fc3d58168c5ae7397731d063d5bbf3d657854427343f4c083240f7aacaa2d0f6289896040516128fe9291906150ab565b60405180910390a461291583600089858589612d4a565b61292483600089898989612fa3565b50505050505050565b8173ffffffffffffffffffffffffffffffffffffffff168373ffffffffffffffffffffffffffffffffffffffff160361299b576040517f08c379a000000000000000000000000000000000000000000000000000000000815260040161299290615146565b60405180910390fd5b80600160008573ffffffffffffffffffffffffffffffffffffffff1673ffffffffffffffffffffffffffffffffffffffff16815260200190815260200160002060008473ffffffffffffffffffffffffffffffffffffffff1673ffffffffffffffffffffffffffffffffffffffff16815260200190815260200160002060006101000a81548160ff0219169083151502179055508173ffffffffffffffffffffffffffffffffffffffff168373ffffffffffffffffffffffffffffffffffffffff167f17307eab39ab6107e8899845ad3d59bd9653f200f220920489ca2b5937696c3183604051612a8c91906135b6565b60405180910390a3505050565b600073ffffffffffffffffffffffffffffffffffffffff168473ffffffffffffffffffffffffffffffffffffffff1603612b08576040517f08c379a0000000000000000000000000000000000000000000000000000000008152600401612aff90614d43565b60405180910390fd5b6000612b1261225d565b90506000612b1f85612f29565b90506000612b2c85612f29565b9050612b3c838989858589612d34565b600080600088815260200190815260200160002060008a73ffffffffffffffffffffffffffffffffffffffff1673ffffffffffffffffffffffffffffffffffffffff16815260200190815260200160002054905085811015612bd3576040517f08c379a0000000000000000000000000000000000000000000000000000000008152600401612bca90614dd5565b60405180910390fd5b85810360008089815260200190815260200160002060008b73ffffffffffffffffffffffffffffffffffffffff1673ffffffffffffffffffffffffffffffffffffffff168152602001908152602001600020819055508560008089815260200190815260200160002060008a73ffffffffffffffffffffffffffffffffffffffff1673ffffffffffffffffffffffffffffffffffffffff1681526020019081526020016000206000828254612c889190614df5565b925050819055508773ffffffffffffffffffffffffffffffffffffffff168973ffffffffffffffffffffffffffffffffffffffff168573ffffffffffffffffffffffffffffffffffffffff167fc3d58168c5ae7397731d063d5bbf3d657854427343f4c083240f7aacaa2d0f628a8a604051612d059291906150ab565b60405180910390a4612d1b848a8a86868a612d4a565b612d29848a8a8a8a8a612fa3565b505050505050505050565b612d4286868686868661317a565b505050505050565b505050505050565b612d718473ffffffffffffffffffffffffffffffffffffffff1661334a565b15612f21578373ffffffffffffffffffffffffffffffffffffffff1663bc197c8187878686866040518663ffffffff1660e01b8152600401612db79594939291906151bb565b6020604051808303816000875af1925050508015612df357506040513d601f19601f82011682018060405250810190612df09190615238565b60015b612e9857612dff615272565b806308c379a003612e5b5750612e13615294565b80612e1e5750612e5d565b806040517f08c379a0000000000000000000000000000000000000000000000000000000008152600401612e529190613661565b60405180910390fd5b505b6040517f08c379a0000000000000000000000000000000000000000000000000000000008152600401612e8f90615396565b60405180910390fd5b63bc197c8160e01b7bffffffffffffffffffffffffffffffffffffffffffffffffffffffff1916817bffffffffffffffffffffffffffffffffffffffffffffffffffffffff191614612f1f576040517f08c379a0000000000000000000000000000000000000000000000000000000008152600401612f1690615428565b60405180910390fd5b505b505050505050565b60606000600167ffffffffffffffff811115612f4857612f476136e2565b5b604051908082528060200260200182016040528015612f765781602001602082028036833780820191505090505b5090508281600081518110612f8e57612f8d614414565b5b60200260200101818152505080915050919050565b612fc28473ffffffffffffffffffffffffffffffffffffffff1661334a565b15613172578373ffffffffffffffffffffffffffffffffffffffff1663f23a6e6187878686866040518663ffffffff1660e01b8152600401613008959493929190615448565b6020604051808303816000875af192505050801561304457506040513d601f19601f820116820180604052508101906130419190615238565b60015b6130e957613050615272565b806308c379a0036130ac5750613064615294565b8061306f57506130ae565b806040517f08c379a00000000000000000000000000000000000000000000000000000000081526004016130a39190613661565b60405180910390fd5b505b6040517f08c379a00000000000000000000000000000000000000000000000000000000081526004016130e090615396565b60405180910390fd5b63f23a6e6160e01b7bffffffffffffffffffffffffffffffffffffffffffffffffffffffff1916817bffffffffffffffffffffffffffffffffffffffffffffffffffffffff191614613170576040517f08c379a000000000000000000000000000000000000000000000000000000000815260040161316790615428565b60405180910390fd5b505b505050505050565b61318886868686868661336d565b600073ffffffffffffffffffffffffffffffffffffffff168573ffffffffffffffffffffffffffffffffffffffff16036132395760005b8351811015613237578281815181106131db576131da614414565b5b6020026020010151600360008684815181106131fa576131f9614414565b5b60200260200101518152602001908152602001600020600082825461321f9190614df5565b925050819055508061323090614472565b90506131bf565b505b600073ffffffffffffffffffffffffffffffffffffffff168473ffffffffffffffffffffffffffffffffffffffff16036133425760005b835181101561334057600084828151811061328e5761328d614414565b5b6020026020010151905060008483815181106132ad576132ac614414565b5b6020026020010151905060006003600084815260200190815260200160002054905081811015613312576040517f08c379a000000000000000000000000000000000000000000000000000000000815260040161330990615514565b60405180910390fd5b81810360036000858152602001908152602001600020819055505050508061333990614472565b9050613270565b505b505050505050565b6000808273ffffffffffffffffffffffffffffffffffffffff163b119050919050565b505050505050565b604051806101000160405280600073ffffffffffffffffffffffffffffffffffffffff168152602001600073ffffffffffffffffffffffffffffffffffffffff168152602001600067ffffffffffffffff168152602001600067ffffffffffffffff168152602001600067ffffffffffffffff1681526020016000815260200160008152602001606081525090565b6000604051905090565b600080fd5b600080fd5b600073ffffffffffffffffffffffffffffffffffffffff82169050919050565b600061344382613418565b9050919050565b61345381613438565b811461345e57600080fd5b50565b6000813590506134708161344a565b92915050565b6000819050919050565b61348981613476565b811461349457600080fd5b50565b6000813590506134a681613480565b92915050565b600080604083850312156134c3576134c261340e565b5b60006134d185828601613461565b92505060206134e285828601613497565b9150509250929050565b6134f581613476565b82525050565b600060208201905061351060008301846134ec565b92915050565b60007fffffffff0000000000000000000000000000000000000000000000000000000082169050919050565b61354b81613516565b811461355657600080fd5b50565b60008135905061356881613542565b92915050565b6000602082840312156135845761358361340e565b5b600061359284828501613559565b91505092915050565b60008115159050919050565b6135b08161359b565b82525050565b60006020820190506135cb60008301846135a7565b92915050565b600081519050919050565b600082825260208201905092915050565b60005b8381101561360b5780820151818401526020810190506135f0565b60008484015250505050565b6000601f19601f8301169050919050565b6000613633826135d1565b61363d81856135dc565b935061364d8185602086016135ed565b61365681613617565b840191505092915050565b6000602082019050818103600083015261367b8184613628565b905092915050565b6000602082840312156136995761369861340e565b5b60006136a784828501613497565b91505092915050565b6000602082840312156136c6576136c561340e565b5b60006136d484828501613461565b91505092915050565b600080fd5b7f4e487b7100000000000000000000000000000000000000000000000000000000600052604160045260246000fd5b61371a82613617565b810181811067ffffffffffffffff82111715613739576137386136e2565b5b80604052505050565b600061374c613404565b90506137588282613711565b919050565b600067ffffffffffffffff821115613778576137776136e2565b5b602082029050602081019050919050565b600080fd5b60006137a161379c8461375d565b613742565b905080838252602082019050602084028301858111156137c4576137c3613789565b5b835b818110156137ed57806137d98882613497565b8452602084019350506020810190506137c6565b5050509392505050565b600082601f83011261380c5761380b6136dd565b5b813561381c84826020860161378e565b91505092915050565b600080fd5b600067ffffffffffffffff821115613845576138446136e2565b5b61384e82613617565b9050602081019050919050565b82818337600083830152505050565b600061387d6138788461382a565b613742565b90508281526020810184848401111561389957613898613825565b5b6138a484828561385b565b509392505050565b600082601f8301126138c1576138c06136dd565b5b81356138d184826020860161386a565b91505092915050565b600080600080600060a086880312156138f6576138f561340e565b5b600061390488828901613461565b955050602061391588828901613461565b945050604086013567ffffffffffffffff81111561393657613935613413565b5b613942888289016137f7565b935050606086013567ffffffffffffffff81111561396357613962613413565b5b61396f888289016137f7565b925050608086013567ffffffffffffffff8111156139905761398f613413565b5b61399c888289016138ac565b9150509295509295909350565b600067ffffffffffffffff8211156139c4576139c36136e2565b5b602082029050602081019050919050565b60006139e86139e3846139a9565b613742565b90508083825260208201905060208402830185811115613a0b57613a0a613789565b5b835b81811015613a345780613a208882613461565b845260208401935050602081019050613a0d565b5050509392505050565b600082601f830112613a5357613a526136dd565b5b8135613a638482602086016139d5565b91505092915050565b60008060408385031215613a8357613a8261340e565b5b600083013567ffffffffffffffff811115613aa157613aa0613413565b5b613aad85828601613a3e565b925050602083013567ffffffffffffffff811115613ace57613acd613413565b5b613ada858286016137f7565b9150509250929050565b600081519050919050565b600082825260208201905092915050565b6000819050602082019050919050565b613b1981613476565b82525050565b6000613b2b8383613b10565b60208301905092915050565b6000602082019050919050565b6000613b4f82613ae4565b613b598185613aef565b9350613b6483613b00565b8060005b83811015613b95578151613b7c8882613b1f565b9750613b8783613b37565b925050600181019050613b68565b5085935050505092915050565b60006020820190508181036000830152613bbc8184613b44565b905092915050565b613bcd81613438565b82525050565b600067ffffffffffffffff82169050919050565b613bf081613bd3565b82525050565b600082825260208201905092915050565b6000613c12826135d1565b613c1c8185613bf6565b9350613c2c8185602086016135ed565b613c3581613617565b840191505092915050565b600061010083016000830151613c596000860182613bc4565b506020830151613c6c6020860182613bc4565b506040830151613c7f6040860182613be7565b506060830151613c926060860182613be7565b506080830151613ca56080860182613be7565b5060a0830151613cb860a0860182613b10565b5060c0830151613ccb60c0860182613b10565b5060e083015184820360e0860152613ce38282613c07565b9150508091505092915050565b60006020820190508181036000830152613d0a8184613c40565b905092915050565b613d1b81613bd3565b8114613d2657600080fd5b50565b600081359050613d3881613d12565b92915050565b600080fd5b60008083601f840112613d5957613d586136dd565b5b8235905067ffffffffffffffff811115613d7657613d75613d3e565b5b602083019150836001820283011115613d9257613d91613789565b5b9250929050565b600080600080600080600060c0888a031215613db857613db761340e565b5b6000613dc68a828b01613d29565b975050602088013567ffffffffffffffff811115613de757613de6613413565b5b613df38a828b01613d43565b96509650506040613e068a828b01613497565b9450506060613e178a828b01613d29565b9350506080613e288a828b01613d29565b92505060a0613e398a828b01613461565b91505092959891949750929550565b600081519050919050565b600082825260208201905092915050565b6000819050602082019050919050565b600061010083016000830151613e8d6000860182613bc4565b506020830151613ea06020860182613bc4565b506040830151613eb36040860182613be7565b506060830151613ec66060860182613be7565b506080830151613ed96080860182613be7565b5060a0830151613eec60a0860182613b10565b5060c0830151613eff60c0860182613b10565b5060e083015184820360e0860152613f178282613c07565b9150508091505092915050565b6000613f308383613e74565b905092915050565b6000602082019050919050565b6000613f5082613e48565b613f5a8185613e53565b935083602082028501613f6c85613e64565b8060005b85811015613fa85784840389528151613f898582613f24565b9450613f9483613f38565b925060208a01995050600181019050613f70565b50829750879550505050505092915050565b60006020820190508181036000830152613fd48184613f45565b905092915050565b600060208284031215613ff257613ff161340e565b5b600082013567ffffffffffffffff8111156140105761400f613413565b5b61401c84828501613a3e565b91505092915050565b61402e8161359b565b811461403957600080fd5b50565b60008135905061404b81614025565b92915050565b600080604083850312156140685761406761340e565b5b600061407685828601613461565b92505060206140878582860161403c565b9150509250929050565b600080604083850312156140a8576140a761340e565b5b60006140b685828601613461565b92505060206140c785828601613461565b9150509250929050565b6140da81613438565b82525050565b60006020820190506140f560008301846140d1565b92915050565b600080600080600060a086880312156141175761411661340e565b5b600061412588828901613461565b955050602061413688828901613461565b945050604061414788828901613497565b935050606061415888828901613497565b925050608086013567ffffffffffffffff81111561417957614178613413565b5b614185888289016138ac565b9150509295509295909350565b7f455243313135353a2061646472657373207a65726f206973206e6f742061207660008201527f616c6964206f776e657200000000000000000000000000000000000000000000602082015250565b60006141ee602a836135dc565b91506141f982614192565b604082019050919050565b6000602082019050818103600083015261421d816141e1565b9050919050565b7f4e487b7100000000000000000000000000000000000000000000000000000000600052602260045260246000fd5b6000600282049050600182168061426b57607f821691505b60208210810361427e5761427d614224565b5b50919050565b7f41646d696e73206f6e6c79000000000000000000000000000000000000000000600082015250565b60006142ba600b836135dc565b91506142c582614284565b602082019050919050565b600060208201905081810360008301526142e9816142ad565b9050919050565b7f455243313135353a2063616c6c6572206973206e6f7420746f6b656e206f776e60008201527f6572206f7220617070726f766564000000000000000000000000000000000000602082015250565b600061434c602e836135dc565b9150614357826142f0565b604082019050919050565b6000602082019050818103600083015261437b8161433f565b9050919050565b7f455243313135353a206163636f756e747320616e6420696473206c656e67746860008201527f206d69736d617463680000000000000000000000000000000000000000000000602082015250565b60006143de6029836135dc565b91506143e982614382565b604082019050919050565b6000602082019050818103600083015261440d816143d1565b9050919050565b7f4e487b7100000000000000000000000000000000000000000000000000000000600052603260045260246000fd5b7f4e487b7100000000000000000000000000000000000000000000000000000000600052601160045260246000fd5b600061447d82613476565b91507fffffffffffffffffffffffffffffffffffffffffffffffffffffffffffffffff82036144af576144ae614443565b5b600182019050919050565b7f5469636b65743a206e6f7420617661696c61626c650000000000000000000000600082015250565b60006144f06015836135dc565b91506144fb826144ba565b602082019050919050565b6000602082019050818103600083015261451f816144e3565b9050919050565b7f5469636b65743a20496e73756666696369656e742048656e6b616b7520546f6b60008201527f656e2042616c616e636500000000000000000000000000000000000000000000602082015250565b6000614582602a836135dc565b915061458d82614526565b604082019050919050565b600060208201905081810360008301526145b181614575565b9050919050565b600081905092915050565b60006145cf83856145b8565b93506145dc83858461385b565b82840190509392505050565b60006145f58284866145c3565b91508190509392505050565b7f5469636b65743a20696e76616c696420706172616d7300000000000000000000600082015250565b60006146376016836135dc565b915061464282614601565b602082019050919050565b600060208201905081810360008301526146668161462a565b9050919050565b60008190508160005260206000209050919050565b60006020601f8301049050919050565b600082821b905092915050565b6000600883026146cf7fffffffffffffffffffffffffffffffffffffffffffffffffffffffffffffffff82614692565b6146d98683614692565b95508019841693508086168417925050509392505050565b6000819050919050565b600061471661471161470c84613476565b6146f1565b613476565b9050919050565b6000819050919050565b614730836146fb565b61474461473c8261471d565b84845461469f565b825550505050565b600090565b61475961474c565b614764818484614727565b505050565b5b818110156147885761477d600082614751565b60018101905061476a565b5050565b601f8211156147cd5761479e8161466d565b6147a784614682565b810160208510156147b6578190505b6147ca6147c285614682565b830182614769565b50505b505050565b600082821c905092915050565b60006147f0600019846008026147d2565b1980831691505092915050565b600061480983836147df565b9150826002028217905092915050565b614822826135d1565b67ffffffffffffffff81111561483b5761483a6136e2565b5b6148458254614253565b61485082828561478c565b600060209050601f8311600181146148835760008415614871578287015190505b61487b85826147fd565b8655506148e3565b601f1984166148918661466d565b60005b828110156148b957848901518255600182019150602085019450602081019050614894565b868310156148d657848901516148d2601f8916826147df565b8355505b6001600288020188555050505b505050505050565b6148f481613bd3565b82525050565b600061490683856135dc565b935061491383858461385b565b61491c83613617565b840190509392505050565b600060c08201905061493c600083018a6148eb565b61494960208301896148eb565b61495660408301886148eb565b61496360608301876134ec565b61497060808301866134ec565b81810360a08301526149838184866148fa565b905098975050505050505050565b7f4e656564206f6e65206f72206d6f7265206e65772061646d696e730000000000600082015250565b60006149c7601b836135dc565b91506149d282614991565b602082019050919050565b600060208201905081810360008301526149f6816149ba565b9050919050565b7f5469636b65743a204e6f74206d696e7461626c65000000000000000000000000600082015250565b6000614a336014836135dc565b9150614a3e826149fd565b602082019050919050565b60006020820190508181036000830152614a6281614a26565b9050919050565b7f5469636b65743a20596f7520616c72656164792068617665207468697320746960008201527f636b657400000000000000000000000000000000000000000000000000000000602082015250565b6000614ac56024836135dc565b9150614ad082614a69565b604082019050919050565b60006020820190508181036000830152614af481614ab8565b9050919050565b7f5469636b65743a204e6f74206f70656e20796574000000000000000000000000600082015250565b6000614b316014836135dc565b9150614b3c82614afb565b602082019050919050565b60006020820190508181036000830152614b6081614b24565b9050919050565b7f5469636b65743a20416c726561647920636c6f73656400000000000000000000600082015250565b6000614b9d6016836135dc565b9150614ba882614b67565b602082019050919050565b60006020820190508181036000830152614bcc81614b90565b9050919050565b7f5469636b65743a204d696e74206c696d69742072656163686564000000000000600082015250565b6000614c09601a836135dc565b9150614c1482614bd3565b602082019050919050565b60006020820190508181036000830152614c3881614bfc565b9050919050565b7f455243313135353a2069647320616e6420616d6f756e7473206c656e6774682060008201527f6d69736d61746368000000000000000000000000000000000000000000000000602082015250565b6000614c9b6028836135dc565b9150614ca682614c3f565b604082019050919050565b60006020820190508181036000830152614cca81614c8e565b9050919050565b7f455243313135353a207472616e7366657220746f20746865207a65726f20616460008201527f6472657373000000000000000000000000000000000000000000000000000000602082015250565b6000614d2d6025836135dc565b9150614d3882614cd1565b604082019050919050565b60006020820190508181036000830152614d5c81614d20565b9050919050565b7f455243313135353a20696e73756666696369656e742062616c616e636520666f60008201527f72207472616e7366657200000000000000000000000000000000000000000000602082015250565b6000614dbf602a836135dc565b9150614dca82614d63565b604082019050919050565b60006020820190508181036000830152614dee81614db2565b9050919050565b6000614e0082613476565b9150614e0b83613476565b9250828201905080821115614e2357614e22614443565b5b92915050565b60006040820190508181036000830152614e438185613b44565b90508181036020830152614e578184613b44565b90509392505050565b600081519050614e6f81613480565b92915050565b600060208284031215614e8b57614e8a61340e565b5b6000614e9984828501614e60565b91505092915050565b7f5469636b65743a20496e73756666696369656e742048656e6b616b755632207460008201527f6f6b656e00000000000000000000000000000000000000000000000000000000602082015250565b6000614efe6024836135dc565b9150614f0982614ea2565b604082019050919050565b60006020820190508181036000830152614f2d81614ef1565b9050919050565b6000606082019050614f4960008301866140d1565b614f5660208301856140d1565b614f6360408301846134ec565b949350505050565b600081519050614f7a81614025565b92915050565b600060208284031215614f9657614f9561340e565b5b6000614fa484828501614f6b565b91505092915050565b7f5469636b65743a2048656e6b616b75207472616e73666572206661696c656400600082015250565b6000614fe3601f836135dc565b9150614fee82614fad565b602082019050919050565b6000602082019050818103600083015261501281614fd6565b9050919050565b7f455243313135353a206d696e7420746f20746865207a65726f2061646472657360008201527f7300000000000000000000000000000000000000000000000000000000000000602082015250565b60006150756021836135dc565b915061508082615019565b604082019050919050565b600060208201905081810360008301526150a481615068565b9050919050565b60006040820190506150c060008301856134ec565b6150cd60208301846134ec565b9392505050565b7f455243313135353a2073657474696e6720617070726f76616c2073746174757360008201527f20666f722073656c660000000000000000000000000000000000000000000000602082015250565b60006151306029836135dc565b915061513b826150d4565b604082019050919050565b6000602082019050818103600083015261515f81615123565b9050919050565b600081519050919050565b600082825260208201905092915050565b600061518d82615166565b6151978185615171565b93506151a78185602086016135ed565b6151b081613617565b840191505092915050565b600060a0820190506151d060008301886140d1565b6151dd60208301876140d1565b81810360408301526151ef8186613b44565b905081810360608301526152038185613b44565b905081810360808301526152178184615182565b90509695505050505050565b60008151905061523281613542565b92915050565b60006020828403121561524e5761524d61340e565b5b600061525c84828501615223565b91505092915050565b60008160e01c9050919050565b600060033d11156152915760046000803e61528e600051615265565b90505b90565b600060443d10615321576152a6613404565b60043d036004823e80513d602482011167ffffffffffffffff821117156152ce575050615321565b808201805167ffffffffffffffff8111156152ec5750505050615321565b80602083010160043d038501811115615309575050505050615321565b61531882602001850186613711565b82955050505050505b90565b7f455243313135353a207472616e7366657220746f206e6f6e2d4552433131353560008201527f526563656976657220696d706c656d656e746572000000000000000000000000602082015250565b60006153806034836135dc565b915061538b82615324565b604082019050919050565b600060208201905081810360008301526153af81615373565b9050919050565b7f455243313135353a204552433131353552656365697665722072656a6563746560008201527f6420746f6b656e73000000000000000000000000000000000000000000000000602082015250565b60006154126028836135dc565b915061541d826153b6565b604082019050919050565b6000602082019050818103600083015261544181615405565b9050919050565b600060a08201905061545d60008301886140d1565b61546a60208301876140d1565b61547760408301866134ec565b61548460608301856134ec565b81810360808301526154968184615182565b90509695505050505050565b7f455243313135353a206275726e20616d6f756e74206578636565647320746f7460008201527f616c537570706c79000000000000000000000000000000000000000000000000602082015250565b60006154fe6028836135dc565b9150615509826154a2565b604082019050919050565b6000602082019050818103600083015261552d816154f1565b905091905056fea264697066735822122099f36e13c2db20b446491145c88b0af456529e0f7bb1f462088e8396d42d39bd64736f6c63430008110033",
  "linkReferences": {},
  "deployedLinkReferences": {}
}